{
  "contractName": "Main",
  "abi": [
    {
      "inputs": [],
      "stateMutability": "nonpayable",
      "type": "constructor"
    },
    {
      "inputs": [],
      "name": "Unauthorized",
      "type": "error"
    },
    {
      "anonymous": false,
      "inputs": [
        {
          "indexed": false,
          "internalType": "address",
          "name": "addressParticipant",
          "type": "address"
        },
        {
          "indexed": false,
          "internalType": "address",
          "name": "addressOrganization",
          "type": "address"
        }
      ],
      "name": "AddressWhitelisted",
      "type": "event"
    },
    {
      "anonymous": false,
      "inputs": [
        {
          "indexed": false,
          "internalType": "address",
          "name": "addressOrga",
          "type": "address"
        }
      ],
      "name": "OrganizationRegistered",
      "type": "event"
    },
    {
      "anonymous": false,
      "inputs": [
        {
          "indexed": false,
          "internalType": "address",
          "name": "addressParticipant",
          "type": "address"
        }
      ],
      "name": "RemovedFromWhitelist",
      "type": "event"
    },
    {
      "inputs": [],
      "name": "getThematics",
      "outputs": [
        {
          "internalType": "string[]",
          "name": "",
          "type": "string[]"
        }
      ],
      "stateMutability": "view",
      "type": "function",
      "constant": true
    },
    {
      "inputs": [],
      "name": "getCountries",
      "outputs": [
        {
          "internalType": "string[]",
          "name": "",
          "type": "string[]"
        }
      ],
      "stateMutability": "view",
      "type": "function",
      "constant": true
    },
    {
      "inputs": [
        {
          "internalType": "string",
          "name": "name",
          "type": "string"
        },
        {
          "internalType": "uint256[]",
          "name": "thematicIds",
          "type": "uint256[]"
        },
        {
          "internalType": "uint256",
          "name": "countryId",
          "type": "uint256"
        }
      ],
      "name": "registerOrganisation",
      "outputs": [],
      "stateMutability": "nonpayable",
      "type": "function"
    },
    {
      "inputs": [
        {
          "internalType": "address",
          "name": "_addrOrganisation",
          "type": "address"
        }
      ],
      "name": "participantIsWhiteListed",
      "outputs": [
        {
          "internalType": "bool",
          "name": "",
          "type": "bool"
        }
      ],
      "stateMutability": "view",
      "type": "function",
      "constant": true
    },
    {
      "inputs": [
        {
          "internalType": "address",
          "name": "_addrOrga",
          "type": "address"
        }
      ],
      "name": "removeFromWhitelist",
      "outputs": [],
      "stateMutability": "nonpayable",
      "type": "function"
    },
    {
      "inputs": [
        {
          "internalType": "address",
          "name": "_addrOrga",
          "type": "address"
        },
        {
          "internalType": "address",
          "name": "_addrParticipant",
          "type": "address"
        }
      ],
      "name": "addParticipant",
      "outputs": [],
      "stateMutability": "nonpayable",
      "type": "function"
    }
  ],
  "bytecode": "0x60806040526040518061016001604052806040518060400160405280600981526020017f656475636174696f6e000000000000000000000000000000000000000000000081525081526020016040518060400160405280600b81526020017f747261666669636b696e6700000000000000000000000000000000000000000081525081526020016040518060400160405280601181526020017f646f6d65737469632076696f6c656e636500000000000000000000000000000081525081526020016040518060400160405280601081526020017f776f6d656e2773206d6f76656d656e740000000000000000000000000000000081525081526020016040518060400160405280600981526020017f63616d706169676e73000000000000000000000000000000000000000000000081525081526020016040518060400160405280600a81526020017f726f6d6120776f6d656e0000000000000000000000000000000000000000000081525081526020016040518060400160405280600881526020017f6964656e7469747900000000000000000000000000000000000000000000000081525081526020016040518060400160405280600781526020017f6c6f6262696e670000000000000000000000000000000000000000000000000081525081526020016040518060400160405280601381526020017f6d617267696e616c697a65642067726f7570730000000000000000000000000081525081526020016040518060400160405280601181526020017f73657875616c206861726173736d656e7400000000000000000000000000000081525081526020016040518060400160405280600e81526020017f776f6d656e277320726967687473000000000000000000000000000000000000815250815250600390600b620002a9929190620006f6565b506040518060c001604052806040518060400160405280600681526020017f536572626961000000000000000000000000000000000000000000000000000081525081526020016040518060400160405280600781526020017f43726f617469610000000000000000000000000000000000000000000000000081525081526020016040518060400160405280600a81526020017f4d6f6e74656e6567726f0000000000000000000000000000000000000000000081525081526020016040518060400160405280601681526020017f426f736e696120616e64204865726365676f76696e610000000000000000000081525081526020016040518060400160405280600881526020017f536c6f76656e696100000000000000000000000000000000000000000000000081525081526020016040518060400160405280600981526020017f4d616365646f6e696100000000000000000000000000000000000000000000008152508152506004906006620004279291906200075d565b503480156200043557600080fd5b50620004466200045c60201b60201c565b62000456620005a960201b60201c565b62000a6c565b6000600380549050905060005b6001826200047891906200094f565b811015620005a5576200048a620007c4565b8181600001818152505060038281548110620004ab57620004aa6200098a565b5b906000526020600020018054620004c290620009e8565b80601f0160208091040260200160405190810160405280929190818152602001828054620004f090620009e8565b8015620005415780601f10620005155761010080835404028352916020019162000541565b820191906000526020600020905b8154815290600101906020018083116200052357829003601f168201915b5050505050816020018190525080600260008481526020019081526020016000206000820151816000015560208201518160010190805190602001906200058a929190620007de565b509050505080806200059c9062000a1e565b91505062000469565b5050565b6000600480549050905060005b600182620005c591906200094f565b811015620006f257620005d76200086f565b8181600001818152505060048281548110620005f857620005f76200098a565b5b9060005260206000200180546200060f90620009e8565b80601f01602080910402602001604051908101604052809291908181526020018280546200063d90620009e8565b80156200068e5780601f1062000662576101008083540402835291602001916200068e565b820191906000526020600020905b8154815290600101906020018083116200067057829003601f168201915b505050505081602001819052508060016000848152602001908152602001600020600082015181600001556020820151816001019080519060200190620006d7929190620007de565b50905050508080620006e99062000a1e565b915050620005b6565b5050565b8280548282559060005260206000209081019282156200074a579160200282015b828111156200074957825182908051906020019062000738929190620007de565b509160200191906001019062000717565b5b50905062000759919062000889565b5090565b828054828255906000526020600020908101928215620007b1579160200282015b82811115620007b05782518290805190602001906200079f929190620007de565b50916020019190600101906200077e565b5b509050620007c0919062000889565b5090565b604051806040016040528060008152602001606081525090565b828054620007ec90620009e8565b90600052602060002090601f0160209004810192826200081057600085556200085c565b82601f106200082b57805160ff19168380011785556200085c565b828001600101855582156200085c579182015b828111156200085b5782518255916020019190600101906200083e565b5b5090506200086b9190620008b1565b5090565b604051806040016040528060008152602001606081525090565b5b80821115620008ad5760008181620008a39190620008d0565b506001016200088a565b5090565b5b80821115620008cc576000816000905550600101620008b2565b5090565b508054620008de90620009e8565b6000825580601f10620008f2575062000913565b601f016020900490600052602060002090810190620009129190620008b1565b5b50565b6000819050919050565b7f4e487b7100000000000000000000000000000000000000000000000000000000600052601160045260246000fd5b60006200095c8262000916565b9150620009698362000916565b9250828210156200097f576200097e62000920565b5b828203905092915050565b7f4e487b7100000000000000000000000000000000000000000000000000000000600052603260045260246000fd5b7f4e487b7100000000000000000000000000000000000000000000000000000000600052602260045260246000fd5b6000600282049050600182168062000a0157607f821691505b6020821081141562000a185762000a17620009b9565b5b50919050565b600062000a2b8262000916565b91507fffffffffffffffffffffffffffffffffffffffffffffffffffffffffffffffff82141562000a615762000a6062000920565b5b600182019050919050565b6114778062000a7c6000396000f3fe608060405234801561001057600080fd5b50600436106100625760003560e01c806365443596146100675780636bf9fe17146100835780637dd7e458146100a15780638ab1d681146100d1578063beca8009146100ed578063d35ada321461010b575b600080fd5b610081600480360381019061007c9190610db0565b610127565b005b61008b61044c565b6040516100989190610f85565b60405180910390f35b6100bb60048036038101906100b69190611005565b610525565b6040516100c8919061104d565b60405180910390f35b6100eb60048036038101906100e69190611005565b61064f565b005b6100f5610720565b6040516101029190610f85565b60405180910390f35b61012560048036038101906101209190611068565b6107f9565b005b600015156000803373ffffffffffffffffffffffffffffffffffffffff1673ffffffffffffffffffffffffffffffffffffffff16815260200190815260200160002060010160149054906101000a900460ff161515146101bc576040517f08c379a00000000000000000000000000000000000000000000000000000000081526004016101b390611105565b60405180910390fd5b6000825111610200576040517f08c379a00000000000000000000000000000000000000000000000000000000081526004016101f790611171565b60405180910390fd5b6000811015610244576040517f08c379a000000000000000000000000000000000000000000000000000000000815260040161023b906111dd565b60405180910390fd5b336000803373ffffffffffffffffffffffffffffffffffffffff1673ffffffffffffffffffffffffffffffffffffffff16815260200190815260200160002060010160006101000a81548173ffffffffffffffffffffffffffffffffffffffff021916908373ffffffffffffffffffffffffffffffffffffffff16021790555060016000803373ffffffffffffffffffffffffffffffffffffffff1673ffffffffffffffffffffffffffffffffffffffff16815260200190815260200160002060010160146101000a81548160ff021916908315150217905550816000803373ffffffffffffffffffffffffffffffffffffffff1673ffffffffffffffffffffffffffffffffffffffff1681526020019081526020016000206004019080519060200190610373929190610a68565b50806000803373ffffffffffffffffffffffffffffffffffffffff1673ffffffffffffffffffffffffffffffffffffffff16815260200190815260200160002060050181905550826000803373ffffffffffffffffffffffffffffffffffffffff1673ffffffffffffffffffffffffffffffffffffffff168152602001908152602001600020600001908051906020019061040f929190610ab5565b507f2178e9c576507a4c15d3deab489af3f699a3dedbff9a7ef27c43a017027710e53360405161043f919061120c565b60405180910390a1505050565b60606003805480602002602001604051908101604052809291908181526020016000905b8282101561051c57838290600052602060002001805461048f90611256565b80601f01602080910402602001604051908101604052809291908181526020018280546104bb90611256565b80156105085780601f106104dd57610100808354040283529160200191610508565b820191906000526020600020905b8154815290600101906020018083116104eb57829003601f168201915b505050505081526020019060010190610470565b50505050905090565b6000600115156000808473ffffffffffffffffffffffffffffffffffffffff1673ffffffffffffffffffffffffffffffffffffffff16815260200190815260200160002060010160149054906101000a900460ff161515146105bc576040517f08c379a00000000000000000000000000000000000000000000000000000000081526004016105b3906112d4565b60405180910390fd5b6000808373ffffffffffffffffffffffffffffffffffffffff1673ffffffffffffffffffffffffffffffffffffffff16815260200190815260200160002060020160003373ffffffffffffffffffffffffffffffffffffffff1673ffffffffffffffffffffffffffffffffffffffff16815260200190815260200160002060009054906101000a900460ff169050919050565b60008060008373ffffffffffffffffffffffffffffffffffffffff1673ffffffffffffffffffffffffffffffffffffffff16815260200190815260200160002060020160003373ffffffffffffffffffffffffffffffffffffffff1673ffffffffffffffffffffffffffffffffffffffff16815260200190815260200160002060006101000a81548160ff0219169083151502179055507fcdd2e9b91a56913d370075169cefa1602ba36be5301664f752192bb1709df75733604051610715919061120c565b60405180910390a150565b60606004805480602002602001604051908101604052809291908181526020016000905b828210156107f057838290600052602060002001805461076390611256565b80601f016020809104026020016040519081016040528092919081815260200182805461078f90611256565b80156107dc5780601f106107b1576101008083540402835291602001916107dc565b820191906000526020600020905b8154815290600101906020018083116107bf57829003601f168201915b505050505081526020019060010190610744565b50505050905090565b3373ffffffffffffffffffffffffffffffffffffffff166000808473ffffffffffffffffffffffffffffffffffffffff1673ffffffffffffffffffffffffffffffffffffffff16815260200190815260200160002060010160009054906101000a900473ffffffffffffffffffffffffffffffffffffffff1673ffffffffffffffffffffffffffffffffffffffff16146108c8576040517f08c379a00000000000000000000000000000000000000000000000000000000081526004016108bf90611366565b60405180910390fd5b6000808373ffffffffffffffffffffffffffffffffffffffff1673ffffffffffffffffffffffffffffffffffffffff16815260200190815260200160002060020160008273ffffffffffffffffffffffffffffffffffffffff1673ffffffffffffffffffffffffffffffffffffffff16815260200190815260200160002060009054906101000a900460ff1615610994576040517f08c379a000000000000000000000000000000000000000000000000000000000815260040161098b906113f8565b60405180910390fd5b60016000808473ffffffffffffffffffffffffffffffffffffffff1673ffffffffffffffffffffffffffffffffffffffff16815260200190815260200160002060020160008373ffffffffffffffffffffffffffffffffffffffff1673ffffffffffffffffffffffffffffffffffffffff16815260200190815260200160002060006101000a81548160ff0219169083151502179055507f3d8a67432904f5c76d317bd3d7568237471009d9a286cd487736d0e2d103e6ad8183604051610a5c929190611418565b60405180910390a15050565b828054828255906000526020600020908101928215610aa4579160200282015b82811115610aa3578251825591602001919060010190610a88565b5b509050610ab19190610b3b565b5090565b828054610ac190611256565b90600052602060002090601f016020900481019282610ae35760008555610b2a565b82601f10610afc57805160ff1916838001178555610b2a565b82800160010185558215610b2a579182015b82811115610b29578251825591602001919060010190610b0e565b5b509050610b379190610b3b565b5090565b5b80821115610b54576000816000905550600101610b3c565b5090565b6000604051905090565b600080fd5b600080fd5b600080fd5b600080fd5b6000601f19601f8301169050919050565b7f4e487b7100000000000000000000000000000000000000000000000000000000600052604160045260246000fd5b610bbf82610b76565b810181811067ffffffffffffffff82111715610bde57610bdd610b87565b5b80604052505050565b6000610bf1610b58565b9050610bfd8282610bb6565b919050565b600067ffffffffffffffff821115610c1d57610c1c610b87565b5b610c2682610b76565b9050602081019050919050565b82818337600083830152505050565b6000610c55610c5084610c02565b610be7565b905082815260208101848484011115610c7157610c70610b71565b5b610c7c848285610c33565b509392505050565b600082601f830112610c9957610c98610b6c565b5b8135610ca9848260208601610c42565b91505092915050565b600067ffffffffffffffff821115610ccd57610ccc610b87565b5b602082029050602081019050919050565b600080fd5b6000819050919050565b610cf681610ce3565b8114610d0157600080fd5b50565b600081359050610d1381610ced565b92915050565b6000610d2c610d2784610cb2565b610be7565b90508083825260208201905060208402830185811115610d4f57610d4e610cde565b5b835b81811015610d785780610d648882610d04565b845260208401935050602081019050610d51565b5050509392505050565b600082601f830112610d9757610d96610b6c565b5b8135610da7848260208601610d19565b91505092915050565b600080600060608486031215610dc957610dc8610b62565b5b600084013567ffffffffffffffff811115610de757610de6610b67565b5b610df386828701610c84565b935050602084013567ffffffffffffffff811115610e1457610e13610b67565b5b610e2086828701610d82565b9250506040610e3186828701610d04565b9150509250925092565b600081519050919050565b600082825260208201905092915050565b6000819050602082019050919050565b600081519050919050565b600082825260208201905092915050565b60005b83811015610ea1578082015181840152602081019050610e86565b83811115610eb0576000848401525b50505050565b6000610ec182610e67565b610ecb8185610e72565b9350610edb818560208601610e83565b610ee481610b76565b840191505092915050565b6000610efb8383610eb6565b905092915050565b6000602082019050919050565b6000610f1b82610e3b565b610f258185610e46565b935083602082028501610f3785610e57565b8060005b85811015610f735784840389528151610f548582610eef565b9450610f5f83610f03565b925060208a01995050600181019050610f3b565b50829750879550505050505092915050565b60006020820190508181036000830152610f9f8184610f10565b905092915050565b600073ffffffffffffffffffffffffffffffffffffffff82169050919050565b6000610fd282610fa7565b9050919050565b610fe281610fc7565b8114610fed57600080fd5b50565b600081359050610fff81610fd9565b92915050565b60006020828403121561101b5761101a610b62565b5b600061102984828501610ff0565b91505092915050565b60008115159050919050565b61104781611032565b82525050565b6000602082019050611062600083018461103e565b92915050565b6000806040838503121561107f5761107e610b62565b5b600061108d85828601610ff0565b925050602061109e85828601610ff0565b9150509250929050565b600082825260208201905092915050565b7f4f7267616e69736174696f6e20616c7265616479207265676973746572656400600082015250565b60006110ef601f836110a8565b91506110fa826110b9565b602082019050919050565b6000602082019050818103600083015261111e816110e2565b9050919050565b7f4f7267616e69736174696f6e206d7573742068617665207468656d6174696373600082015250565b600061115b6020836110a8565b915061116682611125565b602082019050919050565b6000602082019050818103600083015261118a8161114e565b9050919050565b7f4f7267616e69736174696f6e206d7573742068617665206120636f756e747279600082015250565b60006111c76020836110a8565b91506111d282611191565b602082019050919050565b600060208201905081810360008301526111f6816111ba565b9050919050565b61120681610fc7565b82525050565b600060208201905061122160008301846111fd565b92915050565b7f4e487b7100000000000000000000000000000000000000000000000000000000600052602260045260246000fd5b6000600282049050600182168061126e57607f821691505b6020821081141561128257611281611227565b5b50919050565b7f6f7267616e69736174696f6e206e6f7420726567697374657265640000000000600082015250565b60006112be601b836110a8565b91506112c982611288565b602082019050919050565b600060208201905081810360008301526112ed816112b1565b9050919050565b7f596f7520617265206e6f7420746865206f776e6572206f6620746865206f726760008201527f616e697a6174696f6e0000000000000000000000000000000000000000000000602082015250565b60006113506029836110a8565b915061135b826112f4565b604082019050919050565b6000602082019050818103600083015261137f81611343565b9050919050565b7f4164647265737320616c72656164792077686974656c697374656420666f722060008201527f74686973206f7267616e697a6174696f6e000000000000000000000000000000602082015250565b60006113e26031836110a8565b91506113ed82611386565b604082019050919050565b60006020820190508181036000830152611411816113d5565b9050919050565b600060408201905061142d60008301856111fd565b61143a60208301846111fd565b939250505056fea26469706673582212207c441741bbd3161e3e63dce6380f166acf1a6339746dbcd103bc6a9ec1ca652b64736f6c634300080b0033",
  "immutableReferences": {},
  "source": "// SPDX-License-Identifier: GPL-3.0\npragma solidity 0.8.11;\n\ncontract Main {\n    struct Participant {\n        address ethAddress;\n        address organisation;\n        bool isRegistered;\n    }\n\n    struct Organization {\n        string name;\n        address ethAddress;\n        bool isRegistered;\n        mapping (address => bool) participantIsWhitelisted;\n        mapping (address => Participant) participant;\n        uint[] themes;\n        uint country;\n    }\n\n    struct Theme {\n        uint id;\n        string name;\n    }\n\n     struct Country {\n        uint id;\n        string name;\n    }\n\n    event OrganizationRegistered(address addressOrga);\n    event AddressWhitelisted(address addressParticipant, address addressOrganization); \n    event RemovedFromWhitelist(address addressParticipant);\n\n    mapping (address => Organization) organisations;\n    mapping (uint => Country)  private countries;\n    mapping (uint => Theme)  private thematics;\n    string[] private themeList = [\n        \"education\",\n        \"trafficking\",\n        \"domestic violence\",\n        \"women's movement\",\n        \"campaigns\",\n        \"roma women\",\n        \"identity\",\n        \"lobbing\",\n        \"marginalized groups\",\n        \"sexual harassment\",\n        \"women's rights\"\n    ];\n\n     string[] private countryList = [\n        \"Serbia\",\n        \"Croatia\",\n        \"Montenegro\",\n        \"Bosnia and Hercegovina\",\n        \"Slovenia\",\n        \"Macedonia\"\n    ];\n\n    constructor() {\n        setThematics();\n        setCountries();\n    }\n\n    // Sender not authorized for this operation.\n    error Unauthorized();\n\n    // Prepends a check that only passes\n    // if the function is called from\n    // a certain address.\n    modifier onlyBy(address _account)\n    {\n        if (msg.sender != _account)\n            revert Unauthorized();\n        _;\n    }\n\n    function setThematics() private {\n        uint numThemes = themeList.length;\n        for (uint i=0; i < numThemes-1; i++) {\n            Theme memory theme;\n            theme.id = i;\n            theme.name = themeList[i];\n            thematics[i] = theme;\n        }\n    }\n\n    function setCountries() private {\n        uint numCountries = countryList.length;\n        for (uint i=0; i < numCountries-1; i++) {\n            Country memory country;\n            country.id = i;\n            country.name = countryList[i];\n            countries[i] = country;\n        }\n    }\n\n    function getThematics() public view returns(string[] memory) {        \n        return themeList;\n    }\n\n    function getCountries() public view returns(string[] memory) {        \n        return countryList;\n    }\n\n     function registerOrganisation(string memory name, uint[] memory thematicIds, uint countryId) external {\n        require(organisations[msg.sender].isRegistered == false, 'Organisation already registered');\n        require(thematicIds.length > 0, 'Organisation must have thematics');\n        require(countryId >= 0, 'Organisation must have a country');\n        organisations[msg.sender].ethAddress = msg.sender;\n        organisations[msg.sender].isRegistered = true;\n        organisations[msg.sender].themes = thematicIds;\n        organisations[msg.sender].country = countryId;\n        organisations[msg.sender].name = name;\n        emit OrganizationRegistered(msg.sender);\n    }\n    \n    function participantIsWhiteListed(address _addrOrganisation) external view returns(bool) {\n        require(organisations[_addrOrganisation].isRegistered == true, 'organisation not registered');\n        return organisations[_addrOrganisation].participantIsWhitelisted[msg.sender];\n    }\n\n    function removeFromWhitelist(address _addrOrga) external {\n        organisations[_addrOrga].participantIsWhitelisted[msg.sender] = false;\n        emit RemovedFromWhitelist(msg.sender);\n    }\n\n    function addParticipant(address _addrOrga, address _addrParticipant ) external {\n        require(organisations[_addrOrga].ethAddress == msg.sender, 'You are not the owner of the organization');\n        require(!organisations[_addrOrga].participantIsWhitelisted[_addrParticipant], 'Address already whitelisted for this organization');\n        organisations[_addrOrga].participantIsWhitelisted[_addrParticipant] = true;\n        emit AddressWhitelisted(_addrParticipant, _addrOrga);\n    }\n\n}   ",
  "sourcePath": "/Users/urdoom/blockchain_development/Alyra/YU-GO/template/Truffle/contracts/Main.sol",
  "compiler": {
    "name": "solc",
    "version": "0.8.11+commit.d7f03943.Emscripten.clang"
  },
  "schemaVersion": "3.4.3",
  "updatedAt": "2021-12-29T18:31:24.929Z",
  "networkType": "ethereum",
  "devdoc": {
    "kind": "dev",
    "methods": {},
    "version": 1
  },
  "userdoc": {
    "kind": "user",
    "methods": {},
    "version": 1
  }
}