{
  "contractName": "Main",
  "abi": [
    {
      "inputs": [],
      "stateMutability": "nonpayable",
      "type": "constructor"
    },
    {
      "inputs": [],
      "name": "Unauthorized",
      "type": "error"
    },
    {
      "anonymous": false,
      "inputs": [
        {
          "indexed": false,
          "internalType": "address",
          "name": "addressParticipant",
          "type": "address"
        },
        {
          "indexed": false,
          "internalType": "address",
          "name": "addressOrganization",
          "type": "address"
        }
      ],
      "name": "AddressWhitelisted",
      "type": "event"
    },
    {
      "anonymous": false,
      "inputs": [
        {
          "indexed": false,
          "internalType": "address",
          "name": "addressOrga",
          "type": "address"
        }
      ],
      "name": "OrganizationRegistered",
      "type": "event"
    },
    {
      "anonymous": false,
      "inputs": [
        {
          "indexed": false,
          "internalType": "address",
          "name": "addressParticipant",
          "type": "address"
        }
      ],
      "name": "RemovedFromWhitelist",
      "type": "event"
    },
    {
      "inputs": [],
      "name": "getThematics",
      "outputs": [
        {
          "internalType": "string[]",
          "name": "",
          "type": "string[]"
        }
      ],
      "stateMutability": "view",
      "type": "function",
      "constant": true
    },
    {
      "inputs": [],
      "name": "getCountries",
      "outputs": [
        {
          "internalType": "string[]",
          "name": "",
          "type": "string[]"
        }
      ],
      "stateMutability": "view",
      "type": "function",
      "constant": true
    },
    {
      "inputs": [
        {
          "internalType": "string",
          "name": "name",
          "type": "string"
        },
        {
          "internalType": "uint256[]",
          "name": "thematicIds",
          "type": "uint256[]"
        },
        {
          "internalType": "uint256",
          "name": "countryId",
          "type": "uint256"
        }
      ],
      "name": "registerOrganisation",
      "outputs": [],
      "stateMutability": "nonpayable",
      "type": "function"
    },
    {
      "inputs": [],
      "name": "testConnection",
      "outputs": [
        {
          "internalType": "string",
          "name": "",
          "type": "string"
        }
      ],
      "stateMutability": "view",
      "type": "function",
      "constant": true
    },
    {
      "inputs": [
        {
          "internalType": "address",
          "name": "_addrOrganisation",
          "type": "address"
        }
      ],
      "name": "participantIsWhiteListed",
      "outputs": [
        {
          "internalType": "bool",
          "name": "",
          "type": "bool"
        }
      ],
      "stateMutability": "view",
      "type": "function",
      "constant": true
    },
    {
      "inputs": [
        {
          "internalType": "address",
          "name": "_addrOrga",
          "type": "address"
        }
      ],
      "name": "removeFromWhitelist",
      "outputs": [],
      "stateMutability": "nonpayable",
      "type": "function"
    },
    {
      "inputs": [
        {
          "internalType": "address",
          "name": "_addrOrga",
          "type": "address"
        },
        {
          "internalType": "address",
          "name": "_addrParticipant",
          "type": "address"
        }
      ],
      "name": "addParticipant",
      "outputs": [],
      "stateMutability": "nonpayable",
      "type": "function"
    }
  ],
  "bytecode": "0x60806040526040518061016001604052806040518060400160405280600981526020017f656475636174696f6e000000000000000000000000000000000000000000000081525081526020016040518060400160405280600b81526020017f747261666669636b696e6700000000000000000000000000000000000000000081525081526020016040518060400160405280601181526020017f646f6d65737469632076696f6c656e636500000000000000000000000000000081525081526020016040518060400160405280601081526020017f776f6d656e2773206d6f76656d656e740000000000000000000000000000000081525081526020016040518060400160405280600981526020017f63616d706169676e73000000000000000000000000000000000000000000000081525081526020016040518060400160405280600a81526020017f726f6d6120776f6d656e0000000000000000000000000000000000000000000081525081526020016040518060400160405280600881526020017f6964656e7469747900000000000000000000000000000000000000000000000081525081526020016040518060400160405280600781526020017f6c6f6262696e670000000000000000000000000000000000000000000000000081525081526020016040518060400160405280601381526020017f6d617267696e616c697a65642067726f7570730000000000000000000000000081525081526020016040518060400160405280601181526020017f73657875616c206861726173736d656e7400000000000000000000000000000081525081526020016040518060400160405280600e81526020017f776f6d656e277320726967687473000000000000000000000000000000000000815250815250600390600b620002a992919062000744565b506040518060c001604052806040518060400160405280600681526020017f536572626961000000000000000000000000000000000000000000000000000081525081526020016040518060400160405280600781526020017f43726f617469610000000000000000000000000000000000000000000000000081525081526020016040518060400160405280600a81526020017f4d6f6e74656e6567726f0000000000000000000000000000000000000000000081525081526020016040518060400160405280601681526020017f426f736e696120616e64204865726365676f76696e610000000000000000000081525081526020016040518060400160405280600881526020017f536c6f76656e696100000000000000000000000000000000000000000000000081525081526020016040518060400160405280600981526020017f4d616365646f6e69610000000000000000000000000000000000000000000000815250815250600490600662000427929190620007ab565b506040518060400160405280600b81526020017f696e204d61696e2e736f6c000000000000000000000000000000000000000000815250600590805190602001906200047592919062000812565b503480156200048357600080fd5b5062000494620004aa60201b60201c565b620004a4620005f760201b60201c565b62000aba565b6000600380549050905060005b600182620004c691906200099d565b811015620005f357620004d8620008a3565b8181600001818152505060038281548110620004f957620004f8620009d8565b5b906000526020600020018054620005109062000a36565b80601f01602080910402602001604051908101604052809291908181526020018280546200053e9062000a36565b80156200058f5780601f1062000563576101008083540402835291602001916200058f565b820191906000526020600020905b8154815290600101906020018083116200057157829003601f168201915b505050505081602001819052508060026000848152602001908152602001600020600082015181600001556020820151816001019080519060200190620005d892919062000812565b50905050508080620005ea9062000a6c565b915050620004b7565b5050565b6000600480549050905060005b6001826200061391906200099d565b811015620007405762000625620008bd565b8181600001818152505060048281548110620006465762000645620009d8565b5b9060005260206000200180546200065d9062000a36565b80601f01602080910402602001604051908101604052809291908181526020018280546200068b9062000a36565b8015620006dc5780601f10620006b057610100808354040283529160200191620006dc565b820191906000526020600020905b815481529060010190602001808311620006be57829003601f168201915b5050505050816020018190525080600160008481526020019081526020016000206000820151816000015560208201518160010190805190602001906200072592919062000812565b50905050508080620007379062000a6c565b91505062000604565b5050565b82805482825590600052602060002090810192821562000798579160200282015b82811115620007975782518290805190602001906200078692919062000812565b509160200191906001019062000765565b5b509050620007a79190620008d7565b5090565b828054828255906000526020600020908101928215620007ff579160200282015b82811115620007fe578251829080519060200190620007ed92919062000812565b5091602001919060010190620007cc565b5b5090506200080e9190620008d7565b5090565b828054620008209062000a36565b90600052602060002090601f01602090048101928262000844576000855562000890565b82601f106200085f57805160ff191683800117855562000890565b8280016001018555821562000890579182015b828111156200088f57825182559160200191906001019062000872565b5b5090506200089f9190620008ff565b5090565b604051806040016040528060008152602001606081525090565b604051806040016040528060008152602001606081525090565b5b80821115620008fb5760008181620008f191906200091e565b50600101620008d8565b5090565b5b808211156200091a57600081600090555060010162000900565b5090565b5080546200092c9062000a36565b6000825580601f1062000940575062000961565b601f016020900490600052602060002090810190620009609190620008ff565b5b50565b6000819050919050565b7f4e487b7100000000000000000000000000000000000000000000000000000000600052601160045260246000fd5b6000620009aa8262000964565b9150620009b78362000964565b925082821015620009cd57620009cc6200096e565b5b828203905092915050565b7f4e487b7100000000000000000000000000000000000000000000000000000000600052603260045260246000fd5b7f4e487b7100000000000000000000000000000000000000000000000000000000600052602260045260246000fd5b6000600282049050600182168062000a4f57607f821691505b6020821081141562000a665762000a6562000a07565b5b50919050565b600062000a798262000964565b91507fffffffffffffffffffffffffffffffffffffffffffffffffffffffffffffffff82141562000aaf5762000aae6200096e565b5b600182019050919050565b61159d8062000aca6000396000f3fe608060405234801561001057600080fd5b506004361061007d5760003560e01c80637dd7e4581161005b5780637dd7e458146100da5780638ab1d6811461010a578063beca800914610126578063d35ada32146101445761007d565b80633412a15c1461008257806365443596146100a05780636bf9fe17146100bc575b600080fd5b61008a610160565b6040516100979190610cbc565b60405180910390f35b6100ba60048036038101906100b59190610f25565b6101f2565b005b6100c4610517565b6040516100d191906110bc565b60405180910390f35b6100f460048036038101906100ef919061113c565b6105f0565b6040516101019190611184565b60405180910390f35b610124600480360381019061011f919061113c565b61071a565b005b61012e6107eb565b60405161013b91906110bc565b60405180910390f35b61015e6004803603810190610159919061119f565b6108c4565b005b60606005805461016f9061120e565b80601f016020809104026020016040519081016040528092919081815260200182805461019b9061120e565b80156101e85780601f106101bd576101008083540402835291602001916101e8565b820191906000526020600020905b8154815290600101906020018083116101cb57829003601f168201915b5050505050905090565b600015156000803373ffffffffffffffffffffffffffffffffffffffff1673ffffffffffffffffffffffffffffffffffffffff16815260200190815260200160002060010160149054906101000a900460ff16151514610287576040517f08c379a000000000000000000000000000000000000000000000000000000000815260040161027e9061128c565b60405180910390fd5b60008251116102cb576040517f08c379a00000000000000000000000000000000000000000000000000000000081526004016102c2906112f8565b60405180910390fd5b600081101561030f576040517f08c379a000000000000000000000000000000000000000000000000000000000815260040161030690611364565b60405180910390fd5b336000803373ffffffffffffffffffffffffffffffffffffffff1673ffffffffffffffffffffffffffffffffffffffff16815260200190815260200160002060010160006101000a81548173ffffffffffffffffffffffffffffffffffffffff021916908373ffffffffffffffffffffffffffffffffffffffff16021790555060016000803373ffffffffffffffffffffffffffffffffffffffff1673ffffffffffffffffffffffffffffffffffffffff16815260200190815260200160002060010160146101000a81548160ff021916908315150217905550816000803373ffffffffffffffffffffffffffffffffffffffff1673ffffffffffffffffffffffffffffffffffffffff168152602001908152602001600020600401908051906020019061043e929190610b33565b50806000803373ffffffffffffffffffffffffffffffffffffffff1673ffffffffffffffffffffffffffffffffffffffff16815260200190815260200160002060050181905550826000803373ffffffffffffffffffffffffffffffffffffffff1673ffffffffffffffffffffffffffffffffffffffff16815260200190815260200160002060000190805190602001906104da929190610b80565b507f2178e9c576507a4c15d3deab489af3f699a3dedbff9a7ef27c43a017027710e53360405161050a9190611393565b60405180910390a1505050565b60606003805480602002602001604051908101604052809291908181526020016000905b828210156105e757838290600052602060002001805461055a9061120e565b80601f01602080910402602001604051908101604052809291908181526020018280546105869061120e565b80156105d35780601f106105a8576101008083540402835291602001916105d3565b820191906000526020600020905b8154815290600101906020018083116105b657829003601f168201915b50505050508152602001906001019061053b565b50505050905090565b6000600115156000808473ffffffffffffffffffffffffffffffffffffffff1673ffffffffffffffffffffffffffffffffffffffff16815260200190815260200160002060010160149054906101000a900460ff16151514610687576040517f08c379a000000000000000000000000000000000000000000000000000000000815260040161067e906113fa565b60405180910390fd5b6000808373ffffffffffffffffffffffffffffffffffffffff1673ffffffffffffffffffffffffffffffffffffffff16815260200190815260200160002060020160003373ffffffffffffffffffffffffffffffffffffffff1673ffffffffffffffffffffffffffffffffffffffff16815260200190815260200160002060009054906101000a900460ff169050919050565b60008060008373ffffffffffffffffffffffffffffffffffffffff1673ffffffffffffffffffffffffffffffffffffffff16815260200190815260200160002060020160003373ffffffffffffffffffffffffffffffffffffffff1673ffffffffffffffffffffffffffffffffffffffff16815260200190815260200160002060006101000a81548160ff0219169083151502179055507fcdd2e9b91a56913d370075169cefa1602ba36be5301664f752192bb1709df757336040516107e09190611393565b60405180910390a150565b60606004805480602002602001604051908101604052809291908181526020016000905b828210156108bb57838290600052602060002001805461082e9061120e565b80601f016020809104026020016040519081016040528092919081815260200182805461085a9061120e565b80156108a75780601f1061087c576101008083540402835291602001916108a7565b820191906000526020600020905b81548152906001019060200180831161088a57829003601f168201915b50505050508152602001906001019061080f565b50505050905090565b3373ffffffffffffffffffffffffffffffffffffffff166000808473ffffffffffffffffffffffffffffffffffffffff1673ffffffffffffffffffffffffffffffffffffffff16815260200190815260200160002060010160009054906101000a900473ffffffffffffffffffffffffffffffffffffffff1673ffffffffffffffffffffffffffffffffffffffff1614610993576040517f08c379a000000000000000000000000000000000000000000000000000000000815260040161098a9061148c565b60405180910390fd5b6000808373ffffffffffffffffffffffffffffffffffffffff1673ffffffffffffffffffffffffffffffffffffffff16815260200190815260200160002060020160008273ffffffffffffffffffffffffffffffffffffffff1673ffffffffffffffffffffffffffffffffffffffff16815260200190815260200160002060009054906101000a900460ff1615610a5f576040517f08c379a0000000000000000000000000000000000000000000000000000000008152600401610a569061151e565b60405180910390fd5b60016000808473ffffffffffffffffffffffffffffffffffffffff1673ffffffffffffffffffffffffffffffffffffffff16815260200190815260200160002060020160008373ffffffffffffffffffffffffffffffffffffffff1673ffffffffffffffffffffffffffffffffffffffff16815260200190815260200160002060006101000a81548160ff0219169083151502179055507f3d8a67432904f5c76d317bd3d7568237471009d9a286cd487736d0e2d103e6ad8183604051610b2792919061153e565b60405180910390a15050565b828054828255906000526020600020908101928215610b6f579160200282015b82811115610b6e578251825591602001919060010190610b53565b5b509050610b7c9190610c06565b5090565b828054610b8c9061120e565b90600052602060002090601f016020900481019282610bae5760008555610bf5565b82601f10610bc757805160ff1916838001178555610bf5565b82800160010185558215610bf5579182015b82811115610bf4578251825591602001919060010190610bd9565b5b509050610c029190610c06565b5090565b5b80821115610c1f576000816000905550600101610c07565b5090565b600081519050919050565b600082825260208201905092915050565b60005b83811015610c5d578082015181840152602081019050610c42565b83811115610c6c576000848401525b50505050565b6000601f19601f8301169050919050565b6000610c8e82610c23565b610c988185610c2e565b9350610ca8818560208601610c3f565b610cb181610c72565b840191505092915050565b60006020820190508181036000830152610cd68184610c83565b905092915050565b6000604051905090565b600080fd5b600080fd5b600080fd5b600080fd5b7f4e487b7100000000000000000000000000000000000000000000000000000000600052604160045260246000fd5b610d3482610c72565b810181811067ffffffffffffffff82111715610d5357610d52610cfc565b5b80604052505050565b6000610d66610cde565b9050610d728282610d2b565b919050565b600067ffffffffffffffff821115610d9257610d91610cfc565b5b610d9b82610c72565b9050602081019050919050565b82818337600083830152505050565b6000610dca610dc584610d77565b610d5c565b905082815260208101848484011115610de657610de5610cf7565b5b610df1848285610da8565b509392505050565b600082601f830112610e0e57610e0d610cf2565b5b8135610e1e848260208601610db7565b91505092915050565b600067ffffffffffffffff821115610e4257610e41610cfc565b5b602082029050602081019050919050565b600080fd5b6000819050919050565b610e6b81610e58565b8114610e7657600080fd5b50565b600081359050610e8881610e62565b92915050565b6000610ea1610e9c84610e27565b610d5c565b90508083825260208201905060208402830185811115610ec457610ec3610e53565b5b835b81811015610eed5780610ed98882610e79565b845260208401935050602081019050610ec6565b5050509392505050565b600082601f830112610f0c57610f0b610cf2565b5b8135610f1c848260208601610e8e565b91505092915050565b600080600060608486031215610f3e57610f3d610ce8565b5b600084013567ffffffffffffffff811115610f5c57610f5b610ced565b5b610f6886828701610df9565b935050602084013567ffffffffffffffff811115610f8957610f88610ced565b5b610f9586828701610ef7565b9250506040610fa686828701610e79565b9150509250925092565b600081519050919050565b600082825260208201905092915050565b6000819050602082019050919050565b600082825260208201905092915050565b6000610ff882610c23565b6110028185610fdc565b9350611012818560208601610c3f565b61101b81610c72565b840191505092915050565b60006110328383610fed565b905092915050565b6000602082019050919050565b600061105282610fb0565b61105c8185610fbb565b93508360208202850161106e85610fcc565b8060005b858110156110aa578484038952815161108b8582611026565b94506110968361103a565b925060208a01995050600181019050611072565b50829750879550505050505092915050565b600060208201905081810360008301526110d68184611047565b905092915050565b600073ffffffffffffffffffffffffffffffffffffffff82169050919050565b6000611109826110de565b9050919050565b611119816110fe565b811461112457600080fd5b50565b60008135905061113681611110565b92915050565b60006020828403121561115257611151610ce8565b5b600061116084828501611127565b91505092915050565b60008115159050919050565b61117e81611169565b82525050565b60006020820190506111996000830184611175565b92915050565b600080604083850312156111b6576111b5610ce8565b5b60006111c485828601611127565b92505060206111d585828601611127565b9150509250929050565b7f4e487b7100000000000000000000000000000000000000000000000000000000600052602260045260246000fd5b6000600282049050600182168061122657607f821691505b6020821081141561123a576112396111df565b5b50919050565b7f4f7267616e69736174696f6e20616c7265616479207265676973746572656400600082015250565b6000611276601f83610c2e565b915061128182611240565b602082019050919050565b600060208201905081810360008301526112a581611269565b9050919050565b7f4f7267616e69736174696f6e206d7573742068617665207468656d6174696373600082015250565b60006112e2602083610c2e565b91506112ed826112ac565b602082019050919050565b60006020820190508181036000830152611311816112d5565b9050919050565b7f4f7267616e69736174696f6e206d7573742068617665206120636f756e747279600082015250565b600061134e602083610c2e565b915061135982611318565b602082019050919050565b6000602082019050818103600083015261137d81611341565b9050919050565b61138d816110fe565b82525050565b60006020820190506113a86000830184611384565b92915050565b7f6f7267616e69736174696f6e206e6f7420726567697374657265640000000000600082015250565b60006113e4601b83610c2e565b91506113ef826113ae565b602082019050919050565b60006020820190508181036000830152611413816113d7565b9050919050565b7f596f7520617265206e6f7420746865206f776e6572206f6620746865206f726760008201527f616e697a6174696f6e0000000000000000000000000000000000000000000000602082015250565b6000611476602983610c2e565b91506114818261141a565b604082019050919050565b600060208201905081810360008301526114a581611469565b9050919050565b7f4164647265737320616c72656164792077686974656c697374656420666f722060008201527f74686973206f7267616e697a6174696f6e000000000000000000000000000000602082015250565b6000611508603183610c2e565b9150611513826114ac565b604082019050919050565b60006020820190508181036000830152611537816114fb565b9050919050565b60006040820190506115536000830185611384565b6115606020830184611384565b939250505056fea2646970667358221220397a5c5ccf7c4f784bbcf6da143b74f9c33a12d5e69a93303a85602c872766ed64736f6c634300080b0033",
  "immutableReferences": {},
  "source": "// SPDX-License-Identifier: GPL-3.0\npragma solidity 0.8.11;\n\ncontract Main {\n    struct Participant {\n        address ethAddress;\n        address organisation;\n        bool isRegistered;\n    }\n\n    struct Orga {\n        string name;\n        address ethAddress;\n        bool isRegistered;\n        mapping (address => bool) participantIsWhitelisted;\n        mapping (address => Participant) participant;\n        uint[] themes;\n        uint country;\n    }\n\n    struct Theme {\n        uint id;\n        string name;\n    }\n\n     struct Country {\n        uint id;\n        string name;\n    }\n\n    event OrganizationRegistered(address addressOrga);\n    event AddressWhitelisted(address addressParticipant, address addressOrganization); \n    event RemovedFromWhitelist(address addressParticipant);\n\n    mapping (address => Orga) organisations;\n    mapping (uint => Country)  private countries;\n    mapping (uint => Theme)  private thematics;\n    string[] private themeList = [\n        \"education\",\n        \"trafficking\",\n        \"domestic violence\",\n        \"women's movement\",\n        \"campaigns\",\n        \"roma women\",\n        \"identity\",\n        \"lobbing\",\n        \"marginalized groups\",\n        \"sexual harassment\",\n        \"women's rights\"\n    ];\n\n     string[] private countryList = [\n        \"Serbia\",\n        \"Croatia\",\n        \"Montenegro\",\n        \"Bosnia and Hercegovina\",\n        \"Slovenia\",\n        \"Macedonia\"\n    ];\n\n    constructor() {\n        setThematics();\n        setCountries();\n    }\n\n    // Sender not authorized for this operation.\n    error Unauthorized();\n\n    // Prepends a check that only passes\n    // if the function is called from\n    // a certain address.\n    modifier onlyBy(address _account)\n    {\n        if (msg.sender != _account)\n            revert Unauthorized();\n        _;\n    }\n\n    function setThematics() private {\n        uint numThemes = themeList.length;\n        for (uint i=0; i < numThemes-1; i++) {\n            Theme memory theme;\n            theme.id = i;\n            theme.name = themeList[i];\n            thematics[i] = theme;\n        }\n    }\n\n    function setCountries() private {\n        uint numCountries = countryList.length;\n        for (uint i=0; i < numCountries-1; i++) {\n            Country memory country;\n            country.id = i;\n            country.name = countryList[i];\n            countries[i] = country;\n        }\n    }\n\n    function getThematics() public view returns(string[] memory) {        \n        return themeList;\n    }\n\n    function getCountries() public view returns(string[] memory) {        \n        return countryList;\n    }\n\n     function registerOrganisation(string memory name, uint[] memory thematicIds, uint countryId) external {\n        require(organisations[msg.sender].isRegistered == false, 'Organisation already registered');\n        require(thematicIds.length > 0, 'Organisation must have thematics');\n        require(countryId >= 0, 'Organisation must have a country');\n        organisations[msg.sender].ethAddress = msg.sender;\n        organisations[msg.sender].isRegistered = true;\n        organisations[msg.sender].themes = thematicIds;\n        organisations[msg.sender].country = countryId;\n        organisations[msg.sender].name = name;\n        emit OrganizationRegistered(msg.sender);\n    }\n\n    //::::::::::::::::::::::::::::::::::::::::::::::\n    string test = \"in Main.sol\";\n    function testConnection() public view returns(string memory) {\n        return test;\n    }\n     //::::::::::::::::::::::::::::::::::::::::::::::\n\n    function participantIsWhiteListed(address _addrOrganisation) external view returns(bool) {\n        require(organisations[_addrOrganisation].isRegistered == true, 'organisation not registered');\n        return organisations[_addrOrganisation].participantIsWhitelisted[msg.sender];\n    }\n\n    function removeFromWhitelist(address _addrOrga) external {\n        organisations[_addrOrga].participantIsWhitelisted[msg.sender] = false;\n        emit RemovedFromWhitelist(msg.sender);\n    }\n\n    function addParticipant(address _addrOrga, address _addrParticipant ) external {\n        require(organisations[_addrOrga].ethAddress == msg.sender, 'You are not the owner of the organization');\n        require(!organisations[_addrOrga].participantIsWhitelisted[_addrParticipant], 'Address already whitelisted for this organization');\n        organisations[_addrOrga].participantIsWhitelisted[_addrParticipant] = true;\n        emit AddressWhitelisted(_addrParticipant, _addrOrga);\n    }\n\n}   ",
  "sourcePath": "/home/kojche/Documents/projects/alyra/project-certif-alyra/yu-go-dao/template/Truffle/contracts/Main.sol",
  "compiler": {
    "name": "solc",
    "version": "0.8.11+commit.d7f03943.Emscripten.clang"
  },
  "schemaVersion": "3.4.3",
  "updatedAt": "2021-12-26T03:11:18.750Z",
  "networkType": "ethereum",
  "devdoc": {
    "kind": "dev",
    "methods": {},
    "version": 1
  },
  "userdoc": {
    "kind": "user",
    "methods": {},
    "version": 1
  }
}