{
  "contractName": "Main",
  "abi": [
    {
      "inputs": [],
      "stateMutability": "nonpayable",
      "type": "constructor"
    },
    {
      "inputs": [],
      "name": "Unauthorized",
      "type": "error"
    },
    {
      "anonymous": false,
      "inputs": [
        {
          "indexed": false,
          "internalType": "address",
          "name": "addressContestCreator",
          "type": "address"
        },
        {
          "indexed": false,
          "internalType": "address",
          "name": "addressActionCreator",
          "type": "address"
        },
        {
          "indexed": false,
          "internalType": "string",
          "name": "actionName",
          "type": "string"
        },
        {
          "indexed": false,
          "internalType": "uint256",
          "name": "requiredFunds",
          "type": "uint256"
        }
      ],
      "name": "ActionCreated",
      "type": "event"
    },
    {
      "anonymous": false,
      "inputs": [
        {
          "indexed": false,
          "internalType": "address",
          "name": "addressOrga",
          "type": "address"
        },
        {
          "indexed": false,
          "internalType": "string",
          "name": "name",
          "type": "string"
        },
        {
          "indexed": false,
          "internalType": "uint256",
          "name": "funds",
          "type": "uint256"
        }
      ],
      "name": "ContestCreated",
      "type": "event"
    },
    {
      "anonymous": false,
      "inputs": [
        {
          "indexed": false,
          "internalType": "address",
          "name": "addressContestCreator",
          "type": "address"
        },
        {
          "indexed": false,
          "internalType": "address",
          "name": "addressActionCreator",
          "type": "address"
        },
        {
          "indexed": false,
          "internalType": "address",
          "name": "voterAddress",
          "type": "address"
        }
      ],
      "name": "HasVotedForAction",
      "type": "event"
    },
    {
      "anonymous": false,
      "inputs": [
        {
          "indexed": false,
          "internalType": "address",
          "name": "addressOrga",
          "type": "address"
        }
      ],
      "name": "OrganizationRegistered",
      "type": "event"
    },
    {
      "anonymous": false,
      "inputs": [
        {
          "indexed": false,
          "internalType": "address",
          "name": "addressOrga",
          "type": "address"
        },
        {
          "indexed": false,
          "internalType": "address",
          "name": "addressParticipant",
          "type": "address"
        }
      ],
      "name": "ParticipantRemoved",
      "type": "event"
    },
    {
      "anonymous": false,
      "inputs": [
        {
          "indexed": false,
          "internalType": "address",
          "name": "addressParticipant",
          "type": "address"
        },
        {
          "indexed": false,
          "internalType": "address",
          "name": "addressOrganization",
          "type": "address"
        }
      ],
      "name": "ParticipantWhitelisted",
      "type": "event"
    },
    {
      "anonymous": false,
      "inputs": [
        {
          "indexed": false,
          "internalType": "address",
          "name": "addressContestCreator",
          "type": "address"
        },
        {
          "indexed": false,
          "internalType": "address[]",
          "name": "addressActionCreator",
          "type": "address[]"
        },
        {
          "indexed": false,
          "internalType": "uint256",
          "name": "nbVotes",
          "type": "uint256"
        }
      ],
      "name": "VoteTallied",
      "type": "event"
    },
    {
      "inputs": [],
      "name": "getThematics",
      "outputs": [
        {
          "internalType": "string[]",
          "name": "",
          "type": "string[]"
        }
      ],
      "stateMutability": "view",
      "type": "function",
      "constant": true
    },
    {
      "inputs": [],
      "name": "getCountries",
      "outputs": [
        {
          "internalType": "string[]",
          "name": "",
          "type": "string[]"
        }
      ],
      "stateMutability": "view",
      "type": "function",
      "constant": true
    },
    {
      "inputs": [
        {
          "internalType": "uint256[]",
          "name": "thematicIds",
          "type": "uint256[]"
        },
        {
          "internalType": "uint256",
          "name": "countryId",
          "type": "uint256"
        }
      ],
      "name": "registerOrganisation",
      "outputs": [],
      "stateMutability": "nonpayable",
      "type": "function"
    },
    {
      "inputs": [
        {
          "internalType": "address",
          "name": "_addrOrganisation",
          "type": "address"
        },
        {
          "internalType": "address",
          "name": "_addrParticipant",
          "type": "address"
        }
      ],
      "name": "participantIsWhiteListed",
      "outputs": [
        {
          "internalType": "bool",
          "name": "",
          "type": "bool"
        }
      ],
      "stateMutability": "view",
      "type": "function",
      "constant": true
    },
    {
      "inputs": [
        {
          "internalType": "address",
          "name": "_addrToDelete",
          "type": "address"
        }
      ],
      "name": "removeFromWhitelist",
      "outputs": [],
      "stateMutability": "nonpayable",
      "type": "function"
    },
    {
      "inputs": [
        {
          "internalType": "address",
          "name": "_addrOrga",
          "type": "address"
        },
        {
          "internalType": "address",
          "name": "_addrParticipant",
          "type": "address"
        }
      ],
      "name": "addParticipant",
      "outputs": [],
      "stateMutability": "nonpayable",
      "type": "function"
    },
    {
      "inputs": [
        {
          "internalType": "string",
          "name": "_name",
          "type": "string"
        },
        {
          "internalType": "uint256[]",
          "name": "_themeIds",
          "type": "uint256[]"
        },
        {
          "internalType": "uint256[]",
          "name": "_eligibleCountryIds",
          "type": "uint256[]"
        },
        {
          "internalType": "uint256",
          "name": "_applicationEndDate",
          "type": "uint256"
        },
        {
          "internalType": "uint256",
          "name": "_votingEndDate",
          "type": "uint256"
        },
        {
          "internalType": "uint256",
          "name": "_funds",
          "type": "uint256"
        }
      ],
      "name": "addContest",
      "outputs": [],
      "stateMutability": "nonpayable",
      "type": "function"
    },
    {
      "inputs": [
        {
          "internalType": "address",
          "name": "_creatorOfContest",
          "type": "address"
        },
        {
          "internalType": "string",
          "name": "_name",
          "type": "string"
        },
        {
          "internalType": "uint256",
          "name": "_requiredFunds",
          "type": "uint256"
        }
      ],
      "name": "createAction",
      "outputs": [],
      "stateMutability": "nonpayable",
      "type": "function"
    },
    {
      "inputs": [
        {
          "internalType": "address",
          "name": "_contestCreator",
          "type": "address"
        },
        {
          "internalType": "address",
          "name": "_actionCreator",
          "type": "address"
        }
      ],
      "name": "voteForAction",
      "outputs": [],
      "stateMutability": "nonpayable",
      "type": "function"
    },
    {
      "inputs": [
        {
          "internalType": "address",
          "name": "_contestCreator",
          "type": "address"
        }
      ],
      "name": "tallyVote",
      "outputs": [],
      "stateMutability": "nonpayable",
      "type": "function"
    }
  ],
  "bytecode": "0x60096101e08181526832b23ab1b0ba34b7b760b91b610200526080908152600b6102208181526a747261666669636b696e6760a81b6102405260a052601161026081815270646f6d65737469632076696f6c656e636560781b6102805260c05260106102a09081526f1ddbdb595b89dcc81b5bdd995b595b9d60821b6102c05260e0526102e09384526863616d706169676e7360b81b6103005261010093909352600a610320908152693937b6b0903bb7b6b2b760b11b61034052610120526008610360908152676964656e7469747960c01b610380526101405260076103a0908152666c6f6262696e6760c81b6103c0526101605260136103e09081527f6d617267696e616c697a65642067726f757073000000000000000000000000006104005261018052610420928352701cd95e1d585b081a185c985cdcdb595b9d607a1b610440526101a0929092526104a0604052600e6104609081526d776f6d656e27732072696768747360901b610480526101c05262000183916004919062000502565b506040805161010081018252600660c082018181526553657262696160d01b60e0840152825282518084018452600781526643726f6174696160c81b6020828101919091528084019190915283518085018552600a8152694d6f6e74656e6567726f60b01b818301528385015283518085018552601681527f426f736e696120616e64204865726365676f76696e6100000000000000000000818301526060840152835180850185526008815267536c6f76656e696160c01b818301526080840152835180850190945260098452684d616365646f6e696160b81b9084015260a082019290925262000279916005919062000566565b503480156200028757600080fd5b5062000292620002a2565b6200029c620003d4565b6200075e565b60045460005b620002b5600183620006d3565b811015620003d05760408051808201909152606060208201528181526004805483908110620002e857620002e8620006ed565b906000526020600020018054620002ff9062000703565b80601f01602080910402602001604051908101604052809291908181526020018280546200032d9062000703565b80156200037e5780601f1062000352576101008083540402835291602001916200037e565b820191906000526020600020905b8154815290600101906020018083116200036057829003601f168201915b50505050602080840192835260008581526003825260409020845181559251805185949350620003b59260018501920190620005b8565b50905050508080620003c79062000740565b915050620002a8565b5050565b60055460005b620003e7600183620006d3565b811015620003d057604080518082019091526060602082015281815260058054839081106200041a576200041a620006ed565b906000526020600020018054620004319062000703565b80601f01602080910402602001604051908101604052809291908181526020018280546200045f9062000703565b8015620004b05780601f106200048457610100808354040283529160200191620004b0565b820191906000526020600020905b8154815290600101906020018083116200049257829003601f168201915b50505050602080840192835260008581526002825260409020845181559251805185949350620004e79260018501920190620005b8565b50905050508080620004f99062000740565b915050620003da565b82805482825590600052602060002090810192821562000554579160200282015b8281111562000554578251805162000543918491602090910190620005b8565b509160200191906001019062000523565b506200056292915062000643565b5090565b82805482825590600052602060002090810192821562000554579160200282015b82811115620005545782518051620005a7918491602090910190620005b8565b509160200191906001019062000587565b828054620005c69062000703565b90600052602060002090601f016020900481019282620005ea576000855562000635565b82601f106200060557805160ff191683800117855562000635565b8280016001018555821562000635579182015b828111156200063557825182559160200191906001019062000618565b506200056292915062000664565b80821115620005625760006200065a82826200067b565b5060010162000643565b5b8082111562000562576000815560010162000665565b508054620006899062000703565b6000825580601f106200069a575050565b601f016020900490600052602060002090810190620006ba919062000664565b50565b634e487b7160e01b600052601160045260246000fd5b600082821015620006e857620006e8620006bd565b500390565b634e487b7160e01b600052603260045260246000fd5b600181811c908216806200071857607f821691505b602082108114156200073a57634e487b7160e01b600052602260045260246000fd5b50919050565b6000600019821415620007575762000757620006bd565b5060010190565b6114bd806200076e6000396000f3fe608060405234801561001057600080fd5b506004361061009e5760003560e01c80639aa7ca42116100665780639aa7ca421461010f578063beca800914610122578063d35ada321461012a578063d67091c71461013d578063eb0934df1461015057600080fd5b80631426f78f146100a35780632db2c04f146100b85780636bf9fe17146100cb57806381530e47146100e95780638ab1d681146100fc575b600080fd5b6100b66100b1366004610fbc565b6101a0565b005b6100b66100c6366004611126565b610555565b6100d36106a5565b6040516100e09190611217565b60405180910390f35b6100b66100f7366004611279565b61077e565b6100b661010a3660046112be565b6108cf565b6100b661011d3660046112be565b6109c5565b6100d3610abe565b6100b6610138366004610fbc565b610b8e565b6100b661014b3660046112e0565b610d0d565b61019061015e366004610fbc565b6001600160a01b0391821660009081526001602090815260408083209390941682526002909201909152205460ff1690565b60405190151581526020016100e0565b336001600160a01b038316148015906101c25750336001600160a01b03821614155b6102135760405162461bcd60e51b815260206004820181905260248201527f596f752063616e206e6f7420766f746520666f72207468697320616374696f6e60448201526064015b60405180910390fd5b6001600160a01b038083166000908152602081815260408083209385168352600190930181528282203383526002019052205460ff16156102965760405162461bcd60e51b815260206004820152601760248201527f596f75206861766520616c726561647920766f74656421000000000000000000604482015260640161020a565b6001600160a01b03808316600090815260208181526040808320938516835260019384019091528120820180549091906102d1908490611337565b90915550506001600160a01b038083166000818152602081815260408083209486168352600185810183528184203385526002018352908320805460ff19169091179055918152905260080154610366576001600160a01b038281166000908152602081815260408220600801805460018101825590835291200180546001600160a01b031916918316919091179055610503565b6001600160a01b03808316600081815260208181526040808320948616835260018086018084529184200154938352908290526008909301805492939282906103b1576103b161135d565b60009182526020808320909101546001600160a01b03168352820192909252604001902060010154101561044a576001600160a01b038216600090815260208190526040812061040691600890910190610eac565b6001600160a01b038281166000908152602081815260408220600801805460018101825590835291200180546001600160a01b031916918316919091179055610503565b6001600160a01b03808316600081815260208181526040808320948616835260018086018084529184200154938352908290526008909301805492939282906104955761049561135d565b60009182526020808320909101546001600160a01b031683528201929092526040019020600101541415610503576001600160a01b038281166000908152602081815260408220600801805460018101825590835291200180546001600160a01b0319169183169190911790555b604080516001600160a01b0380851682528316602082015233918101919091527f9a996e61e46622216dcf6afd942a2c58023089cde9ed06bbf46ad67ec7814858906060015b60405180910390a15050565b3360009081526020819052604090206007015460ff16156105c85760405162461bcd60e51b815260206004820152602760248201527f4f7267616e69736174696f6e20616c726561647920637265617465642061206360448201526637b73a32b9ba1760c91b606482015260840161020a565b3360009081526020818152604090912087516105e692890190610ecd565b5033600090815260208181526040909120865161060b92600290920191880190610f51565b5033600090815260208181526040909120855161063092600390920191870190610f51565b503360008181526020819052604090819020600481018690556005810185905560068101849055600701805460ff19166001179055517f98e26a339a5fc57fc1c56d81b9cc18fa5c1b2f45a4121ded1802183d3546744a916106959189908590611373565b60405180910390a1505050505050565b60606004805480602002602001604051908101604052809291908181526020016000905b828210156107755783829060005260206000200180546106e8906113a7565b80601f0160208091040260200160405190810160405280929190818152602001828054610714906113a7565b80156107615780601f1061073657610100808354040283529160200191610761565b820191906000526020600020905b81548152906001019060200180831161074457829003601f168201915b5050505050815260200190600101906106c9565b50505050905090565b3360009081526001602081905260409091200154600160a01b900460ff16156107e95760405162461bcd60e51b815260206004820181905260248201527f4f7267616e69736174696f6e20616c726561647920726567697374657265642e604482015260640161020a565b600082511161083a5760405162461bcd60e51b815260206004820181905260248201527f4f7267616e69736174696f6e206d7573742068617665207468656d6174696373604482015260640161020a565b33600081815260016020818152604090922090810180546001600160a01b03191690931790925583516108739260030191850190610f51565b503360008181526001602081815260409283902060048101869055909101805460ff60a01b1916600160a01b17905590519182527f2178e9c576507a4c15d3deab489af3f699a3dedbff9a7ef27c43a017027710e59101610549565b3360009081526001602081815260408084206001600160a01b03861685526002019091529091205460ff161515146109585760405162461bcd60e51b815260206004820152602660248201527f746865206164647265737320796f7520656e746572656420646f6573206e6f7460448201526508195e1a5cdd60d21b606482015260840161020a565b3360008181526001602090815260408083206001600160a01b0386168085526002909101835292819020805460ff191690558051938452908301919091527f9721b4c70a74dd00691b5fd0589b9720d9be5657dfd6e1f8072cb7f26d7ce8a891015b60405180910390a150565b6001600160a01b0381166000908152602081905260409020600501544211610a2f5760405162461bcd60e51b815260206004820152601c60248201527f566f74696e6720686173206e6f742066696e6973686564207965742100000000604482015260640161020a565b6001600160a01b03811660009081526020819052604081206008810180547f816521a78d4edee3cfe0a08714ff2fbbc26bbbd23f171325b3493f3f514f0bfc9385936001019183908290610a8557610a8561135d565b60009182526020808320909101546001600160a01b0316835282019290925260409081019091206001015490516109ba939291906113e2565b60606005805480602002602001604051908101604052809291908181526020016000905b82821015610775578382906000526020600020018054610b01906113a7565b80601f0160208091040260200160405190810160405280929190818152602001828054610b2d906113a7565b8015610b7a5780601f10610b4f57610100808354040283529160200191610b7a565b820191906000526020600020905b815481529060010190602001808311610b5d57829003601f168201915b505050505081526020019060010190610ae2565b6001600160a01b0382811660009081526001602081905260409091200154163314610c0d5760405162461bcd60e51b815260206004820152602960248201527f596f7520617265206e6f7420746865206f776e6572206f6620746865206f726760448201526830b734bd30ba34b7b760b91b606482015260840161020a565b6001600160a01b038083166000908152600160209081526040808320938516835260029093019052205460ff1615610ca15760405162461bcd60e51b815260206004820152603160248201527f4164647265737320616c72656164792077686974656c697374656420666f72206044820152703a3434b99037b933b0b734bd30ba34b7b760791b606482015260840161020a565b6001600160a01b0382811660008181526001602081815260408084209587168085526002909601825292839020805460ff191690921790915581519384528301919091527f6991bd45e0feec093b0c381c0561704fd19d427ded55100f5f6e1b4fe335c0829101610549565b3360009081526020819052604090206007015460ff16610d855760405162461bcd60e51b815260206004820152602d60248201527f54686973206f7267616e697a6174696f6e20646f6573206e6f7420686176652060448201526c37b832b71031b7b73a32b9ba1760991b606482015260840161020a565b6001600160a01b03831660009081526020818152604080832033845260010190915290206004015460ff1615610e095760405162461bcd60e51b815260206004820152602360248201527f596f75206861766520616c7265616479206372656174656420616e206163746960448201526237b71760e91b606482015260840161020a565b6001600160a01b03831660009081526020818152604080832033845260010182529091208351610e3b92850190610ecd565b506001600160a01b0383166000908152602081815260408083203380855260019091019092529182902060030183905590517fd3d45429f6c2339a23437577bd167085ad0b979da68a822a522a731bfb12041e91610e9f918691908690869061144a565b60405180910390a1505050565b5080546000825590600052602060002090810190610eca9190610f8b565b50565b828054610ed9906113a7565b90600052602060002090601f016020900481019282610efb5760008555610f41565b82601f10610f1457805160ff1916838001178555610f41565b82800160010185558215610f41579182015b82811115610f41578251825591602001919060010190610f26565b50610f4d929150610f8b565b5090565b828054828255906000526020600020908101928215610f415791602002820182811115610f41578251825591602001919060010190610f26565b5b80821115610f4d5760008155600101610f8c565b80356001600160a01b0381168114610fb757600080fd5b919050565b60008060408385031215610fcf57600080fd5b610fd883610fa0565b9150610fe660208401610fa0565b90509250929050565b634e487b7160e01b600052604160045260246000fd5b604051601f8201601f1916810167ffffffffffffffff8111828210171561102e5761102e610fef565b604052919050565b600082601f83011261104757600080fd5b813567ffffffffffffffff81111561106157611061610fef565b611074601f8201601f1916602001611005565b81815284602083860101111561108957600080fd5b816020850160208301376000918101602001919091529392505050565b600082601f8301126110b757600080fd5b8135602067ffffffffffffffff8211156110d3576110d3610fef565b8160051b6110e2828201611005565b92835284810182019282810190878511156110fc57600080fd5b83870192505b8483101561111b57823582529183019190830190611102565b979650505050505050565b60008060008060008060c0878903121561113f57600080fd5b863567ffffffffffffffff8082111561115757600080fd5b6111638a838b01611036565b9750602089013591508082111561117957600080fd5b6111858a838b016110a6565b9650604089013591508082111561119b57600080fd5b506111a889828a016110a6565b945050606087013592506080870135915060a087013590509295509295509295565b6000815180845260005b818110156111f0576020818501810151868301820152016111d4565b81811115611202576000602083870101525b50601f01601f19169290920160200192915050565b6000602080830181845280855180835260408601915060408160051b870101925083870160005b8281101561126c57603f1988860301845261125a8583516111ca565b9450928501929085019060010161123e565b5092979650505050505050565b6000806040838503121561128c57600080fd5b823567ffffffffffffffff8111156112a357600080fd5b6112af858286016110a6565b95602094909401359450505050565b6000602082840312156112d057600080fd5b6112d982610fa0565b9392505050565b6000806000606084860312156112f557600080fd5b6112fe84610fa0565b9250602084013567ffffffffffffffff81111561131a57600080fd5b61132686828701611036565b925050604084013590509250925092565b6000821982111561135857634e487b7160e01b600052601160045260246000fd5b500190565b634e487b7160e01b600052603260045260246000fd5b6001600160a01b0384168152606060208201819052600090611397908301856111ca565b9050826040830152949350505050565b600181811c908216806113bb57607f821691505b602082108114156113dc57634e487b7160e01b600052602260045260246000fd5b50919050565b60006060820160018060a01b03808716845260206060818601528287548085526080870191508860005282600020945060005b81811015611433578554851683526001958601959284019201611415565b505080945050505050826040830152949350505050565b6001600160a01b03858116825284166020820152608060408201819052600090611476908301856111ca565b90508260608301529594505050505056fea2646970667358221220c04c51fc7c1fb5af831da9b2edb8175cdba6643451f2afc57a772406cd9afa9764736f6c634300080b0033",
  "immutableReferences": {},
  "source": "// SPDX-License-Identifier: GPL-3.0\npragma solidity 0.8.11;\n\ncontract Main {\n\n    struct Organisation {\n        string name;\n        address ethAddress;\n        bool isRegistered;\n        mapping (address => bool) participants;\n        uint[] themes;\n        uint country;\n    }\n\n    struct Theme {\n        uint id;\n        string name;\n    }\n\n     struct Country {\n        uint id;\n        string name;\n    }\n\n    struct Action {\n        string name;\n        uint voteNumber;\n        mapping(address => bool) hasVoted;\n        uint requiredFunds;\n        bool isCreated;\n    }\n\n    struct Contest {\n        string name;\n        mapping(address => Action) actions;\n        uint[] themeIDs;\n        uint[] countryIDs;\n        uint applicationEndDate;\n        uint votingEndDate;\n        uint availableFunds;\n        bool isCreated;\n        address[] winningActionAddresses;\n    }\n\n    event OrganizationRegistered(address addressOrga);\n    event ParticipantWhitelisted(address addressParticipant, address addressOrganization); \n    event ParticipantRemoved(address addressOrga, address addressParticipant);\n    event ContestCreated(address addressOrga, string name, uint funds);\n    event ActionCreated(address addressContestCreator, address addressActionCreator, string actionName, uint requiredFunds);\n    event VoteTallied(address addressContestCreator, address[] addressActionCreator, uint nbVotes);\n    event HasVotedForAction(address addressContestCreator, address addressActionCreator, address voterAddress); \n\n    mapping (address => Contest) contests;\n    mapping (address => Organisation) organisation;\n    mapping (uint => Country)  private countries;\n    mapping (uint => Theme)  private thematics;\n    string[] private themeList = [\n        \"education\",\n        \"trafficking\",\n        \"domestic violence\",\n        \"women's movement\",\n        \"campaigns\",\n        \"roma women\",\n        \"identity\",\n        \"lobbing\",\n        \"marginalized groups\",\n        \"sexual harassment\",\n        \"women's rights\"\n    ];\n\n     string[] private countryList = [\n        \"Serbia\",\n        \"Croatia\",\n        \"Montenegro\",\n        \"Bosnia and Hercegovina\",\n        \"Slovenia\",\n        \"Macedonia\"\n    ];\n\n    constructor() {\n        setThematics();\n        setCountries();\n    }\n\n    // Sender not authorized for this operation.\n    error Unauthorized();\n\n    // Prepends a check that only passes\n    // if the function is called from\n    // a certain address.\n    modifier onlyBy(address _account)\n    {\n        if (msg.sender != _account)\n            revert Unauthorized();\n        _;\n    }\n\n    function setThematics() private {\n        uint numThemes = themeList.length;\n        for (uint i=0; i < numThemes-1; i++) {\n            Theme memory theme;\n            theme.id = i;\n            theme.name = themeList[i];\n            thematics[i] = theme;\n        }\n    }\n\n    function setCountries() private {\n        uint numCountries = countryList.length;\n        for (uint i=0; i < numCountries-1; i++) {\n            Country memory country;\n            country.id = i;\n            country.name = countryList[i];\n            countries[i] = country;\n        }\n    }\n\n    function getThematics() public view returns(string[] memory) {        \n        return themeList;\n    }\n\n    function getCountries() public view returns(string[] memory) {        \n        return countryList;\n    }\n\n     function registerOrganisation(uint[] memory thematicIds, uint countryId) external {\n         // TODO: send token of gouvernance to metamask\n        require(!organisation[msg.sender].isRegistered, 'Organisation already registered.');\n        require(thematicIds.length > 0, 'Organisation must have thematics');\n        require(countryId >= 0, 'Organisation must have a country');\n        organisation[msg.sender].ethAddress = msg.sender;\n        organisation[msg.sender].themes = thematicIds;\n        organisation[msg.sender].country = countryId;\n        organisation[msg.sender].isRegistered = true;\n        emit OrganizationRegistered(msg.sender);\n    }\n    \n    /**\n    * @notice this function returns true if the participant is whitelisted\n    * @notice it can be called either by an organisation or a participant\n    * @param _addrOrganisation - organisation's address\n    * @param _addrParticipant - participant's address\n    * @return true if the address exists, false if not\n     */\n    function participantIsWhiteListed(address _addrOrganisation, address _addrParticipant) external view returns(bool) {\n        return organisation[_addrOrganisation].participants[_addrParticipant];\n    }\n\n    /**\n    * @notice allows the organisation (msg.sender) to delete a member from its whtelist\n    * @param _addrToDelete - the ethAddress of the participant to be deleted \n     */\n    function removeFromWhitelist(address _addrToDelete) external {\n        require(organisation[msg.sender].participants[_addrToDelete]==true, 'the address you entered does not exist');\n        delete organisation[msg.sender].participants[_addrToDelete];\n        emit ParticipantRemoved(msg.sender, _addrToDelete);\n    }\n\n    function addParticipant(address _addrOrga, address _addrParticipant ) external {\n        require(organisation[_addrOrga].ethAddress == msg.sender, 'You are not the owner of the organization');\n        require(!organisation[_addrOrga].participants[_addrParticipant], 'Address already whitelisted for this organization');\n        organisation[_addrOrga].participants[_addrParticipant] = true;\n        emit ParticipantWhitelisted(_addrParticipant, _addrOrga);\n    }\n\n    function addContest(string memory _name, uint[] memory _themeIds, uint[] memory _eligibleCountryIds, uint _applicationEndDate, uint _votingEndDate, uint _funds) external {\n        // TODO: verify if balance of gouv token is > 0 in metamask\n        require(!contests[msg.sender].isCreated, 'Organisation already created a contest.');\n        contests[msg.sender].name = _name;\n        contests[msg.sender].themeIDs = _themeIds;\n        contests[msg.sender].countryIDs = _eligibleCountryIds;\n        contests[msg.sender].applicationEndDate = _applicationEndDate;\n        contests[msg.sender].votingEndDate = _votingEndDate;\n        contests[msg.sender].availableFunds = _funds;\n        contests[msg.sender].isCreated = true;\n        emit ContestCreated(msg.sender, _name, _funds);\n    }\n\n    function createAction(address _creatorOfContest, string memory _name, uint _requiredFunds) external {\n        // TODO : add country and theme verification\n        require(contests[msg.sender].isCreated, 'This organization does not have open contest.');\n        require(!contests[_creatorOfContest].actions[msg.sender].isCreated, 'You have already created an action.');\n        contests[_creatorOfContest].actions[msg.sender].name = _name;\n        contests[_creatorOfContest].actions[msg.sender].requiredFunds = _requiredFunds;\n        emit ActionCreated(_creatorOfContest, msg.sender, _name, _requiredFunds);\n    }\n\n    function voteForAction(address _contestCreator, address _actionCreator) external {\n        // TODO: verify if its time to vote\n        require(msg.sender != _contestCreator && msg.sender != _actionCreator, 'You can not vote for this action');\n        require(!contests[_contestCreator].actions[_actionCreator].hasVoted[msg.sender], 'You have already voted!');\n        \n        \n        contests[_contestCreator].actions[_actionCreator].voteNumber += 1;\n        contests[_contestCreator].actions[_actionCreator].hasVoted[msg.sender] = true;\n\n        if(contests[_contestCreator].winningActionAddresses.length == 0){\n            contests[_contestCreator].winningActionAddresses.push(_actionCreator);\n        }else if(contests[_contestCreator].actions[contests[_contestCreator].winningActionAddresses[0]].voteNumber < contests[_contestCreator].actions[_actionCreator].voteNumber){\n            delete contests[_contestCreator].winningActionAddresses;\n            contests[_contestCreator].winningActionAddresses.push(_actionCreator);\n        }else if(contests[_contestCreator].actions[contests[_contestCreator].winningActionAddresses[0]].voteNumber == contests[_contestCreator].actions[_actionCreator].voteNumber){\n            contests[_contestCreator].winningActionAddresses.push(_actionCreator);\n        }\n\n        emit HasVotedForAction(_contestCreator, _actionCreator, msg.sender);\n    }\n    \n    // TODO: function for tallying votes with time counter / controller \n\n    function tallyVote(address _contestCreator) external {\n        require(block.timestamp > contests[_contestCreator].votingEndDate, \"Voting has not finished yet!\");\n\n        emit VoteTallied(_contestCreator, contests[_contestCreator].winningActionAddresses, contests[_contestCreator].actions[contests[_contestCreator].winningActionAddresses[0]].voteNumber);\n    }\n}   ",
  "sourcePath": "/home/kojche/Documents/projects/alyra/certif-alyra/yu-go-dao/template/Truffle/contracts/Main.sol",
  "compiler": {
    "name": "solc",
    "version": "0.8.11+commit.d7f03943.Emscripten.clang"
  },
  "schemaVersion": "3.4.3",
  "updatedAt": "2022-01-06T00:48:57.543Z",
  "networkType": "ethereum",
  "devdoc": {
    "kind": "dev",
    "methods": {
      "participantIsWhiteListed(address,address)": {
        "params": {
          "_addrOrganisation": "- organisation's address",
          "_addrParticipant": "- participant's address"
        },
        "returns": {
          "_0": "true if the address exists, false if not"
        }
      },
      "removeFromWhitelist(address)": {
        "params": {
          "_addrToDelete": "- the ethAddress of the participant to be deleted "
        }
      }
    },
    "version": 1
  },
  "userdoc": {
    "kind": "user",
    "methods": {
      "participantIsWhiteListed(address,address)": {
        "notice": "this function returns true if the participant is whitelistedit can be called either by an organisation or a participant"
      },
      "removeFromWhitelist(address)": {
        "notice": "allows the organisation (msg.sender) to delete a member from its whtelist"
      }
    },
    "version": 1
  }
}