{
  "contractName": "YugoManager",
  "abi": [
    {
      "anonymous": false,
      "inputs": [
        {
          "indexed": false,
          "internalType": "address",
          "name": "addrSetTo",
          "type": "address"
        },
        {
          "indexed": false,
          "internalType": "address",
          "name": "setter",
          "type": "address"
        }
      ],
      "name": "AddressSet",
      "type": "event"
    },
    {
      "anonymous": false,
      "inputs": [
        {
          "indexed": true,
          "internalType": "address",
          "name": "previousOwner",
          "type": "address"
        },
        {
          "indexed": true,
          "internalType": "address",
          "name": "newOwner",
          "type": "address"
        }
      ],
      "name": "OwnershipTransferred",
      "type": "event"
    },
    {
      "anonymous": false,
      "inputs": [
        {
          "indexed": false,
          "internalType": "address",
          "name": "",
          "type": "address"
        },
        {
          "indexed": false,
          "internalType": "uint256",
          "name": "",
          "type": "uint256"
        }
      ],
      "name": "Received",
      "type": "event"
    },
    {
      "anonymous": false,
      "inputs": [
        {
          "indexed": false,
          "internalType": "address",
          "name": "recipient",
          "type": "address"
        },
        {
          "indexed": false,
          "internalType": "uint256",
          "name": "amount",
          "type": "uint256"
        }
      ],
      "name": "YugoTransfer",
      "type": "event"
    },
    {
      "inputs": [],
      "name": "owner",
      "outputs": [
        {
          "internalType": "address",
          "name": "",
          "type": "address"
        }
      ],
      "stateMutability": "view",
      "type": "function",
      "constant": true
    },
    {
      "inputs": [],
      "name": "renounceOwnership",
      "outputs": [],
      "stateMutability": "nonpayable",
      "type": "function"
    },
    {
      "inputs": [
        {
          "internalType": "address",
          "name": "newOwner",
          "type": "address"
        }
      ],
      "name": "transferOwnership",
      "outputs": [],
      "stateMutability": "nonpayable",
      "type": "function"
    },
    {
      "inputs": [],
      "name": "yugo",
      "outputs": [
        {
          "internalType": "contract IYugo",
          "name": "",
          "type": "address"
        }
      ],
      "stateMutability": "view",
      "type": "function",
      "constant": true
    },
    {
      "inputs": [],
      "name": "yugoDao",
      "outputs": [
        {
          "internalType": "contract IYugoDao",
          "name": "",
          "type": "address"
        }
      ],
      "stateMutability": "view",
      "type": "function",
      "constant": true
    },
    {
      "inputs": [
        {
          "internalType": "address",
          "name": "_addrOrga",
          "type": "address"
        },
        {
          "internalType": "uint256",
          "name": "_eth",
          "type": "uint256"
        }
      ],
      "name": "deposit",
      "outputs": [],
      "stateMutability": "payable",
      "type": "function",
      "payable": true
    },
    {
      "inputs": [
        {
          "internalType": "address payable",
          "name": "_to",
          "type": "address"
        }
      ],
      "name": "sendEth",
      "outputs": [],
      "stateMutability": "payable",
      "type": "function",
      "payable": true
    },
    {
      "inputs": [
        {
          "internalType": "address",
          "name": "_addy",
          "type": "address"
        }
      ],
      "name": "setYugoAddress",
      "outputs": [],
      "stateMutability": "nonpayable",
      "type": "function"
    },
    {
      "inputs": [
        {
          "internalType": "address",
          "name": "_addydao",
          "type": "address"
        }
      ],
      "name": "setYugoDaoAddress",
      "outputs": [],
      "stateMutability": "nonpayable",
      "type": "function"
    },
    {
      "inputs": [
        {
          "internalType": "address",
          "name": "account",
          "type": "address"
        }
      ],
      "name": "yugoBalanceOf",
      "outputs": [
        {
          "internalType": "uint256",
          "name": "",
          "type": "uint256"
        }
      ],
      "stateMutability": "view",
      "type": "function",
      "constant": true
    },
    {
      "inputs": [],
      "name": "purchaseToken",
      "outputs": [],
      "stateMutability": "payable",
      "type": "function",
      "payable": true
    }
  ],
  "bytecode": "0x60806040526706f05b59d3b2000060035534801561001c57600080fd5b5061003961002e61003e60201b60201c565b61004660201b60201c565b61010a565b600033905090565b60008060009054906101000a900473ffffffffffffffffffffffffffffffffffffffff169050816000806101000a81548173ffffffffffffffffffffffffffffffffffffffff021916908373ffffffffffffffffffffffffffffffffffffffff1602179055508173ffffffffffffffffffffffffffffffffffffffff168173ffffffffffffffffffffffffffffffffffffffff167f8be0079c531659141344cd1fd0a4f28419497f9722a3daafe3b4186f6b6457e060405160405180910390a35050565b6116af806101196000396000f3fe60806040526004361061009c5760003560e01c806376a54c601161006457806376a54c60146101655780638da5cb5b146101815780639d87eb6a146101ac578063a95c4d62146101d7578063b0cbe770146101e1578063f2fde38b1461020a5761009c565b806322370265146100a157806347e7ef24146100cc5780635fe581dc146100e857806364e2a0e014610111578063715018a61461014e575b600080fd5b3480156100ad57600080fd5b506100b6610233565b6040516100c39190610dc6565b60405180910390f35b6100e660048036038101906100e19190610e5a565b610259565b005b3480156100f457600080fd5b5061010f600480360381019061010a9190610e9a565b6102f3565b005b34801561011d57600080fd5b5061013860048036038101906101339190610e9a565b6103ec565b6040516101459190610ed6565b60405180910390f35b34801561015a57600080fd5b50610163610491565b005b61017f600480360381019061017a9190610f2f565b610519565b005b34801561018d57600080fd5b50610196610612565b6040516101a39190610f6b565b60405180910390f35b3480156101b857600080fd5b506101c161063b565b6040516101ce9190610fa7565b60405180910390f35b6101df610661565b005b3480156101ed57600080fd5b5061020860048036038101906102039190610e9a565b61087c565b005b34801561021657600080fd5b50610231600480360381019061022c9190610e9a565b610975565b005b600160009054906101000a900473ffffffffffffffffffffffffffffffffffffffff1681565b6000811161026657600080fd5b6000829050600082905080600460008473ffffffffffffffffffffffffffffffffffffffff1673ffffffffffffffffffffffffffffffffffffffff168152602001908152602001600020819055507f88a5966d370b9919b20f3e2c13ff65706f196a4e32cc2c12bf57088f8852587484846040516102e5929190610fc2565b60405180910390a150505050565b6102fb610a6d565b73ffffffffffffffffffffffffffffffffffffffff16610319610612565b73ffffffffffffffffffffffffffffffffffffffff161461036f576040517f08c379a000000000000000000000000000000000000000000000000000000000815260040161036690611048565b60405180910390fd5b80600160006101000a81548173ffffffffffffffffffffffffffffffffffffffff021916908373ffffffffffffffffffffffffffffffffffffffff1602179055507f7c70e2d89d1dca170b21f8ef849678463944a87b2c710218a895aeb967ed52f781336040516103e1929190611068565b60405180910390a150565b6000600160009054906101000a900473ffffffffffffffffffffffffffffffffffffffff1673ffffffffffffffffffffffffffffffffffffffff166370a08231836040518263ffffffff1660e01b81526004016104499190610f6b565b602060405180830381865afa158015610466573d6000803e3d6000fd5b505050506040513d601f19601f8201168201806040525081019061048a91906110a6565b9050919050565b610499610a6d565b73ffffffffffffffffffffffffffffffffffffffff166104b7610612565b73ffffffffffffffffffffffffffffffffffffffff161461050d576040517f08c379a000000000000000000000000000000000000000000000000000000000815260040161050490611048565b60405180910390fd5b6105176000610a75565b565b610521610a6d565b73ffffffffffffffffffffffffffffffffffffffff1661053f610612565b73ffffffffffffffffffffffffffffffffffffffff1614610595576040517f08c379a000000000000000000000000000000000000000000000000000000000815260040161058c90611048565b60405180910390fd5b60008173ffffffffffffffffffffffffffffffffffffffff166108fc349081150290604051600060405180830381858888f1935050505090508061060e576040517f08c379a00000000000000000000000000000000000000000000000000000000081526004016106059061111f565b60405180910390fd5b5050565b60008060009054906101000a900473ffffffffffffffffffffffffffffffffffffffff16905090565b600260009054906101000a900473ffffffffffffffffffffffffffffffffffffffff1681565b60011515600260009054906101000a900473ffffffffffffffffffffffffffffffffffffffff1673ffffffffffffffffffffffffffffffffffffffff1663bd729732336040518263ffffffff1660e01b81526004016106c09190610f6b565b6020604051808303816000875af11580156106df573d6000803e3d6000fd5b505050506040513d601f19601f820116820180604052508101906107039190611177565b151514610745576040517f08c379a000000000000000000000000000000000000000000000000000000000815260040161073c90611216565b60405180910390fd5b6000600160009054906101000a900473ffffffffffffffffffffffffffffffffffffffff1673ffffffffffffffffffffffffffffffffffffffff166370a08231336040518263ffffffff1660e01b81526004016107a29190610f6b565b602060405180830381865afa1580156107bf573d6000803e3d6000fd5b505050506040513d601f19601f820116820180604052508101906107e391906110a6565b14610823576040517f08c379a000000000000000000000000000000000000000000000000000000000815260040161081a90611282565b60405180910390fd5b6003543414610867576040517f08c379a000000000000000000000000000000000000000000000000000000000815260040161085e906112ee565b60405180910390fd5b6108713334610259565b61087a33610b39565b565b610884610a6d565b73ffffffffffffffffffffffffffffffffffffffff166108a2610612565b73ffffffffffffffffffffffffffffffffffffffff16146108f8576040517f08c379a00000000000000000000000000000000000000000000000000000000081526004016108ef90611048565b60405180910390fd5b80600260006101000a81548173ffffffffffffffffffffffffffffffffffffffff021916908373ffffffffffffffffffffffffffffffffffffffff1602179055507f7c70e2d89d1dca170b21f8ef849678463944a87b2c710218a895aeb967ed52f7813360405161096a929190611068565b60405180910390a150565b61097d610a6d565b73ffffffffffffffffffffffffffffffffffffffff1661099b610612565b73ffffffffffffffffffffffffffffffffffffffff16146109f1576040517f08c379a00000000000000000000000000000000000000000000000000000000081526004016109e890611048565b60405180910390fd5b600073ffffffffffffffffffffffffffffffffffffffff168173ffffffffffffffffffffffffffffffffffffffff161415610a61576040517f08c379a0000000000000000000000000000000000000000000000000000000008152600401610a5890611380565b60405180910390fd5b610a6a81610a75565b50565b600033905090565b60008060009054906101000a900473ffffffffffffffffffffffffffffffffffffffff169050816000806101000a81548173ffffffffffffffffffffffffffffffffffffffff021916908373ffffffffffffffffffffffffffffffffffffffff1602179055508173ffffffffffffffffffffffffffffffffffffffff168173ffffffffffffffffffffffffffffffffffffffff167f8be0079c531659141344cd1fd0a4f28419497f9722a3daafe3b4186f6b6457e060405160405180910390a35050565b600354600460008373ffffffffffffffffffffffffffffffffffffffff1673ffffffffffffffffffffffffffffffffffffffff1681526020019081526020016000205414610bbc576040517f08c379a0000000000000000000000000000000000000000000000000000000008152600401610bb3906113ec565b60405180910390fd5b6000600160009054906101000a900473ffffffffffffffffffffffffffffffffffffffff1673ffffffffffffffffffffffffffffffffffffffff1663313ce5676040518163ffffffff1660e01b8152600401602060405180830381865afa158015610c2b573d6000803e3d6000fd5b505050506040513d601f19601f82011682018060405250810190610c4f9190611445565b600a610c5b91906115d4565b6001610c67919061161f565b9050600160009054906101000a900473ffffffffffffffffffffffffffffffffffffffff1673ffffffffffffffffffffffffffffffffffffffff1663a9059cbb83836040518363ffffffff1660e01b8152600401610cc6929190610fc2565b6020604051808303816000875af1158015610ce5573d6000803e3d6000fd5b505050506040513d601f19601f82011682018060405250810190610d099190611177565b507fe94c6e629948b607c16a4b9710b4e775200e3c7963e20b6cbb8dccc8da65d8708282604051610d3b929190610fc2565b60405180910390a15050565b600073ffffffffffffffffffffffffffffffffffffffff82169050919050565b6000819050919050565b6000610d8c610d87610d8284610d47565b610d67565b610d47565b9050919050565b6000610d9e82610d71565b9050919050565b6000610db082610d93565b9050919050565b610dc081610da5565b82525050565b6000602082019050610ddb6000830184610db7565b92915050565b600080fd5b6000610df182610d47565b9050919050565b610e0181610de6565b8114610e0c57600080fd5b50565b600081359050610e1e81610df8565b92915050565b6000819050919050565b610e3781610e24565b8114610e4257600080fd5b50565b600081359050610e5481610e2e565b92915050565b60008060408385031215610e7157610e70610de1565b5b6000610e7f85828601610e0f565b9250506020610e9085828601610e45565b9150509250929050565b600060208284031215610eb057610eaf610de1565b5b6000610ebe84828501610e0f565b91505092915050565b610ed081610e24565b82525050565b6000602082019050610eeb6000830184610ec7565b92915050565b6000610efc82610d47565b9050919050565b610f0c81610ef1565b8114610f1757600080fd5b50565b600081359050610f2981610f03565b92915050565b600060208284031215610f4557610f44610de1565b5b6000610f5384828501610f1a565b91505092915050565b610f6581610de6565b82525050565b6000602082019050610f806000830184610f5c565b92915050565b6000610f9182610d93565b9050919050565b610fa181610f86565b82525050565b6000602082019050610fbc6000830184610f98565b92915050565b6000604082019050610fd76000830185610f5c565b610fe46020830184610ec7565b9392505050565b600082825260208201905092915050565b7f4f776e61626c653a2063616c6c6572206973206e6f7420746865206f776e6572600082015250565b6000611032602083610feb565b915061103d82610ffc565b602082019050919050565b6000602082019050818103600083015261106181611025565b9050919050565b600060408201905061107d6000830185610f5c565b61108a6020830184610f5c565b9392505050565b6000815190506110a081610e2e565b92915050565b6000602082840312156110bc576110bb610de1565b5b60006110ca84828501611091565b91505092915050565b7f4661696c656420746f2073656e64204574686572000000000000000000000000600082015250565b6000611109601483610feb565b9150611114826110d3565b602082019050919050565b60006020820190508181036000830152611138816110fc565b9050919050565b60008115159050919050565b6111548161113f565b811461115f57600080fd5b50565b6000815190506111718161114b565b92915050565b60006020828403121561118d5761118c610de1565b5b600061119b84828501611162565b91505092915050565b7f796f75206e65656420746f206265207265676973746572656420746f2070757260008201527f63686173652074686520746f6b656e0000000000000000000000000000000000602082015250565b6000611200602f83610feb565b915061120b826111a4565b604082019050919050565b6000602082019050818103600083015261122f816111f3565b9050919050565b7f796f7520616c726561647920707572636861736564206120746f6b656e000000600082015250565b600061126c601d83610feb565b915061127782611236565b602082019050919050565b6000602082019050818103600083015261129b8161125f565b9050919050565b7f796f7520646f206e6f74206861766520656e6f75676820455448000000000000600082015250565b60006112d8601a83610feb565b91506112e3826112a2565b602082019050919050565b60006020820190508181036000830152611307816112cb565b9050919050565b7f4f776e61626c653a206e6577206f776e657220697320746865207a65726f206160008201527f6464726573730000000000000000000000000000000000000000000000000000602082015250565b600061136a602683610feb565b91506113758261130e565b604082019050919050565b600060208201905081810360008301526113998161135d565b9050919050565b7f6e6f204554482077617320726563656976656400000000000000000000000000600082015250565b60006113d6601383610feb565b91506113e1826113a0565b602082019050919050565b60006020820190508181036000830152611405816113c9565b9050919050565b600060ff82169050919050565b6114228161140c565b811461142d57600080fd5b50565b60008151905061143f81611419565b92915050565b60006020828403121561145b5761145a610de1565b5b600061146984828501611430565b91505092915050565b7f4e487b7100000000000000000000000000000000000000000000000000000000600052601160045260246000fd5b60008160011c9050919050565b6000808291508390505b60018511156114f8578086048111156114d4576114d3611472565b5b60018516156114e35780820291505b80810290506114f1856114a1565b94506114b8565b94509492505050565b60008261151157600190506115cd565b8161151f57600090506115cd565b8160018114611535576002811461153f5761156e565b60019150506115cd565b60ff84111561155157611550611472565b5b8360020a91508482111561156857611567611472565b5b506115cd565b5060208310610133831016604e8410600b84101617156115a35782820a90508381111561159e5761159d611472565b5b6115cd565b6115b084848460016114ae565b925090508184048111156115c7576115c6611472565b5b81810290505b9392505050565b60006115df82610e24565b91506115ea8361140c565b92506116177fffffffffffffffffffffffffffffffffffffffffffffffffffffffffffffffff8484611501565b905092915050565b600061162a82610e24565b915061163583610e24565b9250817fffffffffffffffffffffffffffffffffffffffffffffffffffffffffffffffff048311821515161561166e5761166d611472565b5b82820290509291505056fea2646970667358221220d3f63dbbcc214d35f4c3daef301dec90ca5126bd9595bb21de833263191c461664736f6c634300080b0033",
  "immutableReferences": {},
  "source": "// SPDX-License-Identifier: GPL-3.0\npragma solidity 0.8.11;\n\nimport \"@openzeppelin/contracts/access/Ownable.sol\";\nimport \"./IYugo.sol\";\nimport \"./IYugoDao.sol\";\n\n// interface IYugo {\n//     function balanceOf(address account) external view returns (uint256);\n// }\n\ncontract YugoManager is Ownable {\n\n    IYugo public yugo;\n    IYugoDao public yugoDao;\n\n    uint yugoTokenCost = 500000000000000000; //0.5 ETH\n    mapping (address => uint) EthLedger;\n\n    event AddressSet (address addrSetTo, address setter);\n    event YugoTransfer (address recipient, uint256 amount);\n    event Received(address, uint);\n\n    function deposit(address _addrOrga, uint _eth) public payable {\n        require(_eth > 0);\n        address sender = _addrOrga;\n        uint deposited =_eth;\n        // receiver = owner;\n        EthLedger[sender] = deposited;\n        // receiver.transfer(deposited);\n        emit Received(_addrOrga, _eth);\n    }\n\n    function sendEth(address payable _to) public payable onlyOwner {\n        bool sent = _to.send(msg.value);\n        require(sent, \"Failed to send Ether\");\n    }\n\n    function setYugoAddress(address _addy) external onlyOwner {\n        yugo = IYugo(_addy);\n        emit AddressSet(_addy, msg.sender);\n    }\n\n    function setYugoDaoAddress(address _addydao) external onlyOwner {\n        yugoDao = IYugoDao(_addydao);\n        emit AddressSet(_addydao, msg.sender);\n    }\n\n    function yugoBalanceOf(address account) public view returns (uint256) {\n        return yugo.balanceOf(account);\n    }\n\n    function purchaseToken() external payable {\n        require(yugoDao.organisationRegistrationStatus(msg.sender) == true, 'you need to be registered to purchase the token');\n        require(yugo.balanceOf(msg.sender) == 0, \"you already purchased a token\");\n        require(msg.value == yugoTokenCost, \"you do not have enough ETH\");\n        // require(!EthLedger)\n        deposit(msg.sender, msg.value);\n        _transferYugo(msg.sender);\n    }\n\n    function _transferYugo(address _orga) internal {\n        require(EthLedger[_orga] == yugoTokenCost, \"no ETH was received\");\n        uint256 amount = 1*10**yugo.decimals();\n        yugo.transfer(_orga, amount);\n        emit YugoTransfer(_orga, amount);\n    }\n\n    // function transferWinninAction() {}\n\n    // function verifyByOracle\n\n}",
  "sourcePath": "/Users/urdoom/blockchain_development/Alyra/YU-GO/template/Truffle/contracts/YugoManager.sol",
  "compiler": {
    "name": "solc",
    "version": "0.8.11+commit.d7f03943.Emscripten.clang"
  },
  "schemaVersion": "3.4.3",
  "updatedAt": "2022-01-05T17:45:12.792Z",
  "networkType": "ethereum",
  "devdoc": {
    "kind": "dev",
    "methods": {
      "owner()": {
        "details": "Returns the address of the current owner."
      },
      "renounceOwnership()": {
        "details": "Leaves the contract without owner. It will not be possible to call `onlyOwner` functions anymore. Can only be called by the current owner. NOTE: Renouncing ownership will leave the contract without an owner, thereby removing any functionality that is only available to the owner."
      },
      "transferOwnership(address)": {
        "details": "Transfers ownership of the contract to a new account (`newOwner`). Can only be called by the current owner."
      }
    },
    "version": 1
  },
  "userdoc": {
    "kind": "user",
    "methods": {},
    "version": 1
  }
}