{
  "contractName": "YugoManager",
  "abi": [
    {
      "anonymous": false,
      "inputs": [
        {
          "indexed": false,
          "internalType": "address",
          "name": "addrSetTo",
          "type": "address"
        },
        {
          "indexed": false,
          "internalType": "address",
          "name": "setter",
          "type": "address"
        }
      ],
      "name": "AddressSet",
      "type": "event"
    },
    {
      "anonymous": false,
      "inputs": [
        {
          "indexed": true,
          "internalType": "address",
          "name": "previousOwner",
          "type": "address"
        },
        {
          "indexed": true,
          "internalType": "address",
          "name": "newOwner",
          "type": "address"
        }
      ],
      "name": "OwnershipTransferred",
      "type": "event"
    },
    {
      "anonymous": false,
      "inputs": [
        {
          "indexed": false,
          "internalType": "address",
          "name": "organisation",
          "type": "address"
        },
        {
          "indexed": false,
          "internalType": "uint256",
          "name": "value",
          "type": "uint256"
        }
      ],
      "name": "Received",
      "type": "event"
    },
    {
      "anonymous": false,
      "inputs": [
        {
          "indexed": false,
          "internalType": "address",
          "name": "organisation",
          "type": "address"
        }
      ],
      "name": "TokenPurchasedBy",
      "type": "event"
    },
    {
      "anonymous": false,
      "inputs": [
        {
          "indexed": false,
          "internalType": "address",
          "name": "recipient",
          "type": "address"
        },
        {
          "indexed": false,
          "internalType": "uint256",
          "name": "amount",
          "type": "uint256"
        }
      ],
      "name": "YugoTransfer",
      "type": "event"
    },
    {
      "inputs": [],
      "name": "owner",
      "outputs": [
        {
          "internalType": "address",
          "name": "",
          "type": "address"
        }
      ],
      "stateMutability": "view",
      "type": "function",
      "constant": true
    },
    {
      "inputs": [],
      "name": "renounceOwnership",
      "outputs": [],
      "stateMutability": "nonpayable",
      "type": "function"
    },
    {
      "inputs": [
        {
          "internalType": "address",
          "name": "newOwner",
          "type": "address"
        }
      ],
      "name": "transferOwnership",
      "outputs": [],
      "stateMutability": "nonpayable",
      "type": "function"
    },
    {
      "inputs": [],
      "name": "yugo",
      "outputs": [
        {
          "internalType": "contract IYugo",
          "name": "",
          "type": "address"
        }
      ],
      "stateMutability": "view",
      "type": "function",
      "constant": true
    },
    {
      "inputs": [],
      "name": "yugoDao",
      "outputs": [
        {
          "internalType": "contract IYugoDao",
          "name": "",
          "type": "address"
        }
      ],
      "stateMutability": "view",
      "type": "function",
      "constant": true
    },
    {
      "stateMutability": "payable",
      "type": "receive",
      "payable": true
    },
    {
      "inputs": [
        {
          "internalType": "address payable",
          "name": "_to",
          "type": "address"
        }
      ],
      "name": "sendEth",
      "outputs": [],
      "stateMutability": "payable",
      "type": "function",
      "payable": true
    },
    {
      "inputs": [
        {
          "internalType": "address",
          "name": "_addy",
          "type": "address"
        }
      ],
      "name": "setYugoAddress",
      "outputs": [],
      "stateMutability": "nonpayable",
      "type": "function"
    },
    {
      "inputs": [
        {
          "internalType": "address",
          "name": "_addydao",
          "type": "address"
        }
      ],
      "name": "setYugoDaoAddress",
      "outputs": [],
      "stateMutability": "nonpayable",
      "type": "function"
    },
    {
      "inputs": [
        {
          "internalType": "address",
          "name": "account",
          "type": "address"
        }
      ],
      "name": "yugoBalanceOf",
      "outputs": [
        {
          "internalType": "uint256",
          "name": "",
          "type": "uint256"
        }
      ],
      "stateMutability": "view",
      "type": "function",
      "constant": true
    },
    {
      "inputs": [],
      "name": "transferYugo",
      "outputs": [],
      "stateMutability": "nonpayable",
      "type": "function"
    }
  ],
  "bytecode": "0x608060405267016345785d8a000060035534801561001c57600080fd5b5061003961002e61003e60201b60201c565b61004660201b60201c565b61010a565b600033905090565b60008060009054906101000a900473ffffffffffffffffffffffffffffffffffffffff169050816000806101000a81548173ffffffffffffffffffffffffffffffffffffffff021916908373ffffffffffffffffffffffffffffffffffffffff1602179055508173ffffffffffffffffffffffffffffffffffffffff168173ffffffffffffffffffffffffffffffffffffffff167f8be0079c531659141344cd1fd0a4f28419497f9722a3daafe3b4186f6b6457e060405160405180910390a35050565b611624806101196000396000f3fe6080604052600436106100955760003560e01c806376a54c601161005957806376a54c60146103ef5780638da5cb5b1461040b5780639d87eb6a14610436578063b0cbe77014610461578063f2fde38b1461048a5761032b565b8063056e75971461033057806322370265146103475780635fe581dc1461037257806364e2a0e01461039b578063715018a6146103d85761032b565b3661032b5760011515600260009054906101000a900473ffffffffffffffffffffffffffffffffffffffff1673ffffffffffffffffffffffffffffffffffffffff1663bd729732336040518263ffffffff1660e01b81526004016100f99190610d52565b6020604051808303816000875af1158015610118573d6000803e3d6000fd5b505050506040513d601f19601f8201168201806040525081019061013c9190610daa565b15151461017e576040517f08c379a000000000000000000000000000000000000000000000000000000000815260040161017590610e5a565b60405180910390fd5b6000600160009054906101000a900473ffffffffffffffffffffffffffffffffffffffff1673ffffffffffffffffffffffffffffffffffffffff166370a08231336040518263ffffffff1660e01b81526004016101db9190610d52565b602060405180830381865afa1580156101f8573d6000803e3d6000fd5b505050506040513d601f19601f8201168201806040525081019061021c9190610eb0565b1461025c576040517f08c379a000000000000000000000000000000000000000000000000000000000815260040161025390610f29565b60405180910390fd5b60035434146102a0576040517f08c379a000000000000000000000000000000000000000000000000000000000815260040161029790610f95565b60405180910390fd5b6000339050600034905080600460008473ffffffffffffffffffffffffffffffffffffffff1673ffffffffffffffffffffffffffffffffffffffff168152602001908152602001600020819055507f88a5966d370b9919b20f3e2c13ff65706f196a4e32cc2c12bf57088f88525874333460405161031f929190610fc4565b60405180910390a15050005b600080fd5b34801561033c57600080fd5b506103456104b3565b005b34801561035357600080fd5b5061035c6106c0565b604051610369919061104c565b60405180910390f35b34801561037e57600080fd5b5061039960048036038101906103949190611093565b6106e6565b005b3480156103a757600080fd5b506103c260048036038101906103bd9190611093565b6107df565b6040516103cf91906110c0565b60405180910390f35b3480156103e457600080fd5b506103ed610884565b005b61040960048036038101906104049190611119565b61090c565b005b34801561041757600080fd5b50610420610a05565b60405161042d9190610d52565b60405180910390f35b34801561044257600080fd5b5061044b610a2e565b6040516104589190611167565b60405180910390f35b34801561046d57600080fd5b5061048860048036038101906104839190611093565b610a54565b005b34801561049657600080fd5b506104b160048036038101906104ac9190611093565b610b4d565b005b600354600460003373ffffffffffffffffffffffffffffffffffffffff1673ffffffffffffffffffffffffffffffffffffffff1681526020019081526020016000205414610536576040517f08c379a000000000000000000000000000000000000000000000000000000000815260040161052d906111ce565b60405180910390fd5b6000600160009054906101000a900473ffffffffffffffffffffffffffffffffffffffff1673ffffffffffffffffffffffffffffffffffffffff1663313ce5676040518163ffffffff1660e01b8152600401602060405180830381865afa1580156105a5573d6000803e3d6000fd5b505050506040513d601f19601f820116820180604052508101906105c99190611227565b600a6105d591906113b6565b60016105e19190611401565b9050600160009054906101000a900473ffffffffffffffffffffffffffffffffffffffff1673ffffffffffffffffffffffffffffffffffffffff1663a9059cbb33836040518363ffffffff1660e01b8152600401610640929190610fc4565b6020604051808303816000875af115801561065f573d6000803e3d6000fd5b505050506040513d601f19601f820116820180604052508101906106839190610daa565b507fe94c6e629948b607c16a4b9710b4e775200e3c7963e20b6cbb8dccc8da65d87033826040516106b5929190610fc4565b60405180910390a150565b600160009054906101000a900473ffffffffffffffffffffffffffffffffffffffff1681565b6106ee610c45565b73ffffffffffffffffffffffffffffffffffffffff1661070c610a05565b73ffffffffffffffffffffffffffffffffffffffff1614610762576040517f08c379a0000000000000000000000000000000000000000000000000000000008152600401610759906114a7565b60405180910390fd5b80600160006101000a81548173ffffffffffffffffffffffffffffffffffffffff021916908373ffffffffffffffffffffffffffffffffffffffff1602179055507f7c70e2d89d1dca170b21f8ef849678463944a87b2c710218a895aeb967ed52f781336040516107d49291906114c7565b60405180910390a150565b6000600160009054906101000a900473ffffffffffffffffffffffffffffffffffffffff1673ffffffffffffffffffffffffffffffffffffffff166370a08231836040518263ffffffff1660e01b815260040161083c9190610d52565b602060405180830381865afa158015610859573d6000803e3d6000fd5b505050506040513d601f19601f8201168201806040525081019061087d9190610eb0565b9050919050565b61088c610c45565b73ffffffffffffffffffffffffffffffffffffffff166108aa610a05565b73ffffffffffffffffffffffffffffffffffffffff1614610900576040517f08c379a00000000000000000000000000000000000000000000000000000000081526004016108f7906114a7565b60405180910390fd5b61090a6000610c4d565b565b610914610c45565b73ffffffffffffffffffffffffffffffffffffffff16610932610a05565b73ffffffffffffffffffffffffffffffffffffffff1614610988576040517f08c379a000000000000000000000000000000000000000000000000000000000815260040161097f906114a7565b60405180910390fd5b60008173ffffffffffffffffffffffffffffffffffffffff166108fc349081150290604051600060405180830381858888f19350505050905080610a01576040517f08c379a00000000000000000000000000000000000000000000000000000000081526004016109f89061153c565b60405180910390fd5b5050565b60008060009054906101000a900473ffffffffffffffffffffffffffffffffffffffff16905090565b600260009054906101000a900473ffffffffffffffffffffffffffffffffffffffff1681565b610a5c610c45565b73ffffffffffffffffffffffffffffffffffffffff16610a7a610a05565b73ffffffffffffffffffffffffffffffffffffffff1614610ad0576040517f08c379a0000000000000000000000000000000000000000000000000000000008152600401610ac7906114a7565b60405180910390fd5b80600260006101000a81548173ffffffffffffffffffffffffffffffffffffffff021916908373ffffffffffffffffffffffffffffffffffffffff1602179055507f7c70e2d89d1dca170b21f8ef849678463944a87b2c710218a895aeb967ed52f78133604051610b429291906114c7565b60405180910390a150565b610b55610c45565b73ffffffffffffffffffffffffffffffffffffffff16610b73610a05565b73ffffffffffffffffffffffffffffffffffffffff1614610bc9576040517f08c379a0000000000000000000000000000000000000000000000000000000008152600401610bc0906114a7565b60405180910390fd5b600073ffffffffffffffffffffffffffffffffffffffff168173ffffffffffffffffffffffffffffffffffffffff161415610c39576040517f08c379a0000000000000000000000000000000000000000000000000000000008152600401610c30906115ce565b60405180910390fd5b610c4281610c4d565b50565b600033905090565b60008060009054906101000a900473ffffffffffffffffffffffffffffffffffffffff169050816000806101000a81548173ffffffffffffffffffffffffffffffffffffffff021916908373ffffffffffffffffffffffffffffffffffffffff1602179055508173ffffffffffffffffffffffffffffffffffffffff168173ffffffffffffffffffffffffffffffffffffffff167f8be0079c531659141344cd1fd0a4f28419497f9722a3daafe3b4186f6b6457e060405160405180910390a35050565b600073ffffffffffffffffffffffffffffffffffffffff82169050919050565b6000610d3c82610d11565b9050919050565b610d4c81610d31565b82525050565b6000602082019050610d676000830184610d43565b92915050565b600080fd5b60008115159050919050565b610d8781610d72565b8114610d9257600080fd5b50565b600081519050610da481610d7e565b92915050565b600060208284031215610dc057610dbf610d6d565b5b6000610dce84828501610d95565b91505092915050565b600082825260208201905092915050565b7f796f75206e65656420746f206265207265676973746572656420746f2070757260008201527f63686173652074686520746f6b656e0000000000000000000000000000000000602082015250565b6000610e44602f83610dd7565b9150610e4f82610de8565b604082019050919050565b60006020820190508181036000830152610e7381610e37565b9050919050565b6000819050919050565b610e8d81610e7a565b8114610e9857600080fd5b50565b600081519050610eaa81610e84565b92915050565b600060208284031215610ec657610ec5610d6d565b5b6000610ed484828501610e9b565b91505092915050565b7f796f7520616c726561647920707572636861736564206120746f6b656e000000600082015250565b6000610f13601d83610dd7565b9150610f1e82610edd565b602082019050919050565b60006020820190508181036000830152610f4281610f06565b9050919050565b7f796f7520646f206e6f74206861766520656e6f75676820455448000000000000600082015250565b6000610f7f601a83610dd7565b9150610f8a82610f49565b602082019050919050565b60006020820190508181036000830152610fae81610f72565b9050919050565b610fbe81610e7a565b82525050565b6000604082019050610fd96000830185610d43565b610fe66020830184610fb5565b9392505050565b6000819050919050565b600061101261100d61100884610d11565b610fed565b610d11565b9050919050565b600061102482610ff7565b9050919050565b600061103682611019565b9050919050565b6110468161102b565b82525050565b6000602082019050611061600083018461103d565b92915050565b61107081610d31565b811461107b57600080fd5b50565b60008135905061108d81611067565b92915050565b6000602082840312156110a9576110a8610d6d565b5b60006110b78482850161107e565b91505092915050565b60006020820190506110d56000830184610fb5565b92915050565b60006110e682610d11565b9050919050565b6110f6816110db565b811461110157600080fd5b50565b600081359050611113816110ed565b92915050565b60006020828403121561112f5761112e610d6d565b5b600061113d84828501611104565b91505092915050565b600061115182611019565b9050919050565b61116181611146565b82525050565b600060208201905061117c6000830184611158565b92915050565b7f6e6f204554482077617320726563656976656400000000000000000000000000600082015250565b60006111b8601383610dd7565b91506111c382611182565b602082019050919050565b600060208201905081810360008301526111e7816111ab565b9050919050565b600060ff82169050919050565b611204816111ee565b811461120f57600080fd5b50565b600081519050611221816111fb565b92915050565b60006020828403121561123d5761123c610d6d565b5b600061124b84828501611212565b91505092915050565b7f4e487b7100000000000000000000000000000000000000000000000000000000600052601160045260246000fd5b60008160011c9050919050565b6000808291508390505b60018511156112da578086048111156112b6576112b5611254565b5b60018516156112c55780820291505b80810290506112d385611283565b945061129a565b94509492505050565b6000826112f357600190506113af565b8161130157600090506113af565b8160018114611317576002811461132157611350565b60019150506113af565b60ff84111561133357611332611254565b5b8360020a91508482111561134a57611349611254565b5b506113af565b5060208310610133831016604e8410600b84101617156113855782820a9050838111156113805761137f611254565b5b6113af565b6113928484846001611290565b925090508184048111156113a9576113a8611254565b5b81810290505b9392505050565b60006113c182610e7a565b91506113cc836111ee565b92506113f97fffffffffffffffffffffffffffffffffffffffffffffffffffffffffffffffff84846112e3565b905092915050565b600061140c82610e7a565b915061141783610e7a565b9250817fffffffffffffffffffffffffffffffffffffffffffffffffffffffffffffffff04831182151516156114505761144f611254565b5b828202905092915050565b7f4f776e61626c653a2063616c6c6572206973206e6f7420746865206f776e6572600082015250565b6000611491602083610dd7565b915061149c8261145b565b602082019050919050565b600060208201905081810360008301526114c081611484565b9050919050565b60006040820190506114dc6000830185610d43565b6114e96020830184610d43565b9392505050565b7f4661696c656420746f2073656e64204574686572000000000000000000000000600082015250565b6000611526601483610dd7565b9150611531826114f0565b602082019050919050565b6000602082019050818103600083015261155581611519565b9050919050565b7f4f776e61626c653a206e6577206f776e657220697320746865207a65726f206160008201527f6464726573730000000000000000000000000000000000000000000000000000602082015250565b60006115b8602683610dd7565b91506115c38261155c565b604082019050919050565b600060208201905081810360008301526115e7816115ab565b905091905056fea2646970667358221220e2466966b7d9f7fbec6211cc5cf9f803afaf4a7c200ed3ec8814ab69010da55f64736f6c634300080b0033",
  "immutableReferences": {},
  "source": "// SPDX-License-Identifier: GPL-3.0\r\npragma solidity 0.8.11;\r\n\r\nimport \"@openzeppelin/contracts/access/Ownable.sol\";\r\nimport \"./IYugo.sol\";\r\nimport \"./IYugoDao.sol\";\r\n\r\n// interface IYugo {\r\n//     function balanceOf(address account) external view returns (uint256);\r\n// }\r\n\r\ncontract YugoManager is Ownable {\r\n\r\n    IYugo public yugo;\r\n    IYugoDao public yugoDao;\r\n\r\n    uint yugoTokenCost = 100000000000000000; //0.1 ETH\r\n    mapping (address => uint) EthLedger;\r\n\r\n    event AddressSet (address addrSetTo, address setter);\r\n    event YugoTransfer (address recipient, uint256 amount);\r\n    event Received(address organisation, uint value);\r\n    event TokenPurchasedBy(address organisation);\r\n\r\n    receive() external payable {\r\n        require(yugoDao.organisationRegistrationStatus(msg.sender) == true, 'you need to be registered to purchase the token');\r\n        require(yugo.balanceOf(msg.sender) == 0, \"you already purchased a token\");\r\n        require(msg.value == yugoTokenCost, \"you do not have enough ETH\");\r\n        // require(msg.value > 0);\r\n        address sender = msg.sender;\r\n        uint deposited = msg.value;\r\n        // receiver = owner;\r\n        EthLedger[sender] = deposited;\r\n        // receiver.transfer(deposited);\r\n        emit Received(msg.sender, msg.value);\r\n    }\r\n\r\n    function sendEth(address payable _to) public payable onlyOwner {\r\n        bool sent = _to.send(msg.value);\r\n        require(sent, \"Failed to send Ether\");\r\n    }\r\n\r\n    function setYugoAddress(address _addy) external onlyOwner {\r\n        yugo = IYugo(_addy);\r\n        emit AddressSet(_addy, msg.sender);\r\n    }\r\n\r\n    function setYugoDaoAddress(address _addydao) external onlyOwner {\r\n        yugoDao = IYugoDao(_addydao);\r\n        emit AddressSet(_addydao, msg.sender);\r\n    }\r\n\r\n    function yugoBalanceOf(address account) public view returns (uint256) {\r\n        return yugo.balanceOf(account);\r\n    }\r\n\r\n    // function purchaseToken() external payable {\r\n    //     require(yugoDao.organisationRegistrationStatus(msg.sender) == true, 'you need to be registered to purchase the token');\r\n    //     require(yugo.balanceOf(msg.sender) == 0, \"you already purchased a token\");\r\n    //     require(msg.value == yugoTokenCost, \"you do not have enough ETH\");\r\n    //     // require(!EthLedger)\r\n    //     _deposit(msg.sender, msg.value);\r\n    //     // _transferYugo(msg.sender);\r\n    //     emit TokenPurchasedBy(msg.sender);\r\n    // }\r\n\r\n    function transferYugo() external {\r\n        require(EthLedger[msg.sender] == yugoTokenCost, \"no ETH was received\");\r\n        uint256 amount = 1*10**yugo.decimals();\r\n        yugo.transfer(msg.sender, amount);\r\n        emit YugoTransfer(msg.sender, amount);\r\n    }\r\n\r\n    // function transferWinningAction() {}\r\n\r\n    // function verifyByOracle\r\n\r\n}",
  "sourcePath": "F:\\workspace\\alyra\\yugo\\YU-GO\\template\\Truffle\\contracts\\YugoManager.sol",
  "compiler": {
    "name": "solc",
    "version": "0.8.11+commit.d7f03943.Emscripten.clang"
  },
  "schemaVersion": "3.4.3",
  "updatedAt": "2022-01-06T02:12:36.108Z",
  "networkType": "ethereum",
  "devdoc": {
    "kind": "dev",
    "methods": {
      "owner()": {
        "details": "Returns the address of the current owner."
      },
      "renounceOwnership()": {
        "details": "Leaves the contract without owner. It will not be possible to call `onlyOwner` functions anymore. Can only be called by the current owner. NOTE: Renouncing ownership will leave the contract without an owner, thereby removing any functionality that is only available to the owner."
      },
      "transferOwnership(address)": {
        "details": "Transfers ownership of the contract to a new account (`newOwner`). Can only be called by the current owner."
      }
    },
    "version": 1
  },
  "userdoc": {
    "kind": "user",
    "methods": {},
    "version": 1
  }
}