{
  "contractName": "Yugo",
  "abi": [
    {
      "inputs": [
        {
          "internalType": "address",
          "name": "_manager",
          "type": "address"
        }
      ],
      "stateMutability": "nonpayable",
      "type": "constructor"
    },
    {
      "anonymous": false,
      "inputs": [
        {
          "indexed": true,
          "internalType": "address",
          "name": "owner",
          "type": "address"
        },
        {
          "indexed": true,
          "internalType": "address",
          "name": "spender",
          "type": "address"
        },
        {
          "indexed": false,
          "internalType": "uint256",
          "name": "value",
          "type": "uint256"
        }
      ],
      "name": "Approval",
      "type": "event"
    },
    {
      "anonymous": false,
      "inputs": [
        {
          "indexed": true,
          "internalType": "address",
          "name": "delegator",
          "type": "address"
        },
        {
          "indexed": true,
          "internalType": "address",
          "name": "fromDelegate",
          "type": "address"
        },
        {
          "indexed": true,
          "internalType": "address",
          "name": "toDelegate",
          "type": "address"
        }
      ],
      "name": "DelegateChanged",
      "type": "event"
    },
    {
      "anonymous": false,
      "inputs": [
        {
          "indexed": true,
          "internalType": "address",
          "name": "delegate",
          "type": "address"
        },
        {
          "indexed": false,
          "internalType": "uint256",
          "name": "previousBalance",
          "type": "uint256"
        },
        {
          "indexed": false,
          "internalType": "uint256",
          "name": "newBalance",
          "type": "uint256"
        }
      ],
      "name": "DelegateVotesChanged",
      "type": "event"
    },
    {
      "anonymous": false,
      "inputs": [
        {
          "indexed": true,
          "internalType": "address",
          "name": "previousOwner",
          "type": "address"
        },
        {
          "indexed": true,
          "internalType": "address",
          "name": "newOwner",
          "type": "address"
        }
      ],
      "name": "OwnershipTransferred",
      "type": "event"
    },
    {
      "anonymous": false,
      "inputs": [
        {
          "indexed": false,
          "internalType": "address",
          "name": "account",
          "type": "address"
        }
      ],
      "name": "Paused",
      "type": "event"
    },
    {
      "anonymous": false,
      "inputs": [
        {
          "indexed": true,
          "internalType": "bytes32",
          "name": "role",
          "type": "bytes32"
        },
        {
          "indexed": true,
          "internalType": "bytes32",
          "name": "previousAdminRole",
          "type": "bytes32"
        },
        {
          "indexed": true,
          "internalType": "bytes32",
          "name": "newAdminRole",
          "type": "bytes32"
        }
      ],
      "name": "RoleAdminChanged",
      "type": "event"
    },
    {
      "anonymous": false,
      "inputs": [
        {
          "indexed": true,
          "internalType": "bytes32",
          "name": "role",
          "type": "bytes32"
        },
        {
          "indexed": true,
          "internalType": "address",
          "name": "account",
          "type": "address"
        },
        {
          "indexed": true,
          "internalType": "address",
          "name": "sender",
          "type": "address"
        }
      ],
      "name": "RoleGranted",
      "type": "event"
    },
    {
      "anonymous": false,
      "inputs": [
        {
          "indexed": true,
          "internalType": "bytes32",
          "name": "role",
          "type": "bytes32"
        },
        {
          "indexed": true,
          "internalType": "address",
          "name": "account",
          "type": "address"
        },
        {
          "indexed": true,
          "internalType": "address",
          "name": "sender",
          "type": "address"
        }
      ],
      "name": "RoleRevoked",
      "type": "event"
    },
    {
      "anonymous": false,
      "inputs": [
        {
          "indexed": true,
          "internalType": "address",
          "name": "from",
          "type": "address"
        },
        {
          "indexed": true,
          "internalType": "address",
          "name": "to",
          "type": "address"
        },
        {
          "indexed": false,
          "internalType": "uint256",
          "name": "value",
          "type": "uint256"
        }
      ],
      "name": "Transfer",
      "type": "event"
    },
    {
      "anonymous": false,
      "inputs": [
        {
          "indexed": false,
          "internalType": "address",
          "name": "account",
          "type": "address"
        }
      ],
      "name": "Unpaused",
      "type": "event"
    },
    {
      "inputs": [],
      "name": "DEFAULT_ADMIN_ROLE",
      "outputs": [
        {
          "internalType": "bytes32",
          "name": "",
          "type": "bytes32"
        }
      ],
      "stateMutability": "view",
      "type": "function",
      "constant": true
    },
    {
      "inputs": [],
      "name": "DOMAIN_SEPARATOR",
      "outputs": [
        {
          "internalType": "bytes32",
          "name": "",
          "type": "bytes32"
        }
      ],
      "stateMutability": "view",
      "type": "function",
      "constant": true
    },
    {
      "inputs": [],
      "name": "MINTER_ROLE",
      "outputs": [
        {
          "internalType": "bytes32",
          "name": "",
          "type": "bytes32"
        }
      ],
      "stateMutability": "view",
      "type": "function",
      "constant": true
    },
    {
      "inputs": [],
      "name": "PAUSER_ROLE",
      "outputs": [
        {
          "internalType": "bytes32",
          "name": "",
          "type": "bytes32"
        }
      ],
      "stateMutability": "view",
      "type": "function",
      "constant": true
    },
    {
      "inputs": [
        {
          "internalType": "address",
          "name": "owner",
          "type": "address"
        },
        {
          "internalType": "address",
          "name": "spender",
          "type": "address"
        }
      ],
      "name": "allowance",
      "outputs": [
        {
          "internalType": "uint256",
          "name": "",
          "type": "uint256"
        }
      ],
      "stateMutability": "view",
      "type": "function",
      "constant": true
    },
    {
      "inputs": [
        {
          "internalType": "address",
          "name": "spender",
          "type": "address"
        },
        {
          "internalType": "uint256",
          "name": "amount",
          "type": "uint256"
        }
      ],
      "name": "approve",
      "outputs": [
        {
          "internalType": "bool",
          "name": "",
          "type": "bool"
        }
      ],
      "stateMutability": "nonpayable",
      "type": "function"
    },
    {
      "inputs": [
        {
          "internalType": "address",
          "name": "account",
          "type": "address"
        }
      ],
      "name": "balanceOf",
      "outputs": [
        {
          "internalType": "uint256",
          "name": "",
          "type": "uint256"
        }
      ],
      "stateMutability": "view",
      "type": "function",
      "constant": true
    },
    {
      "inputs": [
        {
          "internalType": "uint256",
          "name": "amount",
          "type": "uint256"
        }
      ],
      "name": "burn",
      "outputs": [],
      "stateMutability": "nonpayable",
      "type": "function"
    },
    {
      "inputs": [
        {
          "internalType": "address",
          "name": "account",
          "type": "address"
        },
        {
          "internalType": "uint256",
          "name": "amount",
          "type": "uint256"
        }
      ],
      "name": "burnFrom",
      "outputs": [],
      "stateMutability": "nonpayable",
      "type": "function"
    },
    {
      "inputs": [
        {
          "internalType": "address",
          "name": "account",
          "type": "address"
        },
        {
          "internalType": "uint32",
          "name": "pos",
          "type": "uint32"
        }
      ],
      "name": "checkpoints",
      "outputs": [
        {
          "components": [
            {
              "internalType": "uint32",
              "name": "fromBlock",
              "type": "uint32"
            },
            {
              "internalType": "uint224",
              "name": "votes",
              "type": "uint224"
            }
          ],
          "internalType": "struct ERC20Votes.Checkpoint",
          "name": "",
          "type": "tuple"
        }
      ],
      "stateMutability": "view",
      "type": "function",
      "constant": true
    },
    {
      "inputs": [],
      "name": "decimals",
      "outputs": [
        {
          "internalType": "uint8",
          "name": "",
          "type": "uint8"
        }
      ],
      "stateMutability": "view",
      "type": "function",
      "constant": true
    },
    {
      "inputs": [
        {
          "internalType": "address",
          "name": "spender",
          "type": "address"
        },
        {
          "internalType": "uint256",
          "name": "subtractedValue",
          "type": "uint256"
        }
      ],
      "name": "decreaseAllowance",
      "outputs": [
        {
          "internalType": "bool",
          "name": "",
          "type": "bool"
        }
      ],
      "stateMutability": "nonpayable",
      "type": "function"
    },
    {
      "inputs": [
        {
          "internalType": "address",
          "name": "delegatee",
          "type": "address"
        }
      ],
      "name": "delegate",
      "outputs": [],
      "stateMutability": "nonpayable",
      "type": "function"
    },
    {
      "inputs": [
        {
          "internalType": "address",
          "name": "delegatee",
          "type": "address"
        },
        {
          "internalType": "uint256",
          "name": "nonce",
          "type": "uint256"
        },
        {
          "internalType": "uint256",
          "name": "expiry",
          "type": "uint256"
        },
        {
          "internalType": "uint8",
          "name": "v",
          "type": "uint8"
        },
        {
          "internalType": "bytes32",
          "name": "r",
          "type": "bytes32"
        },
        {
          "internalType": "bytes32",
          "name": "s",
          "type": "bytes32"
        }
      ],
      "name": "delegateBySig",
      "outputs": [],
      "stateMutability": "nonpayable",
      "type": "function"
    },
    {
      "inputs": [
        {
          "internalType": "address",
          "name": "account",
          "type": "address"
        }
      ],
      "name": "delegates",
      "outputs": [
        {
          "internalType": "address",
          "name": "",
          "type": "address"
        }
      ],
      "stateMutability": "view",
      "type": "function",
      "constant": true
    },
    {
      "inputs": [
        {
          "internalType": "uint256",
          "name": "blockNumber",
          "type": "uint256"
        }
      ],
      "name": "getPastTotalSupply",
      "outputs": [
        {
          "internalType": "uint256",
          "name": "",
          "type": "uint256"
        }
      ],
      "stateMutability": "view",
      "type": "function",
      "constant": true
    },
    {
      "inputs": [
        {
          "internalType": "address",
          "name": "account",
          "type": "address"
        },
        {
          "internalType": "uint256",
          "name": "blockNumber",
          "type": "uint256"
        }
      ],
      "name": "getPastVotes",
      "outputs": [
        {
          "internalType": "uint256",
          "name": "",
          "type": "uint256"
        }
      ],
      "stateMutability": "view",
      "type": "function",
      "constant": true
    },
    {
      "inputs": [
        {
          "internalType": "bytes32",
          "name": "role",
          "type": "bytes32"
        }
      ],
      "name": "getRoleAdmin",
      "outputs": [
        {
          "internalType": "bytes32",
          "name": "",
          "type": "bytes32"
        }
      ],
      "stateMutability": "view",
      "type": "function",
      "constant": true
    },
    {
      "inputs": [
        {
          "internalType": "address",
          "name": "account",
          "type": "address"
        }
      ],
      "name": "getVotes",
      "outputs": [
        {
          "internalType": "uint256",
          "name": "",
          "type": "uint256"
        }
      ],
      "stateMutability": "view",
      "type": "function",
      "constant": true
    },
    {
      "inputs": [
        {
          "internalType": "bytes32",
          "name": "role",
          "type": "bytes32"
        },
        {
          "internalType": "address",
          "name": "account",
          "type": "address"
        }
      ],
      "name": "grantRole",
      "outputs": [],
      "stateMutability": "nonpayable",
      "type": "function"
    },
    {
      "inputs": [
        {
          "internalType": "bytes32",
          "name": "role",
          "type": "bytes32"
        },
        {
          "internalType": "address",
          "name": "account",
          "type": "address"
        }
      ],
      "name": "hasRole",
      "outputs": [
        {
          "internalType": "bool",
          "name": "",
          "type": "bool"
        }
      ],
      "stateMutability": "view",
      "type": "function",
      "constant": true
    },
    {
      "inputs": [
        {
          "internalType": "address",
          "name": "spender",
          "type": "address"
        },
        {
          "internalType": "uint256",
          "name": "addedValue",
          "type": "uint256"
        }
      ],
      "name": "increaseAllowance",
      "outputs": [
        {
          "internalType": "bool",
          "name": "",
          "type": "bool"
        }
      ],
      "stateMutability": "nonpayable",
      "type": "function"
    },
    {
      "inputs": [],
      "name": "name",
      "outputs": [
        {
          "internalType": "string",
          "name": "",
          "type": "string"
        }
      ],
      "stateMutability": "view",
      "type": "function",
      "constant": true
    },
    {
      "inputs": [
        {
          "internalType": "address",
          "name": "owner",
          "type": "address"
        }
      ],
      "name": "nonces",
      "outputs": [
        {
          "internalType": "uint256",
          "name": "",
          "type": "uint256"
        }
      ],
      "stateMutability": "view",
      "type": "function",
      "constant": true
    },
    {
      "inputs": [
        {
          "internalType": "address",
          "name": "account",
          "type": "address"
        }
      ],
      "name": "numCheckpoints",
      "outputs": [
        {
          "internalType": "uint32",
          "name": "",
          "type": "uint32"
        }
      ],
      "stateMutability": "view",
      "type": "function",
      "constant": true
    },
    {
      "inputs": [],
      "name": "owner",
      "outputs": [
        {
          "internalType": "address",
          "name": "",
          "type": "address"
        }
      ],
      "stateMutability": "view",
      "type": "function",
      "constant": true
    },
    {
      "inputs": [],
      "name": "paused",
      "outputs": [
        {
          "internalType": "bool",
          "name": "",
          "type": "bool"
        }
      ],
      "stateMutability": "view",
      "type": "function",
      "constant": true
    },
    {
      "inputs": [
        {
          "internalType": "address",
          "name": "owner",
          "type": "address"
        },
        {
          "internalType": "address",
          "name": "spender",
          "type": "address"
        },
        {
          "internalType": "uint256",
          "name": "value",
          "type": "uint256"
        },
        {
          "internalType": "uint256",
          "name": "deadline",
          "type": "uint256"
        },
        {
          "internalType": "uint8",
          "name": "v",
          "type": "uint8"
        },
        {
          "internalType": "bytes32",
          "name": "r",
          "type": "bytes32"
        },
        {
          "internalType": "bytes32",
          "name": "s",
          "type": "bytes32"
        }
      ],
      "name": "permit",
      "outputs": [],
      "stateMutability": "nonpayable",
      "type": "function"
    },
    {
      "inputs": [],
      "name": "renounceOwnership",
      "outputs": [],
      "stateMutability": "nonpayable",
      "type": "function"
    },
    {
      "inputs": [
        {
          "internalType": "bytes32",
          "name": "role",
          "type": "bytes32"
        },
        {
          "internalType": "address",
          "name": "account",
          "type": "address"
        }
      ],
      "name": "renounceRole",
      "outputs": [],
      "stateMutability": "nonpayable",
      "type": "function"
    },
    {
      "inputs": [
        {
          "internalType": "bytes32",
          "name": "role",
          "type": "bytes32"
        },
        {
          "internalType": "address",
          "name": "account",
          "type": "address"
        }
      ],
      "name": "revokeRole",
      "outputs": [],
      "stateMutability": "nonpayable",
      "type": "function"
    },
    {
      "inputs": [
        {
          "internalType": "bytes4",
          "name": "interfaceId",
          "type": "bytes4"
        }
      ],
      "name": "supportsInterface",
      "outputs": [
        {
          "internalType": "bool",
          "name": "",
          "type": "bool"
        }
      ],
      "stateMutability": "view",
      "type": "function",
      "constant": true
    },
    {
      "inputs": [],
      "name": "symbol",
      "outputs": [
        {
          "internalType": "string",
          "name": "",
          "type": "string"
        }
      ],
      "stateMutability": "view",
      "type": "function",
      "constant": true
    },
    {
      "inputs": [],
      "name": "totalSupply",
      "outputs": [
        {
          "internalType": "uint256",
          "name": "",
          "type": "uint256"
        }
      ],
      "stateMutability": "view",
      "type": "function",
      "constant": true
    },
    {
      "inputs": [
        {
          "internalType": "address",
          "name": "recipient",
          "type": "address"
        },
        {
          "internalType": "uint256",
          "name": "amount",
          "type": "uint256"
        }
      ],
      "name": "transfer",
      "outputs": [
        {
          "internalType": "bool",
          "name": "",
          "type": "bool"
        }
      ],
      "stateMutability": "nonpayable",
      "type": "function"
    },
    {
      "inputs": [
        {
          "internalType": "address",
          "name": "sender",
          "type": "address"
        },
        {
          "internalType": "address",
          "name": "recipient",
          "type": "address"
        },
        {
          "internalType": "uint256",
          "name": "amount",
          "type": "uint256"
        }
      ],
      "name": "transferFrom",
      "outputs": [
        {
          "internalType": "bool",
          "name": "",
          "type": "bool"
        }
      ],
      "stateMutability": "nonpayable",
      "type": "function"
    },
    {
      "inputs": [
        {
          "internalType": "address",
          "name": "newOwner",
          "type": "address"
        }
      ],
      "name": "transferOwnership",
      "outputs": [],
      "stateMutability": "nonpayable",
      "type": "function"
    },
    {
      "inputs": [],
      "name": "pause",
      "outputs": [],
      "stateMutability": "nonpayable",
      "type": "function"
    },
    {
      "inputs": [],
      "name": "unpause",
      "outputs": [],
      "stateMutability": "nonpayable",
      "type": "function"
    },
    {
      "inputs": [
        {
          "internalType": "address",
          "name": "to",
          "type": "address"
        },
        {
          "internalType": "uint256",
          "name": "amount",
          "type": "uint256"
        }
      ],
      "name": "mint",
      "outputs": [],
      "stateMutability": "nonpayable",
      "type": "function"
    }
  ],
  "bytecode": "0x6101606040527f6e71edae12b1b97f4d1f60370fef10105fa2faae0126114a169c64845d6126c9610140908152503480156200003a57600080fd5b506040516200695738038062006957833981810160405281019062000060919062001052565b6040518060400160405280600481526020017f5975676f00000000000000000000000000000000000000000000000000000000815250806040518060400160405280600181526020017f31000000000000000000000000000000000000000000000000000000000000008152506040518060400160405280600481526020017f5975676f000000000000000000000000000000000000000000000000000000008152506040518060400160405280600281526020017f594700000000000000000000000000000000000000000000000000000000000081525081600390805190602001906200015192919062000f38565b5080600490805190602001906200016a92919062000f38565b5050506000600560006101000a81548160ff02191690831515021790555060008280519060200120905060008280519060200120905060007f8b73c3c69bb8fe3d512ecc4cf759cc79239f7b179b0ffacaa9a75d522b39400f90508260e081815250508161010081815250504660a08181525050620001f18184846200031960201b60201c565b608081815250503073ffffffffffffffffffffffffffffffffffffffff1660c08173ffffffffffffffffffffffffffffffffffffffff16815250508061012081815250505050505050506200025b6200024f6200035560201b60201c565b6200035d60201b60201c565b620002706000801b826200042360201b60201c565b620002a27f65d7a28e3265b37a6474929f336521b332c1681b933f6cb9f3376673440d862a826200042360201b60201c565b620002e081620002b76200051560201b60201c565b600a620002c591906200121e565b6101f4620002d491906200126f565b6200051e60201b60201c565b620003127f9f2df0fed2c77648de5860a4cc508cd0818c85b8b8a1ab4ceeef8d981c8956a6826200042360201b60201c565b506200179d565b60008383834630604051602001620003369594939291906200130d565b6040516020818303038152906040528051906020012090509392505050565b600033905090565b6000600b60009054906101000a900473ffffffffffffffffffffffffffffffffffffffff16905081600b60006101000a81548173ffffffffffffffffffffffffffffffffffffffff021916908373ffffffffffffffffffffffffffffffffffffffff1602179055508173ffffffffffffffffffffffffffffffffffffffff168173ffffffffffffffffffffffffffffffffffffffff167f8be0079c531659141344cd1fd0a4f28419497f9722a3daafe3b4186f6b6457e060405160405180910390a35050565b6200043582826200053960201b60201c565b620005115760016006600084815260200190815260200160002060000160008373ffffffffffffffffffffffffffffffffffffffff1673ffffffffffffffffffffffffffffffffffffffff16815260200190815260200160002060006101000a81548160ff021916908315150217905550620004b66200035560201b60201c565b73ffffffffffffffffffffffffffffffffffffffff168173ffffffffffffffffffffffffffffffffffffffff16837f2f8788117e7eff1d82e926ec794901d17c78024a50270940304540a733656f0d60405160405180910390a45b5050565b60006012905090565b620005358282620005a460201b620018651760201c565b5050565b60006006600084815260200190815260200160002060000160008373ffffffffffffffffffffffffffffffffffffffff1673ffffffffffffffffffffffffffffffffffffffff16815260200190815260200160002060009054906101000a900460ff16905092915050565b620005bb82826200066260201b620018f21760201c565b620005cb620007db60201b60201c565b7bffffffffffffffffffffffffffffffffffffffffffffffffffffffff16620005f9620007ff60201b60201c565b11156200063d576040517f08c379a00000000000000000000000000000000000000000000000000000000081526004016200063490620013f1565b60405180910390fd5b6200065c600a6200080960201b62001a5217836200082160201b60201c565b50505050565b600073ffffffffffffffffffffffffffffffffffffffff168273ffffffffffffffffffffffffffffffffffffffff161415620006d5576040517f08c379a0000000000000000000000000000000000000000000000000000000008152600401620006cc9062001463565b60405180910390fd5b620006e96000838362000ad260201b60201c565b8060026000828254620006fd919062001485565b92505081905550806000808473ffffffffffffffffffffffffffffffffffffffff1673ffffffffffffffffffffffffffffffffffffffff168152602001908152602001600020600082825462000754919062001485565b925050819055508173ffffffffffffffffffffffffffffffffffffffff16600073ffffffffffffffffffffffffffffffffffffffff167fddf252ad1be2c89b69c2b068fc378daa952ba7f163c4a11628f55a4df523b3ef83604051620007bb9190620014e2565b60405180910390a3620007d76000838362000b4260201b60201c565b5050565b60007bffffffffffffffffffffffffffffffffffffffffffffffffffffffff905090565b6000600254905090565b6000818362000819919062001485565b905092915050565b60008060008580549050905060008114620008965785600182620008469190620014ff565b815481106200085a57620008596200153a565b5b9060005260206000200160000160049054906101000a90047bffffffffffffffffffffffffffffffffffffffffffffffffffffffff1662000899565b60005b7bffffffffffffffffffffffffffffffffffffffffffffffffffffffff169250620008c583858760201c565b91506000811180156200091e57504386600183620008e49190620014ff565b81548110620008f857620008f76200153a565b5b9060005260206000200160000160009054906101000a900463ffffffff1663ffffffff16145b15620009bf576200093a8262000b5f60201b62001a681760201c565b866001836200094a9190620014ff565b815481106200095e576200095d6200153a565b5b9060005260206000200160000160046101000a8154817bffffffffffffffffffffffffffffffffffffffffffffffffffffffff02191690837bffffffffffffffffffffffffffffffffffffffffffffffffffffffff16021790555062000ac9565b856040518060400160405280620009e14362000bcd60201b62001ad31760201c565b63ffffffff16815260200162000a028562000b5f60201b62001a681760201c565b7bffffffffffffffffffffffffffffffffffffffffffffffffffffffff168152509080600181540180825580915050600190039060005260206000200160009091909190915060008201518160000160006101000a81548163ffffffff021916908363ffffffff16021790555060208201518160000160046101000a8154817bffffffffffffffffffffffffffffffffffffffffffffffffffffffff02191690837bffffffffffffffffffffffffffffffffffffffffffffffffffffffff16021790555050505b50935093915050565b62000ae262000c2360201b60201c565b1562000b25576040517f08c379a000000000000000000000000000000000000000000000000000000000815260040162000b1c90620015b9565b60405180910390fd5b62000b3d83838362000c3a60201b62001b261760201c565b505050565b62000b5a83838362000c3f60201b62001b2b1760201c565b505050565b60007bffffffffffffffffffffffffffffffffffffffffffffffffffffffff801682111562000bc5576040517f08c379a000000000000000000000000000000000000000000000000000000000815260040162000bbc9062001651565b60405180910390fd5b819050919050565b600063ffffffff801682111562000c1b576040517f08c379a000000000000000000000000000000000000000000000000000000000815260040162000c1290620016e9565b60405180910390fd5b819050919050565b6000600560009054906101000a900460ff16905090565b505050565b62000c5783838362000c8f60201b62001b561760201c565b62000c8a62000c6c8462000c9460201b60201c565b62000c7d8462000c9460201b60201c565b8362000cfd60201b60201c565b505050565b505050565b6000600860008373ffffffffffffffffffffffffffffffffffffffff1673ffffffffffffffffffffffffffffffffffffffff16815260200190815260200160002060009054906101000a900473ffffffffffffffffffffffffffffffffffffffff169050919050565b8173ffffffffffffffffffffffffffffffffffffffff168373ffffffffffffffffffffffffffffffffffffffff161415801562000d3a5750600081115b1562000f1b57600073ffffffffffffffffffffffffffffffffffffffff168373ffffffffffffffffffffffffffffffffffffffff161462000e2d5760008062000dd4600960008773ffffffffffffffffffffffffffffffffffffffff1673ffffffffffffffffffffffffffffffffffffffff16815260200190815260200160002062000f2060201b62001b5b17856200082160201b60201c565b915091508473ffffffffffffffffffffffffffffffffffffffff167fdec2bacdd2f05b59de34da9b523dff8be42e5e38e818c82fdb0bae774387a724838360405162000e229291906200170b565b60405180910390a250505b600073ffffffffffffffffffffffffffffffffffffffff168273ffffffffffffffffffffffffffffffffffffffff161462000f1a5760008062000ec1600960008673ffffffffffffffffffffffffffffffffffffffff1673ffffffffffffffffffffffffffffffffffffffff1681526020019081526020016000206200080960201b62001a5217856200082160201b60201c565b915091508373ffffffffffffffffffffffffffffffffffffffff167fdec2bacdd2f05b59de34da9b523dff8be42e5e38e818c82fdb0bae774387a724838360405162000f0f9291906200170b565b60405180910390a250505b5b505050565b6000818362000f309190620014ff565b905092915050565b82805462000f469062001767565b90600052602060002090601f01602090048101928262000f6a576000855562000fb6565b82601f1062000f8557805160ff191683800117855562000fb6565b8280016001018555821562000fb6579182015b8281111562000fb557825182559160200191906001019062000f98565b5b50905062000fc5919062000fc9565b5090565b5b8082111562000fe457600081600090555060010162000fca565b5090565b600080fd5b600073ffffffffffffffffffffffffffffffffffffffff82169050919050565b60006200101a8262000fed565b9050919050565b6200102c816200100d565b81146200103857600080fd5b50565b6000815190506200104c8162001021565b92915050565b6000602082840312156200106b576200106a62000fe8565b5b60006200107b848285016200103b565b91505092915050565b7f4e487b7100000000000000000000000000000000000000000000000000000000600052601160045260246000fd5b60008160011c9050919050565b6000808291508390505b60018511156200111257808604811115620010ea57620010e962001084565b5b6001851615620010fa5780820291505b80810290506200110a85620010b3565b9450620010ca565b94509492505050565b6000826200112d576001905062001200565b816200113d576000905062001200565b8160018114620011565760028114620011615762001197565b600191505062001200565b60ff84111562001176576200117562001084565b5b8360020a91508482111562001190576200118f62001084565b5b5062001200565b5060208310610133831016604e8410600b8410161715620011d15782820a905083811115620011cb57620011ca62001084565b5b62001200565b620011e08484846001620010c0565b92509050818404811115620011fa57620011f962001084565b5b81810290505b9392505050565b6000819050919050565b600060ff82169050919050565b60006200122b8262001207565b9150620012388362001211565b9250620012677fffffffffffffffffffffffffffffffffffffffffffffffffffffffffffffffff84846200111b565b905092915050565b60006200127c8262001207565b9150620012898362001207565b9250817fffffffffffffffffffffffffffffffffffffffffffffffffffffffffffffffff0483118215151615620012c557620012c462001084565b5b828202905092915050565b6000819050919050565b620012e581620012d0565b82525050565b620012f68162001207565b82525050565b62001307816200100d565b82525050565b600060a082019050620013246000830188620012da565b620013336020830187620012da565b620013426040830186620012da565b620013516060830185620012eb565b620013606080830184620012fc565b9695505050505050565b600082825260208201905092915050565b7f4552433230566f7465733a20746f74616c20737570706c79207269736b73206f60008201527f766572666c6f77696e6720766f74657300000000000000000000000000000000602082015250565b6000620013d96030836200136a565b9150620013e6826200137b565b604082019050919050565b600060208201905081810360008301526200140c81620013ca565b9050919050565b7f45524332303a206d696e7420746f20746865207a65726f206164647265737300600082015250565b60006200144b601f836200136a565b9150620014588262001413565b602082019050919050565b600060208201905081810360008301526200147e816200143c565b9050919050565b6000620014928262001207565b91506200149f8362001207565b9250827fffffffffffffffffffffffffffffffffffffffffffffffffffffffffffffffff03821115620014d757620014d662001084565b5b828201905092915050565b6000602082019050620014f96000830184620012eb565b92915050565b60006200150c8262001207565b9150620015198362001207565b9250828210156200152f576200152e62001084565b5b828203905092915050565b7f4e487b7100000000000000000000000000000000000000000000000000000000600052603260045260246000fd5b7f5061757361626c653a2070617573656400000000000000000000000000000000600082015250565b6000620015a16010836200136a565b9150620015ae8262001569565b602082019050919050565b60006020820190508181036000830152620015d48162001592565b9050919050565b7f53616665436173743a2076616c756520646f65736e27742066697420696e203260008201527f3234206269747300000000000000000000000000000000000000000000000000602082015250565b6000620016396027836200136a565b91506200164682620015db565b604082019050919050565b600060208201905081810360008301526200166c816200162a565b9050919050565b7f53616665436173743a2076616c756520646f65736e27742066697420696e203360008201527f3220626974730000000000000000000000000000000000000000000000000000602082015250565b6000620016d16026836200136a565b9150620016de8262001673565b604082019050919050565b600060208201905081810360008301526200170481620016c2565b9050919050565b6000604082019050620017226000830185620012eb565b620017316020830184620012eb565b9392505050565b7f4e487b7100000000000000000000000000000000000000000000000000000000600052602260045260246000fd5b600060028204905060018216806200178057607f821691505b6020821081141562001797576200179662001738565b5b50919050565b60805160a05160c05160e05161010051610120516101405161515f620017f8600039600061146a0152600061225b0152600061229d0152600061227c015260006121b10152600061220701526000612230015261515f6000f3fe608060405234801561001057600080fd5b50600436106102485760003560e01c8063715018a61161013b578063a457c2d7116100b8578063d547741f1161007c578063d547741f14610729578063dd62ed3e14610745578063e63ab1e914610775578063f1127ed814610793578063f2fde38b146107c357610248565b8063a457c2d714610673578063a9059cbb146106a3578063c3cda520146106d3578063d505accf146106ef578063d53913931461070b57610248565b80638e539e8c116100ff5780638e539e8c146105a757806391d14854146105d757806395d89b41146106075780639ab24eb014610625578063a217fddf1461065557610248565b8063715018a61461052957806379cc6790146105335780637ecebe001461054f5780638456cb591461057f5780638da5cb5b1461058957610248565b806339509351116101c9578063587cde1e1161018d578063587cde1e1461045f5780635c19a95c1461048f5780635c975abb146104ab5780636fcfff45146104c957806370a08231146104f957610248565b806339509351146103bd5780633a46b1a8146103ed5780633f4ba83a1461041d57806340c10f191461042757806342966c681461044357610248565b8063248a9ca311610210578063248a9ca3146103195780632f2ff15d14610349578063313ce567146103655780633644e5151461038357806336568abe146103a157610248565b806301ffc9a71461024d57806306fdde031461027d578063095ea7b31461029b57806318160ddd146102cb57806323b872dd146102e9575b600080fd5b610267600480360381019061026291906135fb565b6107df565b6040516102749190613643565b60405180910390f35b610285610859565b60405161029291906136f7565b60405180910390f35b6102b560048036038101906102b091906137ad565b6108eb565b6040516102c29190613643565b60405180910390f35b6102d3610909565b6040516102e091906137fc565b60405180910390f35b61030360048036038101906102fe9190613817565b610913565b6040516103109190613643565b60405180910390f35b610333600480360381019061032e91906138a0565b610a0b565b60405161034091906138dc565b60405180910390f35b610363600480360381019061035e91906138f7565b610a2b565b005b61036d610a54565b60405161037a9190613953565b60405180910390f35b61038b610a5d565b60405161039891906138dc565b60405180910390f35b6103bb60048036038101906103b691906138f7565b610a6c565b005b6103d760048036038101906103d291906137ad565b610aef565b6040516103e49190613643565b60405180910390f35b610407600480360381019061040291906137ad565b610b9b565b60405161041491906137fc565b60405180910390f35b610425610c2f565b005b610441600480360381019061043c91906137ad565b610c6c565b005b61045d6004803603810190610458919061396e565b610cad565b005b6104796004803603810190610474919061399b565b610cc1565b60405161048691906139d7565b60405180910390f35b6104a960048036038101906104a4919061399b565b610d2a565b005b6104b3610d3e565b6040516104c09190613643565b60405180910390f35b6104e360048036038101906104de919061399b565b610d55565b6040516104f09190613a11565b60405180910390f35b610513600480360381019061050e919061399b565b610da9565b60405161052091906137fc565b60405180910390f35b610531610df1565b005b61054d600480360381019061054891906137ad565b610e79565b005b6105696004803603810190610564919061399b565b610ef4565b60405161057691906137fc565b60405180910390f35b610587610f44565b005b610591610f81565b60405161059e91906139d7565b60405180910390f35b6105c160048036038101906105bc919061396e565b610fab565b6040516105ce91906137fc565b60405180910390f35b6105f160048036038101906105ec91906138f7565b611001565b6040516105fe9190613643565b60405180910390f35b61060f61106c565b60405161061c91906136f7565b60405180910390f35b61063f600480360381019061063a919061399b565b6110fe565b60405161064c91906137fc565b60405180910390f35b61065d61120f565b60405161066a91906138dc565b60405180910390f35b61068d600480360381019061068891906137ad565b611216565b60405161069a9190613643565b60405180910390f35b6106bd60048036038101906106b891906137ad565b611301565b6040516106ca9190613643565b60405180910390f35b6106ed60048036038101906106e89190613a58565b61131f565b005b61070960048036038101906107049190613ae5565b611423565b005b610713611565565b60405161072091906138dc565b60405180910390f35b610743600480360381019061073e91906138f7565b611589565b005b61075f600480360381019061075a9190613b87565b6115b2565b60405161076c91906137fc565b60405180910390f35b61077d611639565b60405161078a91906138dc565b60405180910390f35b6107ad60048036038101906107a89190613bf3565b61165d565b6040516107ba9190613ca8565b60405180910390f35b6107dd60048036038101906107d8919061399b565b61176d565b005b60007f7965db0b000000000000000000000000000000000000000000000000000000007bffffffffffffffffffffffffffffffffffffffffffffffffffffffff1916827bffffffffffffffffffffffffffffffffffffffffffffffffffffffff19161480610852575061085182611b71565b5b9050919050565b60606003805461086890613cf2565b80601f016020809104026020016040519081016040528092919081815260200182805461089490613cf2565b80156108e15780601f106108b6576101008083540402835291602001916108e1565b820191906000526020600020905b8154815290600101906020018083116108c457829003601f168201915b5050505050905090565b60006108ff6108f8611bdb565b8484611be3565b6001905092915050565b6000600254905090565b6000610920848484611dae565b6000600160008673ffffffffffffffffffffffffffffffffffffffff1673ffffffffffffffffffffffffffffffffffffffff168152602001908152602001600020600061096b611bdb565b73ffffffffffffffffffffffffffffffffffffffff1673ffffffffffffffffffffffffffffffffffffffff168152602001908152602001600020549050828110156109eb576040517f08c379a00000000000000000000000000000000000000000000000000000000081526004016109e290613d96565b60405180910390fd5b6109ff856109f7611bdb565b858403611be3565b60019150509392505050565b600060066000838152602001908152602001600020600101549050919050565b610a3482610a0b565b610a4581610a40611bdb565b61202f565b610a4f83836120cc565b505050565b60006012905090565b6000610a676121ad565b905090565b610a74611bdb565b73ffffffffffffffffffffffffffffffffffffffff168173ffffffffffffffffffffffffffffffffffffffff1614610ae1576040517f08c379a0000000000000000000000000000000000000000000000000000000008152600401610ad890613e28565b60405180910390fd5b610aeb82826122c7565b5050565b6000610b91610afc611bdb565b848460016000610b0a611bdb565b73ffffffffffffffffffffffffffffffffffffffff1673ffffffffffffffffffffffffffffffffffffffff16815260200190815260200160002060008873ffffffffffffffffffffffffffffffffffffffff1673ffffffffffffffffffffffffffffffffffffffff16815260200190815260200160002054610b8c9190613e77565b611be3565b6001905092915050565b6000438210610bdf576040517f08c379a0000000000000000000000000000000000000000000000000000000008152600401610bd690613f19565b60405180910390fd5b610c27600960008573ffffffffffffffffffffffffffffffffffffffff1673ffffffffffffffffffffffffffffffffffffffff168152602001908152602001600020836123a9565b905092915050565b7f65d7a28e3265b37a6474929f336521b332c1681b933f6cb9f3376673440d862a610c6181610c5c611bdb565b61202f565b610c696124b5565b50565b7f9f2df0fed2c77648de5860a4cc508cd0818c85b8b8a1ab4ceeef8d981c8956a6610c9e81610c99611bdb565b61202f565b610ca88383612557565b505050565b610cbe610cb8611bdb565b82612565565b50565b6000600860008373ffffffffffffffffffffffffffffffffffffffff1673ffffffffffffffffffffffffffffffffffffffff16815260200190815260200160002060009054906101000a900473ffffffffffffffffffffffffffffffffffffffff169050919050565b610d3b610d35611bdb565b82612573565b50565b6000600560009054906101000a900460ff16905090565b6000610da2600960008473ffffffffffffffffffffffffffffffffffffffff1673ffffffffffffffffffffffffffffffffffffffff16815260200190815260200160002080549050611ad3565b9050919050565b60008060008373ffffffffffffffffffffffffffffffffffffffff1673ffffffffffffffffffffffffffffffffffffffff168152602001908152602001600020549050919050565b610df9611bdb565b73ffffffffffffffffffffffffffffffffffffffff16610e17610f81565b73ffffffffffffffffffffffffffffffffffffffff1614610e6d576040517f08c379a0000000000000000000000000000000000000000000000000000000008152600401610e6490613f85565b60405180910390fd5b610e77600061268d565b565b6000610e8c83610e87611bdb565b6115b2565b905081811015610ed1576040517f08c379a0000000000000000000000000000000000000000000000000000000008152600401610ec890614017565b60405180910390fd5b610ee583610edd611bdb565b848403611be3565b610eef8383612565565b505050565b6000610f3d600760008473ffffffffffffffffffffffffffffffffffffffff1673ffffffffffffffffffffffffffffffffffffffff168152602001908152602001600020612753565b9050919050565b7f65d7a28e3265b37a6474929f336521b332c1681b933f6cb9f3376673440d862a610f7681610f71611bdb565b61202f565b610f7e612761565b50565b6000600b60009054906101000a900473ffffffffffffffffffffffffffffffffffffffff16905090565b6000438210610fef576040517f08c379a0000000000000000000000000000000000000000000000000000000008152600401610fe690613f19565b60405180910390fd5b610ffa600a836123a9565b9050919050565b60006006600084815260200190815260200160002060000160008373ffffffffffffffffffffffffffffffffffffffff1673ffffffffffffffffffffffffffffffffffffffff16815260200190815260200160002060009054906101000a900460ff16905092915050565b60606004805461107b90613cf2565b80601f01602080910402602001604051908101604052809291908181526020018280546110a790613cf2565b80156110f45780601f106110c9576101008083540402835291602001916110f4565b820191906000526020600020905b8154815290600101906020018083116110d757829003601f168201915b5050505050905090565b600080600960008473ffffffffffffffffffffffffffffffffffffffff1673ffffffffffffffffffffffffffffffffffffffff168152602001908152602001600020805490509050600081146111e657600960008473ffffffffffffffffffffffffffffffffffffffff1673ffffffffffffffffffffffffffffffffffffffff16815260200190815260200160002060018261119a9190614037565b815481106111ab576111aa61406b565b5b9060005260206000200160000160049054906101000a90047bffffffffffffffffffffffffffffffffffffffffffffffffffffffff166111e9565b60005b7bffffffffffffffffffffffffffffffffffffffffffffffffffffffff16915050919050565b6000801b81565b60008060016000611225611bdb565b73ffffffffffffffffffffffffffffffffffffffff1673ffffffffffffffffffffffffffffffffffffffff16815260200190815260200160002060008573ffffffffffffffffffffffffffffffffffffffff1673ffffffffffffffffffffffffffffffffffffffff168152602001908152602001600020549050828110156112e2576040517f08c379a00000000000000000000000000000000000000000000000000000000081526004016112d99061410c565b60405180910390fd5b6112f66112ed611bdb565b85858403611be3565b600191505092915050565b600061131561130e611bdb565b8484611dae565b6001905092915050565b83421115611362576040517f08c379a000000000000000000000000000000000000000000000000000000000815260040161135990614178565b60405180910390fd5b60006113c46113bc7fe48329057bfd03d55e49b547132e39cffd9c1820ad7b9d4c5307691425d15adf8989896040516020016113a19493929190614198565b60405160208183030381529060405280519060200120612804565b85858561281e565b90506113cf81612849565b8614611410576040517f08c379a000000000000000000000000000000000000000000000000000000000815260040161140790614229565b60405180910390fd5b61141a8188612573565b50505050505050565b83421115611466576040517f08c379a000000000000000000000000000000000000000000000000000000000815260040161145d90614295565b60405180910390fd5b60007f00000000000000000000000000000000000000000000000000000000000000008888886114958c612849565b896040516020016114ab969594939291906142b5565b60405160208183030381529060405280519060200120905060006114ce82612804565b905060006114de8287878761281e565b90508973ffffffffffffffffffffffffffffffffffffffff168173ffffffffffffffffffffffffffffffffffffffff161461154e576040517f08c379a000000000000000000000000000000000000000000000000000000000815260040161154590614362565b60405180910390fd5b6115598a8a8a611be3565b50505050505050505050565b7f9f2df0fed2c77648de5860a4cc508cd0818c85b8b8a1ab4ceeef8d981c8956a681565b61159282610a0b565b6115a38161159e611bdb565b61202f565b6115ad83836122c7565b505050565b6000600160008473ffffffffffffffffffffffffffffffffffffffff1673ffffffffffffffffffffffffffffffffffffffff16815260200190815260200160002060008373ffffffffffffffffffffffffffffffffffffffff1673ffffffffffffffffffffffffffffffffffffffff16815260200190815260200160002054905092915050565b7f65d7a28e3265b37a6474929f336521b332c1681b933f6cb9f3376673440d862a81565b611665613560565b600960008473ffffffffffffffffffffffffffffffffffffffff1673ffffffffffffffffffffffffffffffffffffffff1681526020019081526020016000208263ffffffff16815481106116bc576116bb61406b565b5b906000526020600020016040518060400160405290816000820160009054906101000a900463ffffffff1663ffffffff1663ffffffff1681526020016000820160049054906101000a90047bffffffffffffffffffffffffffffffffffffffffffffffffffffffff167bffffffffffffffffffffffffffffffffffffffffffffffffffffffff167bffffffffffffffffffffffffffffffffffffffffffffffffffffffff1681525050905092915050565b611775611bdb565b73ffffffffffffffffffffffffffffffffffffffff16611793610f81565b73ffffffffffffffffffffffffffffffffffffffff16146117e9576040517f08c379a00000000000000000000000000000000000000000000000000000000081526004016117e090613f85565b60405180910390fd5b600073ffffffffffffffffffffffffffffffffffffffff168173ffffffffffffffffffffffffffffffffffffffff161415611859576040517f08c379a0000000000000000000000000000000000000000000000000000000008152600401611850906143f4565b60405180910390fd5b6118628161268d565b50565b61186f82826118f2565b6118776128a7565b7bffffffffffffffffffffffffffffffffffffffffffffffffffffffff1661189d610909565b11156118de576040517f08c379a00000000000000000000000000000000000000000000000000000000081526004016118d590614486565b60405180910390fd5b6118ec600a611a52836128cb565b50505050565b600073ffffffffffffffffffffffffffffffffffffffff168273ffffffffffffffffffffffffffffffffffffffff161415611962576040517f08c379a0000000000000000000000000000000000000000000000000000000008152600401611959906144f2565b60405180910390fd5b61196e60008383612b43565b80600260008282546119809190613e77565b92505081905550806000808473ffffffffffffffffffffffffffffffffffffffff1673ffffffffffffffffffffffffffffffffffffffff16815260200190815260200160002060008282546119d59190613e77565b925050819055508173ffffffffffffffffffffffffffffffffffffffff16600073ffffffffffffffffffffffffffffffffffffffff167fddf252ad1be2c89b69c2b068fc378daa952ba7f163c4a11628f55a4df523b3ef83604051611a3a91906137fc565b60405180910390a3611a4e60008383612b9b565b5050565b60008183611a609190613e77565b905092915050565b60007bffffffffffffffffffffffffffffffffffffffffffffffffffffffff8016821115611acb576040517f08c379a0000000000000000000000000000000000000000000000000000000008152600401611ac290614584565b60405180910390fd5b819050919050565b600063ffffffff8016821115611b1e576040517f08c379a0000000000000000000000000000000000000000000000000000000008152600401611b1590614616565b60405180910390fd5b819050919050565b505050565b611b36838383611b56565b611b51611b4284610cc1565b611b4b84610cc1565b83612bab565b505050565b505050565b60008183611b699190614037565b905092915050565b60007f01ffc9a7000000000000000000000000000000000000000000000000000000007bffffffffffffffffffffffffffffffffffffffffffffffffffffffff1916827bffffffffffffffffffffffffffffffffffffffffffffffffffffffff1916149050919050565b600033905090565b600073ffffffffffffffffffffffffffffffffffffffff168373ffffffffffffffffffffffffffffffffffffffff161415611c53576040517f08c379a0000000000000000000000000000000000000000000000000000000008152600401611c4a906146a8565b60405180910390fd5b600073ffffffffffffffffffffffffffffffffffffffff168273ffffffffffffffffffffffffffffffffffffffff161415611cc3576040517f08c379a0000000000000000000000000000000000000000000000000000000008152600401611cba9061473a565b60405180910390fd5b80600160008573ffffffffffffffffffffffffffffffffffffffff1673ffffffffffffffffffffffffffffffffffffffff16815260200190815260200160002060008473ffffffffffffffffffffffffffffffffffffffff1673ffffffffffffffffffffffffffffffffffffffff168152602001908152602001600020819055508173ffffffffffffffffffffffffffffffffffffffff168373ffffffffffffffffffffffffffffffffffffffff167f8c5be1e5ebec7d5bd14f71427d1e84f3dd0314c0f7b2291e5b200ac8c7c3b92583604051611da191906137fc565b60405180910390a3505050565b600073ffffffffffffffffffffffffffffffffffffffff168373ffffffffffffffffffffffffffffffffffffffff161415611e1e576040517f08c379a0000000000000000000000000000000000000000000000000000000008152600401611e15906147cc565b60405180910390fd5b600073ffffffffffffffffffffffffffffffffffffffff168273ffffffffffffffffffffffffffffffffffffffff161415611e8e576040517f08c379a0000000000000000000000000000000000000000000000000000000008152600401611e859061485e565b60405180910390fd5b611e99838383612b43565b60008060008573ffffffffffffffffffffffffffffffffffffffff1673ffffffffffffffffffffffffffffffffffffffff16815260200190815260200160002054905081811015611f1f576040517f08c379a0000000000000000000000000000000000000000000000000000000008152600401611f16906148f0565b60405180910390fd5b8181036000808673ffffffffffffffffffffffffffffffffffffffff1673ffffffffffffffffffffffffffffffffffffffff16815260200190815260200160002081905550816000808573ffffffffffffffffffffffffffffffffffffffff1673ffffffffffffffffffffffffffffffffffffffff1681526020019081526020016000206000828254611fb29190613e77565b925050819055508273ffffffffffffffffffffffffffffffffffffffff168473ffffffffffffffffffffffffffffffffffffffff167fddf252ad1be2c89b69c2b068fc378daa952ba7f163c4a11628f55a4df523b3ef8460405161201691906137fc565b60405180910390a3612029848484612b9b565b50505050565b6120398282611001565b6120c85761205e8173ffffffffffffffffffffffffffffffffffffffff166014612da4565b61206c8360001c6020612da4565b60405160200161207d9291906149e4565b6040516020818303038152906040526040517f08c379a00000000000000000000000000000000000000000000000000000000081526004016120bf91906136f7565b60405180910390fd5b5050565b6120d68282611001565b6121a95760016006600084815260200190815260200160002060000160008373ffffffffffffffffffffffffffffffffffffffff1673ffffffffffffffffffffffffffffffffffffffff16815260200190815260200160002060006101000a81548160ff02191690831515021790555061214e611bdb565b73ffffffffffffffffffffffffffffffffffffffff168173ffffffffffffffffffffffffffffffffffffffff16837f2f8788117e7eff1d82e926ec794901d17c78024a50270940304540a733656f0d60405160405180910390a45b5050565b60007f000000000000000000000000000000000000000000000000000000000000000073ffffffffffffffffffffffffffffffffffffffff163073ffffffffffffffffffffffffffffffffffffffff1614801561222957507f000000000000000000000000000000000000000000000000000000000000000046145b15612256577f000000000000000000000000000000000000000000000000000000000000000090506122c4565b6122c17f00000000000000000000000000000000000000000000000000000000000000007f00000000000000000000000000000000000000000000000000000000000000007f0000000000000000000000000000000000000000000000000000000000000000612fe0565b90505b90565b6122d18282611001565b156123a55760006006600084815260200190815260200160002060000160008373ffffffffffffffffffffffffffffffffffffffff1673ffffffffffffffffffffffffffffffffffffffff16815260200190815260200160002060006101000a81548160ff02191690831515021790555061234a611bdb565b73ffffffffffffffffffffffffffffffffffffffff168173ffffffffffffffffffffffffffffffffffffffff16837ff6391f5c32d9c69d2a47ea670b442974b53935d1edc7fd64eb21e047a839171b60405160405180910390a45b5050565b6000808380549050905060005b818110156124285760006123ca828461301a565b9050848682815481106123e0576123df61406b565b5b9060005260206000200160000160009054906101000a900463ffffffff1663ffffffff16111561241257809250612422565b60018161241f9190613e77565b91505b506123b6565b6000821461248a578460018361243e9190614037565b8154811061244f5761244e61406b565b5b9060005260206000200160000160049054906101000a90047bffffffffffffffffffffffffffffffffffffffffffffffffffffffff1661248d565b60005b7bffffffffffffffffffffffffffffffffffffffffffffffffffffffff169250505092915050565b6124bd610d3e565b6124fc576040517f08c379a00000000000000000000000000000000000000000000000000000000081526004016124f390614a6a565b60405180910390fd5b6000600560006101000a81548160ff0219169083151502179055507f5db9ee0a495bf2e6ff9c91a7834c1ba4fdd244a5e8aa4e537bd38aeae4b073aa612540611bdb565b60405161254d91906139d7565b60405180910390a1565b6125618282611865565b5050565b61256f8282613040565b5050565b600061257e83610cc1565b9050600061258b84610da9565b905082600860008673ffffffffffffffffffffffffffffffffffffffff1673ffffffffffffffffffffffffffffffffffffffff16815260200190815260200160002060006101000a81548173ffffffffffffffffffffffffffffffffffffffff021916908373ffffffffffffffffffffffffffffffffffffffff1602179055508273ffffffffffffffffffffffffffffffffffffffff168273ffffffffffffffffffffffffffffffffffffffff168573ffffffffffffffffffffffffffffffffffffffff167f3134e8a2e6d97e929a7e54011ea5485d7d196dd5f0ba4d4ef95803e8e3fc257f60405160405180910390a4612687828483612bab565b50505050565b6000600b60009054906101000a900473ffffffffffffffffffffffffffffffffffffffff16905081600b60006101000a81548173ffffffffffffffffffffffffffffffffffffffff021916908373ffffffffffffffffffffffffffffffffffffffff1602179055508173ffffffffffffffffffffffffffffffffffffffff168173ffffffffffffffffffffffffffffffffffffffff167f8be0079c531659141344cd1fd0a4f28419497f9722a3daafe3b4186f6b6457e060405160405180910390a35050565b600081600001549050919050565b612769610d3e565b156127a9576040517f08c379a00000000000000000000000000000000000000000000000000000000081526004016127a090614ad6565b60405180910390fd5b6001600560006101000a81548160ff0219169083151502179055507f62e78cea01bee320cd4e420270b5ea74000d11b0c9f74754ebdbfc544b05a2586127ed611bdb565b6040516127fa91906139d7565b60405180910390a1565b60006128176128116121ad565b8361305e565b9050919050565b600080600061282f87878787613091565b9150915061283c8161319e565b8192505050949350505050565b600080600760008473ffffffffffffffffffffffffffffffffffffffff1673ffffffffffffffffffffffffffffffffffffffff168152602001908152602001600020905061289681612753565b91506128a181613373565b50919050565b60007bffffffffffffffffffffffffffffffffffffffffffffffffffffffff905090565b6000806000858054905090506000811461293957856001826128ed9190614037565b815481106128fe576128fd61406b565b5b9060005260206000200160000160049054906101000a90047bffffffffffffffffffffffffffffffffffffffffffffffffffffffff1661293c565b60005b7bffffffffffffffffffffffffffffffffffffffffffffffffffffffff16925061296a83858763ffffffff16565b91506000811180156129bd575043866001836129869190614037565b815481106129975761299661406b565b5b9060005260206000200160000160009054906101000a900463ffffffff1663ffffffff16145b15612a4a576129cb82611a68565b866001836129d99190614037565b815481106129ea576129e961406b565b5b9060005260206000200160000160046101000a8154817bffffffffffffffffffffffffffffffffffffffffffffffffffffffff02191690837bffffffffffffffffffffffffffffffffffffffffffffffffffffffff160217905550612b3a565b856040518060400160405280612a5f43611ad3565b63ffffffff168152602001612a7385611a68565b7bffffffffffffffffffffffffffffffffffffffffffffffffffffffff168152509080600181540180825580915050600190039060005260206000200160009091909190915060008201518160000160006101000a81548163ffffffff021916908363ffffffff16021790555060208201518160000160046101000a8154817bffffffffffffffffffffffffffffffffffffffffffffffffffffffff02191690837bffffffffffffffffffffffffffffffffffffffffffffffffffffffff16021790555050505b50935093915050565b612b4b610d3e565b15612b8b576040517f08c379a0000000000000000000000000000000000000000000000000000000008152600401612b8290614ad6565b60405180910390fd5b612b96838383611b26565b505050565b612ba6838383611b2b565b505050565b8173ffffffffffffffffffffffffffffffffffffffff168373ffffffffffffffffffffffffffffffffffffffff1614158015612be75750600081115b15612d9f57600073ffffffffffffffffffffffffffffffffffffffff168373ffffffffffffffffffffffffffffffffffffffff1614612cc557600080612c6e600960008773ffffffffffffffffffffffffffffffffffffffff1673ffffffffffffffffffffffffffffffffffffffff168152602001908152602001600020611b5b856128cb565b915091508473ffffffffffffffffffffffffffffffffffffffff167fdec2bacdd2f05b59de34da9b523dff8be42e5e38e818c82fdb0bae774387a7248383604051612cba929190614af6565b60405180910390a250505b600073ffffffffffffffffffffffffffffffffffffffff168273ffffffffffffffffffffffffffffffffffffffff1614612d9e57600080612d47600960008673ffffffffffffffffffffffffffffffffffffffff1673ffffffffffffffffffffffffffffffffffffffff168152602001908152602001600020611a52856128cb565b915091508373ffffffffffffffffffffffffffffffffffffffff167fdec2bacdd2f05b59de34da9b523dff8be42e5e38e818c82fdb0bae774387a7248383604051612d93929190614af6565b60405180910390a250505b5b505050565b606060006002836002612db79190614b1f565b612dc19190613e77565b67ffffffffffffffff811115612dda57612dd9614b79565b5b6040519080825280601f01601f191660200182016040528015612e0c5781602001600182028036833780820191505090505b5090507f300000000000000000000000000000000000000000000000000000000000000081600081518110612e4457612e4361406b565b5b60200101907effffffffffffffffffffffffffffffffffffffffffffffffffffffffffffff1916908160001a9053507f780000000000000000000000000000000000000000000000000000000000000081600181518110612ea857612ea761406b565b5b60200101907effffffffffffffffffffffffffffffffffffffffffffffffffffffffffffff1916908160001a90535060006001846002612ee89190614b1f565b612ef29190613e77565b90505b6001811115612f92577f3031323334353637383961626364656600000000000000000000000000000000600f861660108110612f3457612f3361406b565b5b1a60f81b828281518110612f4b57612f4a61406b565b5b60200101907effffffffffffffffffffffffffffffffffffffffffffffffffffffffffffff1916908160001a905350600485901c945080612f8b90614ba8565b9050612ef5565b5060008414612fd6576040517f08c379a0000000000000000000000000000000000000000000000000000000008152600401612fcd90614c1e565b60405180910390fd5b8091505092915050565b60008383834630604051602001612ffb959493929190614c3e565b6040516020818303038152906040528051906020012090509392505050565b6000600282841861302b9190614cc0565b8284166130389190613e77565b905092915050565b61304a8282613389565b613058600a611b5b836128cb565b50505050565b60008282604051602001613073929190614d5e565b60405160208183030381529060405280519060200120905092915050565b6000807f7fffffffffffffffffffffffffffffff5d576e7357a4501ddfe92f46681b20a08360001c11156130cc576000600391509150613195565b601b8560ff16141580156130e45750601c8560ff1614155b156130f6576000600491509150613195565b60006001878787876040516000815260200160405260405161311b9493929190614d95565b6020604051602081039080840390855afa15801561313d573d6000803e3d6000fd5b505050602060405103519050600073ffffffffffffffffffffffffffffffffffffffff168173ffffffffffffffffffffffffffffffffffffffff16141561318c57600060019250925050613195565b80600092509250505b94509492505050565b600060048111156131b2576131b1614dda565b5b8160048111156131c5576131c4614dda565b5b14156131d057613370565b600160048111156131e4576131e3614dda565b5b8160048111156131f7576131f6614dda565b5b1415613238576040517f08c379a000000000000000000000000000000000000000000000000000000000815260040161322f90614e55565b60405180910390fd5b6002600481111561324c5761324b614dda565b5b81600481111561325f5761325e614dda565b5b14156132a0576040517f08c379a000000000000000000000000000000000000000000000000000000000815260040161329790614ec1565b60405180910390fd5b600360048111156132b4576132b3614dda565b5b8160048111156132c7576132c6614dda565b5b1415613308576040517f08c379a00000000000000000000000000000000000000000000000000000000081526004016132ff90614f53565b60405180910390fd5b60048081111561331b5761331a614dda565b5b81600481111561332e5761332d614dda565b5b141561336f576040517f08c379a000000000000000000000000000000000000000000000000000000000815260040161336690614fe5565b60405180910390fd5b5b50565b6001816000016000828254019250508190555050565b600073ffffffffffffffffffffffffffffffffffffffff168273ffffffffffffffffffffffffffffffffffffffff1614156133f9576040517f08c379a00000000000000000000000000000000000000000000000000000000081526004016133f090615077565b60405180910390fd5b61340582600083612b43565b60008060008473ffffffffffffffffffffffffffffffffffffffff1673ffffffffffffffffffffffffffffffffffffffff1681526020019081526020016000205490508181101561348b576040517f08c379a000000000000000000000000000000000000000000000000000000000815260040161348290615109565b60405180910390fd5b8181036000808573ffffffffffffffffffffffffffffffffffffffff1673ffffffffffffffffffffffffffffffffffffffff1681526020019081526020016000208190555081600260008282546134e29190614037565b92505081905550600073ffffffffffffffffffffffffffffffffffffffff168373ffffffffffffffffffffffffffffffffffffffff167fddf252ad1be2c89b69c2b068fc378daa952ba7f163c4a11628f55a4df523b3ef8460405161354791906137fc565b60405180910390a361355b83600084612b9b565b505050565b6040518060400160405280600063ffffffff16815260200160007bffffffffffffffffffffffffffffffffffffffffffffffffffffffff1681525090565b600080fd5b60007fffffffff0000000000000000000000000000000000000000000000000000000082169050919050565b6135d8816135a3565b81146135e357600080fd5b50565b6000813590506135f5816135cf565b92915050565b6000602082840312156136115761361061359e565b5b600061361f848285016135e6565b91505092915050565b60008115159050919050565b61363d81613628565b82525050565b60006020820190506136586000830184613634565b92915050565b600081519050919050565b600082825260208201905092915050565b60005b8381101561369857808201518184015260208101905061367d565b838111156136a7576000848401525b50505050565b6000601f19601f8301169050919050565b60006136c98261365e565b6136d38185613669565b93506136e381856020860161367a565b6136ec816136ad565b840191505092915050565b6000602082019050818103600083015261371181846136be565b905092915050565b600073ffffffffffffffffffffffffffffffffffffffff82169050919050565b600061374482613719565b9050919050565b61375481613739565b811461375f57600080fd5b50565b6000813590506137718161374b565b92915050565b6000819050919050565b61378a81613777565b811461379557600080fd5b50565b6000813590506137a781613781565b92915050565b600080604083850312156137c4576137c361359e565b5b60006137d285828601613762565b92505060206137e385828601613798565b9150509250929050565b6137f681613777565b82525050565b600060208201905061381160008301846137ed565b92915050565b6000806000606084860312156138305761382f61359e565b5b600061383e86828701613762565b935050602061384f86828701613762565b925050604061386086828701613798565b9150509250925092565b6000819050919050565b61387d8161386a565b811461388857600080fd5b50565b60008135905061389a81613874565b92915050565b6000602082840312156138b6576138b561359e565b5b60006138c48482850161388b565b91505092915050565b6138d68161386a565b82525050565b60006020820190506138f160008301846138cd565b92915050565b6000806040838503121561390e5761390d61359e565b5b600061391c8582860161388b565b925050602061392d85828601613762565b9150509250929050565b600060ff82169050919050565b61394d81613937565b82525050565b60006020820190506139686000830184613944565b92915050565b6000602082840312156139845761398361359e565b5b600061399284828501613798565b91505092915050565b6000602082840312156139b1576139b061359e565b5b60006139bf84828501613762565b91505092915050565b6139d181613739565b82525050565b60006020820190506139ec60008301846139c8565b92915050565b600063ffffffff82169050919050565b613a0b816139f2565b82525050565b6000602082019050613a266000830184613a02565b92915050565b613a3581613937565b8114613a4057600080fd5b50565b600081359050613a5281613a2c565b92915050565b60008060008060008060c08789031215613a7557613a7461359e565b5b6000613a8389828a01613762565b9650506020613a9489828a01613798565b9550506040613aa589828a01613798565b9450506060613ab689828a01613a43565b9350506080613ac789828a0161388b565b92505060a0613ad889828a0161388b565b9150509295509295509295565b600080600080600080600060e0888a031215613b0457613b0361359e565b5b6000613b128a828b01613762565b9750506020613b238a828b01613762565b9650506040613b348a828b01613798565b9550506060613b458a828b01613798565b9450506080613b568a828b01613a43565b93505060a0613b678a828b0161388b565b92505060c0613b788a828b0161388b565b91505092959891949750929550565b60008060408385031215613b9e57613b9d61359e565b5b6000613bac85828601613762565b9250506020613bbd85828601613762565b9150509250929050565b613bd0816139f2565b8114613bdb57600080fd5b50565b600081359050613bed81613bc7565b92915050565b60008060408385031215613c0a57613c0961359e565b5b6000613c1885828601613762565b9250506020613c2985828601613bde565b9150509250929050565b613c3c816139f2565b82525050565b60007bffffffffffffffffffffffffffffffffffffffffffffffffffffffff82169050919050565b613c7381613c42565b82525050565b604082016000820151613c8f6000850182613c33565b506020820151613ca26020850182613c6a565b50505050565b6000604082019050613cbd6000830184613c79565b92915050565b7f4e487b7100000000000000000000000000000000000000000000000000000000600052602260045260246000fd5b60006002820490506001821680613d0a57607f821691505b60208210811415613d1e57613d1d613cc3565b5b50919050565b7f45524332303a207472616e7366657220616d6f756e742065786365656473206160008201527f6c6c6f77616e6365000000000000000000000000000000000000000000000000602082015250565b6000613d80602883613669565b9150613d8b82613d24565b604082019050919050565b60006020820190508181036000830152613daf81613d73565b9050919050565b7f416363657373436f6e74726f6c3a2063616e206f6e6c792072656e6f756e636560008201527f20726f6c657320666f722073656c660000000000000000000000000000000000602082015250565b6000613e12602f83613669565b9150613e1d82613db6565b604082019050919050565b60006020820190508181036000830152613e4181613e05565b9050919050565b7f4e487b7100000000000000000000000000000000000000000000000000000000600052601160045260246000fd5b6000613e8282613777565b9150613e8d83613777565b9250827fffffffffffffffffffffffffffffffffffffffffffffffffffffffffffffffff03821115613ec257613ec1613e48565b5b828201905092915050565b7f4552433230566f7465733a20626c6f636b206e6f7420796574206d696e656400600082015250565b6000613f03601f83613669565b9150613f0e82613ecd565b602082019050919050565b60006020820190508181036000830152613f3281613ef6565b9050919050565b7f4f776e61626c653a2063616c6c6572206973206e6f7420746865206f776e6572600082015250565b6000613f6f602083613669565b9150613f7a82613f39565b602082019050919050565b60006020820190508181036000830152613f9e81613f62565b9050919050565b7f45524332303a206275726e20616d6f756e74206578636565647320616c6c6f7760008201527f616e636500000000000000000000000000000000000000000000000000000000602082015250565b6000614001602483613669565b915061400c82613fa5565b604082019050919050565b6000602082019050818103600083015261403081613ff4565b9050919050565b600061404282613777565b915061404d83613777565b9250828210156140605761405f613e48565b5b828203905092915050565b7f4e487b7100000000000000000000000000000000000000000000000000000000600052603260045260246000fd5b7f45524332303a2064656372656173656420616c6c6f77616e63652062656c6f7760008201527f207a65726f000000000000000000000000000000000000000000000000000000602082015250565b60006140f6602583613669565b91506141018261409a565b604082019050919050565b60006020820190508181036000830152614125816140e9565b9050919050565b7f4552433230566f7465733a207369676e61747572652065787069726564000000600082015250565b6000614162601d83613669565b915061416d8261412c565b602082019050919050565b6000602082019050818103600083015261419181614155565b9050919050565b60006080820190506141ad60008301876138cd565b6141ba60208301866139c8565b6141c760408301856137ed565b6141d460608301846137ed565b95945050505050565b7f4552433230566f7465733a20696e76616c6964206e6f6e636500000000000000600082015250565b6000614213601983613669565b915061421e826141dd565b602082019050919050565b6000602082019050818103600083015261424281614206565b9050919050565b7f45524332305065726d69743a206578706972656420646561646c696e65000000600082015250565b600061427f601d83613669565b915061428a82614249565b602082019050919050565b600060208201905081810360008301526142ae81614272565b9050919050565b600060c0820190506142ca60008301896138cd565b6142d760208301886139c8565b6142e460408301876139c8565b6142f160608301866137ed565b6142fe60808301856137ed565b61430b60a08301846137ed565b979650505050505050565b7f45524332305065726d69743a20696e76616c6964207369676e61747572650000600082015250565b600061434c601e83613669565b915061435782614316565b602082019050919050565b6000602082019050818103600083015261437b8161433f565b9050919050565b7f4f776e61626c653a206e6577206f776e657220697320746865207a65726f206160008201527f6464726573730000000000000000000000000000000000000000000000000000602082015250565b60006143de602683613669565b91506143e982614382565b604082019050919050565b6000602082019050818103600083015261440d816143d1565b9050919050565b7f4552433230566f7465733a20746f74616c20737570706c79207269736b73206f60008201527f766572666c6f77696e6720766f74657300000000000000000000000000000000602082015250565b6000614470603083613669565b915061447b82614414565b604082019050919050565b6000602082019050818103600083015261449f81614463565b9050919050565b7f45524332303a206d696e7420746f20746865207a65726f206164647265737300600082015250565b60006144dc601f83613669565b91506144e7826144a6565b602082019050919050565b6000602082019050818103600083015261450b816144cf565b9050919050565b7f53616665436173743a2076616c756520646f65736e27742066697420696e203260008201527f3234206269747300000000000000000000000000000000000000000000000000602082015250565b600061456e602783613669565b915061457982614512565b604082019050919050565b6000602082019050818103600083015261459d81614561565b9050919050565b7f53616665436173743a2076616c756520646f65736e27742066697420696e203360008201527f3220626974730000000000000000000000000000000000000000000000000000602082015250565b6000614600602683613669565b915061460b826145a4565b604082019050919050565b6000602082019050818103600083015261462f816145f3565b9050919050565b7f45524332303a20617070726f76652066726f6d20746865207a65726f2061646460008201527f7265737300000000000000000000000000000000000000000000000000000000602082015250565b6000614692602483613669565b915061469d82614636565b604082019050919050565b600060208201905081810360008301526146c181614685565b9050919050565b7f45524332303a20617070726f766520746f20746865207a65726f20616464726560008201527f7373000000000000000000000000000000000000000000000000000000000000602082015250565b6000614724602283613669565b915061472f826146c8565b604082019050919050565b6000602082019050818103600083015261475381614717565b9050919050565b7f45524332303a207472616e736665722066726f6d20746865207a65726f20616460008201527f6472657373000000000000000000000000000000000000000000000000000000602082015250565b60006147b6602583613669565b91506147c18261475a565b604082019050919050565b600060208201905081810360008301526147e5816147a9565b9050919050565b7f45524332303a207472616e7366657220746f20746865207a65726f206164647260008201527f6573730000000000000000000000000000000000000000000000000000000000602082015250565b6000614848602383613669565b9150614853826147ec565b604082019050919050565b600060208201905081810360008301526148778161483b565b9050919050565b7f45524332303a207472616e7366657220616d6f756e742065786365656473206260008201527f616c616e63650000000000000000000000000000000000000000000000000000602082015250565b60006148da602683613669565b91506148e58261487e565b604082019050919050565b60006020820190508181036000830152614909816148cd565b9050919050565b600081905092915050565b7f416363657373436f6e74726f6c3a206163636f756e7420000000000000000000600082015250565b6000614951601783614910565b915061495c8261491b565b601782019050919050565b60006149728261365e565b61497c8185614910565b935061498c81856020860161367a565b80840191505092915050565b7f206973206d697373696e6720726f6c6520000000000000000000000000000000600082015250565b60006149ce601183614910565b91506149d982614998565b601182019050919050565b60006149ef82614944565b91506149fb8285614967565b9150614a06826149c1565b9150614a128284614967565b91508190509392505050565b7f5061757361626c653a206e6f7420706175736564000000000000000000000000600082015250565b6000614a54601483613669565b9150614a5f82614a1e565b602082019050919050565b60006020820190508181036000830152614a8381614a47565b9050919050565b7f5061757361626c653a2070617573656400000000000000000000000000000000600082015250565b6000614ac0601083613669565b9150614acb82614a8a565b602082019050919050565b60006020820190508181036000830152614aef81614ab3565b9050919050565b6000604082019050614b0b60008301856137ed565b614b1860208301846137ed565b9392505050565b6000614b2a82613777565b9150614b3583613777565b9250817fffffffffffffffffffffffffffffffffffffffffffffffffffffffffffffffff0483118215151615614b6e57614b6d613e48565b5b828202905092915050565b7f4e487b7100000000000000000000000000000000000000000000000000000000600052604160045260246000fd5b6000614bb382613777565b91506000821415614bc757614bc6613e48565b5b600182039050919050565b7f537472696e67733a20686578206c656e67746820696e73756666696369656e74600082015250565b6000614c08602083613669565b9150614c1382614bd2565b602082019050919050565b60006020820190508181036000830152614c3781614bfb565b9050919050565b600060a082019050614c5360008301886138cd565b614c6060208301876138cd565b614c6d60408301866138cd565b614c7a60608301856137ed565b614c8760808301846139c8565b9695505050505050565b7f4e487b7100000000000000000000000000000000000000000000000000000000600052601260045260246000fd5b6000614ccb82613777565b9150614cd683613777565b925082614ce657614ce5614c91565b5b828204905092915050565b7f1901000000000000000000000000000000000000000000000000000000000000600082015250565b6000614d27600283614910565b9150614d3282614cf1565b600282019050919050565b6000819050919050565b614d58614d538261386a565b614d3d565b82525050565b6000614d6982614d1a565b9150614d758285614d47565b602082019150614d858284614d47565b6020820191508190509392505050565b6000608082019050614daa60008301876138cd565b614db76020830186613944565b614dc460408301856138cd565b614dd160608301846138cd565b95945050505050565b7f4e487b7100000000000000000000000000000000000000000000000000000000600052602160045260246000fd5b7f45434453413a20696e76616c6964207369676e61747572650000000000000000600082015250565b6000614e3f601883613669565b9150614e4a82614e09565b602082019050919050565b60006020820190508181036000830152614e6e81614e32565b9050919050565b7f45434453413a20696e76616c6964207369676e6174757265206c656e67746800600082015250565b6000614eab601f83613669565b9150614eb682614e75565b602082019050919050565b60006020820190508181036000830152614eda81614e9e565b9050919050565b7f45434453413a20696e76616c6964207369676e6174757265202773272076616c60008201527f7565000000000000000000000000000000000000000000000000000000000000602082015250565b6000614f3d602283613669565b9150614f4882614ee1565b604082019050919050565b60006020820190508181036000830152614f6c81614f30565b9050919050565b7f45434453413a20696e76616c6964207369676e6174757265202776272076616c60008201527f7565000000000000000000000000000000000000000000000000000000000000602082015250565b6000614fcf602283613669565b9150614fda82614f73565b604082019050919050565b60006020820190508181036000830152614ffe81614fc2565b9050919050565b7f45524332303a206275726e2066726f6d20746865207a65726f2061646472657360008201527f7300000000000000000000000000000000000000000000000000000000000000602082015250565b6000615061602183613669565b915061506c82615005565b604082019050919050565b6000602082019050818103600083015261509081615054565b9050919050565b7f45524332303a206275726e20616d6f756e7420657863656564732062616c616e60008201527f6365000000000000000000000000000000000000000000000000000000000000602082015250565b60006150f3602283613669565b91506150fe82615097565b604082019050919050565b60006020820190508181036000830152615122816150e6565b905091905056fea26469706673582212208a49b35cde9b5d9bdc949a909b6cb4baeaa1205906e104d3b7f00f30796d01c464736f6c634300080b0033",
  "immutableReferences": {
    "4758": [
      {
        "length": 32,
        "start": 5226
      }
    ],
    "6141": [
      {
        "length": 32,
        "start": 8752
      }
    ],
    "6143": [
      {
        "length": 32,
        "start": 8711
      }
    ],
    "6145": [
      {
        "length": 32,
        "start": 8625
      }
    ],
    "6147": [
      {
        "length": 32,
        "start": 8828
      }
    ],
    "6149": [
      {
        "length": 32,
        "start": 8861
      }
    ],
    "6151": [
      {
        "length": 32,
        "start": 8795
      }
    ]
  },
  "source": "// SPDX-License-Identifier: MIT\npragma solidity 0.8.11;\n\nimport \"@openzeppelin/contracts/token/ERC20/ERC20.sol\";\nimport \"@openzeppelin/contracts/token/ERC20/extensions/ERC20Burnable.sol\";\nimport \"@openzeppelin/contracts/security/Pausable.sol\";\nimport \"@openzeppelin/contracts/access/AccessControl.sol\";\nimport \"@openzeppelin/contracts/token/ERC20/extensions/draft-ERC20Permit.sol\";\nimport \"@openzeppelin/contracts/token/ERC20/extensions/ERC20Votes.sol\";\nimport \"@openzeppelin/contracts/access/Ownable.sol\";\n\ncontract Yugo is ERC20, ERC20Burnable, Pausable, AccessControl, ERC20Permit, ERC20Votes, Ownable {\n    bytes32 public constant PAUSER_ROLE = keccak256(\"PAUSER_ROLE\");\n    bytes32 public constant MINTER_ROLE = keccak256(\"MINTER_ROLE\");\n\n    constructor(address _manager) ERC20(\"Yugo\", \"YG\") ERC20Permit(\"Yugo\") {\n        _grantRole(DEFAULT_ADMIN_ROLE, _manager);\n        _grantRole(PAUSER_ROLE, _manager);\n        _mint(_manager, 500 * 10 ** decimals());\n        _grantRole(MINTER_ROLE, _manager);\n    }\n\n    function pause() public onlyRole(PAUSER_ROLE) {\n        _pause();\n    }\n\n    function unpause() public onlyRole(PAUSER_ROLE) {\n        _unpause();\n    }\n\n    function mint(address to, uint256 amount) public onlyRole(MINTER_ROLE) {\n        _mint(to, amount);\n    }\n\n    function _beforeTokenTransfer(address from, address to, uint256 amount)\n        internal\n        whenNotPaused\n        override\n    {\n        super._beforeTokenTransfer(from, to, amount);\n    }\n\n    // The following functions are overrides required by Solidity.\n\n    function _afterTokenTransfer(address from, address to, uint256 amount)\n        internal\n        override(ERC20, ERC20Votes)\n    {\n        super._afterTokenTransfer(from, to, amount);\n    }\n\n    function _mint(address to, uint256 amount)\n        internal\n        override(ERC20, ERC20Votes)\n    {\n        super._mint(to, amount);\n    }\n\n    function _burn(address account, uint256 amount)\n        internal\n        override(ERC20, ERC20Votes)\n    {\n        super._burn(account, amount);\n    }\n}",
  "sourcePath": "/Users/urdoom/blockchain_development/Alyra/YU-GO/template/Truffle/contracts/YugoToken.sol",
  "compiler": {
    "name": "solc",
    "version": "0.8.11+commit.d7f03943.Emscripten.clang"
  },
  "schemaVersion": "3.4.3",
  "updatedAt": "2022-01-05T17:45:12.809Z",
  "networkType": "ethereum",
  "devdoc": {
    "kind": "dev",
    "methods": {
      "DOMAIN_SEPARATOR()": {
        "details": "See {IERC20Permit-DOMAIN_SEPARATOR}."
      },
      "allowance(address,address)": {
        "details": "See {IERC20-allowance}."
      },
      "approve(address,uint256)": {
        "details": "See {IERC20-approve}. Requirements: - `spender` cannot be the zero address."
      },
      "balanceOf(address)": {
        "details": "See {IERC20-balanceOf}."
      },
      "burn(uint256)": {
        "details": "Destroys `amount` tokens from the caller. See {ERC20-_burn}."
      },
      "burnFrom(address,uint256)": {
        "details": "Destroys `amount` tokens from `account`, deducting from the caller's allowance. See {ERC20-_burn} and {ERC20-allowance}. Requirements: - the caller must have allowance for ``accounts``'s tokens of at least `amount`."
      },
      "checkpoints(address,uint32)": {
        "details": "Get the `pos`-th checkpoint for `account`."
      },
      "decimals()": {
        "details": "Returns the number of decimals used to get its user representation. For example, if `decimals` equals `2`, a balance of `505` tokens should be displayed to a user as `5.05` (`505 / 10 ** 2`). Tokens usually opt for a value of 18, imitating the relationship between Ether and Wei. This is the value {ERC20} uses, unless this function is overridden; NOTE: This information is only used for _display_ purposes: it in no way affects any of the arithmetic of the contract, including {IERC20-balanceOf} and {IERC20-transfer}."
      },
      "decreaseAllowance(address,uint256)": {
        "details": "Atomically decreases the allowance granted to `spender` by the caller. This is an alternative to {approve} that can be used as a mitigation for problems described in {IERC20-approve}. Emits an {Approval} event indicating the updated allowance. Requirements: - `spender` cannot be the zero address. - `spender` must have allowance for the caller of at least `subtractedValue`."
      },
      "delegate(address)": {
        "details": "Delegate votes from the sender to `delegatee`."
      },
      "delegateBySig(address,uint256,uint256,uint8,bytes32,bytes32)": {
        "details": "Delegates votes from signer to `delegatee`"
      },
      "delegates(address)": {
        "details": "Get the address `account` is currently delegating to."
      },
      "getPastTotalSupply(uint256)": {
        "details": "Retrieve the `totalSupply` at the end of `blockNumber`. Note, this value is the sum of all balances. It is but NOT the sum of all the delegated votes! Requirements: - `blockNumber` must have been already mined"
      },
      "getPastVotes(address,uint256)": {
        "details": "Retrieve the number of votes for `account` at the end of `blockNumber`. Requirements: - `blockNumber` must have been already mined"
      },
      "getRoleAdmin(bytes32)": {
        "details": "Returns the admin role that controls `role`. See {grantRole} and {revokeRole}. To change a role's admin, use {_setRoleAdmin}."
      },
      "getVotes(address)": {
        "details": "Gets the current votes balance for `account`"
      },
      "grantRole(bytes32,address)": {
        "details": "Grants `role` to `account`. If `account` had not been already granted `role`, emits a {RoleGranted} event. Requirements: - the caller must have ``role``'s admin role."
      },
      "hasRole(bytes32,address)": {
        "details": "Returns `true` if `account` has been granted `role`."
      },
      "increaseAllowance(address,uint256)": {
        "details": "Atomically increases the allowance granted to `spender` by the caller. This is an alternative to {approve} that can be used as a mitigation for problems described in {IERC20-approve}. Emits an {Approval} event indicating the updated allowance. Requirements: - `spender` cannot be the zero address."
      },
      "name()": {
        "details": "Returns the name of the token."
      },
      "nonces(address)": {
        "details": "See {IERC20Permit-nonces}."
      },
      "numCheckpoints(address)": {
        "details": "Get number of checkpoints for `account`."
      },
      "owner()": {
        "details": "Returns the address of the current owner."
      },
      "paused()": {
        "details": "Returns true if the contract is paused, and false otherwise."
      },
      "permit(address,address,uint256,uint256,uint8,bytes32,bytes32)": {
        "details": "See {IERC20Permit-permit}."
      },
      "renounceOwnership()": {
        "details": "Leaves the contract without owner. It will not be possible to call `onlyOwner` functions anymore. Can only be called by the current owner. NOTE: Renouncing ownership will leave the contract without an owner, thereby removing any functionality that is only available to the owner."
      },
      "renounceRole(bytes32,address)": {
        "details": "Revokes `role` from the calling account. Roles are often managed via {grantRole} and {revokeRole}: this function's purpose is to provide a mechanism for accounts to lose their privileges if they are compromised (such as when a trusted device is misplaced). If the calling account had been revoked `role`, emits a {RoleRevoked} event. Requirements: - the caller must be `account`."
      },
      "revokeRole(bytes32,address)": {
        "details": "Revokes `role` from `account`. If `account` had been granted `role`, emits a {RoleRevoked} event. Requirements: - the caller must have ``role``'s admin role."
      },
      "supportsInterface(bytes4)": {
        "details": "See {IERC165-supportsInterface}."
      },
      "symbol()": {
        "details": "Returns the symbol of the token, usually a shorter version of the name."
      },
      "totalSupply()": {
        "details": "See {IERC20-totalSupply}."
      },
      "transfer(address,uint256)": {
        "details": "See {IERC20-transfer}. Requirements: - `recipient` cannot be the zero address. - the caller must have a balance of at least `amount`."
      },
      "transferFrom(address,address,uint256)": {
        "details": "See {IERC20-transferFrom}. Emits an {Approval} event indicating the updated allowance. This is not required by the EIP. See the note at the beginning of {ERC20}. Requirements: - `sender` and `recipient` cannot be the zero address. - `sender` must have a balance of at least `amount`. - the caller must have allowance for ``sender``'s tokens of at least `amount`."
      },
      "transferOwnership(address)": {
        "details": "Transfers ownership of the contract to a new account (`newOwner`). Can only be called by the current owner."
      }
    },
    "version": 1
  },
  "userdoc": {
    "kind": "user",
    "methods": {},
    "version": 1
  }
}