{
  "contractName": "YugoManager",
  "abi": [
    {
      "anonymous": false,
      "inputs": [
        {
          "indexed": false,
          "internalType": "address",
          "name": "addrSetTo",
          "type": "address"
        },
        {
          "indexed": false,
          "internalType": "address",
          "name": "setter",
          "type": "address"
        }
      ],
      "name": "AddressSet",
      "type": "event"
    },
    {
      "anonymous": false,
      "inputs": [
        {
          "indexed": false,
          "internalType": "address",
          "name": "organisation",
          "type": "address"
        }
      ],
      "name": "FundsTransferedToWinner",
      "type": "event"
    },
    {
      "anonymous": false,
      "inputs": [
        {
          "indexed": true,
          "internalType": "address",
          "name": "previousOwner",
          "type": "address"
        },
        {
          "indexed": true,
          "internalType": "address",
          "name": "newOwner",
          "type": "address"
        }
      ],
      "name": "OwnershipTransferred",
      "type": "event"
    },
    {
      "anonymous": false,
      "inputs": [
        {
          "indexed": false,
          "internalType": "address",
          "name": "organisation",
          "type": "address"
        },
        {
          "indexed": false,
          "internalType": "uint256",
          "name": "value",
          "type": "uint256"
        }
      ],
      "name": "Received",
      "type": "event"
    },
    {
      "anonymous": false,
      "inputs": [
        {
          "indexed": false,
          "internalType": "address",
          "name": "organisation",
          "type": "address"
        }
      ],
      "name": "TokenPurchasedBy",
      "type": "event"
    },
    {
      "anonymous": false,
      "inputs": [
        {
          "indexed": false,
          "internalType": "address",
          "name": "recipient",
          "type": "address"
        },
        {
          "indexed": false,
          "internalType": "uint256",
          "name": "amount",
          "type": "uint256"
        }
      ],
      "name": "YugoTransfer",
      "type": "event"
    },
    {
      "inputs": [],
      "name": "owner",
      "outputs": [
        {
          "internalType": "address",
          "name": "",
          "type": "address"
        }
      ],
      "stateMutability": "view",
      "type": "function",
      "constant": true
    },
    {
      "inputs": [],
      "name": "renounceOwnership",
      "outputs": [],
      "stateMutability": "nonpayable",
      "type": "function"
    },
    {
      "inputs": [
        {
          "internalType": "address",
          "name": "newOwner",
          "type": "address"
        }
      ],
      "name": "transferOwnership",
      "outputs": [],
      "stateMutability": "nonpayable",
      "type": "function"
    },
    {
      "inputs": [],
      "name": "yugo",
      "outputs": [
        {
          "internalType": "contract IYugo",
          "name": "",
          "type": "address"
        }
      ],
      "stateMutability": "view",
      "type": "function",
      "constant": true
    },
    {
      "inputs": [],
      "name": "yugoDao",
      "outputs": [
        {
          "internalType": "contract IYugoDao",
          "name": "",
          "type": "address"
        }
      ],
      "stateMutability": "view",
      "type": "function",
      "constant": true
    },
    {
      "stateMutability": "payable",
      "type": "receive",
      "payable": true
    },
    {
      "inputs": [
        {
          "internalType": "address payable",
          "name": "_to",
          "type": "address"
        }
      ],
      "name": "sendEth",
      "outputs": [],
      "stateMutability": "payable",
      "type": "function",
      "payable": true
    },
    {
      "inputs": [
        {
          "internalType": "address",
          "name": "_addy",
          "type": "address"
        }
      ],
      "name": "setYugoAddress",
      "outputs": [],
      "stateMutability": "nonpayable",
      "type": "function"
    },
    {
      "inputs": [
        {
          "internalType": "address",
          "name": "_addydao",
          "type": "address"
        }
      ],
      "name": "setYugoDaoAddress",
      "outputs": [],
      "stateMutability": "nonpayable",
      "type": "function"
    },
    {
      "inputs": [
        {
          "internalType": "address",
          "name": "account",
          "type": "address"
        }
      ],
      "name": "yugoBalanceOf",
      "outputs": [
        {
          "internalType": "uint256",
          "name": "",
          "type": "uint256"
        }
      ],
      "stateMutability": "view",
      "type": "function",
      "constant": true
    },
    {
      "inputs": [],
      "name": "transferYugo",
      "outputs": [],
      "stateMutability": "nonpayable",
      "type": "function"
    },
    {
      "inputs": [],
      "name": "transferWinningOrganisation",
      "outputs": [],
      "stateMutability": "nonpayable",
      "type": "function"
    }
  ],
  "bytecode": "0x608060405267016345785d8a000060035534801561001c57600080fd5b5061003961002e61003e60201b60201c565b61004660201b60201c565b61010a565b600033905090565b60008060009054906101000a900473ffffffffffffffffffffffffffffffffffffffff169050816000806101000a81548173ffffffffffffffffffffffffffffffffffffffff021916908373ffffffffffffffffffffffffffffffffffffffff1602179055508173ffffffffffffffffffffffffffffffffffffffff168173ffffffffffffffffffffffffffffffffffffffff167f8be0079c531659141344cd1fd0a4f28419497f9722a3daafe3b4186f6b6457e060405160405180910390a35050565b611648806101196000396000f3fe6080604052600436106100a05760003560e01c806376a54c601161006457806376a54c60146103fa5780638da5cb5b146104165780639d87eb6a14610441578063b0cbe7701461046c578063e034b77c14610495578063f2fde38b146104ac57610336565b8063056e75971461033b57806322370265146103525780635fe581dc1461037d57806364e2a0e0146103a6578063715018a6146103e357610336565b366103365760011515600260009054906101000a900473ffffffffffffffffffffffffffffffffffffffff1673ffffffffffffffffffffffffffffffffffffffff1663bd729732336040518263ffffffff1660e01b81526004016101049190610d76565b6020604051808303816000875af1158015610123573d6000803e3d6000fd5b505050506040513d601f19601f820116820180604052508101906101479190610dce565b151514610189576040517f08c379a000000000000000000000000000000000000000000000000000000000815260040161018090610e7e565b60405180910390fd5b6000600160009054906101000a900473ffffffffffffffffffffffffffffffffffffffff1673ffffffffffffffffffffffffffffffffffffffff166370a08231336040518263ffffffff1660e01b81526004016101e69190610d76565b602060405180830381865afa158015610203573d6000803e3d6000fd5b505050506040513d601f19601f820116820180604052508101906102279190610ed4565b14610267576040517f08c379a000000000000000000000000000000000000000000000000000000000815260040161025e90610f4d565b60405180910390fd5b60035434146102ab576040517f08c379a00000000000000000000000000000000000000000000000000000000081526004016102a290610fb9565b60405180910390fd5b6000339050600034905080600460008473ffffffffffffffffffffffffffffffffffffffff1673ffffffffffffffffffffffffffffffffffffffff168152602001908152602001600020819055507f88a5966d370b9919b20f3e2c13ff65706f196a4e32cc2c12bf57088f88525874333460405161032a929190610fe8565b60405180910390a15050005b600080fd5b34801561034757600080fd5b506103506104d5565b005b34801561035e57600080fd5b506103676106e2565b6040516103749190611070565b60405180910390f35b34801561038957600080fd5b506103a4600480360381019061039f91906110b7565b610708565b005b3480156103b257600080fd5b506103cd60048036038101906103c891906110b7565b610801565b6040516103da91906110e4565b60405180910390f35b3480156103ef57600080fd5b506103f86108a6565b005b610414600480360381019061040f919061113d565b61092e565b005b34801561042257600080fd5b5061042b610a27565b6040516104389190610d76565b60405180910390f35b34801561044d57600080fd5b50610456610a50565b604051610463919061118b565b60405180910390f35b34801561047857600080fd5b50610493600480360381019061048e91906110b7565b610a76565b005b3480156104a157600080fd5b506104aa610b6f565b005b3480156104b857600080fd5b506104d360048036038101906104ce91906110b7565b610b71565b005b600354600460003373ffffffffffffffffffffffffffffffffffffffff1673ffffffffffffffffffffffffffffffffffffffff1681526020019081526020016000205414610558576040517f08c379a000000000000000000000000000000000000000000000000000000000815260040161054f906111f2565b60405180910390fd5b6000600160009054906101000a900473ffffffffffffffffffffffffffffffffffffffff1673ffffffffffffffffffffffffffffffffffffffff1663313ce5676040518163ffffffff1660e01b8152600401602060405180830381865afa1580156105c7573d6000803e3d6000fd5b505050506040513d601f19601f820116820180604052508101906105eb919061124b565b600a6105f791906113da565b60016106039190611425565b9050600160009054906101000a900473ffffffffffffffffffffffffffffffffffffffff1673ffffffffffffffffffffffffffffffffffffffff1663a9059cbb33836040518363ffffffff1660e01b8152600401610662929190610fe8565b6020604051808303816000875af1158015610681573d6000803e3d6000fd5b505050506040513d601f19601f820116820180604052508101906106a59190610dce565b507fe94c6e629948b607c16a4b9710b4e775200e3c7963e20b6cbb8dccc8da65d87033826040516106d7929190610fe8565b60405180910390a150565b600160009054906101000a900473ffffffffffffffffffffffffffffffffffffffff1681565b610710610c69565b73ffffffffffffffffffffffffffffffffffffffff1661072e610a27565b73ffffffffffffffffffffffffffffffffffffffff1614610784576040517f08c379a000000000000000000000000000000000000000000000000000000000815260040161077b906114cb565b60405180910390fd5b80600160006101000a81548173ffffffffffffffffffffffffffffffffffffffff021916908373ffffffffffffffffffffffffffffffffffffffff1602179055507f7c70e2d89d1dca170b21f8ef849678463944a87b2c710218a895aeb967ed52f781336040516107f69291906114eb565b60405180910390a150565b6000600160009054906101000a900473ffffffffffffffffffffffffffffffffffffffff1673ffffffffffffffffffffffffffffffffffffffff166370a08231836040518263ffffffff1660e01b815260040161085e9190610d76565b602060405180830381865afa15801561087b573d6000803e3d6000fd5b505050506040513d601f19601f8201168201806040525081019061089f9190610ed4565b9050919050565b6108ae610c69565b73ffffffffffffffffffffffffffffffffffffffff166108cc610a27565b73ffffffffffffffffffffffffffffffffffffffff1614610922576040517f08c379a0000000000000000000000000000000000000000000000000000000008152600401610919906114cb565b60405180910390fd5b61092c6000610c71565b565b610936610c69565b73ffffffffffffffffffffffffffffffffffffffff16610954610a27565b73ffffffffffffffffffffffffffffffffffffffff16146109aa576040517f08c379a00000000000000000000000000000000000000000000000000000000081526004016109a1906114cb565b60405180910390fd5b60008173ffffffffffffffffffffffffffffffffffffffff166108fc349081150290604051600060405180830381858888f19350505050905080610a23576040517f08c379a0000000000000000000000000000000000000000000000000000000008152600401610a1a90611560565b60405180910390fd5b5050565b60008060009054906101000a900473ffffffffffffffffffffffffffffffffffffffff16905090565b600260009054906101000a900473ffffffffffffffffffffffffffffffffffffffff1681565b610a7e610c69565b73ffffffffffffffffffffffffffffffffffffffff16610a9c610a27565b73ffffffffffffffffffffffffffffffffffffffff1614610af2576040517f08c379a0000000000000000000000000000000000000000000000000000000008152600401610ae9906114cb565b60405180910390fd5b80600260006101000a81548173ffffffffffffffffffffffffffffffffffffffff021916908373ffffffffffffffffffffffffffffffffffffffff1602179055507f7c70e2d89d1dca170b21f8ef849678463944a87b2c710218a895aeb967ed52f78133604051610b649291906114eb565b60405180910390a150565b565b610b79610c69565b73ffffffffffffffffffffffffffffffffffffffff16610b97610a27565b73ffffffffffffffffffffffffffffffffffffffff1614610bed576040517f08c379a0000000000000000000000000000000000000000000000000000000008152600401610be4906114cb565b60405180910390fd5b600073ffffffffffffffffffffffffffffffffffffffff168173ffffffffffffffffffffffffffffffffffffffff161415610c5d576040517f08c379a0000000000000000000000000000000000000000000000000000000008152600401610c54906115f2565b60405180910390fd5b610c6681610c71565b50565b600033905090565b60008060009054906101000a900473ffffffffffffffffffffffffffffffffffffffff169050816000806101000a81548173ffffffffffffffffffffffffffffffffffffffff021916908373ffffffffffffffffffffffffffffffffffffffff1602179055508173ffffffffffffffffffffffffffffffffffffffff168173ffffffffffffffffffffffffffffffffffffffff167f8be0079c531659141344cd1fd0a4f28419497f9722a3daafe3b4186f6b6457e060405160405180910390a35050565b600073ffffffffffffffffffffffffffffffffffffffff82169050919050565b6000610d6082610d35565b9050919050565b610d7081610d55565b82525050565b6000602082019050610d8b6000830184610d67565b92915050565b600080fd5b60008115159050919050565b610dab81610d96565b8114610db657600080fd5b50565b600081519050610dc881610da2565b92915050565b600060208284031215610de457610de3610d91565b5b6000610df284828501610db9565b91505092915050565b600082825260208201905092915050565b7f796f75206e65656420746f206265207265676973746572656420746f2070757260008201527f63686173652074686520746f6b656e0000000000000000000000000000000000602082015250565b6000610e68602f83610dfb565b9150610e7382610e0c565b604082019050919050565b60006020820190508181036000830152610e9781610e5b565b9050919050565b6000819050919050565b610eb181610e9e565b8114610ebc57600080fd5b50565b600081519050610ece81610ea8565b92915050565b600060208284031215610eea57610ee9610d91565b5b6000610ef884828501610ebf565b91505092915050565b7f796f7520616c726561647920707572636861736564206120746f6b656e000000600082015250565b6000610f37601d83610dfb565b9150610f4282610f01565b602082019050919050565b60006020820190508181036000830152610f6681610f2a565b9050919050565b7f796f7520646f206e6f74206861766520656e6f75676820455448000000000000600082015250565b6000610fa3601a83610dfb565b9150610fae82610f6d565b602082019050919050565b60006020820190508181036000830152610fd281610f96565b9050919050565b610fe281610e9e565b82525050565b6000604082019050610ffd6000830185610d67565b61100a6020830184610fd9565b9392505050565b6000819050919050565b600061103661103161102c84610d35565b611011565b610d35565b9050919050565b60006110488261101b565b9050919050565b600061105a8261103d565b9050919050565b61106a8161104f565b82525050565b60006020820190506110856000830184611061565b92915050565b61109481610d55565b811461109f57600080fd5b50565b6000813590506110b18161108b565b92915050565b6000602082840312156110cd576110cc610d91565b5b60006110db848285016110a2565b91505092915050565b60006020820190506110f96000830184610fd9565b92915050565b600061110a82610d35565b9050919050565b61111a816110ff565b811461112557600080fd5b50565b60008135905061113781611111565b92915050565b60006020828403121561115357611152610d91565b5b600061116184828501611128565b91505092915050565b60006111758261103d565b9050919050565b6111858161116a565b82525050565b60006020820190506111a0600083018461117c565b92915050565b7f6e6f204554482077617320726563656976656400000000000000000000000000600082015250565b60006111dc601383610dfb565b91506111e7826111a6565b602082019050919050565b6000602082019050818103600083015261120b816111cf565b9050919050565b600060ff82169050919050565b61122881611212565b811461123357600080fd5b50565b6000815190506112458161121f565b92915050565b60006020828403121561126157611260610d91565b5b600061126f84828501611236565b91505092915050565b7f4e487b7100000000000000000000000000000000000000000000000000000000600052601160045260246000fd5b60008160011c9050919050565b6000808291508390505b60018511156112fe578086048111156112da576112d9611278565b5b60018516156112e95780820291505b80810290506112f7856112a7565b94506112be565b94509492505050565b60008261131757600190506113d3565b8161132557600090506113d3565b816001811461133b576002811461134557611374565b60019150506113d3565b60ff84111561135757611356611278565b5b8360020a91508482111561136e5761136d611278565b5b506113d3565b5060208310610133831016604e8410600b84101617156113a95782820a9050838111156113a4576113a3611278565b5b6113d3565b6113b684848460016112b4565b925090508184048111156113cd576113cc611278565b5b81810290505b9392505050565b60006113e582610e9e565b91506113f083611212565b925061141d7fffffffffffffffffffffffffffffffffffffffffffffffffffffffffffffffff8484611307565b905092915050565b600061143082610e9e565b915061143b83610e9e565b9250817fffffffffffffffffffffffffffffffffffffffffffffffffffffffffffffffff048311821515161561147457611473611278565b5b828202905092915050565b7f4f776e61626c653a2063616c6c6572206973206e6f7420746865206f776e6572600082015250565b60006114b5602083610dfb565b91506114c08261147f565b602082019050919050565b600060208201905081810360008301526114e4816114a8565b9050919050565b60006040820190506115006000830185610d67565b61150d6020830184610d67565b9392505050565b7f4661696c656420746f2073656e64204574686572000000000000000000000000600082015250565b600061154a601483610dfb565b915061155582611514565b602082019050919050565b600060208201905081810360008301526115798161153d565b9050919050565b7f4f776e61626c653a206e6577206f776e657220697320746865207a65726f206160008201527f6464726573730000000000000000000000000000000000000000000000000000602082015250565b60006115dc602683610dfb565b91506115e782611580565b604082019050919050565b6000602082019050818103600083015261160b816115cf565b905091905056fea26469706673582212209ad596b5c92cce6d2e832e81f1cd27c8c4bde80c70a8396848b27b78a28ded5664736f6c634300080b0033",
  "immutableReferences": {},
  "source": "// SPDX-License-Identifier: GPL-3.0\npragma solidity 0.8.11;\n\nimport \"@openzeppelin/contracts/access/Ownable.sol\";\nimport \"./IYugo.sol\";\nimport \"./IYugoDao.sol\";\n\n// interface IYugo {\n//     function balanceOf(address account) external view returns (uint256);\n// }\n\ncontract YugoManager is Ownable {\n\n    IYugo public yugo;\n    IYugoDao public yugoDao;\n\n    uint yugoTokenCost = 100000000000000000; //0.1 ETH\n    mapping (address => uint) EthLedger;\n\n    event AddressSet (address addrSetTo, address setter);\n    event YugoTransfer (address recipient, uint256 amount);\n    event Received(address organisation, uint value);\n    event TokenPurchasedBy(address organisation);\n    event FundsTransferedToWinner(address organisation);\n\n    receive() external payable {\n        require(yugoDao.organisationRegistrationStatus(msg.sender) == true, 'you need to be registered to purchase the token');\n        require(yugo.balanceOf(msg.sender) == 0, \"you already purchased a token\");\n        require(msg.value == yugoTokenCost, \"you do not have enough ETH\");\n        // require(msg.value > 0);\n        address sender = msg.sender;\n        uint deposited = msg.value;\n        // receiver = owner;\n        EthLedger[sender] = deposited;\n        // receiver.transfer(deposited);\n        emit Received(msg.sender, msg.value);\n    }\n\n    function sendEth(address payable _to) public payable onlyOwner {\n        bool sent = _to.send(msg.value);\n        require(sent, \"Failed to send Ether\");\n    }\n\n    function setYugoAddress(address _addy) external onlyOwner {\n        yugo = IYugo(_addy);\n        emit AddressSet(_addy, msg.sender);\n    }\n\n    function setYugoDaoAddress(address _addydao) external onlyOwner {\n        yugoDao = IYugoDao(_addydao);\n        emit AddressSet(_addydao, msg.sender);\n    }\n\n    function yugoBalanceOf(address account) public view returns (uint256) {\n        return yugo.balanceOf(account);\n    }\n\n    // function purchaseToken() external payable {\n    //     require(yugoDao.organisationRegistrationStatus(msg.sender) == true, 'you need to be registered to purchase the token');\n    //     require(yugo.balanceOf(msg.sender) == 0, \"you already purchased a token\");\n    //     require(msg.value == yugoTokenCost, \"you do not have enough ETH\");\n    //     // require(!EthLedger)\n    //     _deposit(msg.sender, msg.value);\n    //     // _transferYugo(msg.sender);\n    //     emit TokenPurchasedBy(msg.sender);\n    // }\n\n    function transferYugo() external {\n        require(EthLedger[msg.sender] == yugoTokenCost, \"no ETH was received\");\n        uint256 amount = 1*10**yugo.decimals();\n        yugo.transfer(msg.sender, amount);\n        emit YugoTransfer(msg.sender, amount);\n    }\n\n    function transferWinningOrganisation() external {\n\n    }\n\n    // function verifyByOracle\n\n}",
  "sourcePath": "/Users/urdoom/blockchain_development/Alyra/YU-GO/template/Truffle/contracts/YugoManager.sol",
  "compiler": {
    "name": "solc",
    "version": "0.8.11+commit.d7f03943.Emscripten.clang"
  },
  "schemaVersion": "3.4.3",
  "updatedAt": "2022-01-06T00:09:20.737Z",
  "networkType": "ethereum",
  "devdoc": {
    "kind": "dev",
    "methods": {
      "owner()": {
        "details": "Returns the address of the current owner."
      },
      "renounceOwnership()": {
        "details": "Leaves the contract without owner. It will not be possible to call `onlyOwner` functions anymore. Can only be called by the current owner. NOTE: Renouncing ownership will leave the contract without an owner, thereby removing any functionality that is only available to the owner."
      },
      "transferOwnership(address)": {
        "details": "Transfers ownership of the contract to a new account (`newOwner`). Can only be called by the current owner."
      }
    },
    "version": 1
  },
  "userdoc": {
    "kind": "user",
    "methods": {},
    "version": 1
  }
}