{
  "contractName": "GrantEscrow",
  "abi": [
    {
      "anonymous": false,
      "inputs": [
        {
          "indexed": false,
          "internalType": "address",
          "name": "yugodao",
          "type": "address"
        },
        {
          "indexed": false,
          "internalType": "address",
          "name": "verifySign",
          "type": "address"
        }
      ],
      "name": "AddressesSet",
      "type": "event"
    },
    {
      "anonymous": false,
      "inputs": [
        {
          "indexed": false,
          "internalType": "uint256",
          "name": "grant",
          "type": "uint256"
        },
        {
          "indexed": false,
          "internalType": "address",
          "name": "depositor",
          "type": "address"
        }
      ],
      "name": "GrantDeposited",
      "type": "event"
    },
    {
      "anonymous": false,
      "inputs": [
        {
          "indexed": false,
          "internalType": "uint256",
          "name": "amountWithdrawn",
          "type": "uint256"
        },
        {
          "indexed": false,
          "internalType": "address",
          "name": "recipient",
          "type": "address"
        }
      ],
      "name": "GrantWithdrawn",
      "type": "event"
    },
    {
      "anonymous": false,
      "inputs": [
        {
          "indexed": true,
          "internalType": "address",
          "name": "previousOwner",
          "type": "address"
        },
        {
          "indexed": true,
          "internalType": "address",
          "name": "newOwner",
          "type": "address"
        }
      ],
      "name": "OwnershipTransferred",
      "type": "event"
    },
    {
      "inputs": [
        {
          "internalType": "address",
          "name": "",
          "type": "address"
        }
      ],
      "name": "Grants",
      "outputs": [
        {
          "internalType": "uint256",
          "name": "",
          "type": "uint256"
        }
      ],
      "stateMutability": "view",
      "type": "function",
      "constant": true
    },
    {
      "inputs": [
        {
          "internalType": "address",
          "name": "",
          "type": "address"
        },
        {
          "internalType": "address",
          "name": "",
          "type": "address"
        }
      ],
      "name": "UnlockFunds",
      "outputs": [
        {
          "internalType": "bool",
          "name": "",
          "type": "bool"
        }
      ],
      "stateMutability": "view",
      "type": "function",
      "constant": true
    },
    {
      "inputs": [],
      "name": "owner",
      "outputs": [
        {
          "internalType": "address",
          "name": "",
          "type": "address"
        }
      ],
      "stateMutability": "view",
      "type": "function",
      "constant": true
    },
    {
      "inputs": [],
      "name": "renounceOwnership",
      "outputs": [],
      "stateMutability": "nonpayable",
      "type": "function"
    },
    {
      "inputs": [
        {
          "internalType": "address",
          "name": "newOwner",
          "type": "address"
        }
      ],
      "name": "transferOwnership",
      "outputs": [],
      "stateMutability": "nonpayable",
      "type": "function"
    },
    {
      "inputs": [
        {
          "internalType": "address",
          "name": "_dao",
          "type": "address"
        },
        {
          "internalType": "address",
          "name": "_verifSign",
          "type": "address"
        }
      ],
      "name": "setContractsAddresses",
      "outputs": [],
      "stateMutability": "nonpayable",
      "type": "function"
    },
    {
      "inputs": [
        {
          "internalType": "address",
          "name": "_contestCreator",
          "type": "address"
        }
      ],
      "name": "depositGrant",
      "outputs": [],
      "stateMutability": "payable",
      "type": "function",
      "payable": true
    },
    {
      "inputs": [
        {
          "internalType": "address",
          "name": "_contestCreator",
          "type": "address"
        }
      ],
      "name": "withdrawGrant",
      "outputs": [],
      "stateMutability": "nonpayable",
      "type": "function"
    },
    {
      "inputs": [
        {
          "internalType": "address",
          "name": "_contestCreator",
          "type": "address"
        }
      ],
      "name": "fundsInEscrow",
      "outputs": [
        {
          "internalType": "uint256",
          "name": "",
          "type": "uint256"
        }
      ],
      "stateMutability": "view",
      "type": "function",
      "constant": true
    },
    {
      "inputs": [
        {
          "internalType": "address",
          "name": "_from",
          "type": "address"
        },
        {
          "internalType": "address",
          "name": "_to",
          "type": "address"
        },
        {
          "internalType": "bool",
          "name": "_state",
          "type": "bool"
        }
      ],
      "name": "setWithdrawStatus",
      "outputs": [
        {
          "internalType": "bool",
          "name": "",
          "type": "bool"
        }
      ],
      "stateMutability": "nonpayable",
      "type": "function"
    },
    {
      "inputs": [
        {
          "internalType": "address",
          "name": "_from",
          "type": "address"
        },
        {
          "internalType": "address",
          "name": "_to",
          "type": "address"
        }
      ],
      "name": "canWithdraw",
      "outputs": [
        {
          "internalType": "bool",
          "name": "",
          "type": "bool"
        }
      ],
      "stateMutability": "view",
      "type": "function",
      "constant": true
    }
  ],
  "bytecode": "0x608060405234801561001057600080fd5b5061001a3361001f565b61006f565b600080546001600160a01b038381166001600160a01b0319831681178455604051919092169283917f8be0079c531659141344cd1fd0a4f28419497f9722a3daafe3b4186f6b6457e09190a35050565b610c3f8061007e6000396000f3fe60806040526004361061009c5760003560e01c80638da5cb5b116100645780638da5cb5b1461018c57806392c8b2d7146101b4578063a5e62e42146101fd578063d6d74caf1461021d578063d8437ab31461023d578063f2fde38b1461025d57600080fd5b80633dba605b146100a15780634335ba36146100f15780635ac47e961461012c578063715018a61461014157806377b183e414610156575b600080fd5b3480156100ad57600080fd5b506100dc6100bc366004610a4d565b600460209081526000928352604080842090915290825290205460ff1681565b60405190151581526020015b60405180910390f35b3480156100fd57600080fd5b5061011e61010c366004610a86565b60036020526000908152604090205481565b6040519081526020016100e8565b61013f61013a366004610a86565b61027d565b005b34801561014d57600080fd5b5061013f610371565b34801561016257600080fd5b5061011e610171366004610a86565b6001600160a01b031660009081526003602052604090205490565b34801561019857600080fd5b506000546040516001600160a01b0390911681526020016100e8565b3480156101c057600080fd5b506100dc6101cf366004610a4d565b6001600160a01b03918216600090815260046020908152604080832093909416825291909152205460ff1690565b34801561020957600080fd5b5061013f610218366004610a86565b6103a7565b34801561022957600080fd5b506100dc610238366004610aaa565b610727565b34801561024957600080fd5b5061013f610258366004610a4d565b6107d7565b34801561026957600080fd5b5061013f610278366004610a86565b6108e3565b6001546001600160a01b03163314806102a057506002546001600160a01b031633145b806102aa57503330145b6103165760405162461bcd60e51b815260206004820152603260248201527f4f6e6c792074727573746564205955474f20636f6e7472616374732063616e2060448201527131b0b636103a3434b990333ab731ba34b7b760711b60648201526084015b60405180910390fd5b6001600160a01b03811660008181526003602090815260409182902034908190558251908152908101929092527fe73ecccb0160fd47146480c2beeeeb640414abf007e1478503011d1465df201c910160405180910390a150565b6000546001600160a01b0316331461039b5760405162461bcd60e51b815260040161030d90610afa565b6103a5600061097e565b565b6103c9604051806060016040528060218152602001610be960219139336109ce565b60015460405163c6ade83560e01b81526001600160a01b038381166004830152600092839291169063c6ade835906024016040805180830381865afa158015610416573d6000803e3d6000fd5b505050506040513d601f19601f8201168201806040525081019061043a9190610b2f565b9092509050336001600160a01b038316146104bd5760405162461bcd60e51b815260206004820152603b60248201527f796f752063616e6e6f742077697468647261772c207365656d73206c696b652060448201527f796f7520646964206e6f742077696e2074686520636f6e746573740000000000606482015260840161030d565b6001600160a01b038316600090815260046020908152604080832033845290915290205460ff166105665760405162461bcd60e51b815260206004820152604760248201527f596f752063616e6e6f7420776974686472617720746865206772616e7420617460448201527f20746869732074696d653b2061677265656d656e74206973206e6f7420796574606482015266081cda59db995960ca1b608482015260a40161030d565b6001600160a01b0383166000908152600360205260409020548111156105ce5760405162461bcd60e51b815260206004820152601e60248201527f4e6f7420656e6f7567682066756e6473206c65667420696e206772616e740000604482015260640161030d565b6001600160a01b03831660008181526004602090815260408083203384528252808320805460ff19169055928252600390529081205461060f908390610b5d565b6001600160a01b03851660009081526003602052604081205491925090610637908390610b5d565b6001600160a01b038616600090815260036020526040808220859055338083528183208490559051929350909183908381818185875af1925050503d806000811461069e576040519150601f19603f3d011682016040523d82523d6000602084013e6106a3565b606091505b50509050806106e75760405162461bcd60e51b815260206004820152601060248201526f2a3930b739b332b9103330b4b632b21760811b604482015260640161030d565b604080518381523360208201527fff0a241e97df4dc6ccdded5f0794c5961fa57705cb8a633fa03198643a1aa310910160405180910390a1505050505050565b6002546000906001600160a01b031633146107995760405162461bcd60e51b815260206004820152602c60248201527f796f7520617265206e6f7420617574686f726973656420746f2063616c6c207460448201526b3434b990333ab731ba34b7b760a11b606482015260840161030d565b506001600160a01b03928316600090815260046020908152604080832094909516825292909252919020805460ff1916911515918217905560ff1690565b6000546001600160a01b031633146108015760405162461bcd60e51b815260040161030d90610afa565b600254600160a01b900460ff16156108675760405162461bcd60e51b815260206004820152602360248201527f416c6c20636f6e747261637473206861766520616c7265616479206265656e206044820152621cd95d60ea1b606482015260840161030d565b60028054600180546001600160a01b038681166001600160a01b031990921682179092559084166001600160a81b03199092168217600160a01b179092556040805192835260208301919091527fc85d03f020ecd6e7e68d949922d7bfbf9b0ac67d6e9d24792773b8df88a89dea910160405180910390a15050565b6000546001600160a01b0316331461090d5760405162461bcd60e51b815260040161030d90610afa565b6001600160a01b0381166109725760405162461bcd60e51b815260206004820152602660248201527f4f776e61626c653a206e6577206f776e657220697320746865207a65726f206160448201526564647265737360d01b606482015260840161030d565b61097b8161097e565b50565b600080546001600160a01b038381166001600160a01b0319831681178455604051919092169283917f8be0079c531659141344cd1fd0a4f28419497f9722a3daafe3b4186f6b6457e09190a35050565b610a1382826040516024016109e4929190610b82565b60408051601f198184030181529190526020810180516001600160e01b031663319af33360e01b179052610a17565b5050565b80516a636f6e736f6c652e6c6f67602083016000808483855afa5050505050565b6001600160a01b038116811461097b57600080fd5b60008060408385031215610a6057600080fd5b8235610a6b81610a38565b91506020830135610a7b81610a38565b809150509250929050565b600060208284031215610a9857600080fd5b8135610aa381610a38565b9392505050565b600080600060608486031215610abf57600080fd5b8335610aca81610a38565b92506020840135610ada81610a38565b915060408401358015158114610aef57600080fd5b809150509250925092565b6020808252818101527f4f776e61626c653a2063616c6c6572206973206e6f7420746865206f776e6572604082015260600190565b60008060408385031215610b4257600080fd5b8251610b4d81610a38565b6020939093015192949293505050565b600082821015610b7d57634e487b7160e01b600052601160045260246000fd5b500390565b604081526000835180604084015260005b81811015610bb05760208187018101516060868401015201610b93565b81811115610bc2576000606083860101525b506001600160a01b0393909316602083015250601f91909101601f19160160600191905056fe496e204772616e74457363726f772e736f6c2c206d73672e73656e646572203d20a26469706673582212203552821f7a146462426bd1bd1da6ec2e11192a0561afa2b00298d9bcab94e05d64736f6c634300080b0033",
  "immutableReferences": {},
  "source": "// SPDX-License-Identifier: MIT\npragma solidity 0.8.11;\n\nimport \"@openzeppelin/contracts/access/Ownable.sol\";\nimport \"./interfaces/IYugoDao.sol\";\nimport \"./interfaces/IVerifySignature.sol\";\nimport \"hardhat/console.sol\";\n\n/**\n* @notice This smart contracthandles the ETH deposited in escrow when a contest is created.\n*/\ncontract GrantEscrow is Ownable {\n    IYugoDao private yugodao;\n    IVerifySignature private verifSign;\n\n    bool private AllAddrSet;\n\n    event AddressesSet(address yugodao, address verifySign);\n    event GrantDeposited(uint grant, address depositor);\n    event GrantWithdrawn(uint amountWithdrawn, address recipient);\n\n    mapping(address => uint) public Grants;\n    mapping (address =>  mapping (address => bool)) public UnlockFunds;\n\n    modifier onlyRegisteredOrga(address _caller) {\n        require(yugodao.organisationRegistrationStatus(_caller), 'You are not registered');\n        _;\n    }\n\n    modifier restrictedToContracts() {\n        require(msg.sender == address(yugodao) || msg.sender == address(verifSign) || msg.sender == address(this), 'Only trusted YUGO contracts can call this function');\n        _;\n    }\n\n    // receive() external payable {\n    //     depositGrant(msg.sender, msg.value);\n    // } \n\n    /**\n    * @notice Set smart contract addresses of YugoDao and VerifySignature\n    * @param _dao Address of YugoDao\n    * @param _verifSign Address of VerifySignature\n    */\n    function setContractsAddresses(address _dao, address _verifSign) external onlyOwner {\n        require(!AllAddrSet, \"All contracts have already been set\");\n        AllAddrSet = true;\n        yugodao = IYugoDao(_dao);\n        verifSign = IVerifySignature(_verifSign);\n        emit AddressesSet(_dao, _verifSign);\n    }\n\n    /**\n    * @notice Adds ETH in escrow\n    * @dev only available for registered organisations\n    * @dev function also called by fallback receive()\n    */\n    function depositGrant(address _contestCreator) external payable restrictedToContracts { //only internal, create another function pour call exterieur\n        Grants[_contestCreator] = msg.value;\n        emit GrantDeposited(msg.value, _contestCreator);\n    }\n\n    /**\n    * @notice Withdraws grant from escrow. <br />\n    * @dev only available for registered organisations.  <br />\n    * @dev requires the Granter to have signed the transaction.  <br />\n    * @param _contestCreator address of the organisation who created the contest.  <br />\n    * @dev Re-entrancy - changing the state of unlockFunds in VerifySignature to false ensures that the function can not\n    * be run multiple times in parallel. A second call would not pass the require.  \n    */\n    function withdrawGrant(address _contestCreator) external {\n        console.log('In GrantEscrow.sol, msg.sender = ', msg.sender);\n        (address _winner, uint _requiredFunds ) = yugodao.getContestWinner(_contestCreator);\n        require(msg.sender == _winner, \"you cannot withdraw, seems like you did not win the contest\");\n        require(UnlockFunds[_contestCreator][msg.sender], \"You cannot withdraw the grant at this time; agreement is not yet signed\");\n        require(Grants[_contestCreator] >= _requiredFunds, 'Not enough funds left in grant');\n        UnlockFunds[_contestCreator][msg.sender] = false;\n        uint256 newContestCreatorBalance = Grants[_contestCreator] - _requiredFunds;\n        uint newActionCreatorBalance = Grants[_contestCreator] - newContestCreatorBalance;\n        Grants[_contestCreator] = newContestCreatorBalance;\n        Grants[msg.sender] = newActionCreatorBalance;\n        (bool success, ) = msg.sender.call{value: Grants[msg.sender]}(\"\");\n        require(success, \"Transfer failed.\");\n        // payable(msg.sender).transfer(Grants[msg.sender]);\n        emit GrantWithdrawn(newActionCreatorBalance , msg.sender);\n    }\n\n        /**\n    * @notice Return the amount put in escrow by the contest creator\n    * @param _contestCreator address of the organisation who created the contest \n    */\n    function fundsInEscrow(address _contestCreator) view external returns(uint){\n        return Grants[_contestCreator];\n    }\n\n     /**\n    * @notice Set the authorisation to withdraw funds \n    * @dev can only be called by trusted contracts, in this case: VerifySignature.sol\n    * @param _from The address of the Grant Orga \n    * @param _to The address of the recipient\n    * @param _state true: the recipient can withdraw\n    */\n    function setWithdrawStatus(address _from, address _to, bool _state) public returns(bool) {\n        require(msg.sender == address(verifSign), 'you are not authorised to call this function');\n        UnlockFunds[_from][_to] = _state;\n        return UnlockFunds[_from][_to];\n    }\n\n    /**\n    * @notice Checks the boolean of mapping unlockFunds \n    * @dev called from GrantEscrow when claiming funds in escrow\n    * @param _from The address of the Grant Orga \n    * @param _to The address of the recipient\n    */\n    function canWithdraw(address _from, address _to) public view returns(bool) {\n        return UnlockFunds[_from][_to];\n    }\n\n}\n\n",
  "sourcePath": "/Users/urdoom/blockchain_development/Alyra/YU-GO/Truffle/contracts/GrantEscrow.sol",
  "compiler": {
    "name": "solc",
    "version": "0.8.11+commit.d7f03943.Emscripten.clang"
  },
  "schemaVersion": "3.4.3",
  "updatedAt": "2022-01-28T11:30:44.082Z",
  "networkType": "ethereum",
  "devdoc": {
    "kind": "dev",
    "methods": {
      "canWithdraw(address,address)": {
        "details": "called from GrantEscrow when claiming funds in escrow",
        "params": {
          "_from": "The address of the Grant Orga ",
          "_to": "The address of the recipient"
        }
      },
      "depositGrant(address)": {
        "details": "only available for registered organisationsfunction also called by fallback receive()"
      },
      "fundsInEscrow(address)": {
        "params": {
          "_contestCreator": "address of the organisation who created the contest "
        }
      },
      "owner()": {
        "details": "Returns the address of the current owner."
      },
      "renounceOwnership()": {
        "details": "Leaves the contract without owner. It will not be possible to call `onlyOwner` functions anymore. Can only be called by the current owner. NOTE: Renouncing ownership will leave the contract without an owner, thereby removing any functionality that is only available to the owner."
      },
      "setContractsAddresses(address,address)": {
        "params": {
          "_dao": "Address of YugoDao",
          "_verifSign": "Address of VerifySignature"
        }
      },
      "setWithdrawStatus(address,address,bool)": {
        "details": "can only be called by trusted contracts, in this case: VerifySignature.sol",
        "params": {
          "_from": "The address of the Grant Orga ",
          "_state": "true: the recipient can withdraw",
          "_to": "The address of the recipient"
        }
      },
      "transferOwnership(address)": {
        "details": "Transfers ownership of the contract to a new account (`newOwner`). Can only be called by the current owner."
      },
      "withdrawGrant(address)": {
        "details": "only available for registered organisations.  <br />requires the Granter to have signed the transaction.  <br />Re-entrancy - changing the state of unlockFunds in VerifySignature to false ensures that the function can not be run multiple times in parallel. A second call would not pass the require.  ",
        "params": {
          "_contestCreator": "address of the organisation who created the contest.  <br />"
        }
      }
    },
    "version": 1
  },
  "userdoc": {
    "kind": "user",
    "methods": {
      "canWithdraw(address,address)": {
        "notice": "Checks the boolean of mapping unlockFunds "
      },
      "depositGrant(address)": {
        "notice": "Adds ETH in escrow"
      },
      "fundsInEscrow(address)": {
        "notice": "Return the amount put in escrow by the contest creator"
      },
      "setContractsAddresses(address,address)": {
        "notice": "Set smart contract addresses of YugoDao and VerifySignature"
      },
      "setWithdrawStatus(address,address,bool)": {
        "notice": "Set the authorisation to withdraw funds "
      },
      "withdrawGrant(address)": {
        "notice": "Withdraws grant from escrow. <br />"
      }
    },
    "notice": "This smart contracthandles the ETH deposited in escrow when a contest is created.",
    "version": 1
  }
}