{
  "contractName": "Main",
  "abi": [
    {
      "anonymous": false,
      "inputs": [
        {
          "indexed": false,
          "internalType": "address",
          "name": "addressParticipant",
          "type": "address"
        },
        {
          "indexed": false,
          "internalType": "address",
          "name": "addressOrganization",
          "type": "address"
        }
      ],
      "name": "AddressWhitelisted",
      "type": "event"
    },
    {
      "anonymous": false,
      "inputs": [
        {
          "indexed": false,
          "internalType": "address",
          "name": "addressOrga",
          "type": "address"
        }
      ],
      "name": "orgaRegistered",
      "type": "event"
    },
    {
      "anonymous": false,
      "inputs": [
        {
          "indexed": false,
          "internalType": "address",
          "name": "addressParticipant",
          "type": "address"
        }
      ],
      "name": "removedFromWhitelist",
      "type": "event"
    },
    {
      "inputs": [],
      "name": "registerOrganisation",
      "outputs": [],
      "stateMutability": "nonpayable",
      "type": "function"
    },
    {
      "inputs": [
        {
          "internalType": "address",
          "name": "_addrOrganisation",
          "type": "address"
        }
      ],
      "name": "participantIsWhiteListed",
      "outputs": [
        {
          "internalType": "bool",
          "name": "",
          "type": "bool"
        }
      ],
      "stateMutability": "view",
      "type": "function",
      "constant": true
    },
    {
      "inputs": [
        {
          "internalType": "address",
          "name": "_addrOrga",
          "type": "address"
        }
      ],
      "name": "removeFromWhitelist",
      "outputs": [],
      "stateMutability": "nonpayable",
      "type": "function"
    },
    {
      "inputs": [
        {
          "internalType": "address",
          "name": "_addrOrga",
          "type": "address"
        },
        {
          "internalType": "address",
          "name": "_addrParticipant",
          "type": "address"
        }
      ],
      "name": "addParticipant",
      "outputs": [],
      "stateMutability": "nonpayable",
      "type": "function"
    }
  ],
  "bytecode": "0x608060405234801561001057600080fd5b50610a71806100206000396000f3fe608060405234801561001057600080fd5b506004361061004c5760003560e01c80632b093ccb146100515780637dd7e4581461005b5780638ab1d6811461008b578063d35ada32146100a7575b600080fd5b6100596100c3565b005b61007560048036038101906100709190610738565b61026b565b6040516100829190610780565b60405180910390f35b6100a560048036038101906100a09190610738565b610395565b005b6100c160048036038101906100bc919061079b565b610466565b005b600015156000803373ffffffffffffffffffffffffffffffffffffffff1673ffffffffffffffffffffffffffffffffffffffff16815260200190815260200160002060000160149054906101000a900460ff16151514610158576040517f08c379a000000000000000000000000000000000000000000000000000000000815260040161014f90610838565b60405180910390fd5b336000803373ffffffffffffffffffffffffffffffffffffffff1673ffffffffffffffffffffffffffffffffffffffff16815260200190815260200160002060000160006101000a81548173ffffffffffffffffffffffffffffffffffffffff021916908373ffffffffffffffffffffffffffffffffffffffff16021790555060016000803373ffffffffffffffffffffffffffffffffffffffff1673ffffffffffffffffffffffffffffffffffffffff16815260200190815260200160002060000160146101000a81548160ff0219169083151502179055507f1997c71298d909efcb31800d352508054d356640a144b3ecfbae0794c7d85ce0336040516102619190610867565b60405180910390a1565b6000600115156000808473ffffffffffffffffffffffffffffffffffffffff1673ffffffffffffffffffffffffffffffffffffffff16815260200190815260200160002060000160149054906101000a900460ff16151514610302576040517f08c379a00000000000000000000000000000000000000000000000000000000081526004016102f9906108ce565b60405180910390fd5b6000808373ffffffffffffffffffffffffffffffffffffffff1673ffffffffffffffffffffffffffffffffffffffff16815260200190815260200160002060010160003373ffffffffffffffffffffffffffffffffffffffff1673ffffffffffffffffffffffffffffffffffffffff16815260200190815260200160002060009054906101000a900460ff169050919050565b60008060008373ffffffffffffffffffffffffffffffffffffffff1673ffffffffffffffffffffffffffffffffffffffff16815260200190815260200160002060010160003373ffffffffffffffffffffffffffffffffffffffff1673ffffffffffffffffffffffffffffffffffffffff16815260200190815260200160002060006101000a81548160ff0219169083151502179055507f91f0f31d153d0ee40e19d76dfb5a14250a2c659bbb3d88ee570ee0e76c7b8a463360405161045b9190610867565b60405180910390a150565b3373ffffffffffffffffffffffffffffffffffffffff166000808473ffffffffffffffffffffffffffffffffffffffff1673ffffffffffffffffffffffffffffffffffffffff16815260200190815260200160002060000160009054906101000a900473ffffffffffffffffffffffffffffffffffffffff1673ffffffffffffffffffffffffffffffffffffffff1614610535576040517f08c379a000000000000000000000000000000000000000000000000000000000815260040161052c90610960565b60405180910390fd5b6000808373ffffffffffffffffffffffffffffffffffffffff1673ffffffffffffffffffffffffffffffffffffffff16815260200190815260200160002060010160008273ffffffffffffffffffffffffffffffffffffffff1673ffffffffffffffffffffffffffffffffffffffff16815260200190815260200160002060009054906101000a900460ff1615610601576040517f08c379a00000000000000000000000000000000000000000000000000000000081526004016105f8906109f2565b60405180910390fd5b60016000808473ffffffffffffffffffffffffffffffffffffffff1673ffffffffffffffffffffffffffffffffffffffff16815260200190815260200160002060010160008373ffffffffffffffffffffffffffffffffffffffff1673ffffffffffffffffffffffffffffffffffffffff16815260200190815260200160002060006101000a81548160ff0219169083151502179055507f3d8a67432904f5c76d317bd3d7568237471009d9a286cd487736d0e2d103e6ad81836040516106c9929190610a12565b60405180910390a15050565b600080fd5b600073ffffffffffffffffffffffffffffffffffffffff82169050919050565b6000610705826106da565b9050919050565b610715816106fa565b811461072057600080fd5b50565b6000813590506107328161070c565b92915050565b60006020828403121561074e5761074d6106d5565b5b600061075c84828501610723565b91505092915050565b60008115159050919050565b61077a81610765565b82525050565b60006020820190506107956000830184610771565b92915050565b600080604083850312156107b2576107b16106d5565b5b60006107c085828601610723565b92505060206107d185828601610723565b9150509250929050565b600082825260208201905092915050565b7f4f7267616e69736174696f6e20616c7265616479207265676973746572656400600082015250565b6000610822601f836107db565b915061082d826107ec565b602082019050919050565b6000602082019050818103600083015261085181610815565b9050919050565b610861816106fa565b82525050565b600060208201905061087c6000830184610858565b92915050565b7f6f7267616e69736174696f6e206e6f7420726567697374657265640000000000600082015250565b60006108b8601b836107db565b91506108c382610882565b602082019050919050565b600060208201905081810360008301526108e7816108ab565b9050919050565b7f596f7520617265206e6f7420746865206f776e6572206f6620746865206f726760008201527f616e697a6174696f6e0000000000000000000000000000000000000000000000602082015250565b600061094a6029836107db565b9150610955826108ee565b604082019050919050565b600060208201905081810360008301526109798161093d565b9050919050565b7f4164647265737320616c72656164792077686974656c697374656420666f722060008201527f74686973206f7267616e697a6174696f6e000000000000000000000000000000602082015250565b60006109dc6031836107db565b91506109e782610980565b604082019050919050565b60006020820190508181036000830152610a0b816109cf565b9050919050565b6000604082019050610a276000830185610858565b610a346020830184610858565b939250505056fea2646970667358221220b2953852b16ab6f048622ded6dc686a0df4cb6e012caaf6edc02e7bf62e87f4264736f6c634300080b0033",
  "immutableReferences": {},
  "source": "// SPDX-License-Identifier: GPL-3.0\npragma solidity  0.8.11;\n\ncontract Main {\n    struct Participant {\n        address ethAddress;\n        address organisation;\n        bool isRegistered;\n    }\n\n    struct Orga {\n        address ethAddress;\n        bool isRegistered;\n        mapping (address => bool) participantIsWhitelisted;\n        mapping (address => Participant) participant;\n    }\n\n    event orgaRegistered(address addressOrga);\n    event AddressWhitelisted(address addressParticipant, address addressOrganization); \n    event removedFromWhitelist(address addressParticipant);\n\n    mapping (address => Orga) private organisations;\n    mapping (uint => string) private thematics;\n\n    function registerOrganisation() external {\n        require(organisations[msg.sender].isRegistered == false, 'Organisation already registered');\n        organisations[msg.sender].ethAddress = msg.sender;\n        organisations[msg.sender].isRegistered = true;\n        emit orgaRegistered(msg.sender);\n    }\n\n    function participantIsWhiteListed(address _addrOrganisation) external view returns(bool) {\n        require(organisations[_addrOrganisation].isRegistered == true, 'organisation not registered');\n        return organisations[_addrOrganisation].participantIsWhitelisted[msg.sender];\n    }\n\n    function removeFromWhitelist(address _addrOrga) external {\n        organisations[_addrOrga].participantIsWhitelisted[msg.sender] = false;\n        emit removedFromWhitelist(msg.sender);\n    }\n\n    function addParticipant(address _addrOrga, address _addrParticipant ) external {\n        require(organisations[_addrOrga].ethAddress == msg.sender, 'You are not the owner of the organization');\n        require(!organisations[_addrOrga].participantIsWhitelisted[_addrParticipant], 'Address already whitelisted for this organization');\n        organisations[_addrOrga].participantIsWhitelisted[_addrParticipant] = true;\n        emit AddressWhitelisted(_addrParticipant, _addrOrga);\n    }\n\n\n}   ",
  "sourcePath": "/Users/urdoom/blockchain_development/Alyra/YU-GO/Truffle/contracts/Main.sol",
  "compiler": {
    "name": "solc",
    "version": "0.8.11+commit.d7f03943.Emscripten.clang"
  },
  "schemaVersion": "3.4.3",
  "updatedAt": "2021-12-29T18:13:35.555Z",
  "networkType": "ethereum",
  "devdoc": {
    "kind": "dev",
    "methods": {},
    "version": 1
  },
  "userdoc": {
    "kind": "user",
    "methods": {},
    "version": 1
  }
}