{
  "contractName": "Main",
  "abi": [
    {
      "anonymous": false,
      "inputs": [
        {
          "indexed": false,
          "internalType": "address",
          "name": "addressParticipant",
          "type": "address"
        },
        {
          "indexed": false,
          "internalType": "address",
          "name": "addressOrganization",
          "type": "address"
        }
      ],
      "name": "AddressWhitelisted",
      "type": "event"
    },
    {
      "anonymous": false,
      "inputs": [
        {
          "indexed": false,
          "internalType": "address",
          "name": "addressParticipant",
          "type": "address"
        }
      ],
      "name": "removedFromWhitelist",
      "type": "event"
    },
    {
      "constant": true,
      "inputs": [],
      "name": "testConnection",
      "outputs": [
        {
          "internalType": "string",
          "name": "",
          "type": "string"
        }
      ],
      "payable": false,
      "stateMutability": "view",
      "type": "function"
    },
    {
      "constant": true,
      "inputs": [
        {
          "internalType": "address",
          "name": "_addrOrganisation",
          "type": "address"
        }
      ],
      "name": "participantIsWhiteListed",
      "outputs": [
        {
          "internalType": "bool",
          "name": "",
          "type": "bool"
        }
      ],
      "payable": false,
      "stateMutability": "view",
      "type": "function"
    },
    {
      "constant": false,
      "inputs": [
        {
          "internalType": "address",
          "name": "_addrOrga",
          "type": "address"
        }
      ],
      "name": "removeFromWhitelist",
      "outputs": [],
      "payable": false,
      "stateMutability": "nonpayable",
      "type": "function"
    },
    {
      "constant": false,
      "inputs": [
        {
          "internalType": "address",
          "name": "_addrOrga",
          "type": "address"
        },
        {
          "internalType": "address",
          "name": "_addrParticipant",
          "type": "address"
        }
      ],
      "name": "addParticipant",
      "outputs": [],
      "payable": false,
      "stateMutability": "nonpayable",
      "type": "function"
    }
  ],
  "bytecode": "0x60806040526040518060400160405280600b81526020017f696e204d61696e2e736f6c0000000000000000000000000000000000000000008152506002908051906020019061004f929190610062565b5034801561005c57600080fd5b50610107565b828054600181600116156101000203166002900490600052602060002090601f016020900481019282601f106100a357805160ff19168380011785556100d1565b828001600101855582156100d1579182015b828111156100d05782518255916020019190600101906100b5565b5b5090506100de91906100e2565b5090565b61010491905b808211156101005760008160009055506001016100e8565b5090565b90565b6104dc806101166000396000f3fe608060405234801561001057600080fd5b506004361061004c5760003560e01c80633412a15c146100515780637dd7e458146100d45780638ab1d68114610130578063d35ada3214610174575b600080fd5b6100596101d8565b6040518080602001828103825283818151815260200191508051906020019080838360005b8381101561009957808201518184015260208101905061007e565b50505050905090810190601f1680156100c65780820380516001836020036101000a031916815260200191505b509250505060405180910390f35b610116600480360360208110156100ea57600080fd5b81019080803573ffffffffffffffffffffffffffffffffffffffff16906020019092919050505061027a565b604051808215151515815260200191505060405180910390f35b6101726004803603602081101561014657600080fd5b81019080803573ffffffffffffffffffffffffffffffffffffffff16906020019092919050505061030f565b005b6101d66004803603604081101561018a57600080fd5b81019080803573ffffffffffffffffffffffffffffffffffffffff169060200190929190803573ffffffffffffffffffffffffffffffffffffffff16906020019092919050505061040c565b005b606060028054600181600116156101000203166002900480601f0160208091040260200160405190810160405280929190818152602001828054600181600116156101000203166002900480156102705780601f1061024557610100808354040283529160200191610270565b820191906000526020600020905b81548152906001019060200180831161025357829003601f168201915b5050505050905090565b60008060008373ffffffffffffffffffffffffffffffffffffffff1673ffffffffffffffffffffffffffffffffffffffff16815260200190815260200160002060010160003373ffffffffffffffffffffffffffffffffffffffff1673ffffffffffffffffffffffffffffffffffffffff16815260200190815260200160002060009054906101000a900460ff169050919050565b60008060008373ffffffffffffffffffffffffffffffffffffffff1673ffffffffffffffffffffffffffffffffffffffff16815260200190815260200160002060010160003373ffffffffffffffffffffffffffffffffffffffff1673ffffffffffffffffffffffffffffffffffffffff16815260200190815260200160002060006101000a81548160ff0219169083151502179055507f91f0f31d153d0ee40e19d76dfb5a14250a2c659bbb3d88ee570ee0e76c7b8a4633604051808273ffffffffffffffffffffffffffffffffffffffff1673ffffffffffffffffffffffffffffffffffffffff16815260200191505060405180910390a150565b7f3d8a67432904f5c76d317bd3d7568237471009d9a286cd487736d0e2d103e6ad8183604051808373ffffffffffffffffffffffffffffffffffffffff1673ffffffffffffffffffffffffffffffffffffffff1681526020018273ffffffffffffffffffffffffffffffffffffffff1673ffffffffffffffffffffffffffffffffffffffff1681526020019250505060405180910390a1505056fea265627a7a72315820dc0ecc0dd893771aef97ffc03272bee89da2aa24a69ea5b32de8b4c478abb06764736f6c63430005100032",
  "source": "// SPDX-License-Identifier: GPL-3.0\npragma solidity >=0.4.25 <0.8.8;\n\ncontract Main {\n    struct Participant {\n        address ethAddress;\n        address organisation;\n        bool isRegistered;\n    }\n\n    struct Orga {\n        address ethAddress;\n        bool isRegistered;\n        mapping (address => bool)  participantIsOkay;\n        mapping (address => Participant) participant;\n    }\n\n\n    event AddressWhitelisted(address addressParticipant, address addressOrganization); \n    event removedFromWhitelist(address addressParticipant);\n\n    mapping (address => Orga) organisations;\n\n    mapping (uint => string)  thematics;\n\n    //::::::::::::::::::::::::::::::::::::::::::::::\n    string test = \"in Main.sol\";\n    function testConnection() public view returns(string memory) {\n        return test;\n    }\n     //::::::::::::::::::::::::::::::::::::::::::::::\n\n    function participantIsWhiteListed(address _addrOrganisation) external view returns(bool) {\n        // require(organisations[msg.sender].ethAddress, 'not an orga address')\n        return organisations[_addrOrganisation].participantIsOkay[msg.sender];\n    }\n\n    // function whitelistMember(address _addrOrganisation, address _addrParticipant, bool _value) external  {\n    //     // require(Organisations[msg.sender].isRegistered == true );\n    //     organisations[msg.sender].participantIsOkay[_addrParticipant] = true;\n\n    // }\n\n    function removeFromWhitelist(address _addrOrga) external {\n        organisations[_addrOrga].participantIsOkay[msg.sender] = false;\n        emit removedFromWhitelist(msg.sender);\n    }\n\n    function addParticipant(address _addrOrga, address _addrParticipant ) external {\n        //require(organisations[_addrOrga].ethAddress == msg.sender, 'You are not the owner of the organization');\n        //require( !organisations[_addrOrga].participantIsOkay[_addr], 'Address already whitelisted for this organization');\n        \n        emit AddressWhitelisted(_addrParticipant, _addrOrga);\n    }\n\n}   ",
  "sourcePath": "/Users/urdoom/blockchain_development/Alyra/YU-GO/Truffle/contracts/Main.sol",
  "compiler": {
    "name": "solc",
    "version": "0.5.16+commit.9c3226ce.Emscripten.clang"
  },
  "schemaVersion": "3.4.3",
  "updatedAt": "2021-12-23T01:15:51.300Z",
  "networkType": "ethereum",
  "devdoc": {
    "methods": {}
  },
  "userdoc": {
    "methods": {}
  }
}