{
  "contractName": "Main",
  "abi": [
    {
      "anonymous": false,
      "inputs": [
        {
          "indexed": false,
          "internalType": "address",
          "name": "addressParticipant",
          "type": "address"
        },
        {
          "indexed": false,
          "internalType": "address",
          "name": "addressOrganization",
          "type": "address"
        }
      ],
      "name": "AdressWhitelisted",
      "type": "event"
    },
    {
      "constant": true,
      "inputs": [],
      "name": "testConnection",
      "outputs": [
        {
          "internalType": "string",
          "name": "",
          "type": "string"
        }
      ],
      "payable": false,
      "stateMutability": "view",
      "type": "function"
    },
    {
      "constant": true,
      "inputs": [
        {
          "internalType": "address",
          "name": "_addrParticipant",
          "type": "address"
        }
      ],
      "name": "participantIsWhiteListed",
      "outputs": [
        {
          "internalType": "bool",
          "name": "",
          "type": "bool"
        }
      ],
      "payable": false,
      "stateMutability": "view",
      "type": "function"
    },
    {
      "constant": false,
      "inputs": [
        {
          "internalType": "address",
          "name": "_addrParticipant",
          "type": "address"
        }
      ],
      "name": "whitelistMember",
      "outputs": [],
      "payable": false,
      "stateMutability": "nonpayable",
      "type": "function"
    },
    {
      "constant": false,
      "inputs": [
        {
          "internalType": "address",
          "name": "_addrOrga",
          "type": "address"
        },
        {
          "internalType": "address",
          "name": "_addr",
          "type": "address"
        }
      ],
      "name": "addParticipant",
      "outputs": [],
      "payable": false,
      "stateMutability": "nonpayable",
      "type": "function"
    }
  ],
  "bytecode": "0x60806040526040518060400160405280600b81526020017f696e204d61696e2e736f6c0000000000000000000000000000000000000000008152506002908051906020019061004f929190610062565b5034801561005c57600080fd5b50610107565b828054600181600116156101000203166002900490600052602060002090601f016020900481019282601f106100a357805160ff19168380011785556100d1565b828001600101855582156100d1579182015b828111156100d05782518255916020019190600101906100b5565b5b5090506100de91906100e2565b5090565b61010491905b808211156101005760008160009055506001016100e8565b5090565b90565b610510806101166000396000f3fe608060405234801561001057600080fd5b506004361061004c5760003560e01c80633412a15c146100515780633450e683146100d45780637dd7e45814610118578063d35ada3214610174575b600080fd5b6100596101d8565b6040518080602001828103825283818151815260200191508051906020019080838360005b8381101561009957808201518184015260208101905061007e565b50505050905090810190601f1680156100c65780820380516001836020036101000a031916815260200191505b509250505060405180910390f35b610116600480360360208110156100ea57600080fd5b81019080803573ffffffffffffffffffffffffffffffffffffffff16906020019092919050505061027a565b005b61015a6004803603602081101561012e57600080fd5b81019080803573ffffffffffffffffffffffffffffffffffffffff169060200190929190505050610314565b604051808215151515815260200191505060405180910390f35b6101d66004803603604081101561018a57600080fd5b81019080803573ffffffffffffffffffffffffffffffffffffffff169060200190929190803573ffffffffffffffffffffffffffffffffffffffff1690602001909291905050506103a9565b005b606060028054600181600116156101000203166002900480601f0160208091040260200160405190810160405280929190818152602001828054600181600116156101000203166002900480156102705780601f1061024557610100808354040283529160200191610270565b820191906000526020600020905b81548152906001019060200180831161025357829003601f168201915b5050505050905090565b60016000803373ffffffffffffffffffffffffffffffffffffffff1673ffffffffffffffffffffffffffffffffffffffff16815260200190815260200160002060010160008373ffffffffffffffffffffffffffffffffffffffff1673ffffffffffffffffffffffffffffffffffffffff16815260200190815260200160002060006101000a81548160ff02191690831515021790555050565b60008060003373ffffffffffffffffffffffffffffffffffffffff1673ffffffffffffffffffffffffffffffffffffffff16815260200190815260200160002060010160008373ffffffffffffffffffffffffffffffffffffffff1673ffffffffffffffffffffffffffffffffffffffff16815260200190815260200160002060009054906101000a900460ff169050919050565b60016000808473ffffffffffffffffffffffffffffffffffffffff1673ffffffffffffffffffffffffffffffffffffffff16815260200190815260200160002060010160008373ffffffffffffffffffffffffffffffffffffffff1673ffffffffffffffffffffffffffffffffffffffff16815260200190815260200160002060006101000a81548160ff0219169083151502179055507f895f9a9dda4da1e2422a33aa39c8e4783155cccaba6f60f8732a16a3e06f76ef8183604051808373ffffffffffffffffffffffffffffffffffffffff1673ffffffffffffffffffffffffffffffffffffffff1681526020018273ffffffffffffffffffffffffffffffffffffffff1673ffffffffffffffffffffffffffffffffffffffff1681526020019250505060405180910390a1505056fea265627a7a7231582038f1f3163052c91258328cf7a7217dffc001ce258fddfbe832c2ffac57ed308164736f6c63430005100032",
  "source": "// SPDX-License-Identifier: GPL-3.0\r\npragma solidity >=0.4.25 <0.8.8;\r\n\r\ncontract Main {\r\n    struct Participant {\r\n        address ethAddress;\r\n        address organisation;\r\n        bool isRegistered;\r\n    }\r\n\r\n    struct Orga {\r\n        address ethAddress;\r\n        bool isRegistered;\r\n        mapping (address => bool)  participantIsOkay;\r\n        mapping (address => Participant) participant;\r\n    }\r\n\r\n\r\n    event AdressWhitelisted(address addressParticipant, address addressOrganization); \r\n\r\n    mapping (address => Orga) organisations;\r\n\r\n    mapping (uint => string)  thematics;\r\n\r\n    //::::::::::::::::::::::::::::::::::::::::::::::\r\n    string test = \"in Main.sol\";\r\n    function testConnection() public view returns(string memory) {\r\n        return test;\r\n    }\r\n     //::::::::::::::::::::::::::::::::::::::::::::::\r\n\r\n    function participantIsWhiteListed(address _addrParticipant) external view returns(bool) {\r\n        return organisations[msg.sender].participantIsOkay[_addrParticipant];\r\n    }\r\n\r\n    function whitelistMember(address _addrParticipant) external  {\r\n        // require(Organisations[msg.sender].isRegistered == true );\r\n        organisations[msg.sender].participantIsOkay[_addrParticipant] = true;\r\n\r\n    }\r\n\r\n    function addParticipant(address _addrOrga,address _addr ) external {\r\n        //require(organisations[_addrOrga].ethAddress == msg.sender, 'You are not the owner of the organization');\r\n        //require( !organisations[_addrOrga].participantIsOkay[_addr], 'Address already whitelisted for this organization');\r\n        organisations[_addrOrga].participantIsOkay[_addr] = true;\r\n        emit AdressWhitelisted(_addr, _addrOrga);\r\n    }\r\n\r\n}   ",
  "sourcePath": "F:\\workspace\\alyra\\yugo\\YU-GO\\Truffle\\contracts\\Main.sol",
  "compiler": {
    "name": "solc",
    "version": "0.5.16+commit.9c3226ce.Emscripten.clang"
  },
  "schemaVersion": "3.4.3",
  "updatedAt": "2021-12-22T18:52:39.929Z",
  "networkType": "ethereum",
  "devdoc": {
    "methods": {}
  },
  "userdoc": {
    "methods": {}
  }
}