{
  "contractName": "Main",
  "abi": [
    {
      "constant": true,
      "inputs": [],
      "name": "testConnection",
      "outputs": [
        {
          "internalType": "string",
          "name": "",
          "type": "string"
        }
      ],
      "payable": false,
      "stateMutability": "view",
      "type": "function"
    },
    {
      "constant": true,
      "inputs": [
        {
          "internalType": "address",
          "name": "_addrOrganisation",
          "type": "address"
        },
        {
          "internalType": "address",
          "name": "_addrParticipant",
          "type": "address"
        }
      ],
      "name": "participantIsWhiteListed",
      "outputs": [
        {
          "internalType": "bool",
          "name": "",
          "type": "bool"
        }
      ],
      "payable": false,
      "stateMutability": "view",
      "type": "function"
    },
    {
      "constant": false,
      "inputs": [
        {
          "internalType": "address",
          "name": "_addrOrganisation",
          "type": "address"
        },
        {
          "internalType": "address",
          "name": "_addrParticipant",
          "type": "address"
        },
        {
          "internalType": "bool",
          "name": "_value",
          "type": "bool"
        }
      ],
      "name": "whitelistMember",
      "outputs": [],
      "payable": false,
      "stateMutability": "nonpayable",
      "type": "function"
    }
  ],
  "bytecode": "0x60806040526040518060400160405280600b81526020017f696e204d61696e2e736f6c0000000000000000000000000000000000000000008152506002908051906020019061004f929190610062565b5034801561005c57600080fd5b50610107565b828054600181600116156101000203166002900490600052602060002090601f016020900481019282601f106100a357805160ff19168380011785556100d1565b828001600101855582156100d1579182015b828111156100d05782518255916020019190600101906100b5565b5b5090506100de91906100e2565b5090565b61010491905b808211156101005760008160009055506001016100e8565b5090565b90565b6103bd806101166000396000f3fe608060405234801561001057600080fd5b50600436106100415760003560e01c806322d90f02146100465780633412a15c146100b6578063eb0934df14610139575b600080fd5b6100b46004803603606081101561005c57600080fd5b81019080803573ffffffffffffffffffffffffffffffffffffffff169060200190929190803573ffffffffffffffffffffffffffffffffffffffff1690602001909291908035151590602001909291905050506101b5565b005b6100be610250565b6040518080602001828103825283818151815260200191508051906020019080838360005b838110156100fe5780820151818401526020810190506100e3565b50505050905090810190601f16801561012b5780820380516001836020036101000a031916815260200191505b509250505060405180910390f35b61019b6004803603604081101561014f57600080fd5b81019080803573ffffffffffffffffffffffffffffffffffffffff169060200190929190803573ffffffffffffffffffffffffffffffffffffffff1690602001909291905050506102f2565b604051808215151515815260200191505060405180910390f35b806000808573ffffffffffffffffffffffffffffffffffffffff1673ffffffffffffffffffffffffffffffffffffffff16815260200190815260200160002060010160008473ffffffffffffffffffffffffffffffffffffffff1673ffffffffffffffffffffffffffffffffffffffff16815260200190815260200160002060006101000a81548160ff021916908315150217905550505050565b606060028054600181600116156101000203166002900480601f0160208091040260200160405190810160405280929190818152602001828054600181600116156101000203166002900480156102e85780601f106102bd576101008083540402835291602001916102e8565b820191906000526020600020905b8154815290600101906020018083116102cb57829003601f168201915b5050505050905090565b60008060008473ffffffffffffffffffffffffffffffffffffffff1673ffffffffffffffffffffffffffffffffffffffff16815260200190815260200160002060010160008373ffffffffffffffffffffffffffffffffffffffff1673ffffffffffffffffffffffffffffffffffffffff16815260200190815260200160002060009054906101000a900460ff1690509291505056fea265627a7a7231582037a57fdedc98027322951bf253498dd9716b86f4df93f15e1287f01e603a469364736f6c63430005100032",
  "source": "// SPDX-License-Identifier: GPL-3.0\npragma solidity >=0.4.25 <0.8.8;\n\ncontract Main {\n    struct Participant {\n        address ethAddress;\n        address organisation;\n        bool isRegistered;\n    }\n\n    struct Orga {\n        address ethAddress;\n        bool isRegistered;\n        mapping (address => bool)  participantIsOkay;\n        mapping (address => Participant) participant;\n    }\n\n    mapping (address => Orga) Organisations;\n\n    mapping (uint => string) Thematics;\n\n    //::::::::::::::::::::::::::::::::::::::::::::::\n    string test = \"in Main.sol\";\n    function testConnection() public view returns(string memory) {\n        return test;\n    }\n     //::::::::::::::::::::::::::::::::::::::::::::::\n\n    function participantIsWhiteListed(address _addrOrganisation, address _addrParticipant) external view returns(bool) {\n        return Organisations[_addrOrganisation].participantIsOkay[_addrParticipant];\n    }\n\n    function whitelistMember(address _addrOrganisation, address _addrParticipant, bool _value) external  {\n        // require(Organisations[msg.sender].isRegistered == true );\n        // Organisations[msg.sender].participantIsOkay[_addrParticipant] = _value;\n        Organisations[_addrOrganisation].participantIsOkay[_addrParticipant] = _value;\n\n    }\n\n}   ",
  "sourcePath": "/Users/urdoom/blockchain_development/Alyra/YU-GO/Truffle/contracts/Main.sol",
  "compiler": {
    "name": "solc",
    "version": "0.5.16+commit.9c3226ce.Emscripten.clang"
  },
  "schemaVersion": "3.4.3",
  "updatedAt": "2021-12-22T17:29:48.193Z",
  "networkType": "ethereum",
  "devdoc": {
    "methods": {}
  },
  "userdoc": {
    "methods": {}
  }
}