{
  "contractName": "Main",
  "abi": [
    {
      "anonymous": false,
      "inputs": [
        {
          "indexed": false,
          "internalType": "address",
          "name": "addressParticipant",
          "type": "address"
        },
        {
          "indexed": false,
          "internalType": "address",
          "name": "addressOrganization",
          "type": "address"
        }
      ],
      "name": "AddressWhitelisted",
      "type": "event"
    },
    {
      "constant": true,
      "inputs": [],
      "name": "testConnection",
      "outputs": [
        {
          "internalType": "string",
          "name": "",
          "type": "string"
        }
      ],
      "payable": false,
      "stateMutability": "view",
      "type": "function"
    },
    {
      "constant": true,
      "inputs": [
        {
          "internalType": "address",
          "name": "_addrParticipant",
          "type": "address"
        }
      ],
      "name": "participantIsWhiteListed",
      "outputs": [
        {
          "internalType": "bool",
          "name": "",
          "type": "bool"
        }
      ],
      "payable": false,
      "stateMutability": "view",
      "type": "function"
    },
    {
      "constant": false,
      "inputs": [
        {
          "internalType": "address",
          "name": "_addrOrga",
          "type": "address"
        },
        {
          "internalType": "address",
          "name": "_addr",
          "type": "address"
        }
      ],
      "name": "addParticipant",
      "outputs": [],
      "payable": false,
      "stateMutability": "nonpayable",
      "type": "function"
    }
  ],
  "bytecode": "0x60806040526040518060400160405280600b81526020017f696e204d61696e2e736f6c0000000000000000000000000000000000000000008152506002908051906020019061004f929190610062565b5034801561005c57600080fd5b50610107565b828054600181600116156101000203166002900490600052602060002090601f016020900481019282601f106100a357805160ff19168380011785556100d1565b828001600101855582156100d1579182015b828111156100d05782518255916020019190600101906100b5565b5b5090506100de91906100e2565b5090565b61010491905b808211156101005760008160009055506001016100e8565b5090565b90565b610427806101166000396000f3fe608060405234801561001057600080fd5b50600436106100415760003560e01c80633412a15c146100465780637dd7e458146100c9578063d35ada3214610125575b600080fd5b61004e610189565b6040518080602001828103825283818151815260200191508051906020019080838360005b8381101561008e578082015181840152602081019050610073565b50505050905090810190601f1680156100bb5780820380516001836020036101000a031916815260200191505b509250505060405180910390f35b61010b600480360360208110156100df57600080fd5b81019080803573ffffffffffffffffffffffffffffffffffffffff16906020019092919050505061022b565b604051808215151515815260200191505060405180910390f35b6101876004803603604081101561013b57600080fd5b81019080803573ffffffffffffffffffffffffffffffffffffffff169060200190929190803573ffffffffffffffffffffffffffffffffffffffff1690602001909291905050506102c0565b005b606060028054600181600116156101000203166002900480601f0160208091040260200160405190810160405280929190818152602001828054600181600116156101000203166002900480156102215780601f106101f657610100808354040283529160200191610221565b820191906000526020600020905b81548152906001019060200180831161020457829003601f168201915b5050505050905090565b60008060003373ffffffffffffffffffffffffffffffffffffffff1673ffffffffffffffffffffffffffffffffffffffff16815260200190815260200160002060010160008373ffffffffffffffffffffffffffffffffffffffff1673ffffffffffffffffffffffffffffffffffffffff16815260200190815260200160002060009054906101000a900460ff169050919050565b60016000808473ffffffffffffffffffffffffffffffffffffffff1673ffffffffffffffffffffffffffffffffffffffff16815260200190815260200160002060010160008373ffffffffffffffffffffffffffffffffffffffff1673ffffffffffffffffffffffffffffffffffffffff16815260200190815260200160002060006101000a81548160ff0219169083151502179055507f3d8a67432904f5c76d317bd3d7568237471009d9a286cd487736d0e2d103e6ad8183604051808373ffffffffffffffffffffffffffffffffffffffff1673ffffffffffffffffffffffffffffffffffffffff1681526020018273ffffffffffffffffffffffffffffffffffffffff1673ffffffffffffffffffffffffffffffffffffffff1681526020019250505060405180910390a1505056fea265627a7a72315820264e5641fd469aee35d8068242b213e7fb73abdbb3c42d27a10b66c52efcf62f64736f6c63430005100032",
  "source": "// SPDX-License-Identifier: GPL-3.0\npragma solidity >=0.4.25 <0.8.8;\n\ncontract Main {\n    struct Participant {\n        address ethAddress;\n        address organisation;\n        bool isRegistered;\n    }\n\n    struct Orga {\n        address ethAddress;\n        bool isRegistered;\n        mapping (address => bool)  participantIsOkay;\n        mapping (address => Participant) participant;\n    }\n\n\n    event AddressWhitelisted(address addressParticipant, address addressOrganization); \n\n    mapping (address => Orga) organisations;\n\n    mapping (uint => string)  thematics;\n\n    //::::::::::::::::::::::::::::::::::::::::::::::\n    string test = \"in Main.sol\";\n    function testConnection() public view returns(string memory) {\n        return test;\n    }\n     //::::::::::::::::::::::::::::::::::::::::::::::\n\n    function participantIsWhiteListed(address _addrParticipant) external view returns(bool) {\n        // require(organisations[msg.sender].ethAddress, 'not an orga address');\n        return organisations[msg.sender].participantIsOkay[_addrParticipant];\n    }\n\n    // function whitelistMember(address _addrOrganisation, address _addrParticipant, bool _value) external  {\n    //     // require(Organisations[msg.sender].isRegistered == true );\n    //     organisations[msg.sender].participantIsOkay[_addrParticipant] = true;\n\n    // }\n\n    function addParticipant(address _addrOrga, address _addr ) external {\n        //require(organisations[_addrOrga].ethAddress == msg.sender, 'You are not the owner of the organization');\n        //require( !organisations[_addrOrga].participantIsOkay[_addr], 'Address already whitelisted for this organization');\n        organisations[_addrOrga].participantIsOkay[_addr] = true;\n        emit AddressWhitelisted(_addr, _addrOrga);\n    }\n\n}   ",
  "sourcePath": "/home/kojche/Documents/projects/alyra/project-certif-alyra/yu-go-dao/Truffle/contracts/Main.sol",
  "compiler": {
    "name": "solc",
    "version": "0.5.16+commit.9c3226ce.Emscripten.clang"
  },
  "schemaVersion": "3.4.3",
  "updatedAt": "2021-12-23T00:22:46.232Z",
  "networkType": "ethereum",
  "devdoc": {
    "methods": {}
  },
  "userdoc": {
    "methods": {}
  }
}