{
    "contractName": "Main",
    "abi": [
        {
            "constant": true,
            "inputs": [],
            "name": "testConnection",
            "outputs": [
                {
                    "internalType": "string",
                    "name": "",
                    "type": "string"
                }
            ],
            "payable": false,
            "stateMutability": "view",
            "type": "function"
        },
        {
            "constant": true,
            "inputs": [
                {
                    "internalType": "address",
                    "name": "_addrParticipant",
                    "type": "address"
                }
            ],
            "name": "participantIsWhiteListed",
            "outputs": [
                {
                    "internalType": "bool",
                    "name": "",
                    "type": "bool"
                }
            ],
            "payable": false,
            "stateMutability": "view",
            "type": "function"
        },
        {
            "constant": false,
            "inputs": [
                {
                    "internalType": "address",
                    "name": "_addrParticipant",
                    "type": "address"
                }
            ],
            "name": "whitelistMember",
            "outputs": [],
            "payable": false,
            "stateMutability": "nonpayable",
            "type": "function"
        }
    ],
    "bytecode": "0x60806040526040518060400160405280600b81526020017f696e204d61696e2e736f6c0000000000000000000000000000000000000000008152506001908051906020019061004f929190610062565b5034801561005c57600080fd5b50610107565b828054600181600116156101000203166002900490600052602060002090601f016020900481019282601f106100a357805160ff19168380011785556100d1565b828001600101855582156100d1579182015b828111156100d05782518255916020019190600101906100b5565b5b5090506100de91906100e2565b5090565b61010491905b808211156101005760008160009055506001016100e8565b5090565b90565b61036f806101166000396000f3fe608060405234801561001057600080fd5b50600436106100415760003560e01c80633412a15c146100465780633450e683146100c95780637dd7e4581461010d575b600080fd5b61004e610169565b6040518080602001828103825283818151815260200191508051906020019080838360005b8381101561008e578082015181840152602081019050610073565b50505050905090810190601f1680156100bb5780820380516001836020036101000a031916815260200191505b509250505060405180910390f35b61010b600480360360208110156100df57600080fd5b81019080803573ffffffffffffffffffffffffffffffffffffffff16906020019092919050505061020b565b005b61014f6004803603602081101561012357600080fd5b81019080803573ffffffffffffffffffffffffffffffffffffffff1690602001909291905050506102a5565b604051808215151515815260200191505060405180910390f35b606060018054600181600116156101000203166002900480601f0160208091040260200160405190810160405280929190818152602001828054600181600116156101000203166002900480156102015780601f106101d657610100808354040283529160200191610201565b820191906000526020600020905b8154815290600101906020018083116101e457829003601f168201915b5050505050905090565b60016000803373ffffffffffffffffffffffffffffffffffffffff1673ffffffffffffffffffffffffffffffffffffffff16815260200190815260200160002060010160008373ffffffffffffffffffffffffffffffffffffffff1673ffffffffffffffffffffffffffffffffffffffff16815260200190815260200160002060006101000a81548160ff02191690831515021790555050565b60008060003373ffffffffffffffffffffffffffffffffffffffff1673ffffffffffffffffffffffffffffffffffffffff16815260200190815260200160002060010160008373ffffffffffffffffffffffffffffffffffffffff1673ffffffffffffffffffffffffffffffffffffffff16815260200190815260200160002060009054906101000a900460ff16905091905056fea265627a7a7231582034a9d805f2e133f9981f0fc7389ae27d1d29fa6c168296b34281b8637ffeaf9964736f6c63430005100032",
    "source": "// SPDX-License-Identifier: GPL-3.0\npragma solidity >=0.4.25 <0.8.8;\n\ncontract Main {\n    struct Participant {\n        address ethAddress;\n        address organisation;\n        bool isRegistered;\n        bool hasVoted;\n    }\n\n    struct Orga {\n        address ethAddress;\n        bool isRegistered;\n        mapping (address => bool)  participantIsOkay;\n        mapping (address => Participant) participant;\n    }\n\n    mapping (address => Orga) Organisations;\n\n    //::::::::::::::::::::::::::::::::::::::::::::::\n    string test = \"in Main.sol\";\n    function testConnection() public view returns(string memory) {\n        return test;\n    }\n     //::::::::::::::::::::::::::::::::::::::::::::::\n\n    function participantIsWhiteListed(address _addrParticipant) external view returns(bool) {\n        return Organisations[msg.sender].participantIsOkay[_addrParticipant];\n    }\n\n    function whitelistMember(address _addrParticipant) external  {\n        // require(Organisations[msg.sender].isRegistered == true );\n        Organisations[msg.sender].participantIsOkay[_addrParticipant] = true;\n\n    }\n\n}   ",
    "sourcePath": "/Users/urdoom/blockchain_development/Alyra/YU-GO/Truffle/contracts/Main.sol",
    "compiler": {
        "name": "solc",
        "version": "0.5.16+commit.9c3226ce.Emscripten.clang"
    },
    "schemaVersion": "3.4.3",
    "updatedAt": "2021-12-22T10:52:19.642Z",
    "networkType": "ethereum",
    "devdoc": {
        "methods": {}
    },
    "userdoc": {
        "methods": {}
    }
}