{
  "contractName": "VerifySignature",
  "abi": [
    {
      "anonymous": false,
      "inputs": [
        {
          "indexed": true,
          "internalType": "address",
          "name": "previousOwner",
          "type": "address"
        },
        {
          "indexed": true,
          "internalType": "address",
          "name": "newOwner",
          "type": "address"
        }
      ],
      "name": "OwnershipTransferred",
      "type": "event"
    },
    {
      "anonymous": false,
      "inputs": [
        {
          "indexed": false,
          "internalType": "address",
          "name": "caller",
          "type": "address"
        },
        {
          "indexed": false,
          "internalType": "address",
          "name": "signer",
          "type": "address"
        },
        {
          "indexed": false,
          "internalType": "bool",
          "name": "verified",
          "type": "bool"
        },
        {
          "indexed": false,
          "internalType": "bytes",
          "name": "signature",
          "type": "bytes"
        }
      ],
      "name": "SignerVerified",
      "type": "event"
    },
    {
      "anonymous": false,
      "inputs": [
        {
          "indexed": false,
          "internalType": "address",
          "name": "yugodao",
          "type": "address"
        },
        {
          "indexed": false,
          "internalType": "address",
          "name": "grantEscrow",
          "type": "address"
        }
      ],
      "name": "YugoDaoAddrSet",
      "type": "event"
    },
    {
      "inputs": [],
      "name": "owner",
      "outputs": [
        {
          "internalType": "address",
          "name": "",
          "type": "address"
        }
      ],
      "stateMutability": "view",
      "type": "function",
      "constant": true
    },
    {
      "inputs": [],
      "name": "renounceOwnership",
      "outputs": [],
      "stateMutability": "nonpayable",
      "type": "function"
    },
    {
      "inputs": [
        {
          "internalType": "address",
          "name": "newOwner",
          "type": "address"
        }
      ],
      "name": "transferOwnership",
      "outputs": [],
      "stateMutability": "nonpayable",
      "type": "function"
    },
    {
      "inputs": [
        {
          "internalType": "address",
          "name": "_dao",
          "type": "address"
        },
        {
          "internalType": "address",
          "name": "_escrow",
          "type": "address"
        }
      ],
      "name": "setYugoDaoAddress",
      "outputs": [],
      "stateMutability": "nonpayable",
      "type": "function"
    },
    {
      "inputs": [
        {
          "internalType": "address",
          "name": "_to",
          "type": "address"
        },
        {
          "internalType": "uint256",
          "name": "_amount",
          "type": "uint256"
        },
        {
          "internalType": "address",
          "name": "_contractAddress",
          "type": "address"
        },
        {
          "internalType": "string",
          "name": "_agreement",
          "type": "string"
        },
        {
          "internalType": "uint256",
          "name": "_nonce",
          "type": "uint256"
        }
      ],
      "name": "getMessageHash",
      "outputs": [
        {
          "internalType": "bytes32",
          "name": "",
          "type": "bytes32"
        }
      ],
      "stateMutability": "nonpayable",
      "type": "function"
    },
    {
      "inputs": [
        {
          "internalType": "address",
          "name": "_to",
          "type": "address"
        },
        {
          "internalType": "uint256",
          "name": "_amount",
          "type": "uint256"
        },
        {
          "internalType": "address",
          "name": "_contractAddress",
          "type": "address"
        },
        {
          "internalType": "string",
          "name": "_agreement",
          "type": "string"
        },
        {
          "internalType": "uint256",
          "name": "_nonce",
          "type": "uint256"
        },
        {
          "internalType": "bytes",
          "name": "signature",
          "type": "bytes"
        }
      ],
      "name": "verify",
      "outputs": [],
      "stateMutability": "nonpayable",
      "type": "function"
    }
  ],
  "bytecode": "0x608060405234801561001057600080fd5b5061001a3361001f565b61006f565b600080546001600160a01b038381166001600160a01b0319831681178455604051919092169283917f8be0079c531659141344cd1fd0a4f28419497f9722a3daafe3b4186f6b6457e09190a35050565b610ad38061007e6000396000f3fe608060405234801561001057600080fd5b50600436106100625760003560e01c806367fbaea314610067578063715018a61461007c57806383cd81cb146100845780638da5cb5b146100aa578063be2c4118146100c5578063f2fde38b146100d8575b600080fd5b61007a610075366004610715565b6100eb565b005b61007a6101fe565b6100976100923660046107fb565b610234565b6040519081526020015b60405180910390f35b6000546040516001600160a01b0390911681526020016100a1565b61007a6100d336600461086b565b6102ee565b61007a6100e6366004610916565b610482565b6000546001600160a01b0316331461011e5760405162461bcd60e51b815260040161011590610931565b60405180910390fd5b600254600160a01b900460ff16156101825760405162461bcd60e51b815260206004820152602160248201527f7975676f20616464726573732068617320616c7265616479206265656e2073656044820152601d60fa1b6064820152608401610115565b60028054600180546001600160a01b038681166001600160a01b031990921682179092559084166001600160a81b03199092168217600160a01b179092556040805192835260208301919091527fcc891a2ad6703698ad3ea3d9d53967917821ab63f85b0badc7c00ac8bb8e73ef910160405180910390a15050565b6000546001600160a01b031633146102285760405162461bcd60e51b815260040161011590610931565b610232600061051d565b565b3360009081526003602090815260408083206001600160a01b038916845282528220845161026492860190610660565b503360009081526003602090815260408083206001600160a01b038a1684528252808320600101859055516102a3918991899189918991899101610996565b60408051601f19818403018152918152815160209283012033600090815260038085528382206001600160a01b038d1683529094529190912090910181905591505095945050505050565b60006102fd8787878787610234565b90506000610358826040517f19457468657265756d205369676e6564204d6573736167653a0a3332000000006020820152603c8101829052600090605c01604051602081830303815290604052805190602001209050919050565b9050600080610367838661056d565b90506001600160a01b0381163314156103fd5760025460405163d6d74caf60e01b81523360048201526001600160a01b038c81166024830152600160448301529091169063d6d74caf906064016020604051808303816000875af11580156103d3573d6000803e3d6000fd5b505050506040513d601f19601f820116820180604052508101906103f791906109ea565b50600191505b816104395760405162461bcd60e51b815260206004820152600c60248201526b3bb937b7339039b4b3b732b960a11b6044820152606401610115565b7f8f73b9a26a76b5ee2d6c68a606dc8788f945bbcf3c4cf526e4b1512a6b20832d3382848860405161046e9493929190610a0c565b60405180910390a150505050505050505050565b6000546001600160a01b031633146104ac5760405162461bcd60e51b815260040161011590610931565b6001600160a01b0381166105115760405162461bcd60e51b815260206004820152602660248201527f4f776e61626c653a206e6577206f776e657220697320746865207a65726f206160448201526564647265737360d01b6064820152608401610115565b61051a8161051d565b50565b600080546001600160a01b038381166001600160a01b0319831681178455604051919092169283917f8be0079c531659141344cd1fd0a4f28419497f9722a3daafe3b4186f6b6457e09190a35050565b60008060008061057c856105ec565b6040805160008152602081018083528b905260ff8316918101919091526060810184905260808101839052929550909350915060019060a0016020604051602081039080840390855afa1580156105d7573d6000803e3d6000fd5b5050604051601f190151979650505050505050565b600080600083516041146106425760405162461bcd60e51b815260206004820152601860248201527f696e76616c6964207369676e6174757265206c656e67746800000000000000006044820152606401610115565b50505060208101516040820151606090920151909260009190911a90565b82805461066c90610a62565b90600052602060002090601f01602090048101928261068e57600085556106d4565b82601f106106a757805160ff19168380011785556106d4565b828001600101855582156106d4579182015b828111156106d45782518255916020019190600101906106b9565b506106e09291506106e4565b5090565b5b808211156106e057600081556001016106e5565b80356001600160a01b038116811461071057600080fd5b919050565b6000806040838503121561072857600080fd5b610731836106f9565b915061073f602084016106f9565b90509250929050565b634e487b7160e01b600052604160045260246000fd5b600067ffffffffffffffff8084111561077957610779610748565b604051601f8501601f19908116603f011681019082821181831017156107a1576107a1610748565b816040528093508581528686860111156107ba57600080fd5b858560208301376000602087830101525050509392505050565b600082601f8301126107e557600080fd5b6107f48383356020850161075e565b9392505050565b600080600080600060a0868803121561081357600080fd5b61081c866106f9565b945060208601359350610831604087016106f9565b9250606086013567ffffffffffffffff81111561084d57600080fd5b610859888289016107d4565b95989497509295608001359392505050565b60008060008060008060c0878903121561088457600080fd5b61088d876106f9565b9550602087013594506108a2604088016106f9565b9350606087013567ffffffffffffffff808211156108bf57600080fd5b6108cb8a838b016107d4565b94506080890135935060a08901359150808211156108e857600080fd5b508701601f810189136108fa57600080fd5b6109098982356020840161075e565b9150509295509295509295565b60006020828403121561092857600080fd5b6107f4826106f9565b6020808252818101527f4f776e61626c653a2063616c6c6572206973206e6f7420746865206f776e6572604082015260600190565b60005b83811015610981578181015183820152602001610969565b83811115610990576000848401525b50505050565b60006bffffffffffffffffffffffff19808860601b168352866014840152808660601b1660348401525083516109d3816048850160208801610966565b604892019182019290925260680195945050505050565b6000602082840312156109fc57600080fd5b815180151581146107f457600080fd5b600060018060a01b0380871683528086166020840152508315156040830152608060608301528251806080840152610a4b8160a0850160208701610966565b601f01601f19169190910160a00195945050505050565b600181811c90821680610a7657607f821691505b60208210811415610a9757634e487b7160e01b600052602260045260246000fd5b5091905056fea2646970667358221220ae17667834554679407811030b4b0d92c8c36fe8064b72d45112c7518b49812464736f6c634300080b0033",
  "immutableReferences": {},
  "source": "// SPDX-License-Identifier: MIT\npragma solidity 0.8.11;\n\nimport \"@openzeppelin/contracts/access/Ownable.sol\";\nimport {utils} from \"./libraries/utils.sol\";\nimport \"./interfaces/IYugoDao.sol\";\nimport \"./interfaces/IGrantEscrow.sol\";\n\n/**\n* @notice This smart contract handles the signature of an agreement, confirming that the winner can claim the price.\n*/\ncontract VerifySignature  is Ownable {\n    \n    struct Confidential {\n            string agreement;\n            uint nonce;\n            bool usedNonce;\n            bytes32 msgHash;\n            bytes32 signature;\n        }\n\n    IYugoDao private yugodao;\n    IGrantEscrow private escrow;\n\n    bool private yugoAddrSet;\n\n    event YugoDaoAddrSet(address yugodao, address grantEscrow);\n    event SignerVerified(address caller, address signer, bool verified, bytes signature);\n\n    mapping(address => mapping (address => Confidential)) private confidentials;\n    \n    \n    /**\n    * @notice Set the address of teh YugoDao contract <br />\n    * @dev Only the account deploying can call this function <br />\n    * @dev require boolean yugoAddrSet to be false <br />\n    * @dev yugoAddrSet is updated to true to avoid any further attempt to change the address\n    * @param _dao YugoDao contract address\n    */\n    function setYugoDaoAddress(address _dao, address _escrow) external onlyOwner {\n        require(!yugoAddrSet, \"yugo address has already been set\");\n        yugoAddrSet = true;\n        yugodao = IYugoDao(_dao);\n        escrow = IGrantEscrow(_escrow);\n        emit YugoDaoAddrSet(_dao, _escrow);\n    }\n\n    /**\n    * @notice Set the address of teh YugoDao contract <br />\n    * @dev Only the account deploying can call this function <br />\n    * @dev require boolean yugoAddrSet to be false <br />\n    * @dev yugoAddrSet is updated to true to avoid any further attempt to change the address <br />\n    * @param _to Address of the recipient \n    * @param _amount Funds required by the action \n    * @param _agreement Agreement unsigned \n    * @param _nonce The secret number used for the hash \n    * @return Hash as a Bytes32\n    */\n    function getMessageHash(\n        address _to,\n        uint _amount,\n        address _contractAddress,\n        string memory _agreement,\n        uint _nonce\n    ) public returns (bytes32) {\n        confidentials[msg.sender][_to].agreement = _agreement;\n        confidentials[msg.sender][_to].nonce = _nonce;\n        bytes32 _msgHash = keccak256(abi.encodePacked(_to, _amount, _contractAddress, _agreement, _nonce));\n        confidentials[msg.sender][_to].msgHash = _msgHash;\n        return _msgHash;\n    }\n\n    /**\n    * @notice Adds \"Ethereum Signed Message\" to the hash\n    * @param _messageHash The hash from getMEssageHash \n    * @return Hash as a Bytes32\n    */\n    function getEthSignedMessageHash(bytes32 _messageHash)\n        internal\n        pure\n        returns (bytes32)\n    {\n \n        return\n            keccak256(\n                abi.encodePacked(\"\\x19Ethereum Signed Message:\\n32\", _messageHash)\n            );\n    }\n\n    /**\n    * @notice Allows the Grant Orga to claim the funds in escrow\n    * @param _to Address of the recipient \n    * @param _amount Funds required by the action \n    * @param _agreement Agreement unsigned \n    * @param _nonce The secret number used for the hash \n    * @param signature The hash signed fy teh Grant Orga \n    */\n    function verify(\n        address _to,\n        uint _amount,\n        address _contractAddress,\n        string memory _agreement,\n        uint _nonce,\n        bytes memory signature\n    ) external {\n        bytes32 messageHash = getMessageHash(_to, _amount, _contractAddress, _agreement, _nonce);\n        bytes32 ethSignedMessageHash = getEthSignedMessageHash(messageHash);\n        bool verified;\n        address _signer = recoverSigner(ethSignedMessageHash, signature);\n        if ( _signer == msg.sender) {\n            escrow.setWithdrawStatus(msg.sender, _to, true);\n            verified = true;\n        }\n        require(verified, 'wrong signer');\n        emit SignerVerified(msg.sender, _signer, verified, signature);\n    }\n\n\n    /**\n    * @notice Recover the signer of a hash\n    * @param _ethSignedMessageHash The first part of the signature\n    * @param _signature The hash signed by the Grant Orga \n    * @return the signer\n    */\n    function recoverSigner(bytes32 _ethSignedMessageHash, bytes memory _signature)\n        internal\n        pure\n        returns (address)\n    {\n        (bytes32 r, bytes32 s, uint8 v) = splitSignature(_signature);\n\n        return ecrecover(_ethSignedMessageHash, v, r, s);\n    }\n\n    /**\n    * @notice Function to split the signature\n    * @param sig The hash signed by the Grant Orga \n    */\n    function splitSignature(bytes memory sig)\n        internal\n        pure\n        returns (\n            bytes32 r,\n            bytes32 s,\n            uint8 v\n        )\n    {\n        require(sig.length == 65, \"invalid signature length\");\n\n        assembly {\n            /*\n            First 32 bytes stores the length of the signature\n\n            add(sig, 32) = pointer of sig + 32\n            effectively, skips first 32 bytes of signature\n\n            mload(p) loads next 32 bytes starting at the memory address p into memory\n            */\n\n            // first 32 bytes, after the length prefix\n            r := mload(add(sig, 32))\n            // second 32 bytes\n            s := mload(add(sig, 64))\n            // final byte (first byte of the next 32 bytes)\n            v := byte(0, mload(add(sig, 96)))\n        }\n\n        // implicitly return (r, s, v)\n    }\n\n\n}\n",
  "sourcePath": "/Users/urdoom/blockchain_development/Alyra/YU-GO/Truffle/contracts/VerifySignature.sol",
  "compiler": {
    "name": "solc",
    "version": "0.8.11+commit.d7f03943.Emscripten.clang"
  },
  "schemaVersion": "3.4.3",
  "updatedAt": "2022-01-31T23:14:17.690Z",
  "networkType": "ethereum",
  "devdoc": {
    "kind": "dev",
    "methods": {
      "getMessageHash(address,uint256,address,string,uint256)": {
        "details": "Only the account deploying can call this function <br />require boolean yugoAddrSet to be false <br />yugoAddrSet is updated to true to avoid any further attempt to change the address <br />",
        "params": {
          "_agreement": "Agreement unsigned ",
          "_amount": "Funds required by the action ",
          "_nonce": "The secret number used for the hash ",
          "_to": "Address of the recipient "
        },
        "returns": {
          "_0": "Hash as a Bytes32"
        }
      },
      "owner()": {
        "details": "Returns the address of the current owner."
      },
      "renounceOwnership()": {
        "details": "Leaves the contract without owner. It will not be possible to call `onlyOwner` functions anymore. Can only be called by the current owner. NOTE: Renouncing ownership will leave the contract without an owner, thereby removing any functionality that is only available to the owner."
      },
      "setYugoDaoAddress(address,address)": {
        "details": "Only the account deploying can call this function <br />require boolean yugoAddrSet to be false <br />yugoAddrSet is updated to true to avoid any further attempt to change the address",
        "params": {
          "_dao": "YugoDao contract address"
        }
      },
      "transferOwnership(address)": {
        "details": "Transfers ownership of the contract to a new account (`newOwner`). Can only be called by the current owner."
      },
      "verify(address,uint256,address,string,uint256,bytes)": {
        "params": {
          "_agreement": "Agreement unsigned ",
          "_amount": "Funds required by the action ",
          "_nonce": "The secret number used for the hash ",
          "_to": "Address of the recipient ",
          "signature": "The hash signed fy teh Grant Orga "
        }
      }
    },
    "version": 1
  },
  "userdoc": {
    "kind": "user",
    "methods": {
      "getMessageHash(address,uint256,address,string,uint256)": {
        "notice": "Set the address of teh YugoDao contract <br />"
      },
      "setYugoDaoAddress(address,address)": {
        "notice": "Set the address of teh YugoDao contract <br />"
      },
      "verify(address,uint256,address,string,uint256,bytes)": {
        "notice": "Allows the Grant Orga to claim the funds in escrow"
      }
    },
    "notice": "This smart contract handles the signature of an agreement, confirming that the winner can claim the price.",
    "version": 1
  }
}