{
  "contractName": "YugoManager",
  "abi": [
    {
      "anonymous": false,
      "inputs": [
        {
          "indexed": false,
          "internalType": "address",
          "name": "yugo",
          "type": "address"
        },
        {
          "indexed": false,
          "internalType": "address",
          "name": "yugodao",
          "type": "address"
        }
      ],
      "name": "ContractsAddrSet",
      "type": "event"
    },
    {
      "anonymous": false,
      "inputs": [
        {
          "indexed": false,
          "internalType": "address",
          "name": "organisation",
          "type": "address"
        }
      ],
      "name": "FundsTransferedToWinner",
      "type": "event"
    },
    {
      "anonymous": false,
      "inputs": [
        {
          "indexed": true,
          "internalType": "address",
          "name": "previousOwner",
          "type": "address"
        },
        {
          "indexed": true,
          "internalType": "address",
          "name": "newOwner",
          "type": "address"
        }
      ],
      "name": "OwnershipTransferred",
      "type": "event"
    },
    {
      "anonymous": false,
      "inputs": [
        {
          "indexed": false,
          "internalType": "address",
          "name": "organisation",
          "type": "address"
        },
        {
          "indexed": false,
          "internalType": "uint256",
          "name": "value",
          "type": "uint256"
        }
      ],
      "name": "Received",
      "type": "event"
    },
    {
      "anonymous": false,
      "inputs": [
        {
          "indexed": false,
          "internalType": "address",
          "name": "organisation",
          "type": "address"
        }
      ],
      "name": "TokenPurchasedBy",
      "type": "event"
    },
    {
      "anonymous": false,
      "inputs": [
        {
          "indexed": false,
          "internalType": "address",
          "name": "recipient",
          "type": "address"
        },
        {
          "indexed": false,
          "internalType": "uint256",
          "name": "amount",
          "type": "uint256"
        }
      ],
      "name": "YugoTransfer",
      "type": "event"
    },
    {
      "inputs": [],
      "name": "owner",
      "outputs": [
        {
          "internalType": "address",
          "name": "",
          "type": "address"
        }
      ],
      "stateMutability": "view",
      "type": "function",
      "constant": true
    },
    {
      "inputs": [],
      "name": "renounceOwnership",
      "outputs": [],
      "stateMutability": "nonpayable",
      "type": "function"
    },
    {
      "inputs": [
        {
          "internalType": "address",
          "name": "newOwner",
          "type": "address"
        }
      ],
      "name": "transferOwnership",
      "outputs": [],
      "stateMutability": "nonpayable",
      "type": "function"
    },
    {
      "stateMutability": "payable",
      "type": "receive",
      "payable": true
    },
    {
      "inputs": [
        {
          "internalType": "address payable",
          "name": "_to",
          "type": "address"
        }
      ],
      "name": "sendEth",
      "outputs": [],
      "stateMutability": "payable",
      "type": "function",
      "payable": true
    },
    {
      "inputs": [
        {
          "internalType": "address",
          "name": "account",
          "type": "address"
        }
      ],
      "name": "yugoBalanceOf",
      "outputs": [
        {
          "internalType": "uint256",
          "name": "",
          "type": "uint256"
        }
      ],
      "stateMutability": "view",
      "type": "function",
      "constant": true
    },
    {
      "inputs": [
        {
          "internalType": "address",
          "name": "_yugo",
          "type": "address"
        },
        {
          "internalType": "address",
          "name": "_dao",
          "type": "address"
        }
      ],
      "name": "setContractsAddresses",
      "outputs": [],
      "stateMutability": "nonpayable",
      "type": "function"
    },
    {
      "inputs": [],
      "name": "transferYugo",
      "outputs": [],
      "stateMutability": "nonpayable",
      "type": "function"
    },
    {
      "inputs": [],
      "name": "transferWinningOrganisation",
      "outputs": [],
      "stateMutability": "nonpayable",
      "type": "function"
    }
  ],
  "bytecode": "0x608060405267016345785d8a000060035534801561001c57600080fd5b506100263361002b565b61007b565b600080546001600160a01b038381166001600160a01b0319831681178455604051919092169283917f8be0079c531659141344cd1fd0a4f28419497f9722a3daafe3b4186f6b6457e09190a35050565b610b468061008a6000396000f3fe60806040526004361061007f5760003560e01c80638da5cb5b1161004e5780638da5cb5b14610345578063d8437ab31461036d578063e034b77c1461038d578063f2fde38b1461039c57600080fd5b8063056e7597146102d357806364e2a0e0146102ea578063715018a61461031d57806376a54c601461033257600080fd5b366102ce57600254604051635eb94b9960e11b81523360048201526001600160a01b039091169063bd729732906024016020604051808303816000875af11580156100ce573d6000803e3d6000fd5b505050506040513d601f19601f820116820180604052508101906100f291906108e3565b15156001146101605760405162461bcd60e51b815260206004820152602f60248201527f796f75206e65656420746f206265207265676973746572656420746f2070757260448201526e31b430b9b2903a3432903a37b5b2b760891b60648201526084015b60405180910390fd5b6001546040516370a0823160e01b81523360048201526001600160a01b03909116906370a0823190602401602060405180830381865afa1580156101a8573d6000803e3d6000fd5b505050506040513d601f19601f820116820180604052508101906101cc919061090c565b156102195760405162461bcd60e51b815260206004820152601d60248201527f796f7520616c726561647920707572636861736564206120746f6b656e0000006044820152606401610157565b600354341461026a5760405162461bcd60e51b815260206004820152601a60248201527f796f7520646f206e6f74206861766520656e6f756768204554480000000000006044820152606401610157565b33600081815260046020908152604080832034908190556005835292819020805460ff1916600117905580518481529182018390527f88a5966d370b9919b20f3e2c13ff65706f196a4e32cc2c12bf57088f88525874910160405180910390a15050005b600080fd5b3480156102df57600080fd5b506102e86103bc565b005b3480156102f657600080fd5b5061030a61030536600461093a565b61061b565b6040519081526020015b60405180910390f35b34801561032957600080fd5b506102e8610690565b6102e861034036600461093a565b6106c6565b34801561035157600080fd5b506000546040516001600160a01b039091168152602001610314565b34801561037957600080fd5b506102e8610388366004610957565b610760565b34801561039957600080fd5b50005b3480156103a857600080fd5b506102e86103b736600461093a565b6107f8565b60065460ff16156104005760405162461bcd60e51b815260206004820152600e60248201526d4e6f2072652d656e7472616e637960901b6044820152606401610157565b6006805460ff1916600117905560035433600090815260046020526040902054146104635760405162461bcd60e51b81526020600482015260136024820152721b9bc8115512081dd85cc81c9958d95a5d9959606a1b6044820152606401610157565b3360009081526005602052604090205460ff1615156001146104c75760405162461bcd60e51b815260206004820152601e60248201527f596f7520616c726561647920726563656976656420796f7572205975676f00006044820152606401610157565b336000908152600560209081526040808320805460ff19169055600154815163313ce56760e01b815291516001600160a01b039091169263313ce56792600480820193918290030181865afa158015610524573d6000803e3d6000fd5b505050506040513d601f19601f820116820180604052508101906105489190610990565b61055390600a610aad565b61055e906001610abc565b60015460405163a9059cbb60e01b8152336004820152602481018390529192506001600160a01b03169063a9059cbb906044016020604051808303816000875af11580156105b0573d6000803e3d6000fd5b505050506040513d601f19601f820116820180604052508101906105d491906108e3565b5060408051338152602081018390527fe94c6e629948b607c16a4b9710b4e775200e3c7963e20b6cbb8dccc8da65d870910160405180910390a1506006805460ff19169055565b6001546040516370a0823160e01b81526001600160a01b03838116600483015260009216906370a0823190602401602060405180830381865afa158015610666573d6000803e3d6000fd5b505050506040513d601f19601f8201168201806040525081019061068a919061090c565b92915050565b6000546001600160a01b031633146106ba5760405162461bcd60e51b815260040161015790610adb565b6106c46000610893565b565b6000546001600160a01b031633146106f05760405162461bcd60e51b815260040161015790610adb565b6040516000906001600160a01b038316903480156108fc029184818181858888f1935050505090508061075c5760405162461bcd60e51b81526020600482015260146024820152732330b4b632b2103a379039b2b7321022ba3432b960611b6044820152606401610157565b5050565b6000546001600160a01b0316331461078a5760405162461bcd60e51b815260040161015790610adb565b600180546001600160a01b038481166001600160a01b03199283168117909355600280549185169190921681179091556040805192835260208301919091527f9002c211abd499252e56273224dd6a3f259ba469ff482e4e6e4a13fb3d6b154e910160405180910390a15050565b6000546001600160a01b031633146108225760405162461bcd60e51b815260040161015790610adb565b6001600160a01b0381166108875760405162461bcd60e51b815260206004820152602660248201527f4f776e61626c653a206e6577206f776e657220697320746865207a65726f206160448201526564647265737360d01b6064820152608401610157565b61089081610893565b50565b600080546001600160a01b038381166001600160a01b0319831681178455604051919092169283917f8be0079c531659141344cd1fd0a4f28419497f9722a3daafe3b4186f6b6457e09190a35050565b6000602082840312156108f557600080fd5b8151801515811461090557600080fd5b9392505050565b60006020828403121561091e57600080fd5b5051919050565b6001600160a01b038116811461089057600080fd5b60006020828403121561094c57600080fd5b813561090581610925565b6000806040838503121561096a57600080fd5b823561097581610925565b9150602083013561098581610925565b809150509250929050565b6000602082840312156109a257600080fd5b815160ff8116811461090557600080fd5b634e487b7160e01b600052601160045260246000fd5b600181815b80851115610a045781600019048211156109ea576109ea6109b3565b808516156109f757918102915b93841c93908002906109ce565b509250929050565b600082610a1b5750600161068a565b81610a285750600061068a565b8160018114610a3e5760028114610a4857610a64565b600191505061068a565b60ff841115610a5957610a596109b3565b50506001821b61068a565b5060208310610133831016604e8410600b8410161715610a87575081810a61068a565b610a9183836109c9565b8060001904821115610aa557610aa56109b3565b029392505050565b600061090560ff841683610a0c565b6000816000190483118215151615610ad657610ad66109b3565b500290565b6020808252818101527f4f776e61626c653a2063616c6c6572206973206e6f7420746865206f776e657260408201526060019056fea2646970667358221220be534380f53c909986e1a3ff099defba4d8391417bf7853e74f7f09fca0eb9d864736f6c634300080b0033",
  "immutableReferences": {},
  "source": "// SPDX-License-Identifier: GPL-3.0\r\npragma solidity 0.8.11;\r\n\r\nimport \"@openzeppelin/contracts/access/Ownable.sol\";\r\nimport \"./interfaces/IYugo.sol\";\r\nimport \"./interfaces/IYugoDao.sol\";\r\n\r\ncontract YugoManager is Ownable {\r\n\r\n    IYugo private yugo;\r\n    IYugoDao private yugoDao;\r\n\r\n    uint yugoTokenCost = 100000000000000000; //0.1 ETH\r\n    mapping (address => uint) EthLedger;\r\n    mapping (address => bool) EligibleToClaimYugo;\r\n    bool internal locked;\r\n\r\n    modifier noReentrant() {\r\n        require(!locked, \"No re-entrancy\");\r\n        locked = true;\r\n        _;\r\n        locked = false;\r\n    }\r\n\r\n    // event AddressSet (address addrSetTo, address setter);\r\n    event YugoTransfer (address recipient, uint256 amount);\r\n    event Received(address organisation, uint value);\r\n    event TokenPurchasedBy(address organisation);\r\n    event FundsTransferedToWinner(address organisation);\r\n    event ContractsAddrSet(address yugo, address yugodao);\r\n\r\n    /**\r\n    * @notice receives ETH\r\n    * @dev verifies that the organisation is registered\r\n    * @dev verifies that the caller did not purchase a token before\r\n    * @dev verifies that the ETH sent equals the token price\r\n    */\r\n    receive() external payable {\r\n        require(yugoDao.organisationRegistrationStatus(msg.sender) == true, 'you need to be registered to purchase the token');\r\n        require(yugo.balanceOf(msg.sender) == 0, \"you already purchased a token\");\r\n        require(msg.value == yugoTokenCost, \"you do not have enough ETH\");\r\n        address sender = msg.sender;\r\n        uint deposited = msg.value;\r\n        EthLedger[sender] = deposited; // specifies that ETH was deposited\r\n        EligibleToClaimYugo[msg.sender] = true; //specifies that Yugo can now be claimed by the caller\r\n        emit Received(msg.sender, msg.value);\r\n    }\r\n\r\n    /**\r\n    * @notice sends ETH to pay the platform staff, only the admin can call it\r\n    * @param _to - the address of a staff member\r\n    * @dev requires success\r\n    */\r\n    function sendEth(address payable _to) public payable onlyOwner {\r\n        bool sent = _to.send(msg.value);\r\n        require(sent, \"Failed to send Ether\");\r\n    }\r\n\r\n    /**\r\n    * @notice checks the Yugo balance of an account\r\n    * @return a balance type uint256\r\n    */\r\n    function yugoBalanceOf(address account) public view returns (uint256) {\r\n        return yugo.balanceOf(account);\r\n    }\r\n\r\n    function setContractsAddresses(address _yugo, address _dao) external onlyOwner {\r\n        yugo = IYugo(_yugo);\r\n        yugoDao = IYugoDao(_dao);\r\n        emit ContractsAddrSet(_yugo, _dao);\r\n    }\r\n\r\n    /**\r\n    * @notice claim Yugo token \r\n    * @dev the ETH ledger of the caller must show that the token was purchased\r\n    * @dev The Yugo Ledger of the caller must be at 0. Either because it is a \r\n    * first time purchase or because the period of validity of the token has passed\r\n    * and must renewed\r\n    * @dev Re-entrancy - the noReentrant modifier ensures that the function can not\r\n    * be run multiple times in parallel. The function is locked until it finishes.  \r\n    * @dev Pull-Over-Push - the token was not sent after purchase but the buyer was marked as \r\n    * eligible to claim the token. Afterwards, the condition of eligibility is updated before \r\n    * the transfer. \r\n    */\r\n    function transferYugo() external noReentrant {\r\n        require(EthLedger[msg.sender] == yugoTokenCost, \"no ETH was received\");\r\n        require(EligibleToClaimYugo[msg.sender] == true, \"You already received your Yugo\");\r\n        EligibleToClaimYugo[msg.sender] = false;\r\n        uint256 amount = 1*10**yugo.decimals();\r\n        yugo.transfer(msg.sender, amount);\r\n        emit YugoTransfer(msg.sender, amount);\r\n        locked = true;\r\n    }\r\n\r\n    /**\r\n    * @notice transfers funds to winning organisation\r\n    */\r\n    function transferWinningOrganisation() external {\r\n        //TODO: communicate with GrantEscrow.sol\r\n    }\r\n\r\n    // TODO:function verifyByOracle orga\r\n\r\n}",
  "sourcePath": "F:\\workspace\\alyra\\yugo\\YU-GO\\Truffle\\contracts\\YugoManager.sol",
  "compiler": {
    "name": "solc",
    "version": "0.8.11+commit.d7f03943.Emscripten.clang"
  },
  "schemaVersion": "3.4.3",
  "updatedAt": "2022-01-18T04:57:03.765Z",
  "networkType": "ethereum",
  "devdoc": {
    "kind": "dev",
    "methods": {
      "owner()": {
        "details": "Returns the address of the current owner."
      },
      "renounceOwnership()": {
        "details": "Leaves the contract without owner. It will not be possible to call `onlyOwner` functions anymore. Can only be called by the current owner. NOTE: Renouncing ownership will leave the contract without an owner, thereby removing any functionality that is only available to the owner."
      },
      "sendEth(address)": {
        "details": "requires success",
        "params": {
          "_to": "- the address of a staff member"
        }
      },
      "transferOwnership(address)": {
        "details": "Transfers ownership of the contract to a new account (`newOwner`). Can only be called by the current owner."
      },
      "transferYugo()": {
        "details": "the ETH ledger of the caller must show that the token was purchasedThe Yugo Ledger of the caller must be at 0. Either because it is a  first time purchase or because the period of validity of the token has passed and must renewedRe-entrancy - the noReentrant modifier ensures that the function can not be run multiple times in parallel. The function is locked until it finishes.  Pull-Over-Push - the token was not sent after purchase but the buyer was marked as  eligible to claim the token. Afterwards, the condition of eligibility is updated before  the transfer. "
      },
      "yugoBalanceOf(address)": {
        "returns": {
          "_0": "a balance type uint256"
        }
      }
    },
    "version": 1
  },
  "userdoc": {
    "kind": "user",
    "methods": {
      "sendEth(address)": {
        "notice": "sends ETH to pay the platform staff, only the admin can call it"
      },
      "transferWinningOrganisation()": {
        "notice": "transfers funds to winning organisation"
      },
      "transferYugo()": {
        "notice": "claim Yugo token "
      },
      "yugoBalanceOf(address)": {
        "notice": "checks the Yugo balance of an account"
      }
    },
    "version": 1
  }
}