{
  "contractName": "YugoDao",
  "abi": [
    {
      "inputs": [],
      "stateMutability": "nonpayable",
      "type": "constructor"
    },
    {
      "inputs": [],
      "name": "Unauthorized",
      "type": "error"
    },
    {
      "anonymous": false,
      "inputs": [
        {
          "indexed": false,
          "internalType": "address",
          "name": "addressContestCreator",
          "type": "address"
        },
        {
          "indexed": false,
          "internalType": "address",
          "name": "addressActionCreator",
          "type": "address"
        },
        {
          "indexed": false,
          "internalType": "string",
          "name": "actionName",
          "type": "string"
        },
        {
          "indexed": false,
          "internalType": "uint256",
          "name": "requiredFunds",
          "type": "uint256"
        }
      ],
      "name": "ActionCreated",
      "type": "event"
    },
    {
      "anonymous": false,
      "inputs": [
        {
          "indexed": false,
          "internalType": "address",
          "name": "addressOrga",
          "type": "address"
        },
        {
          "indexed": false,
          "internalType": "string",
          "name": "name",
          "type": "string"
        },
        {
          "indexed": false,
          "internalType": "uint256",
          "name": "funds",
          "type": "uint256"
        }
      ],
      "name": "ContestCreated",
      "type": "event"
    },
    {
      "anonymous": false,
      "inputs": [
        {
          "indexed": false,
          "internalType": "address",
          "name": "addressContestCreator",
          "type": "address"
        },
        {
          "indexed": false,
          "internalType": "address",
          "name": "addressActionCreator",
          "type": "address"
        },
        {
          "indexed": false,
          "internalType": "address",
          "name": "voterAddress",
          "type": "address"
        }
      ],
      "name": "HasVotedForAction",
      "type": "event"
    },
    {
      "anonymous": false,
      "inputs": [
        {
          "indexed": false,
          "internalType": "address",
          "name": "addressOrga",
          "type": "address"
        }
      ],
      "name": "OrganizationRegistered",
      "type": "event"
    },
    {
      "anonymous": false,
      "inputs": [
        {
          "indexed": false,
          "internalType": "address",
          "name": "addressOrga",
          "type": "address"
        },
        {
          "indexed": false,
          "internalType": "address",
          "name": "addressParticipant",
          "type": "address"
        }
      ],
      "name": "ParticipantRemoved",
      "type": "event"
    },
    {
      "anonymous": false,
      "inputs": [
        {
          "indexed": false,
          "internalType": "address",
          "name": "addressParticipant",
          "type": "address"
        },
        {
          "indexed": false,
          "internalType": "address",
          "name": "addressOrganization",
          "type": "address"
        }
      ],
      "name": "ParticipantWhitelisted",
      "type": "event"
    },
    {
      "anonymous": false,
      "inputs": [
        {
          "indexed": false,
          "internalType": "address",
          "name": "addressContestCreator",
          "type": "address"
        },
        {
          "indexed": false,
          "internalType": "address[]",
          "name": "addressActionCreator",
          "type": "address[]"
        },
        {
          "indexed": false,
          "internalType": "uint256",
          "name": "nbVotes",
          "type": "uint256"
        }
      ],
      "name": "VoteTallied",
      "type": "event"
    },
    {
      "inputs": [],
      "name": "getThematics",
      "outputs": [
        {
          "internalType": "string[]",
          "name": "",
          "type": "string[]"
        }
      ],
      "stateMutability": "view",
      "type": "function",
      "constant": true
    },
    {
      "inputs": [],
      "name": "getCountries",
      "outputs": [
        {
          "internalType": "string[]",
          "name": "",
          "type": "string[]"
        }
      ],
      "stateMutability": "view",
      "type": "function",
      "constant": true
    },
    {
      "inputs": [
        {
          "internalType": "uint256[]",
          "name": "thematicIds",
          "type": "uint256[]"
        },
        {
          "internalType": "uint256",
          "name": "countryId",
          "type": "uint256"
        }
      ],
      "name": "registerOrganisation",
      "outputs": [],
      "stateMutability": "nonpayable",
      "type": "function"
    },
    {
      "inputs": [
        {
          "internalType": "address",
          "name": "_orga",
          "type": "address"
        }
      ],
      "name": "organisationRegistrationStatus",
      "outputs": [
        {
          "internalType": "bool",
          "name": "",
          "type": "bool"
        }
      ],
      "stateMutability": "view",
      "type": "function",
      "constant": true
    },
    {
      "inputs": [
        {
          "internalType": "address",
          "name": "_addrOrganisation",
          "type": "address"
        },
        {
          "internalType": "address",
          "name": "_addrParticipant",
          "type": "address"
        }
      ],
      "name": "participantIsWhiteListed",
      "outputs": [
        {
          "internalType": "bool",
          "name": "",
          "type": "bool"
        }
      ],
      "stateMutability": "view",
      "type": "function",
      "constant": true
    },
    {
      "inputs": [
        {
          "internalType": "address",
          "name": "_addrToDelete",
          "type": "address"
        }
      ],
      "name": "removeFromWhitelist",
      "outputs": [],
      "stateMutability": "nonpayable",
      "type": "function"
    },
    {
      "inputs": [
        {
          "internalType": "address",
          "name": "_addrOrga",
          "type": "address"
        },
        {
          "internalType": "address",
          "name": "_addrParticipant",
          "type": "address"
        }
      ],
      "name": "addParticipant",
      "outputs": [],
      "stateMutability": "nonpayable",
      "type": "function"
    },
    {
      "inputs": [
        {
          "internalType": "string",
          "name": "_name",
          "type": "string"
        },
        {
          "internalType": "uint256[]",
          "name": "_themeIds",
          "type": "uint256[]"
        },
        {
          "internalType": "uint256[]",
          "name": "_eligibleCountryIds",
          "type": "uint256[]"
        },
        {
          "internalType": "uint256",
          "name": "_applicationEndDate",
          "type": "uint256"
        },
        {
          "internalType": "uint256",
          "name": "_votingEndDate",
          "type": "uint256"
        },
        {
          "internalType": "uint256",
          "name": "_funds",
          "type": "uint256"
        }
      ],
      "name": "addContest",
      "outputs": [],
      "stateMutability": "nonpayable",
      "type": "function"
    },
    {
      "inputs": [
        {
          "internalType": "address",
          "name": "_creatorOfContest",
          "type": "address"
        },
        {
          "internalType": "string",
          "name": "_name",
          "type": "string"
        },
        {
          "internalType": "uint256",
          "name": "_requiredFunds",
          "type": "uint256"
        }
      ],
      "name": "createAction",
      "outputs": [],
      "stateMutability": "nonpayable",
      "type": "function"
    },
    {
      "inputs": [
        {
          "internalType": "address",
          "name": "_contestCreator",
          "type": "address"
        },
        {
          "internalType": "address",
          "name": "_actionCreator",
          "type": "address"
        }
      ],
      "name": "actionStatus",
      "outputs": [
        {
          "internalType": "bool",
          "name": "",
          "type": "bool"
        }
      ],
      "stateMutability": "view",
      "type": "function",
      "constant": true
    },
    {
      "inputs": [
        {
          "internalType": "address",
          "name": "_contestCreator",
          "type": "address"
        },
        {
          "internalType": "address",
          "name": "_actionCreator",
          "type": "address"
        }
      ],
      "name": "voteForAction",
      "outputs": [],
      "stateMutability": "nonpayable",
      "type": "function"
    },
    {
      "inputs": [
        {
          "internalType": "address",
          "name": "_contestCreator",
          "type": "address"
        }
      ],
      "name": "tallyVote",
      "outputs": [],
      "stateMutability": "nonpayable",
      "type": "function"
    }
  ],
  "bytecode": "0x60096101e08181526832b23ab1b0ba34b7b760b91b610200526080908152600b6102208181526a747261666669636b696e6760a81b6102405260a052601161026081815270646f6d65737469632076696f6c656e636560781b6102805260c05260106102a09081526f1ddbdb595b89dcc81b5bdd995b595b9d60821b6102c05260e0526102e09384526863616d706169676e7360b81b6103005261010093909352600a610320908152693937b6b0903bb7b6b2b760b11b61034052610120526008610360908152676964656e7469747960c01b610380526101405260076103a0908152666c6f6262696e6760c81b6103c0526101605260136103e09081527f6d617267696e616c697a65642067726f757073000000000000000000000000006104005261018052610420928352701cd95e1d585b081a185c985cdcdb595b9d607a1b610440526101a0929092526104a0604052600e6104609081526d776f6d656e27732072696768747360901b610480526101c05262000183916004919062000502565b506040805161010081018252600660c082018181526553657262696160d01b60e0840152825282518084018452600781526643726f6174696160c81b6020828101919091528084019190915283518085018552600a8152694d6f6e74656e6567726f60b01b818301528385015283518085018552601681527f426f736e696120616e64204865726365676f76696e6100000000000000000000818301526060840152835180850185526008815267536c6f76656e696160c01b818301526080840152835180850190945260098452684d616365646f6e696160b81b9084015260a082019290925262000279916005919062000566565b503480156200028757600080fd5b5062000292620002a2565b6200029c620003d4565b6200075e565b60045460005b620002b5600183620006d3565b811015620003d05760408051808201909152606060208201528181526004805483908110620002e857620002e8620006ed565b906000526020600020018054620002ff9062000703565b80601f01602080910402602001604051908101604052809291908181526020018280546200032d9062000703565b80156200037e5780601f1062000352576101008083540402835291602001916200037e565b820191906000526020600020905b8154815290600101906020018083116200036057829003601f168201915b50505050602080840192835260008581526003825260409020845181559251805185949350620003b59260018501920190620005b8565b50905050508080620003c79062000740565b915050620002a8565b5050565b60055460005b620003e7600183620006d3565b811015620003d057604080518082019091526060602082015281815260058054839081106200041a576200041a620006ed565b906000526020600020018054620004319062000703565b80601f01602080910402602001604051908101604052809291908181526020018280546200045f9062000703565b8015620004b05780601f106200048457610100808354040283529160200191620004b0565b820191906000526020600020905b8154815290600101906020018083116200049257829003601f168201915b50505050602080840192835260008581526002825260409020845181559251805185949350620004e79260018501920190620005b8565b50905050508080620004f99062000740565b915050620003da565b82805482825590600052602060002090810192821562000554579160200282015b8281111562000554578251805162000543918491602090910190620005b8565b509160200191906001019062000523565b506200056292915062000643565b5090565b82805482825590600052602060002090810192821562000554579160200282015b82811115620005545782518051620005a7918491602090910190620005b8565b509160200191906001019062000587565b828054620005c69062000703565b90600052602060002090601f016020900481019282620005ea576000855562000635565b82601f106200060557805160ff191683800117855562000635565b8280016001018555821562000635579182015b828111156200063557825182559160200191906001019062000618565b506200056292915062000664565b80821115620005625760006200065a82826200067b565b5060010162000643565b5b8082111562000562576000815560010162000665565b508054620006899062000703565b6000825580601f106200069a575050565b601f016020900490600052602060002090810190620006ba919062000664565b50565b634e487b7160e01b600052601160045260246000fd5b600082821015620006e857620006e8620006bd565b500390565b634e487b7160e01b600052603260045260246000fd5b600181811c908216806200071857607f821691505b602082108114156200073a57634e487b7160e01b600052602260045260246000fd5b50919050565b6000600019821415620007575762000757620006bd565b5060010190565b611696806200076e6000396000f3fe608060405234801561001057600080fd5b50600436106100b45760003560e01c8063a2cdb3b411610071578063a2cdb3b414610138578063bd72973214610189578063beca8009146101c0578063d35ada32146101c8578063d67091c7146101db578063eb0934df146101ee57600080fd5b80631426f78f146100b95780632db2c04f146100ce5780636bf9fe17146100e157806381530e47146100ff5780638ab1d681146101125780639aa7ca4214610125575b600080fd5b6100cc6100c7366004611172565b61022e565b005b6100cc6100dc3660046112dc565b6105c6565b6100e9610715565b6040516100f691906113cd565b60405180910390f35b6100cc61010d36600461142f565b6107ee565b6100cc610120366004611474565b61093f565b6100cc610133366004611474565b610a35565b610179610146366004611172565b6001600160a01b039182166000908152602081815260408083209390941682526002909201909152206003015460ff1690565b60405190151581526020016100f6565b610179610197366004611474565b6001600160a01b031660009081526001602081905260409091200154600160a01b900460ff1690565b6100e9610b2e565b6100cc6101d6366004611172565b610bfe565b6100cc6101e9366004611496565b610d7d565b6101796101fc366004611172565b6001600160a01b0391821660009081526001602090815260408083209390941682526002909201909152205460ff1690565b336001600160a01b038316148015906102505750336001600160a01b03821614155b6102a15760405162461bcd60e51b815260206004820181905260248201527f596f752063616e206e6f7420766f746520666f72207468697320616374696f6e60448201526064015b60405180910390fd5b6001600160a01b03821660009081526020818152604080832033845260010190915290205460ff161561030f5760405162461bcd60e51b8152602060048201526016602482015275165bdd481a185d9948185b1c9958591e481d9bdd195960521b6044820152606401610298565b6001600160a01b03808316600090815260208181526040808320938516835260029093019052908120600190810180549192909161034e908490611503565b90915550506001600160a01b03821660008181526020818152604080832033845260018181018452918420805460ff191690921790915592825252600901546103d5576001600160a01b038281166000908152602081815260408220600901805460018101825590835291200180546001600160a01b031916918316919091179055610574565b6001600160a01b0380831660008181526020818152604080832094861683526002850180835290832060010154938352908290526009909301805492939282906104215761042161151b565b60009182526020808320909101546001600160a01b0316835282019290925260400190206001015410156104ba576001600160a01b038216600090815260208190526040812061047691600990910190611062565b6001600160a01b038281166000908152602081815260408220600901805460018101825590835291200180546001600160a01b031916918316919091179055610574565b6001600160a01b0380831660008181526020818152604080832094861683526002850180835290832060010154938352908290526009909301805492939282906105065761050661151b565b60009182526020808320909101546001600160a01b031683528201929092526040019020600101541415610574576001600160a01b038281166000908152602081815260408220600901805460018101825590835291200180546001600160a01b0319169183169190911790555b604080516001600160a01b0380851682528316602082015233918101919091527f9a996e61e46622216dcf6afd942a2c58023089cde9ed06bbf46ad67ec7814858906060015b60405180910390a15050565b3360009081526020819052604090206008015460ff16156106385760405162461bcd60e51b815260206004820152602660248201527f4f7267616e69736174696f6e20616c72656164792063726561746564206120636044820152651bdb9d195cdd60d21b6064820152608401610298565b33600090815260208181526040909120875161065692890190611083565b5033600090815260208181526040909120865161067b92600390920191880190611107565b503360009081526020818152604090912085516106a092600490920191870190611107565b503360008181526020819052604090819020600581018690556006810185905560078101849055600801805460ff19166001179055517f98e26a339a5fc57fc1c56d81b9cc18fa5c1b2f45a4121ded1802183d3546744a916107059189908590611531565b60405180910390a1505050505050565b60606004805480602002602001604051908101604052809291908181526020016000905b828210156107e557838290600052602060002001805461075890611565565b80601f016020809104026020016040519081016040528092919081815260200182805461078490611565565b80156107d15780601f106107a6576101008083540402835291602001916107d1565b820191906000526020600020905b8154815290600101906020018083116107b457829003601f168201915b505050505081526020019060010190610739565b50505050905090565b3360009081526001602081905260409091200154600160a01b900460ff16156108595760405162461bcd60e51b815260206004820152601f60248201527f4f7267616e69736174696f6e20616c72656164792072656769737465726564006044820152606401610298565b60008251116108aa5760405162461bcd60e51b815260206004820181905260248201527f4f7267616e69736174696f6e206d7573742068617665207468656d61746963736044820152606401610298565b33600081815260016020818152604090922090810180546001600160a01b03191690931790925583516108e39260030191850190611107565b503360008181526001602081815260409283902060048101869055909101805460ff60a01b1916600160a01b17905590519182527f2178e9c576507a4c15d3deab489af3f699a3dedbff9a7ef27c43a017027710e591016105ba565b3360009081526001602081815260408084206001600160a01b03861685526002019091529091205460ff161515146109c85760405162461bcd60e51b815260206004820152602660248201527f746865206164647265737320796f7520656e746572656420646f6573206e6f7460448201526508195e1a5cdd60d21b6064820152608401610298565b3360008181526001602090815260408083206001600160a01b0386168085526002909101835292819020805460ff191690558051938452908301919091527f9721b4c70a74dd00691b5fd0589b9720d9be5657dfd6e1f8072cb7f26d7ce8a891015b60405180910390a150565b6001600160a01b0381166000908152602081905260409020600601544211610a9f5760405162461bcd60e51b815260206004820152601b60248201527f566f74696e6720686173206e6f742066696e69736865642079657400000000006044820152606401610298565b6001600160a01b03811660009081526020819052604081206009810180547f816521a78d4edee3cfe0a08714ff2fbbc26bbbd23f171325b3493f3f514f0bfc9385936002019183908290610af557610af561151b565b60009182526020808320909101546001600160a01b031683528201929092526040908101909120600101549051610a2a939291906115a0565b60606005805480602002602001604051908101604052809291908181526020016000905b828210156107e5578382906000526020600020018054610b7190611565565b80601f0160208091040260200160405190810160405280929190818152602001828054610b9d90611565565b8015610bea5780601f10610bbf57610100808354040283529160200191610bea565b820191906000526020600020905b815481529060010190602001808311610bcd57829003601f168201915b505050505081526020019060010190610b52565b6001600160a01b0382811660009081526001602081905260409091200154163314610c7d5760405162461bcd60e51b815260206004820152602960248201527f596f7520617265206e6f7420746865206f776e6572206f6620746865206f726760448201526830b734bd30ba34b7b760b91b6064820152608401610298565b6001600160a01b038083166000908152600160209081526040808320938516835260029093019052205460ff1615610d115760405162461bcd60e51b815260206004820152603160248201527f4164647265737320616c72656164792077686974656c697374656420666f72206044820152703a3434b99037b933b0b734bd30ba34b7b760791b6064820152608401610298565b6001600160a01b0382811660008181526001602081815260408084209587168085526002909601825292839020805460ff191690921790915581519384528301919091527f6991bd45e0feec093b0c381c0561704fd19d427ded55100f5f6e1b4fe335c08291016105ba565b6001600160a01b03831660009081526020818152604080832060040180548251818502810185019093528083529192909190830182828015610dde57602002820191906000526020600020905b815481526020019060010190808311610dca575b505050506001600160a01b0386166000908152600160205260408120600401549293509050805b8351811015610e4a5782848281518110610e2157610e2161151b565b60200260200101511415610e385760019150610e4a565b80610e4281611608565b915050610e05565b50600181151514610eb95760405162461bcd60e51b815260206004820152603360248201527f596f7520617265206e6f7420656c696769626c6520746f207061727469636970604482015272185d19481a5b881d1a1a5cc818dbdb9d195cdd606a1b6064820152608401610298565b6001600160a01b03861660009081526020819052604090206008015460ff16610f395760405162461bcd60e51b815260206004820152602c60248201527f54686973206f7267616e697a6174696f6e20646f6573206e6f7420686176652060448201526b1bdc195b8818dbdb9d195cdd60a21b6064820152608401610298565b6001600160a01b03861660009081526020818152604080832033845260020190915290206003015460ff1615610fbc5760405162461bcd60e51b815260206004820152602260248201527f596f75206861766520616c7265616479206372656174656420616e206163746960448201526137b760f11b6064820152608401610298565b6001600160a01b03861660009081526020818152604080832033845260020182529091208651610fee92880190611083565b506001600160a01b038616600090815260208181526040808320338085526002918201909352928190209283018790556003909201805460ff1916600117905590517fd3d45429f6c2339a23437577bd167085ad0b979da68a822a522a731bfb12041e916107059189919089908990611623565b50805460008255906000526020600020908101906110809190611141565b50565b82805461108f90611565565b90600052602060002090601f0160209004810192826110b157600085556110f7565b82601f106110ca57805160ff19168380011785556110f7565b828001600101855582156110f7579182015b828111156110f75782518255916020019190600101906110dc565b50611103929150611141565b5090565b8280548282559060005260206000209081019282156110f757916020028201828111156110f75782518255916020019190600101906110dc565b5b808211156111035760008155600101611142565b80356001600160a01b038116811461116d57600080fd5b919050565b6000806040838503121561118557600080fd5b61118e83611156565b915061119c60208401611156565b90509250929050565b634e487b7160e01b600052604160045260246000fd5b604051601f8201601f1916810167ffffffffffffffff811182821017156111e4576111e46111a5565b604052919050565b600082601f8301126111fd57600080fd5b813567ffffffffffffffff811115611217576112176111a5565b61122a601f8201601f19166020016111bb565b81815284602083860101111561123f57600080fd5b816020850160208301376000918101602001919091529392505050565b600082601f83011261126d57600080fd5b8135602067ffffffffffffffff821115611289576112896111a5565b8160051b6112988282016111bb565b92835284810182019282810190878511156112b257600080fd5b83870192505b848310156112d1578235825291830191908301906112b8565b979650505050505050565b60008060008060008060c087890312156112f557600080fd5b863567ffffffffffffffff8082111561130d57600080fd5b6113198a838b016111ec565b9750602089013591508082111561132f57600080fd5b61133b8a838b0161125c565b9650604089013591508082111561135157600080fd5b5061135e89828a0161125c565b945050606087013592506080870135915060a087013590509295509295509295565b6000815180845260005b818110156113a65760208185018101518683018201520161138a565b818111156113b8576000602083870101525b50601f01601f19169290920160200192915050565b6000602080830181845280855180835260408601915060408160051b870101925083870160005b8281101561142257603f19888603018452611410858351611380565b945092850192908501906001016113f4565b5092979650505050505050565b6000806040838503121561144257600080fd5b823567ffffffffffffffff81111561145957600080fd5b6114658582860161125c565b95602094909401359450505050565b60006020828403121561148657600080fd5b61148f82611156565b9392505050565b6000806000606084860312156114ab57600080fd5b6114b484611156565b9250602084013567ffffffffffffffff8111156114d057600080fd5b6114dc868287016111ec565b925050604084013590509250925092565b634e487b7160e01b600052601160045260246000fd5b60008219821115611516576115166114ed565b500190565b634e487b7160e01b600052603260045260246000fd5b6001600160a01b038416815260606020820181905260009061155590830185611380565b9050826040830152949350505050565b600181811c9082168061157957607f821691505b6020821081141561159a57634e487b7160e01b600052602260045260246000fd5b50919050565b60006060820160018060a01b03808716845260206060818601528287548085526080870191508860005282600020945060005b818110156115f15785548516835260019586019592840192016115d3565b505080945050505050826040830152949350505050565b600060001982141561161c5761161c6114ed565b5060010190565b6001600160a01b0385811682528416602082015260806040820181905260009061164f90830185611380565b90508260608301529594505050505056fea2646970667358221220a2cf6380aeb4707ad550b4894e89846835108a4f9f091fe65d8c4939d5d1bf8b64736f6c634300080b0033",
  "immutableReferences": {},
  "source": "// SPDX-License-Identifier: GPL-3.0\npragma solidity 0.8.11;\n\nimport \"./IYugo.sol\";\n/**  @title Smart Contract for the DAO\n*    @notice This Smart contract stores all vote history \n*/\ncontract YugoDao {\n\n    struct Organisation {\n        string name;\n        address ethAddress;\n        bool isRegistered;\n        mapping (address => bool) participants;\n        uint[] themes;\n        uint country;\n    }\n\n    struct Theme {\n        uint id;\n        string name;\n    }\n\n     struct Country {\n        uint id;\n        string name;\n    }\n\n    struct Action {\n        string name;\n        uint voteNumber;\n        uint requiredFunds;\n        bool isCreated;\n    }\n\n    /**\n    * @notice Contest\n    * @dev A participant can only create one action\n    */\n    struct Contest {\n        string name;\n        mapping(address => bool) hasVoted;\n        mapping(address => Action) actions;\n        uint[] themeIDs;\n        uint[] countryIDs;\n        uint applicationEndDate;\n        uint votingEndDate;\n        uint availableFunds;\n        bool isCreated;\n        address[] winningActionAddresses;\n    }\n\n    event OrganizationRegistered(address addressOrga);\n    event ParticipantWhitelisted(address addressParticipant, address addressOrganization); \n    event ParticipantRemoved(address addressOrga, address addressParticipant);\n    event ContestCreated(address addressOrga, string name, uint funds);\n    event ActionCreated(address addressContestCreator, address addressActionCreator, string actionName, uint requiredFunds);\n    event VoteTallied(address addressContestCreator, address[] addressActionCreator, uint nbVotes);\n    event HasVotedForAction(address addressContestCreator, address addressActionCreator, address voterAddress); \n\n    mapping (address => Contest) contests;\n    mapping (address => Organisation) organisation;\n    mapping (uint => Country)  private countries;\n    mapping (uint => Theme)  private thematics;\n\n\n    \n    string[] private themeList = [\n        \"education\",\n        \"trafficking\",\n        \"domestic violence\",\n        \"women's movement\",\n        \"campaigns\",\n        \"roma women\",\n        \"identity\",\n        \"lobbing\",\n        \"marginalized groups\",\n        \"sexual harassment\",\n        \"women's rights\"\n    ];\n\n   \n     string[] private countryList = [\n        \"Serbia\",\n        \"Croatia\",\n        \"Montenegro\",\n        \"Bosnia and Hercegovina\",\n        \"Slovenia\",\n        \"Macedonia\"\n    ];\n\n    // IYugo public yugo;\n\n    constructor() {\n        setThematics();\n        setCountries();\n        // yugo = IYugo(_Yugo);\n    }\n\n    \n\n    /**\n    * @dev Sender not authorized for this operation.\n    */\n    error Unauthorized();\n\n   /**\n    * @notice Modifier \n    * @dev Check if _account not equals sender then revert \n    */\n    modifier onlyBy(address _account)\n    {\n        if (msg.sender != _account)\n            revert Unauthorized();\n        _;\n    }\n\n    /**\n    * @notice Populate thematics array\n    * @dev FOR TESTING : Only used in the controller, to initialise the thematics array. Should implement addThematics() so that the thematics are not fixed.\n    */\n    function setThematics() private {\n        uint numThemes = themeList.length;\n        for (uint i=0; i < numThemes-1; i++) {\n            Theme memory theme;\n            theme.id = i;\n            theme.name = themeList[i];\n            thematics[i] = theme;\n        }\n    }\n\n    /**\n    * @notice Populate thematics array\n    * @dev Only used in the controller, to initialise the countries array.\n    */\n    function setCountries() private {\n        uint numCountries = countryList.length;\n        for (uint i=0; i < numCountries-1; i++) {\n            Country memory country;\n            country.id = i;\n            country.name = countryList[i];\n            countries[i] = country;\n        }\n    }\n\n    /**\n    * @notice Return the list of thematics\n    * @return themeList List of thematics\n    */\n    function getThematics() public view returns(string[] memory) {        \n        return themeList;\n    }\n\n\n    /**\n    * @notice Return the list of countries\n    * @return countryList List of countries\n    */\n    function getCountries() public view returns(string[] memory) {        \n        return countryList;\n    }\n    \n\n    /**\n    * @notice Registers an Organisation\n    * @dev Creates a mapping for the sender in organisation\n    * @dev Emit OrganizationRegistered event\n    * @param thematicIds List of thematics id\n    * @param countryId Country id\n    * \n    */\n     function registerOrganisation(uint[] memory thematicIds, uint countryId) external {\n        //require(yugo.balanceOf(msg.sender) == 1*10**yugo.decimals());\n        require(!organisation[msg.sender].isRegistered, 'Organisation already registered');\n        require(thematicIds.length > 0, 'Organisation must have thematics');\n        require(countryId >= 0, 'Organisation must have a country');\n        organisation[msg.sender].ethAddress = msg.sender;\n        organisation[msg.sender].themes = thematicIds;\n        organisation[msg.sender].country = countryId;\n        organisation[msg.sender].isRegistered = true;\n        emit OrganizationRegistered(msg.sender);\n    }\n\n    /**\n    * @notice Returns if organisation is registered\n    * @param _orga Address of organisation\n    * @return State of isRegistered, true if organisation is registered\n    */\n    function organisationRegistrationStatus(address _orga) public view returns(bool) {\n        return organisation[_orga].isRegistered;\n    }\n    \n    /**\n    * @notice Returns true if the participant is whitelisted\n    * @dev Can be called either by an organisation or a participant\n    * @param _addrOrganisation  Organisation's address\n    * @param _addrParticipant  Participant's address\n    * @return True if the address exists, false if not\n     */\n    function participantIsWhiteListed(address _addrOrganisation, address _addrParticipant) external view returns(bool) {\n        \n        return organisation[_addrOrganisation].participants[_addrParticipant];\n    }\n\n    /**\n    * @notice allows the organisation (msg.sender) to delete a member from its whitelist\n    * @dev Emit ParticipantRemoved event\n    * @param _addrToDelete  the ethAddress of the participant to be deleted \n    */\n    function removeFromWhitelist(address _addrToDelete) external {\n        require(organisation[msg.sender].participants[_addrToDelete]==true, 'the address you entered does not exist');\n        delete organisation[msg.sender].participants[_addrToDelete];\n        emit ParticipantRemoved(msg.sender, _addrToDelete);\n    }\n\n    /**\n    * @notice Adds a particapants to a organisation\n    * @dev Emit ParticipantWhitelisted event\n    * @param _addrOrga address of organisation\n    * @param _addrParticipant address of particapant \n    */\n    function addParticipant(address _addrOrga, address _addrParticipant ) external {\n        //TODO: verify with oracle _addrParticipant is not an organisation address\n        require(organisation[_addrOrga].ethAddress == msg.sender, 'You are not the owner of the organization');\n        require(!organisation[_addrOrga].participants[_addrParticipant], 'Address already whitelisted for this organization');\n        organisation[_addrOrga].participants[_addrParticipant] = true;\n        emit ParticipantWhitelisted(_addrParticipant, _addrOrga);\n    }\n\n    /**\n    * @notice Add a contest\n    * @dev Emit ContestCreated event\n    * @param _name Name of the contest\n    * @param _themeIds List of thematics IDs\n    * @param _eligibleCountryIds List of country IDs\n    * @param _applicationEndDate End Date of application period \n    * @param _votingEndDate End Date of voting period \n    * @param _funds Value of funds \n    */\n    function addContest(string memory _name, uint[] memory _themeIds, uint[] memory _eligibleCountryIds, uint _applicationEndDate, uint _votingEndDate, uint _funds) external {\n        // TODO: verify if balance of gouv token is > 0 in metamask\n        require(!contests[msg.sender].isCreated, 'Organisation already created a contest');\n        contests[msg.sender].name = _name;\n        contests[msg.sender].themeIDs = _themeIds;\n        contests[msg.sender].countryIDs = _eligibleCountryIds;\n        contests[msg.sender].applicationEndDate = _applicationEndDate;\n        contests[msg.sender].votingEndDate = _votingEndDate;\n        contests[msg.sender].availableFunds = _funds;\n        contests[msg.sender].isCreated = true;\n        emit ContestCreated(msg.sender, _name, _funds);\n    }\n\n\n    /**\n    * @notice Creates a action\n    * @dev Emit ActionCreated event\n    * @param _creatorOfContest Address of creator \n    * @param _name Name of Action\n    * @param _requiredFunds Value of funds\n    */\n    function createAction(address _creatorOfContest, string memory _name, uint _requiredFunds) external {\n        // TODO : theme verification\n        uint[] memory eligilibleCountries = contests[_creatorOfContest].countryIDs;\n        uint orgaCountry = organisation[_creatorOfContest].country;\n        bool countryFound=false;\n        for (uint i=0; i<eligilibleCountries.length; i++) {\n            if(eligilibleCountries[i]==orgaCountry){\n                countryFound=true;\n                break;\n            }\n        }\n        require(countryFound == true, \"You are not eligible to participate in this contest\");\n        require(contests[_creatorOfContest].isCreated, 'This organization does not have open contest');\n        require(!contests[_creatorOfContest].actions[msg.sender].isCreated, 'You have already created an action');\n        contests[_creatorOfContest].actions[msg.sender].name = _name;\n        contests[_creatorOfContest].actions[msg.sender].requiredFunds = _requiredFunds;\n        contests[_creatorOfContest].actions[msg.sender].isCreated = true;\n        emit ActionCreated(_creatorOfContest, msg.sender, _name, _requiredFunds);\n    }\n\n    function actionStatus(address _contestCreator, address _actionCreator) external view returns(bool){\n        return contests[_contestCreator].actions[_actionCreator].isCreated;\n    }\n\n    // TODO: function deleteActions() {}\n\n\n    /**\n    * @notice Vote for a Action\n    * @dev At each vote, we compare voteNumber of the winning Action with newly voted one. If tie, then push in array\n    * @dev Emit HasVotedForAction event\n    * @param _contestCreator Address of Contest creator \n    * @param _actionCreator Address of Action creator\n    */\n    function voteForAction(address _contestCreator, address _actionCreator) external {\n        // TODO: verify if its time to vote\n        require(msg.sender != _contestCreator && msg.sender != _actionCreator, 'You can not vote for this action');\n        require(!contests[_contestCreator].hasVoted[msg.sender], 'You have already voted');\n        \n        \n        contests[_contestCreator].actions[_actionCreator].voteNumber += 1;\n        contests[_contestCreator].hasVoted[msg.sender] = true;\n\n        if(contests[_contestCreator].winningActionAddresses.length == 0){\n            contests[_contestCreator].winningActionAddresses.push(_actionCreator);\n        }else if(contests[_contestCreator].actions[contests[_contestCreator].winningActionAddresses[0]].voteNumber < contests[_contestCreator].actions[_actionCreator].voteNumber){\n            delete contests[_contestCreator].winningActionAddresses;\n            contests[_contestCreator].winningActionAddresses.push(_actionCreator);\n        }else if(contests[_contestCreator].actions[contests[_contestCreator].winningActionAddresses[0]].voteNumber == contests[_contestCreator].actions[_actionCreator].voteNumber){\n            contests[_contestCreator].winningActionAddresses.push(_actionCreator);\n        }\n\n        emit HasVotedForAction(_contestCreator, _actionCreator, msg.sender);\n    }\n    \n\n    /**\n    * @notice Tally the vote\n    * @dev Emit VoteTallied event\n    * @param _contestCreator Address of Contest creator \n    */\n    function tallyVote(address _contestCreator) external {\n        // TODO: tallying votes with time counter / controller / check only callable from manager\n        require(block.timestamp > contests[_contestCreator].votingEndDate, \"Voting has not finished yet\");\n\n        emit VoteTallied(_contestCreator, contests[_contestCreator].winningActionAddresses, contests[_contestCreator].actions[contests[_contestCreator].winningActionAddresses[0]].voteNumber);\n    }\n\n\n    //TODO: pool of liquidity from contest's creator\n\n\n\n}   ",
  "sourcePath": "/home/kojche/Documents/projects/alyra/certif-alyra/yu-go-dao/Truffle/contracts/YugoDao.sol",
  "compiler": {
    "name": "solc",
    "version": "0.8.11+commit.d7f03943.Emscripten.clang"
  },
  "schemaVersion": "3.4.3",
  "updatedAt": "2022-01-12T21:53:15.650Z",
  "networkType": "ethereum",
  "devdoc": {
    "errors": {
      "Unauthorized()": [
        {
          "details": "Sender not authorized for this operation."
        }
      ]
    },
    "kind": "dev",
    "methods": {
      "addContest(string,uint256[],uint256[],uint256,uint256,uint256)": {
        "details": "Emit ContestCreated event",
        "params": {
          "_applicationEndDate": "End Date of application period ",
          "_eligibleCountryIds": "List of country IDs",
          "_funds": "Value of funds ",
          "_name": "Name of the contest",
          "_themeIds": "List of thematics IDs",
          "_votingEndDate": "End Date of voting period "
        }
      },
      "addParticipant(address,address)": {
        "details": "Emit ParticipantWhitelisted event",
        "params": {
          "_addrOrga": "address of organisation",
          "_addrParticipant": "address of particapant "
        }
      },
      "createAction(address,string,uint256)": {
        "details": "Emit ActionCreated event",
        "params": {
          "_creatorOfContest": "Address of creator ",
          "_name": "Name of Action",
          "_requiredFunds": "Value of funds"
        }
      },
      "getCountries()": {
        "returns": {
          "_0": "countryList List of countries"
        }
      },
      "getThematics()": {
        "returns": {
          "_0": "themeList List of thematics"
        }
      },
      "organisationRegistrationStatus(address)": {
        "params": {
          "_orga": "Address of organisation"
        },
        "returns": {
          "_0": "State of isRegistered, true if organisation is registered"
        }
      },
      "participantIsWhiteListed(address,address)": {
        "details": "Can be called either by an organisation or a participant",
        "params": {
          "_addrOrganisation": "Organisation's address",
          "_addrParticipant": "Participant's address"
        },
        "returns": {
          "_0": "True if the address exists, false if not"
        }
      },
      "registerOrganisation(uint256[],uint256)": {
        "details": "Creates a mapping for the sender in organisationEmit OrganizationRegistered event",
        "params": {
          "countryId": "Country id ",
          "thematicIds": "List of thematics id"
        }
      },
      "removeFromWhitelist(address)": {
        "details": "Emit ParticipantRemoved event",
        "params": {
          "_addrToDelete": "the ethAddress of the participant to be deleted "
        }
      },
      "tallyVote(address)": {
        "details": "Emit VoteTallied event",
        "params": {
          "_contestCreator": "Address of Contest creator "
        }
      },
      "voteForAction(address,address)": {
        "details": "At each vote, we compare voteNumber of the winning Action with newly voted one. If tie, then push in arrayEmit HasVotedForAction event",
        "params": {
          "_actionCreator": "Address of Action creator",
          "_contestCreator": "Address of Contest creator "
        }
      }
    },
    "title": "Smart Contract for the DAO",
    "version": 1
  },
  "userdoc": {
    "kind": "user",
    "methods": {
      "addContest(string,uint256[],uint256[],uint256,uint256,uint256)": {
        "notice": "Add a contest"
      },
      "addParticipant(address,address)": {
        "notice": "Adds a particapants to a organisation"
      },
      "createAction(address,string,uint256)": {
        "notice": "Creates a action"
      },
      "getCountries()": {
        "notice": "Return the list of countries"
      },
      "getThematics()": {
        "notice": "Return the list of thematics"
      },
      "organisationRegistrationStatus(address)": {
        "notice": "Returns if organisation is registered"
      },
      "participantIsWhiteListed(address,address)": {
        "notice": "Returns true if the participant is whitelisted"
      },
      "registerOrganisation(uint256[],uint256)": {
        "notice": "Registers an Organisation"
      },
      "removeFromWhitelist(address)": {
        "notice": "allows the organisation (msg.sender) to delete a member from its whitelist"
      },
      "tallyVote(address)": {
        "notice": "Tally the vote"
      },
      "voteForAction(address,address)": {
        "notice": "Vote for a Action"
      }
    },
    "notice": "This Smart contract stores all vote history ",
    "version": 1
  }
}