{
  "contractName": "YugoManager",
  "abi": [
    {
      "anonymous": false,
      "inputs": [
        {
          "indexed": false,
          "internalType": "address",
          "name": "yugo",
          "type": "address"
        },
        {
          "indexed": false,
          "internalType": "address",
          "name": "yugodao",
          "type": "address"
        }
      ],
      "name": "ContractsAddrSet",
      "type": "event"
    },
    {
      "anonymous": false,
      "inputs": [
        {
          "indexed": false,
          "internalType": "address",
          "name": "organisation",
          "type": "address"
        }
      ],
      "name": "FundsTransferedToWinner",
      "type": "event"
    },
    {
      "anonymous": false,
      "inputs": [
        {
          "indexed": true,
          "internalType": "address",
          "name": "previousOwner",
          "type": "address"
        },
        {
          "indexed": true,
          "internalType": "address",
          "name": "newOwner",
          "type": "address"
        }
      ],
      "name": "OwnershipTransferred",
      "type": "event"
    },
    {
      "anonymous": false,
      "inputs": [
        {
          "indexed": false,
          "internalType": "address",
          "name": "organisation",
          "type": "address"
        },
        {
          "indexed": false,
          "internalType": "uint256",
          "name": "value",
          "type": "uint256"
        }
      ],
      "name": "Received",
      "type": "event"
    },
    {
      "anonymous": false,
      "inputs": [
        {
          "indexed": false,
          "internalType": "address",
          "name": "organisation",
          "type": "address"
        }
      ],
      "name": "TokenPurchasedBy",
      "type": "event"
    },
    {
      "anonymous": false,
      "inputs": [
        {
          "indexed": false,
          "internalType": "address",
          "name": "recipient",
          "type": "address"
        },
        {
          "indexed": false,
          "internalType": "uint256",
          "name": "amount",
          "type": "uint256"
        }
      ],
      "name": "YugoTransfer",
      "type": "event"
    },
    {
      "inputs": [],
      "name": "owner",
      "outputs": [
        {
          "internalType": "address",
          "name": "",
          "type": "address"
        }
      ],
      "stateMutability": "view",
      "type": "function",
      "constant": true
    },
    {
      "inputs": [],
      "name": "renounceOwnership",
      "outputs": [],
      "stateMutability": "nonpayable",
      "type": "function"
    },
    {
      "inputs": [
        {
          "internalType": "address",
          "name": "newOwner",
          "type": "address"
        }
      ],
      "name": "transferOwnership",
      "outputs": [],
      "stateMutability": "nonpayable",
      "type": "function"
    },
    {
      "stateMutability": "payable",
      "type": "receive",
      "payable": true
    },
    {
      "inputs": [
        {
          "internalType": "address",
          "name": "_yugo",
          "type": "address"
        },
        {
          "internalType": "address",
          "name": "_dao",
          "type": "address"
        }
      ],
      "name": "setContractsAddresses",
      "outputs": [],
      "stateMutability": "nonpayable",
      "type": "function"
    },
    {
      "inputs": [
        {
          "internalType": "address payable",
          "name": "_to",
          "type": "address"
        },
        {
          "internalType": "uint256",
          "name": "_amount",
          "type": "uint256"
        }
      ],
      "name": "withdrawEth",
      "outputs": [],
      "stateMutability": "payable",
      "type": "function",
      "payable": true
    },
    {
      "inputs": [
        {
          "internalType": "address",
          "name": "account",
          "type": "address"
        }
      ],
      "name": "yugoBalanceOf",
      "outputs": [
        {
          "internalType": "uint256",
          "name": "",
          "type": "uint256"
        }
      ],
      "stateMutability": "view",
      "type": "function",
      "constant": true
    },
    {
      "inputs": [
        {
          "internalType": "address",
          "name": "_account",
          "type": "address"
        }
      ],
      "name": "hasEthDeposit",
      "outputs": [
        {
          "internalType": "bool",
          "name": "_ledgerState",
          "type": "bool"
        }
      ],
      "stateMutability": "view",
      "type": "function",
      "constant": true
    },
    {
      "inputs": [],
      "name": "transferYugo",
      "outputs": [],
      "stateMutability": "nonpayable",
      "type": "function"
    }
  ],
  "bytecode": "0x608060405267016345785d8a000060035534801561001c57600080fd5b506100263361002b565b61007b565b600080546001600160a01b038381166001600160a01b0319831681178455604051919092169283917f8be0079c531659141344cd1fd0a4f28419497f9722a3daafe3b4186f6b6457e09190a35050565b610ca08061008a6000396000f3fe60806040526004361061007f5760003560e01c80638da5cb5b1161004e5780638da5cb5b14610394578063d8437ab3146103bc578063f2fde38b146103dc578063fd66d981146103fc57600080fd5b8063056e7597146103225780631b9a91a41461033957806364e2a0e01461034c578063715018a61461037f57600080fd5b3661031d57600254604051635eb94b9960e11b81523360048201526001600160a01b039091169063bd729732906024016020604051808303816000875af11580156100ce573d6000803e3d6000fd5b505050506040513d601f19601f820116820180604052508101906100f29190610a11565b15156001146101605760405162461bcd60e51b815260206004820152602f60248201527f796f75206e65656420746f206265207265676973746572656420746f2070757260448201526e31b430b9b2903a3432903a37b5b2b760891b60648201526084015b60405180910390fd5b33600090815260046020526040902054156101bd5760405162461bcd60e51b815260206004820152601760248201527f796f752068617665206d6164652061206465706f7369740000000000000000006044820152606401610157565b6001546040516370a0823160e01b81523360048201526001600160a01b03909116906370a0823190602401602060405180830381865afa158015610205573d6000803e3d6000fd5b505050506040513d601f19601f820116820180604052508101906102299190610a3a565b156102765760405162461bcd60e51b815260206004820152601d60248201527f796f7520616c726561647920707572636861736564206120746f6b656e0000006044820152606401610157565b60035434146102ba5760405162461bcd60e51b815260206004820152601060248201526f1ddc9bdb99c811551208185b5bdd5b9d60821b6044820152606401610157565b33600081815260046020908152604080832034908190556005835292819020805460ff191660011790558051938452908301919091527f88a5966d370b9919b20f3e2c13ff65706f196a4e32cc2c12bf57088f88525874910160405180910390a1005b600080fd5b34801561032e57600080fd5b50610337610448565b005b610337610347366004610a68565b6106a7565b34801561035857600080fd5b5061036c610367366004610a94565b610770565b6040519081526020015b60405180910390f35b34801561038b57600080fd5b506103376107e5565b3480156103a057600080fd5b506000546040516001600160a01b039091168152602001610376565b3480156103c857600080fd5b506103376103d7366004610ab1565b61081b565b3480156103e857600080fd5b506103376103f7366004610a94565b610926565b34801561040857600080fd5b50610438610417366004610a94565b6003546001600160a01b039091166000908152600460205260409020541490565b6040519015158152602001610376565b60065460ff161561048c5760405162461bcd60e51b815260206004820152600e60248201526d4e6f2072652d656e7472616e637960901b6044820152606401610157565b6006805460ff1916600117905560035433600090815260046020526040902054146104ef5760405162461bcd60e51b81526020600482015260136024820152721b9bc8115512081dd85cc81c9958d95a5d9959606a1b6044820152606401610157565b3360009081526005602052604090205460ff1615156001146105535760405162461bcd60e51b815260206004820152601e60248201527f596f7520616c726561647920726563656976656420796f7572205975676f00006044820152606401610157565b336000908152600560209081526040808320805460ff19169055600154815163313ce56760e01b815291516001600160a01b039091169263313ce56792600480820193918290030181865afa1580156105b0573d6000803e3d6000fd5b505050506040513d601f19601f820116820180604052508101906105d49190610aea565b6105df90600a610c07565b6105ea906001610c16565b60015460405163a9059cbb60e01b8152336004820152602481018390529192506001600160a01b03169063a9059cbb906044016020604051808303816000875af115801561063c573d6000803e3d6000fd5b505050506040513d601f19601f820116820180604052508101906106609190610a11565b5060408051338152602081018390527fe94c6e629948b607c16a4b9710b4e775200e3c7963e20b6cbb8dccc8da65d870910160405180910390a1506006805460ff19169055565b6000546001600160a01b031633146106d15760405162461bcd60e51b815260040161015790610c35565b6000826001600160a01b03168260405160006040518083038185875af1925050503d806000811461071e576040519150601f19603f3d011682016040523d82523d6000602084013e610723565b606091505b505090508061076b5760405162461bcd60e51b81526020600482015260146024820152732330b4b632b2103a379039b2b7321022ba3432b960611b6044820152606401610157565b505050565b6001546040516370a0823160e01b81526001600160a01b03838116600483015260009216906370a0823190602401602060405180830381865afa1580156107bb573d6000803e3d6000fd5b505050506040513d601f19601f820116820180604052508101906107df9190610a3a565b92915050565b6000546001600160a01b0316331461080f5760405162461bcd60e51b815260040161015790610c35565b61081960006109c1565b565b6000546001600160a01b031633146108455760405162461bcd60e51b815260040161015790610c35565b600654610100900460ff16156108a95760405162461bcd60e51b815260206004820152602360248201527f416c6c20636f6e747261637473206861766520616c7265616479206265656e206044820152621cd95d60ea1b6064820152608401610157565b6006805461ff001916610100179055600180546001600160a01b038481166001600160a01b03199283168117909355600280549185169190921681179091556040805192835260208301919091527f9002c211abd499252e56273224dd6a3f259ba469ff482e4e6e4a13fb3d6b154e910160405180910390a15050565b6000546001600160a01b031633146109505760405162461bcd60e51b815260040161015790610c35565b6001600160a01b0381166109b55760405162461bcd60e51b815260206004820152602660248201527f4f776e61626c653a206e6577206f776e657220697320746865207a65726f206160448201526564647265737360d01b6064820152608401610157565b6109be816109c1565b50565b600080546001600160a01b038381166001600160a01b0319831681178455604051919092169283917f8be0079c531659141344cd1fd0a4f28419497f9722a3daafe3b4186f6b6457e09190a35050565b600060208284031215610a2357600080fd5b81518015158114610a3357600080fd5b9392505050565b600060208284031215610a4c57600080fd5b5051919050565b6001600160a01b03811681146109be57600080fd5b60008060408385031215610a7b57600080fd5b8235610a8681610a53565b946020939093013593505050565b600060208284031215610aa657600080fd5b8135610a3381610a53565b60008060408385031215610ac457600080fd5b8235610acf81610a53565b91506020830135610adf81610a53565b809150509250929050565b600060208284031215610afc57600080fd5b815160ff81168114610a3357600080fd5b634e487b7160e01b600052601160045260246000fd5b600181815b80851115610b5e578160001904821115610b4457610b44610b0d565b80851615610b5157918102915b93841c9390800290610b28565b509250929050565b600082610b75575060016107df565b81610b82575060006107df565b8160018114610b985760028114610ba257610bbe565b60019150506107df565b60ff841115610bb357610bb3610b0d565b50506001821b6107df565b5060208310610133831016604e8410600b8410161715610be1575081810a6107df565b610beb8383610b23565b8060001904821115610bff57610bff610b0d565b029392505050565b6000610a3360ff841683610b66565b6000816000190483118215151615610c3057610c30610b0d565b500290565b6020808252818101527f4f776e61626c653a2063616c6c6572206973206e6f7420746865206f776e657260408201526060019056fea2646970667358221220583b9310dcd0a52bd8de8142d759c2934600fd40f35d25f3e0585ef687ff0b6964736f6c634300080b0033",
  "immutableReferences": {},
  "source": "// SPDX-License-Identifier: GPL-3.0\r\npragma solidity 0.8.11;\r\n\r\nimport \"@openzeppelin/contracts/access/Ownable.sol\";\r\nimport \"./interfaces/IYugo.sol\";\r\nimport \"./interfaces/IYugoDao.sol\";\r\n\r\n/**\r\n* @notice This smart contract allows you to purchase and claim your Yugo Token \r\n*/\r\ncontract YugoManager is Ownable {\r\n\r\n    IYugo private yugo;\r\n    IYugoDao private yugoDao;\r\n\r\n    uint yugoTokenCost = 0.1 ether; \r\n    mapping (address => uint) EthLedger;\r\n    mapping (address => bool) EligibleToClaimYugo;\r\n    bool internal locked;\r\n    bool private AllAddrSet;\r\n\r\n    modifier noReentrant() {\r\n        require(!locked, \"No re-entrancy\");\r\n        locked = true;\r\n        _;\r\n        locked = false;\r\n    }\r\n\r\n    event YugoTransfer (address recipient, uint256 amount);\r\n    event Received(address organisation, uint value);\r\n    event TokenPurchasedBy(address organisation);\r\n    event FundsTransferedToWinner(address organisation);\r\n    event ContractsAddrSet(address yugo, address yugodao);\r\n\r\n    // receive() external payable {\r\n    //     purchaseYugo();\r\n    // }\r\n\r\n    /**\r\n    * @notice Set smart contract addresses of YugoDao and VerifySignature\r\n    * @param _yugo Address of YugoToken\r\n    * @param _dao Address of YugoDao\r\n    */\r\n    function setContractsAddresses(address _yugo, address _dao) external onlyOwner {\r\n        require(!AllAddrSet, \"All contracts have already been set\");\r\n        AllAddrSet = true;\r\n        yugo = IYugo(_yugo);\r\n        yugoDao = IYugoDao(_dao);\r\n        emit ContractsAddrSet(_yugo, _dao);\r\n    }\r\n        \r\n     /**\r\n    * @notice receives ETH\r\n    * @dev verifies that the organisation is registered\r\n    * @dev verifies that the caller did not purchase a token before (token are burned at subscription deadline). \r\n    * @dev verifies that the ETH sent equals the token price\r\n    */\r\n    receive() external payable {\r\n        require(yugoDao.organisationRegistrationStatus(msg.sender) == true, 'you need to be registered to purchase the token');\r\n        require(EthLedger[msg.sender] == 0, 'you have made a deposit');\r\n        require(yugo.balanceOf(msg.sender) == 0, \"you already purchased a token\");\r\n        require(msg.value == yugoTokenCost, \"wrong ETH amount\");\r\n        EthLedger[msg.sender] = msg.value; // specifies that ETH was deposited\r\n        EligibleToClaimYugo[msg.sender] = true; //specifies that Yugo can now be claimed by the caller\r\n        emit Received(msg.sender, msg.value);\r\n    }\r\n\r\n    /**\r\n    * @notice sends ETH to pay for the project expenditures, only the admin can call it.  \r\n    * @param _to - the address of a staff member\r\n    * @param _amount - the amount to send to the recipient\r\n    * @dev requires success\r\n    */\r\n    function withdrawEth(address payable _to, uint _amount) public payable onlyOwner {\r\n        (bool success, ) = _to.call{value: _amount}(\"\");\r\n        require(success, \"Failed to send Ether\");\r\n    }\r\n\r\n    /**\r\n    * @notice checks the Yugo balance of an account\r\n    * @return a balance type uint256\r\n    */\r\n    function yugoBalanceOf(address account) public view returns (uint256) {\r\n        return yugo.balanceOf(account);\r\n    }\r\n\r\n    /**\r\n    * @notice Returns deposit state of organization\r\n    * @return _ledgerState boolean true if organisation has deposit for yugo token\r\n    */\r\n    function hasEthDeposit(address _account) external view returns(bool _ledgerState) {        \r\n        _ledgerState = EthLedger[_account] == yugoTokenCost;\r\n        return _ledgerState;\r\n    }\r\n\r\n    /**\r\n    * @notice claim Yugo token \r\n    * @dev the ETH ledger of the caller must show that the token was purchased\r\n    * @dev The Yugo Ledger of the caller must be at 0. <br />\r\n    * Either because it is a first time purchase or because the period of validity of the token has passed\r\n    * and must be renewed. <br />\r\n    * @dev Re-entrancy - the noReentrant modifier ensures that the function can not\r\n    * be run multiple times in parallel. The function is locked until it finishes.  <br />\r\n    * @dev Pull-Over-Push - the token was not sent after purchase but the buyer was marked as \r\n    * eligible to claim the token. Afterwards, the condition of eligibility is updated before \r\n    * the transfer. \r\n    */\r\n    function transferYugo() external noReentrant {\r\n        require(EthLedger[msg.sender] == yugoTokenCost, \"no ETH was received\");\r\n        require(EligibleToClaimYugo[msg.sender] == true, \"You already received your Yugo\");\r\n        EligibleToClaimYugo[msg.sender] = false;\r\n        uint256 amount = 1*10**yugo.decimals();\r\n        yugo.transfer(msg.sender, amount);\r\n        emit YugoTransfer(msg.sender, amount);\r\n    }\r\n\r\n\r\n    // TODO:function verifyByOracle orga\r\n\r\n}",
  "sourcePath": "D:\\workspace\\alyra\\YU-GO\\Truffle\\contracts\\YugoManager.sol",
  "compiler": {
    "name": "solc",
    "version": "0.8.11+commit.d7f03943.Emscripten.clang"
  },
  "schemaVersion": "3.4.3",
  "updatedAt": "2022-01-26T15:38:19.945Z",
  "networkType": "ethereum",
  "devdoc": {
    "kind": "dev",
    "methods": {
      "hasEthDeposit(address)": {
        "returns": {
          "_ledgerState": "boolean true if organisation has deposit for yugo token"
        }
      },
      "owner()": {
        "details": "Returns the address of the current owner."
      },
      "renounceOwnership()": {
        "details": "Leaves the contract without owner. It will not be possible to call `onlyOwner` functions anymore. Can only be called by the current owner. NOTE: Renouncing ownership will leave the contract without an owner, thereby removing any functionality that is only available to the owner."
      },
      "setContractsAddresses(address,address)": {
        "params": {
          "_dao": "Address of YugoDao",
          "_yugo": "Address of YugoToken"
        }
      },
      "transferOwnership(address)": {
        "details": "Transfers ownership of the contract to a new account (`newOwner`). Can only be called by the current owner."
      },
      "transferYugo()": {
        "details": "the ETH ledger of the caller must show that the token was purchasedThe Yugo Ledger of the caller must be at 0. <br /> Either because it is a first time purchase or because the period of validity of the token has passed and must be renewed. <br />Re-entrancy - the noReentrant modifier ensures that the function can not be run multiple times in parallel. The function is locked until it finishes.  <br />Pull-Over-Push - the token was not sent after purchase but the buyer was marked as  eligible to claim the token. Afterwards, the condition of eligibility is updated before  the transfer. "
      },
      "withdrawEth(address,uint256)": {
        "details": "requires success",
        "params": {
          "_amount": "- the amount to send to the recipient",
          "_to": "- the address of a staff member"
        }
      },
      "yugoBalanceOf(address)": {
        "returns": {
          "_0": "a balance type uint256"
        }
      }
    },
    "version": 1
  },
  "userdoc": {
    "kind": "user",
    "methods": {
      "hasEthDeposit(address)": {
        "notice": "Returns deposit state of organization"
      },
      "setContractsAddresses(address,address)": {
        "notice": "Set smart contract addresses of YugoDao and VerifySignature"
      },
      "transferYugo()": {
        "notice": "claim Yugo token "
      },
      "withdrawEth(address,uint256)": {
        "notice": "sends ETH to pay for the project expenditures, only the admin can call it.  "
      },
      "yugoBalanceOf(address)": {
        "notice": "checks the Yugo balance of an account"
      }
    },
    "notice": "This smart contract allows you to purchase and claim your Yugo Token ",
    "version": 1
  }
}