{
  "contractName": "YugoDao",
  "abi": [
    {
      "inputs": [
        {
          "internalType": "address",
          "name": "_yugo",
          "type": "address"
        }
      ],
      "stateMutability": "nonpayable",
      "type": "constructor"
    },
    {
      "inputs": [],
      "name": "Unauthorized",
      "type": "error"
    },
    {
      "anonymous": false,
      "inputs": [
        {
          "indexed": false,
          "internalType": "address",
          "name": "addressContestCreator",
          "type": "address"
        },
        {
          "indexed": false,
          "internalType": "address",
          "name": "addressActionCreator",
          "type": "address"
        },
        {
          "indexed": false,
          "internalType": "string",
          "name": "actionName",
          "type": "string"
        },
        {
          "indexed": false,
          "internalType": "uint256",
          "name": "requiredFunds",
          "type": "uint256"
        }
      ],
      "name": "ActionCreated",
      "type": "event"
    },
    {
      "anonymous": false,
      "inputs": [
        {
          "indexed": false,
          "internalType": "address",
          "name": "addressContestCreator",
          "type": "address"
        },
        {
          "indexed": false,
          "internalType": "address",
          "name": "addressActioncreator",
          "type": "address"
        },
        {
          "indexed": false,
          "internalType": "string",
          "name": "actionName",
          "type": "string"
        }
      ],
      "name": "ActionDeleted",
      "type": "event"
    },
    {
      "anonymous": false,
      "inputs": [
        {
          "indexed": false,
          "internalType": "address",
          "name": "addressOrga",
          "type": "address"
        },
        {
          "indexed": false,
          "internalType": "string",
          "name": "name",
          "type": "string"
        },
        {
          "indexed": false,
          "internalType": "uint256",
          "name": "funds",
          "type": "uint256"
        }
      ],
      "name": "ContestCreated",
      "type": "event"
    },
    {
      "anonymous": false,
      "inputs": [
        {
          "indexed": false,
          "internalType": "address",
          "name": "addressContestCreator",
          "type": "address"
        },
        {
          "indexed": false,
          "internalType": "address",
          "name": "addressActionCreator",
          "type": "address"
        },
        {
          "indexed": false,
          "internalType": "address",
          "name": "voterAddress",
          "type": "address"
        }
      ],
      "name": "HasVotedForAction",
      "type": "event"
    },
    {
      "anonymous": false,
      "inputs": [
        {
          "indexed": false,
          "internalType": "address",
          "name": "addressOrga",
          "type": "address"
        }
      ],
      "name": "OrganizationRegistered",
      "type": "event"
    },
    {
      "anonymous": false,
      "inputs": [
        {
          "indexed": false,
          "internalType": "address",
          "name": "addressOrga",
          "type": "address"
        },
        {
          "indexed": false,
          "internalType": "address",
          "name": "addressParticipant",
          "type": "address"
        }
      ],
      "name": "ParticipantRemoved",
      "type": "event"
    },
    {
      "anonymous": false,
      "inputs": [
        {
          "indexed": false,
          "internalType": "address",
          "name": "addressParticipant",
          "type": "address"
        },
        {
          "indexed": false,
          "internalType": "address",
          "name": "addressOrganization",
          "type": "address"
        }
      ],
      "name": "ParticipantWhitelisted",
      "type": "event"
    },
    {
      "anonymous": false,
      "inputs": [
        {
          "indexed": false,
          "internalType": "address",
          "name": "addressContestCreator",
          "type": "address"
        },
        {
          "indexed": false,
          "internalType": "address[]",
          "name": "addressActionCreator",
          "type": "address[]"
        },
        {
          "indexed": false,
          "internalType": "uint256",
          "name": "nbVotes",
          "type": "uint256"
        }
      ],
      "name": "VoteTallied",
      "type": "event"
    },
    {
      "inputs": [],
      "name": "yugo",
      "outputs": [
        {
          "internalType": "contract IYugo",
          "name": "",
          "type": "address"
        }
      ],
      "stateMutability": "view",
      "type": "function",
      "constant": true
    },
    {
      "inputs": [],
      "name": "getThematics",
      "outputs": [
        {
          "internalType": "string[]",
          "name": "",
          "type": "string[]"
        }
      ],
      "stateMutability": "view",
      "type": "function",
      "constant": true
    },
    {
      "inputs": [],
      "name": "getCountries",
      "outputs": [
        {
          "internalType": "string[]",
          "name": "",
          "type": "string[]"
        }
      ],
      "stateMutability": "view",
      "type": "function",
      "constant": true
    },
    {
      "inputs": [
        {
          "internalType": "uint256[]",
          "name": "thematicIds",
          "type": "uint256[]"
        },
        {
          "internalType": "uint256",
          "name": "countryId",
          "type": "uint256"
        }
      ],
      "name": "registerOrganisation",
      "outputs": [],
      "stateMutability": "nonpayable",
      "type": "function"
    },
    {
      "inputs": [
        {
          "internalType": "address",
          "name": "_orga",
          "type": "address"
        }
      ],
      "name": "organisationRegistrationStatus",
      "outputs": [
        {
          "internalType": "bool",
          "name": "",
          "type": "bool"
        }
      ],
      "stateMutability": "view",
      "type": "function",
      "constant": true
    },
    {
      "inputs": [
        {
          "internalType": "address",
          "name": "_addrOrganisation",
          "type": "address"
        },
        {
          "internalType": "address",
          "name": "_addrParticipant",
          "type": "address"
        }
      ],
      "name": "participantIsWhiteListed",
      "outputs": [
        {
          "internalType": "bool",
          "name": "",
          "type": "bool"
        }
      ],
      "stateMutability": "view",
      "type": "function",
      "constant": true
    },
    {
      "inputs": [
        {
          "internalType": "address",
          "name": "_addrToDelete",
          "type": "address"
        }
      ],
      "name": "removeFromWhitelist",
      "outputs": [],
      "stateMutability": "nonpayable",
      "type": "function"
    },
    {
      "inputs": [
        {
          "internalType": "address",
          "name": "_addrOrga",
          "type": "address"
        },
        {
          "internalType": "address",
          "name": "_addrParticipant",
          "type": "address"
        }
      ],
      "name": "addParticipant",
      "outputs": [],
      "stateMutability": "nonpayable",
      "type": "function"
    },
    {
      "inputs": [
        {
          "internalType": "string",
          "name": "_name",
          "type": "string"
        },
        {
          "internalType": "uint256[]",
          "name": "_themeIds",
          "type": "uint256[]"
        },
        {
          "internalType": "uint256[]",
          "name": "_eligibleCountryIds",
          "type": "uint256[]"
        },
        {
          "internalType": "uint256",
          "name": "_applicationEndDate",
          "type": "uint256"
        },
        {
          "internalType": "uint256",
          "name": "_votingEndDate",
          "type": "uint256"
        },
        {
          "internalType": "uint256",
          "name": "_funds",
          "type": "uint256"
        }
      ],
      "name": "addContest",
      "outputs": [],
      "stateMutability": "nonpayable",
      "type": "function"
    },
    {
      "inputs": [
        {
          "internalType": "address",
          "name": "_creatorOfContest",
          "type": "address"
        },
        {
          "internalType": "string",
          "name": "_name",
          "type": "string"
        },
        {
          "internalType": "uint256",
          "name": "_requiredFunds",
          "type": "uint256"
        }
      ],
      "name": "createAction",
      "outputs": [],
      "stateMutability": "nonpayable",
      "type": "function"
    },
    {
      "inputs": [
        {
          "internalType": "address",
          "name": "_creatorOfContest",
          "type": "address"
        }
      ],
      "name": "deleteActions",
      "outputs": [],
      "stateMutability": "nonpayable",
      "type": "function"
    },
    {
      "inputs": [
        {
          "internalType": "address",
          "name": "_creatorOfContest",
          "type": "address"
        },
        {
          "internalType": "address",
          "name": "_actionCreator",
          "type": "address"
        }
      ],
      "name": "voteForAction",
      "outputs": [],
      "stateMutability": "nonpayable",
      "type": "function"
    },
    {
      "inputs": [
        {
          "internalType": "address",
          "name": "_creatorOfContest",
          "type": "address"
        }
      ],
      "name": "tallyVote",
      "outputs": [],
      "stateMutability": "nonpayable",
      "type": "function"
    }
  ],
  "bytecode": "0x60096101e08181526832b23ab1b0ba34b7b760b91b610200526080908152600b6102208181526a747261666669636b696e6760a81b6102405260a052601161026081815270646f6d65737469632076696f6c656e636560781b6102805260c05260106102a09081526f1ddbdb595b89dcc81b5bdd995b595b9d60821b6102c05260e0526102e09384526863616d706169676e7360b81b6103005261010093909352600a610320908152693937b6b0903bb7b6b2b760b11b61034052610120526008610360908152676964656e7469747960c01b610380526101405260076103a0908152666c6f6262696e6760c81b6103c0526101605260136103e09081527f6d617267696e616c697a65642067726f757073000000000000000000000000006104005261018052610420928352701cd95e1d585b081a185c985cdcdb595b9d607a1b610440526101a0929092526104a0604052600e6104609081526d776f6d656e27732072696768747360901b610480526101c05262000183916004919062000544565b506040805161010081018252600660c082018181526553657262696160d01b60e0840152825282518084018452600781526643726f6174696160c81b6020828101919091528084019190915283518085018552600a8152694d6f6e74656e6567726f60b01b818301528385015283518085018552601681527f426f736e696120616e64204865726365676f76696e6100000000000000000000818301526060840152835180850185526008815267536c6f76656e696160c01b818301526080840152835180850190945260098452684d616365646f6e696160b81b9084015260a0820192909252620002799160059190620005a8565b503480156200028757600080fd5b50604051620025fb380380620025fb833981016040819052620002aa91620006ff565b620002b4620002e4565b620002be62000416565b600680546001600160a01b0319166001600160a01b0392909216919091179055620007d2565b60045460005b620002f760018362000747565b8110156200041257604080518082019091526060602082015281815260048054839081106200032a576200032a62000761565b906000526020600020018054620003419062000777565b80601f01602080910402602001604051908101604052809291908181526020018280546200036f9062000777565b8015620003c05780601f106200039457610100808354040283529160200191620003c0565b820191906000526020600020905b815481529060010190602001808311620003a257829003601f168201915b50505050602080840192835260008581526003825260409020845181559251805185949350620003f79260018501920190620005fa565b509050505080806200040990620007b4565b915050620002ea565b5050565b60055460005b6200042960018362000747565b8110156200041257604080518082019091526060602082015281815260058054839081106200045c576200045c62000761565b906000526020600020018054620004739062000777565b80601f0160208091040260200160405190810160405280929190818152602001828054620004a19062000777565b8015620004f25780601f10620004c657610100808354040283529160200191620004f2565b820191906000526020600020905b815481529060010190602001808311620004d457829003601f168201915b50505050602080840192835260008581526002825260409020845181559251805185949350620005299260018501920190620005fa565b509050505080806200053b90620007b4565b9150506200041c565b82805482825590600052602060002090810192821562000596579160200282015b8281111562000596578251805162000585918491602090910190620005fa565b509160200191906001019062000565565b50620005a492915062000685565b5090565b82805482825590600052602060002090810192821562000596579160200282015b82811115620005965782518051620005e9918491602090910190620005fa565b5091602001919060010190620005c9565b828054620006089062000777565b90600052602060002090601f0160209004810192826200062c576000855562000677565b82601f106200064757805160ff191683800117855562000677565b8280016001018555821562000677579182015b82811115620006775782518255916020019190600101906200065a565b50620005a4929150620006a6565b80821115620005a45760006200069c8282620006bd565b5060010162000685565b5b80821115620005a45760008155600101620006a7565b508054620006cb9062000777565b6000825580601f10620006dc575050565b601f016020900490600052602060002090810190620006fc9190620006a6565b50565b6000602082840312156200071257600080fd5b81516001600160a01b03811681146200072a57600080fd5b9392505050565b634e487b7160e01b600052601160045260246000fd5b6000828210156200075c576200075c62000731565b500390565b634e487b7160e01b600052603260045260246000fd5b600181811c908216806200078c57607f821691505b60208210811415620007ae57634e487b7160e01b600052602260045260246000fd5b50919050565b6000600019821415620007cb57620007cb62000731565b5060010190565b611e1980620007e26000396000f3fe608060405234801561001057600080fd5b50600436106100cf5760003560e01c80638ab1d6811161008c578063beca800911610066578063beca8009146101d0578063d35ada32146101d8578063d67091c7146101eb578063eb0934df146101fe57600080fd5b80638ab1d681146101675780639aa7ca421461017a578063bd7297321461018d57600080fd5b80631426f78f146100d4578063180d3e3d146100e957806322370265146100fc5780632db2c04f1461012c5780636bf9fe171461013f57806381530e4714610154575b600080fd5b6100e76100e23660046118a7565b61023b565b005b6100e76100f73660046118da565b610697565b60065461010f906001600160a01b031681565b6040516001600160a01b0390911681526020015b60405180910390f35b6100e761013a366004611a33565b6108d6565b610147610afa565b6040516101239190611b24565b6100e7610162366004611b86565b610bd3565b6100e76101753660046118da565b610d3a565b6100e76101883660046118da565b610e28565b6101c061019b3660046118da565b6001600160a01b0316600090815260016020526040902054600160a01b900460ff1690565b6040519015158152602001610123565b610147610f21565b6100e76101e63660046118a7565b610ff1565b6100e76101f9366004611bcb565b611169565b6101c061020c3660046118a7565b6001600160a01b0391821660009081526001602081815260408084209490951683529201909152205460ff1690565b6001600160a01b03821660009081526020819052604090206005015442908110156102a65760405162461bcd60e51b8152602060048201526016602482015275159bdd1a5b99c81a185cc81b9bdd081cdd185c9d195960521b60448201526064015b60405180910390fd5b6001600160a01b03831660009081526020819052604090206006015481106103035760405162461bcd60e51b815260206004820152601060248201526f159bdd1a5b99c81a5cc818db1bdcd95960821b604482015260640161029d565b336001600160a01b038416148015906103255750336001600160a01b03831614155b6103715760405162461bcd60e51b815260206004820181905260248201527f596f752063616e206e6f7420766f746520666f72207468697320616374696f6e604482015260640161029d565b6001600160a01b03831660009081526020818152604080832033845260010190915290205460ff16156103df5760405162461bcd60e51b8152602060048201526016602482015275165bdd481a185d9948185b1c9958591e481d9bdd195960521b604482015260640161029d565b6001600160a01b03808416600090815260208181526040808320938616835260029093019052908120600190810180549192909161041e908490611c38565b90915550506001600160a01b03831660008181526020818152604080832033845260018181018452918420805460ff191690921790915592825252600901546104a5576001600160a01b038381166000908152602081815260408220600901805460018101825590835291200180546001600160a01b031916918416919091179055610644565b6001600160a01b0380841660008181526020818152604080832094871683526002850180835290832060010154938352908290526009909301805492939282906104f1576104f1611c50565b60009182526020808320909101546001600160a01b03168352820192909252604001902060010154101561058a576001600160a01b03831660009081526020819052604081206105469160099091019061175d565b6001600160a01b038381166000908152602081815260408220600901805460018101825590835291200180546001600160a01b031916918416919091179055610644565b6001600160a01b0380841660008181526020818152604080832094871683526002850180835290832060010154938352908290526009909301805492939282906105d6576105d6611c50565b60009182526020808320909101546001600160a01b031683528201929092526040019020600101541415610644576001600160a01b038381166000908152602081815260408220600901805460018101825590835291200180546001600160a01b0319169184169190911790555b604080516001600160a01b0380861682528416602082015233918101919091527f9a996e61e46622216dcf6afd942a2c58023089cde9ed06bbf46ad67ec7814858906060015b60405180910390a1505050565b6001600160a01b03811660009081526020818152604080832033845260020190915290206003015460ff166107255760405162461bcd60e51b815260206004820152602e60248201527f796f7520646964206e6f742063726561746520616e7920616374696f6e20666f60448201526d1c881d1a1a5cc818dbdb9d195cdd60921b606482015260840161029d565b6001600160a01b038116600090815260208190526040902060050154429081106107aa5760405162461bcd60e51b815260206004820152603060248201527f566f746573206861766520737461727465642e596f752063616e6e6f7420646560448201526f3632ba32903a3434b99030b1ba34b7b760811b606482015260840161029d565b6001600160a01b038216600090815260208181526040808320338452600201909152812080546107d990611c66565b80601f016020809104026020016040519081016040528092919081815260200182805461080590611c66565b80156108525780601f1061082757610100808354040283529160200191610852565b820191906000526020600020905b81548152906001019060200180831161083557829003601f168201915b505050506001600160a01b03851660009081526020818152604080832033845260020190915281209293509050610889828261177e565b506000600182018190556002820155600301805460ff191690556040517e638117e2b363943932d75d6cf954be8104382508e43b19f271a6425be8325e9061068a90859033908590611ca1565b6006546040516370a0823160e01b81523360048201526000916001600160a01b0316906370a0823190602401602060405180830381865afa15801561091f573d6000803e3d6000fd5b505050506040513d601f19601f820116820180604052508101906109439190611cd6565b116109ab5760405162461bcd60e51b815260206004820152603260248201527f796f75206e656564205975676f20676f7665726e616e636520746f6b656e20746044820152711bc818dc99585d1948184818dbdb9d195cdd60721b606482015260840161029d565b3360009081526020819052604090206008015460ff1615610a1d5760405162461bcd60e51b815260206004820152602660248201527f4f7267616e69736174696f6e20616c72656164792063726561746564206120636044820152651bdb9d195cdd60d21b606482015260840161029d565b336000908152602081815260409091208751610a3b928901906117b8565b50336000908152602081815260409091208651610a609260039092019188019061183c565b50336000908152602081815260409091208551610a859260049092019187019061183c565b503360008181526020819052604090819020600581018690556006810185905560078101849055600801805460ff19166001179055517f98e26a339a5fc57fc1c56d81b9cc18fa5c1b2f45a4121ded1802183d3546744a91610aea9189908590611cef565b60405180910390a1505050505050565b60606004805480602002602001604051908101604052809291908181526020016000905b82821015610bca578382906000526020600020018054610b3d90611c66565b80601f0160208091040260200160405190810160405280929190818152602001828054610b6990611c66565b8015610bb65780601f10610b8b57610100808354040283529160200191610bb6565b820191906000526020600020905b815481529060010190602001808311610b9957829003601f168201915b505050505081526020019060010190610b1e565b50505050905090565b33600090815260016020526040902054600160a01b900460ff1615610c3a5760405162461bcd60e51b815260206004820152601f60248201527f4f7267616e69736174696f6e20616c7265616479207265676973746572656400604482015260640161029d565b60008251118015610c49575060015b610ca45760405162461bcd60e51b815260206004820152602660248201527f596f75206d7573742070726f76696465207468656d617469637320616e6420636044820152656f756e74727960d01b606482015260840161029d565b33600081815260016020908152604090912080546001600160a01b03191690921782558351610cd9926002019185019061183c565b503360008181526001602090815260409182902060038101859055805460ff60a01b1916600160a01b17905590519182527f2178e9c576507a4c15d3deab489af3f699a3dedbff9a7ef27c43a017027710e591015b60405180910390a15050565b3360009081526001602081815260408084206001600160a01b038616855283019091529091205460ff16151514610dc25760405162461bcd60e51b815260206004820152602660248201527f746865206164647265737320796f7520656e746572656420646f6573206e6f7460448201526508195e1a5cdd60d21b606482015260840161029d565b3360008181526001602081815260408084206001600160a01b0387168086529301825292839020805460ff1916905582519384528301527f9721b4c70a74dd00691b5fd0589b9720d9be5657dfd6e1f8072cb7f26d7ce8a891015b60405180910390a150565b6001600160a01b0381166000908152602081905260409020600601544211610e925760405162461bcd60e51b815260206004820152601b60248201527f566f74696e6720686173206e6f742066696e6973686564207965740000000000604482015260640161029d565b6001600160a01b03811660009081526020819052604081206009810180547f816521a78d4edee3cfe0a08714ff2fbbc26bbbd23f171325b3493f3f514f0bfc9385936002019183908290610ee857610ee8611c50565b60009182526020808320909101546001600160a01b031683528201929092526040908101909120600101549051610e1d93929190611d23565b60606005805480602002602001604051908101604052809291908181526020016000905b82821015610bca578382906000526020600020018054610f6490611c66565b80601f0160208091040260200160405190810160405280929190818152602001828054610f9090611c66565b8015610fdd5780601f10610fb257610100808354040283529160200191610fdd565b820191906000526020600020905b815481529060010190602001808311610fc057829003601f168201915b505050505081526020019060010190610f45565b6001600160a01b0382811660009081526001602052604090205416331461106c5760405162461bcd60e51b815260206004820152602960248201527f596f7520617265206e6f7420746865206f776e6572206f6620746865206f726760448201526830b734bd30ba34b7b760b91b606482015260840161029d565b6001600160a01b0380831660009081526001602081815260408084209486168452939091019052205460ff16156110ff5760405162461bcd60e51b815260206004820152603160248201527f4164647265737320616c72656164792077686974656c697374656420666f72206044820152703a3434b99037b933b0b734bd30ba34b7b760791b606482015260840161029d565b6001600160a01b038281166000818152600160208181526040808420958716808552958301825292839020805460ff191690921790915581519384528301919091527f6991bd45e0feec093b0c381c0561704fd19d427ded55100f5f6e1b4fe335c0829101610d2e565b6006546040516370a0823160e01b81523360048201526000916001600160a01b0316906370a0823190602401602060405180830381865afa1580156111b2573d6000803e3d6000fd5b505050506040513d601f19601f820116820180604052508101906111d69190611cd6565b1161123e5760405162461bcd60e51b815260206004820152603260248201527f796f75206e656564205975676f20676f7665726e616e636520746f6b656e2074604482015271379031b932b0ba329030b71030b1ba34b7b760711b606482015260840161029d565b6001600160a01b0383163314156112a65760405162461bcd60e51b815260206004820152602660248201527f436f6e746573742063726561746f722063616e6e6f742070726f706f736520616044820152656374696f6e7360d01b606482015260840161029d565b6001600160a01b03831660009081526020819052604090206008015460ff166113265760405162461bcd60e51b815260206004820152602c60248201527f54686973206f7267616e697a6174696f6e20646f6573206e6f7420686176652060448201526b1bdc195b8818dbdb9d195cdd60a21b606482015260840161029d565b6001600160a01b03831660009081526020818152604080832033845260020190915290206003015460ff16156113a95760405162461bcd60e51b815260206004820152602260248201527f596f75206861766520616c7265616479206372656174656420616e206163746960448201526137b760f11b606482015260840161029d565b6001600160a01b0383166000908152602081815260408083206004018054825181850281018501909352808352919290919083018282801561140a57602002820191906000526020600020905b8154815260200190600101908083116113f6575b5050336000908152600160205260408120600301549495509250829150505b835181101561146e578284828151811061144557611445611c50565b6020026020010151141561145c576001915061146e565b8061146681611d8b565b915050611429565b506001600160a01b038616600090815260208181526040808320600301805482518185028101850190935280835291929091908301828280156114d057602002820191906000526020600020905b8154815260200190600101908083116114bc575b50503360009081526001602090815260408083206002018054825181850281018501909352808352979850929690955091935090915083018282801561153557602002820191906000526020600020905b815481526020019060010190808311611521575b505050505090506000805b83518110156115bd5760005b83518210156115aa5783818151811061156757611567611c50565b602002602001015185838151811061158157611581611c50565b6020026020010151141561159857600192506115aa565b816115a281611d8b565b92505061154c565b50806115b581611d8b565b915050611540565b5060018415151461162c5760405162461bcd60e51b815260206004820152603360248201527f596f7520617265206e6f7420656c696769626c6520746f207061727469636970604482015272185d19481a5b881d1a1a5cc818dbdb9d195cdd606a1b606482015260840161029d565b6001811515146116a45760405162461bcd60e51b815260206004820152603d60248201527f5468656d6573206f6620796f7572206f7267616e69736174696f6e206172652060448201527f6e6f7420656c696769626c6520666f72207468697320636f6e74657374000000606482015260840161029d565b6001600160a01b038916600090815260208181526040808320338452600201825290912089516116d6928b01906117b8565b506001600160a01b038916600090815260208181526040808320338085526002918201909352928190209283018a90556003909201805460ff1916600117905590517fd3d45429f6c2339a23437577bd167085ad0b979da68a822a522a731bfb12041e9161174a918c91908c908c90611da6565b60405180910390a1505050505050505050565b508054600082559060005260206000209081019061177b9190611876565b50565b50805461178a90611c66565b6000825580601f1061179a575050565b601f01602090049060005260206000209081019061177b9190611876565b8280546117c490611c66565b90600052602060002090601f0160209004810192826117e6576000855561182c565b82601f106117ff57805160ff191683800117855561182c565b8280016001018555821561182c579182015b8281111561182c578251825591602001919060010190611811565b50611838929150611876565b5090565b82805482825590600052602060002090810192821561182c579160200282018281111561182c578251825591602001919060010190611811565b5b808211156118385760008155600101611877565b80356001600160a01b03811681146118a257600080fd5b919050565b600080604083850312156118ba57600080fd5b6118c38361188b565b91506118d16020840161188b565b90509250929050565b6000602082840312156118ec57600080fd5b6118f58261188b565b9392505050565b634e487b7160e01b600052604160045260246000fd5b604051601f8201601f1916810167ffffffffffffffff8111828210171561193b5761193b6118fc565b604052919050565b600082601f83011261195457600080fd5b813567ffffffffffffffff81111561196e5761196e6118fc565b611981601f8201601f1916602001611912565b81815284602083860101111561199657600080fd5b816020850160208301376000918101602001919091529392505050565b600082601f8301126119c457600080fd5b8135602067ffffffffffffffff8211156119e0576119e06118fc565b8160051b6119ef828201611912565b9283528481018201928281019087851115611a0957600080fd5b83870192505b84831015611a2857823582529183019190830190611a0f565b979650505050505050565b60008060008060008060c08789031215611a4c57600080fd5b863567ffffffffffffffff80821115611a6457600080fd5b611a708a838b01611943565b97506020890135915080821115611a8657600080fd5b611a928a838b016119b3565b96506040890135915080821115611aa857600080fd5b50611ab589828a016119b3565b945050606087013592506080870135915060a087013590509295509295509295565b6000815180845260005b81811015611afd57602081850181015186830182015201611ae1565b81811115611b0f576000602083870101525b50601f01601f19169290920160200192915050565b6000602080830181845280855180835260408601915060408160051b870101925083870160005b82811015611b7957603f19888603018452611b67858351611ad7565b94509285019290850190600101611b4b565b5092979650505050505050565b60008060408385031215611b9957600080fd5b823567ffffffffffffffff811115611bb057600080fd5b611bbc858286016119b3565b95602094909401359450505050565b600080600060608486031215611be057600080fd5b611be98461188b565b9250602084013567ffffffffffffffff811115611c0557600080fd5b611c1186828701611943565b925050604084013590509250925092565b634e487b7160e01b600052601160045260246000fd5b60008219821115611c4b57611c4b611c22565b500190565b634e487b7160e01b600052603260045260246000fd5b600181811c90821680611c7a57607f821691505b60208210811415611c9b57634e487b7160e01b600052602260045260246000fd5b50919050565b6001600160a01b03848116825283166020820152606060408201819052600090611ccd90830184611ad7565b95945050505050565b600060208284031215611ce857600080fd5b5051919050565b6001600160a01b0384168152606060208201819052600090611d1390830185611ad7565b9050826040830152949350505050565b60006060820160018060a01b03808716845260206060818601528287548085526080870191508860005282600020945060005b81811015611d74578554851683526001958601959284019201611d56565b505080945050505050826040830152949350505050565b6000600019821415611d9f57611d9f611c22565b5060010190565b6001600160a01b03858116825284166020820152608060408201819052600090611dd290830185611ad7565b90508260608301529594505050505056fea2646970667358221220ec17ac89955ce2b3ae6111c61c7aebaa82cb5a0e5dcde0ec6d08ed1b4370240064736f6c634300080b0033",
  "immutableReferences": {},
  "source": "// SPDX-License-Identifier: GPL-3.0\npragma solidity 0.8.11;\n\nimport \"./interfaces/IYugo.sol\";\n\n/**  @title Smart Contract for the DAO\n*    @notice This Smart contract stores all vote history \n*/\ncontract YugoDao {\n\n    struct Organisation {\n        address ethAddress;\n        bool isRegistered;\n        mapping (address => bool) participants;\n        uint[] themes;\n        uint country;\n    }\n\n    struct Theme {\n        uint id;\n        string name;\n    }\n\n     struct Country {\n        uint id;\n        string name;\n    }\n\n    struct Action {\n        string name;\n        uint voteNumber;\n        uint requiredFunds;\n        bool isCreated;\n    }\n\n    /**\n    * @notice Contest\n    * @dev A participant can only create one action\n    */\n    struct Contest {\n        string name;\n        mapping(address => bool) hasVoted;\n        mapping(address => Action) actions;\n        uint[] themeIDs;\n        uint[] countryIDs;\n        uint applicationEndDate;\n        uint votingEndDate;\n        uint availableFunds;\n        bool isCreated;\n        address[] winningActionAddresses;\n    }\n\n    event OrganizationRegistered(address addressOrga);\n    event ParticipantWhitelisted(address addressParticipant, address addressOrganization); \n    event ParticipantRemoved(address addressOrga, address addressParticipant);\n    event ContestCreated(address addressOrga, string name, uint funds);\n    event ActionCreated(address addressContestCreator, address addressActionCreator, string actionName, uint requiredFunds);\n    event VoteTallied(address addressContestCreator, address[] addressActionCreator, uint nbVotes);\n    event HasVotedForAction(address addressContestCreator, address addressActionCreator, address voterAddress); \n    event ActionDeleted(address addressContestCreator, address addressActioncreator, string actionName);\n\n    mapping (address => Contest) contests;\n    mapping (address => Organisation) organisation;\n    mapping (uint => Country)  private countries;\n    mapping (uint => Theme)  private thematics;\n\n    string[] private themeList = [\n        \"education\",\n        \"trafficking\",\n        \"domestic violence\",\n        \"women's movement\",\n        \"campaigns\",\n        \"roma women\",\n        \"identity\",\n        \"lobbing\",\n        \"marginalized groups\",\n        \"sexual harassment\",\n        \"women's rights\"\n    ];\n\n     string[] private countryList = [\n        \"Serbia\",\n        \"Croatia\",\n        \"Montenegro\",\n        \"Bosnia and Hercegovina\",\n        \"Slovenia\",\n        \"Macedonia\"\n    ];\n\n    IYugo public yugo;\n\n    constructor(address _yugo) {\n        setThematics();\n        setCountries();\n        yugo = IYugo(_yugo);\n    }\n\n    \n\n    /**\n    * @dev Sender not authorized for this operation.\n    */\n    error Unauthorized();\n\n   /**\n    * @notice Modifier \n    * @dev Check if _account not equals sender then revert \n    */\n    modifier onlyBy(address _account)\n    {\n        if (msg.sender != _account)\n            revert Unauthorized();\n        _;\n    }\n\n    /**\n    * @notice Populate thematics array\n    * @dev FOR TESTING : Only used in the controller, to initialise the thematics array. Should implement addThematics() so that the thematics are not fixed.\n    */\n    function setThematics() private {\n        uint numThemes = themeList.length;\n        for (uint i=0; i < numThemes-1; i++) {\n            Theme memory theme;\n            theme.id = i;\n            theme.name = themeList[i];\n            thematics[i] = theme;\n        }\n    }\n\n    /**\n    * @notice Populate thematics array\n    * @dev Only used in the controller, to initialise the countries array.\n    */\n    function setCountries() private {\n        uint numCountries = countryList.length;\n        for (uint i=0; i < numCountries-1; i++) {\n            Country memory country;\n            country.id = i;\n            country.name = countryList[i];\n            countries[i] = country;\n        }\n    }\n\n    /**\n    * @notice Return the list of thematics\n    * @return themeList List of thematics\n    */\n    function getThematics() public view returns(string[] memory) {        \n        return themeList;\n    }\n\n    /**\n    * @notice Return the list of countries\n    * @return countryList List of countries\n    */\n    function getCountries() public view returns(string[] memory) {        \n        return countryList;\n    }\n    \n    /**\n    * @notice Registers an Organisation\n    * @dev Creates a mapping for the sender in organisation\n    * @dev Emit OrganizationRegistered event\n    * @param thematicIds List of thematics id\n    * @param countryId Country id\n    * \n    */\n     function registerOrganisation(uint[] memory thematicIds, uint countryId) external {\n        require(!organisation[msg.sender].isRegistered, 'Organisation already registered');\n        require(thematicIds.length > 0 && countryId >= 0, 'You must provide thematics and country');\n        organisation[msg.sender].ethAddress = msg.sender;\n        organisation[msg.sender].themes = thematicIds;\n        organisation[msg.sender].country = countryId;\n        organisation[msg.sender].isRegistered = true;\n        emit OrganizationRegistered(msg.sender);\n    }\n\n    /**\n    * @notice Returns if organisation is registered\n    * @param _orga Address of organisation\n    * @return State of isRegistered, true if organisation is registered\n    */\n    function organisationRegistrationStatus(address _orga) public view returns(bool) {\n        return organisation[_orga].isRegistered;\n    }\n    \n    /**\n    * @notice Returns true if the participant is whitelisted\n    * @dev Can be called either by an organisation or a participant\n    * @param _addrOrganisation  Organisation's address\n    * @param _addrParticipant  Participant's address\n    * @return True if the address exists, false if not\n     */\n    function participantIsWhiteListed(address _addrOrganisation, address _addrParticipant) external view returns(bool) {\n        return organisation[_addrOrganisation].participants[_addrParticipant];\n    }\n\n    /**\n    * @notice allows the organisation (msg.sender) to delete a member from its whitelist\n    * @dev Emit ParticipantRemoved event\n    * @param _addrToDelete  the ethAddress of the participant to be deleted \n    */\n    function removeFromWhitelist(address _addrToDelete) external {\n        require(organisation[msg.sender].participants[_addrToDelete]==true, 'the address you entered does not exist');\n        delete organisation[msg.sender].participants[_addrToDelete];\n        emit ParticipantRemoved(msg.sender, _addrToDelete);\n    }\n\n    /**\n    * @notice Adds a particapants to a organisation\n    * @dev Emit ParticipantWhitelisted event\n    * @param _addrOrga address of organisation\n    * @param _addrParticipant address of particapant \n    */\n    function addParticipant(address _addrOrga, address _addrParticipant ) external {\n        //TODO: verify with oracle _addrParticipant is not an organisation address\n        require(organisation[_addrOrga].ethAddress == msg.sender, 'You are not the owner of the organization');\n        require(!organisation[_addrOrga].participants[_addrParticipant], 'Address already whitelisted for this organization');\n        organisation[_addrOrga].participants[_addrParticipant] = true;\n        emit ParticipantWhitelisted(_addrParticipant, _addrOrga);\n    }\n\n    /**\n    * @notice Add a contest\n    * @dev Emit ContestCreated event\n    * @param _name Name of the contest\n    * @param _themeIds List of thematics IDs\n    * @param _eligibleCountryIds List of country IDs\n    * @param _applicationEndDate End Date of application period \n    * @param _votingEndDate End Date of voting period \n    * @param _funds Value of funds \n    */\n    function addContest(string memory _name, uint[] memory _themeIds, uint[] memory _eligibleCountryIds, uint _applicationEndDate, uint _votingEndDate, uint _funds) external {\n        require(yugo.balanceOf(msg.sender) > 0, \"you need Yugo governance token to create a contest\");\n        require(!contests[msg.sender].isCreated, 'Organisation already created a contest');\n        contests[msg.sender].name = _name;\n        contests[msg.sender].themeIDs = _themeIds;\n        contests[msg.sender].countryIDs = _eligibleCountryIds;\n        contests[msg.sender].applicationEndDate = _applicationEndDate;\n        contests[msg.sender].votingEndDate = _votingEndDate;\n        contests[msg.sender].availableFunds = _funds;\n        contests[msg.sender].isCreated = true;\n        emit ContestCreated(msg.sender, _name, _funds);\n    }\n\n\n    /**\n    * @notice Creates an action\n    * @dev Emit ActionCreated event\n    * @param _creatorOfContest Address of creator \n    * @param _name Name of Action\n    * @param _requiredFunds Value of funds\n    */\n    function createAction(address _creatorOfContest, string memory _name, uint _requiredFunds) external {\n        require(yugo.balanceOf(msg.sender) > 0, \"you need Yugo governance token to create an action\");\n        require(_creatorOfContest != msg.sender, 'Contest creator cannot propose actions');\n        require(contests[_creatorOfContest].isCreated, 'This organization does not have open contest');\n        require(!contests[_creatorOfContest].actions[msg.sender].isCreated, 'You have already created an action');\n        //Verify if action creator country is eligible to participate\n        uint[] memory eligibleCountries = contests[_creatorOfContest].countryIDs;\n        uint orgaCountry = organisation[msg.sender].country;\n        bool countryFound=false;\n        for (uint i=0; i<eligibleCountries.length; i++) {\n            if(eligibleCountries[i]==orgaCountry){\n                countryFound=true;\n                break;\n            }\n        }\n        //Verify at least one theme from the orga wanting to create an action is in the contest themes \n        uint[] memory eligibleThemes = contests[_creatorOfContest].themeIDs;\n        uint[] memory orgaThemes = organisation[msg.sender].themes;\n        bool themeFound=false;\n        for (uint i=0; i<eligibleThemes.length; i++) {\n            for (uint j=0; i<orgaThemes.length; i++) {\n                if(eligibleThemes[i]==orgaThemes[j]){\n                    themeFound=true;\n                    break;\n                }\n            }\n        }\n        require(countryFound == true, \"You are not eligible to participate in this contest\");\n        require(themeFound == true, \"Themes of your organisation are not eligible for this contest\");\n        contests[_creatorOfContest].actions[msg.sender].name = _name;\n        contests[_creatorOfContest].actions[msg.sender].requiredFunds = _requiredFunds;\n        contests[_creatorOfContest].actions[msg.sender].isCreated = true;\n        emit ActionCreated(_creatorOfContest, msg.sender, _name, _requiredFunds);\n    }\n\n    /**\n    * @notice Deletes an action\n    * @dev Emit ActionCreated event\n    * @dev requires the msg.sender to be the action's owner\n    * @dev can only be deleted before the application end date\n    * @param _creatorOfContest Address of creator \n    */\n    function deleteActions(address _creatorOfContest) external {\n        //TODO: needs more testing\n        require(contests[_creatorOfContest].actions[msg.sender].isCreated, 'you did not create any action for this contest');\n        uint currentTime = block.timestamp;\n        require(currentTime < contests[_creatorOfContest].applicationEndDate, 'Votes have started.You cannot delete this action');\n        string memory actionName = contests[_creatorOfContest].actions[msg.sender].name;\n        delete contests[_creatorOfContest].actions[msg.sender];\n        emit ActionDeleted(_creatorOfContest, msg.sender, actionName);\n        delete actionName;\n    }\n\n    /**\n    * @notice Vote for a Action\n    * @dev At each vote, we compare voteNumber of the winning Action with newly voted one. If tie, then push in array\n    * @dev Emit HasVotedForAction event\n    * @param _creatorOfContest Address of Contest creator \n    * @param _actionCreator Address of Action creator\n    */\n    function voteForAction(address _creatorOfContest, address _actionCreator) external {\n        uint currentTime = block.timestamp;\n        require(currentTime >= contests[_creatorOfContest].applicationEndDate, 'Voting has not started');\n        require(currentTime < contests[_creatorOfContest].votingEndDate, 'Voting is closed');\n        require(msg.sender != _creatorOfContest && msg.sender != _actionCreator, 'You can not vote for this action');\n        require(!contests[_creatorOfContest].hasVoted[msg.sender], 'You have already voted');\n        \n        \n        contests[_creatorOfContest].actions[_actionCreator].voteNumber += 1;\n        contests[_creatorOfContest].hasVoted[msg.sender] = true;\n\n        if(contests[_creatorOfContest].winningActionAddresses.length == 0){\n            contests[_creatorOfContest].winningActionAddresses.push(_actionCreator);\n        }else if(contests[_creatorOfContest].actions[contests[_creatorOfContest].winningActionAddresses[0]].voteNumber < contests[_creatorOfContest].actions[_actionCreator].voteNumber){\n            delete contests[_creatorOfContest].winningActionAddresses;\n            contests[_creatorOfContest].winningActionAddresses.push(_actionCreator);\n        }else if(contests[_creatorOfContest].actions[contests[_creatorOfContest].winningActionAddresses[0]].voteNumber == contests[_creatorOfContest].actions[_actionCreator].voteNumber){\n            contests[_creatorOfContest].winningActionAddresses.push(_actionCreator);\n        }\n        emit HasVotedForAction(_creatorOfContest, _actionCreator, msg.sender);\n        delete currentTime;\n    }\n    \n\n    /**\n    * @notice Tally the vote\n    * @dev Emit VoteTallied event\n    * @param _creatorOfContest Address of Contest creator \n    */\n    function tallyVote(address _creatorOfContest) external {\n        // TODO: tallying votes with time counter / controller / check only callable from manager\n        //TODO needs more testing for multiple winners\n        require(block.timestamp > contests[_creatorOfContest].votingEndDate, \"Voting has not finished yet\");\n\n        emit VoteTallied(_creatorOfContest, contests[_creatorOfContest].winningActionAddresses, contests[_creatorOfContest].actions[contests[_creatorOfContest].winningActionAddresses[0]].voteNumber);\n    }\n\n\n    //TODO: pool of liquidity from contest's creator\n\n\n\n}   ",
  "sourcePath": "/Users/urdoom/blockchain_development/Alyra/YU-GO/Truffle/contracts/YugoDao.sol",
  "compiler": {
    "name": "solc",
    "version": "0.8.11+commit.d7f03943.Emscripten.clang"
  },
  "schemaVersion": "3.4.3",
  "updatedAt": "2022-01-14T01:03:32.653Z",
  "networkType": "ethereum",
  "devdoc": {
    "errors": {
      "Unauthorized()": [
        {
          "details": "Sender not authorized for this operation."
        }
      ]
    },
    "kind": "dev",
    "methods": {
      "addContest(string,uint256[],uint256[],uint256,uint256,uint256)": {
        "details": "Emit ContestCreated event",
        "params": {
          "_applicationEndDate": "End Date of application period ",
          "_eligibleCountryIds": "List of country IDs",
          "_funds": "Value of funds ",
          "_name": "Name of the contest",
          "_themeIds": "List of thematics IDs",
          "_votingEndDate": "End Date of voting period "
        }
      },
      "addParticipant(address,address)": {
        "details": "Emit ParticipantWhitelisted event",
        "params": {
          "_addrOrga": "address of organisation",
          "_addrParticipant": "address of particapant "
        }
      },
      "createAction(address,string,uint256)": {
        "details": "Emit ActionCreated event",
        "params": {
          "_creatorOfContest": "Address of creator ",
          "_name": "Name of Action",
          "_requiredFunds": "Value of funds"
        }
      },
      "deleteActions(address)": {
        "details": "Emit ActionCreated eventrequires the msg.sender to be the action's ownercan only be deleted before the application end date",
        "params": {
          "_creatorOfContest": "Address of creator "
        }
      },
      "getCountries()": {
        "returns": {
          "_0": "countryList List of countries"
        }
      },
      "getThematics()": {
        "returns": {
          "_0": "themeList List of thematics"
        }
      },
      "organisationRegistrationStatus(address)": {
        "params": {
          "_orga": "Address of organisation"
        },
        "returns": {
          "_0": "State of isRegistered, true if organisation is registered"
        }
      },
      "participantIsWhiteListed(address,address)": {
        "details": "Can be called either by an organisation or a participant",
        "params": {
          "_addrOrganisation": "Organisation's address",
          "_addrParticipant": "Participant's address"
        },
        "returns": {
          "_0": "True if the address exists, false if not"
        }
      },
      "registerOrganisation(uint256[],uint256)": {
        "details": "Creates a mapping for the sender in organisationEmit OrganizationRegistered event",
        "params": {
          "countryId": "Country id ",
          "thematicIds": "List of thematics id"
        }
      },
      "removeFromWhitelist(address)": {
        "details": "Emit ParticipantRemoved event",
        "params": {
          "_addrToDelete": "the ethAddress of the participant to be deleted "
        }
      },
      "tallyVote(address)": {
        "details": "Emit VoteTallied event",
        "params": {
          "_creatorOfContest": "Address of Contest creator "
        }
      },
      "voteForAction(address,address)": {
        "details": "At each vote, we compare voteNumber of the winning Action with newly voted one. If tie, then push in arrayEmit HasVotedForAction event",
        "params": {
          "_actionCreator": "Address of Action creator",
          "_creatorOfContest": "Address of Contest creator "
        }
      }
    },
    "title": "Smart Contract for the DAO",
    "version": 1
  },
  "userdoc": {
    "kind": "user",
    "methods": {
      "addContest(string,uint256[],uint256[],uint256,uint256,uint256)": {
        "notice": "Add a contest"
      },
      "addParticipant(address,address)": {
        "notice": "Adds a particapants to a organisation"
      },
      "createAction(address,string,uint256)": {
        "notice": "Creates an action"
      },
      "deleteActions(address)": {
        "notice": "Deletes an action"
      },
      "getCountries()": {
        "notice": "Return the list of countries"
      },
      "getThematics()": {
        "notice": "Return the list of thematics"
      },
      "organisationRegistrationStatus(address)": {
        "notice": "Returns if organisation is registered"
      },
      "participantIsWhiteListed(address,address)": {
        "notice": "Returns true if the participant is whitelisted"
      },
      "registerOrganisation(uint256[],uint256)": {
        "notice": "Registers an Organisation"
      },
      "removeFromWhitelist(address)": {
        "notice": "allows the organisation (msg.sender) to delete a member from its whitelist"
      },
      "tallyVote(address)": {
        "notice": "Tally the vote"
      },
      "voteForAction(address,address)": {
        "notice": "Vote for a Action"
      }
    },
    "notice": "This Smart contract stores all vote history ",
    "version": 1
  }
}