{
  "contractName": "YugoDao",
  "abi": [
    {
      "inputs": [
        {
          "internalType": "address",
          "name": "_yugo",
          "type": "address"
        },
        {
          "internalType": "address",
          "name": "_escrow",
          "type": "address"
        },
        {
          "internalType": "address",
          "name": "_verifSign",
          "type": "address"
        }
      ],
      "stateMutability": "nonpayable",
      "type": "constructor"
    },
    {
      "inputs": [],
      "name": "Unauthorized",
      "type": "error"
    },
    {
      "anonymous": false,
      "inputs": [
        {
          "indexed": false,
          "internalType": "address",
          "name": "addressContestCreator",
          "type": "address"
        },
        {
          "indexed": false,
          "internalType": "address",
          "name": "addressActionCreator",
          "type": "address"
        },
        {
          "indexed": false,
          "internalType": "string",
          "name": "actionName",
          "type": "string"
        },
        {
          "indexed": false,
          "internalType": "uint256",
          "name": "requiredFunds",
          "type": "uint256"
        }
      ],
      "name": "ActionCreated",
      "type": "event"
    },
    {
      "anonymous": false,
      "inputs": [
        {
          "indexed": false,
          "internalType": "address",
          "name": "addressContestCreator",
          "type": "address"
        },
        {
          "indexed": false,
          "internalType": "address",
          "name": "addressActioncreator",
          "type": "address"
        },
        {
          "indexed": false,
          "internalType": "string",
          "name": "actionName",
          "type": "string"
        }
      ],
      "name": "ActionDeleted",
      "type": "event"
    },
    {
      "anonymous": false,
      "inputs": [
        {
          "indexed": false,
          "internalType": "address",
          "name": "addressOrga",
          "type": "address"
        },
        {
          "indexed": false,
          "internalType": "string",
          "name": "name",
          "type": "string"
        },
        {
          "indexed": false,
          "internalType": "uint256",
          "name": "funds",
          "type": "uint256"
        }
      ],
      "name": "ContestCreated",
      "type": "event"
    },
    {
      "anonymous": false,
      "inputs": [
        {
          "indexed": false,
          "internalType": "address",
          "name": "addressContestCreator",
          "type": "address"
        },
        {
          "indexed": false,
          "internalType": "address",
          "name": "addressActionCreator",
          "type": "address"
        },
        {
          "indexed": false,
          "internalType": "address",
          "name": "voterAddress",
          "type": "address"
        }
      ],
      "name": "HasVotedForAction",
      "type": "event"
    },
    {
      "anonymous": false,
      "inputs": [
        {
          "indexed": false,
          "internalType": "address",
          "name": "addressOrga",
          "type": "address"
        }
      ],
      "name": "OrganizationRegistered",
      "type": "event"
    },
    {
      "anonymous": false,
      "inputs": [
        {
          "indexed": false,
          "internalType": "address",
          "name": "addressOrga",
          "type": "address"
        },
        {
          "indexed": false,
          "internalType": "address",
          "name": "addressParticipant",
          "type": "address"
        }
      ],
      "name": "ParticipantRemoved",
      "type": "event"
    },
    {
      "anonymous": false,
      "inputs": [
        {
          "indexed": false,
          "internalType": "address",
          "name": "addressParticipant",
          "type": "address"
        },
        {
          "indexed": false,
          "internalType": "address",
          "name": "addressOrganization",
          "type": "address"
        }
      ],
      "name": "ParticipantWhitelisted",
      "type": "event"
    },
    {
      "anonymous": false,
      "inputs": [
        {
          "indexed": false,
          "internalType": "address",
          "name": "winner",
          "type": "address"
        },
        {
          "indexed": false,
          "internalType": "string",
          "name": "actionName",
          "type": "string"
        },
        {
          "indexed": false,
          "internalType": "uint256",
          "name": "nbVotes",
          "type": "uint256"
        },
        {
          "indexed": false,
          "internalType": "uint256",
          "name": "requiredFunds",
          "type": "uint256"
        }
      ],
      "name": "VoteTallied",
      "type": "event"
    },
    {
      "inputs": [],
      "name": "escrow",
      "outputs": [
        {
          "internalType": "contract IGrantEscrow",
          "name": "",
          "type": "address"
        }
      ],
      "stateMutability": "view",
      "type": "function",
      "constant": true
    },
    {
      "inputs": [],
      "name": "yugo",
      "outputs": [
        {
          "internalType": "contract IYugo",
          "name": "",
          "type": "address"
        }
      ],
      "stateMutability": "view",
      "type": "function",
      "constant": true
    },
    {
      "inputs": [],
      "name": "getThematics",
      "outputs": [
        {
          "internalType": "string[]",
          "name": "",
          "type": "string[]"
        }
      ],
      "stateMutability": "view",
      "type": "function",
      "constant": true
    },
    {
      "inputs": [],
      "name": "getCountries",
      "outputs": [
        {
          "internalType": "string[]",
          "name": "",
          "type": "string[]"
        }
      ],
      "stateMutability": "view",
      "type": "function",
      "constant": true
    },
    {
      "inputs": [
        {
          "internalType": "uint256[]",
          "name": "thematicIds",
          "type": "uint256[]"
        },
        {
          "internalType": "uint256",
          "name": "countryId",
          "type": "uint256"
        }
      ],
      "name": "registerOrganisation",
      "outputs": [],
      "stateMutability": "nonpayable",
      "type": "function"
    },
    {
      "inputs": [
        {
          "internalType": "address",
          "name": "_orga",
          "type": "address"
        }
      ],
      "name": "organisationRegistrationStatus",
      "outputs": [
        {
          "internalType": "bool",
          "name": "",
          "type": "bool"
        }
      ],
      "stateMutability": "view",
      "type": "function",
      "constant": true
    },
    {
      "inputs": [
        {
          "internalType": "address",
          "name": "_addrOrganisation",
          "type": "address"
        },
        {
          "internalType": "address",
          "name": "_addrParticipant",
          "type": "address"
        }
      ],
      "name": "participantIsWhiteListed",
      "outputs": [
        {
          "internalType": "bool",
          "name": "",
          "type": "bool"
        }
      ],
      "stateMutability": "view",
      "type": "function",
      "constant": true
    },
    {
      "inputs": [
        {
          "internalType": "address",
          "name": "_addrToDelete",
          "type": "address"
        }
      ],
      "name": "removeFromWhitelist",
      "outputs": [],
      "stateMutability": "nonpayable",
      "type": "function"
    },
    {
      "inputs": [
        {
          "internalType": "address",
          "name": "_addrOrga",
          "type": "address"
        },
        {
          "internalType": "address",
          "name": "_addrParticipant",
          "type": "address"
        }
      ],
      "name": "addParticipant",
      "outputs": [],
      "stateMutability": "nonpayable",
      "type": "function"
    },
    {
      "inputs": [
        {
          "internalType": "string",
          "name": "_name",
          "type": "string"
        },
        {
          "internalType": "uint256[]",
          "name": "_themeIds",
          "type": "uint256[]"
        },
        {
          "internalType": "uint256[]",
          "name": "_eligibleCountryIds",
          "type": "uint256[]"
        },
        {
          "internalType": "uint256",
          "name": "_applicationEndDate",
          "type": "uint256"
        },
        {
          "internalType": "uint256",
          "name": "_votingEndDate",
          "type": "uint256"
        },
        {
          "internalType": "uint256",
          "name": "_funds",
          "type": "uint256"
        }
      ],
      "name": "addContest",
      "outputs": [],
      "stateMutability": "payable",
      "type": "function",
      "payable": true
    },
    {
      "inputs": [
        {
          "internalType": "address",
          "name": "_creatorOfContest",
          "type": "address"
        },
        {
          "internalType": "string",
          "name": "_name",
          "type": "string"
        },
        {
          "internalType": "uint256",
          "name": "_requiredFunds",
          "type": "uint256"
        }
      ],
      "name": "createAction",
      "outputs": [],
      "stateMutability": "nonpayable",
      "type": "function"
    },
    {
      "inputs": [
        {
          "internalType": "address",
          "name": "_creatorOfContest",
          "type": "address"
        }
      ],
      "name": "deleteActions",
      "outputs": [],
      "stateMutability": "nonpayable",
      "type": "function"
    },
    {
      "inputs": [
        {
          "internalType": "address",
          "name": "_creatorOfContest",
          "type": "address"
        },
        {
          "internalType": "address",
          "name": "_actionCreator",
          "type": "address"
        },
        {
          "internalType": "address",
          "name": "_participantOrga",
          "type": "address"
        }
      ],
      "name": "voteForAction",
      "outputs": [],
      "stateMutability": "nonpayable",
      "type": "function"
    },
    {
      "inputs": [
        {
          "internalType": "address",
          "name": "_creatorOfContest",
          "type": "address"
        }
      ],
      "name": "tallyVote",
      "outputs": [],
      "stateMutability": "nonpayable",
      "type": "function"
    },
    {
      "inputs": [
        {
          "internalType": "address",
          "name": "_creatorOfContest",
          "type": "address"
        }
      ],
      "name": "getContestWinner",
      "outputs": [
        {
          "internalType": "address",
          "name": "",
          "type": "address"
        },
        {
          "internalType": "uint256",
          "name": "",
          "type": "uint256"
        }
      ],
      "stateMutability": "view",
      "type": "function",
      "constant": true
    }
  ],
  "bytecode": "0x60096101e08181526832b23ab1b0ba34b7b760b91b610200526080908152600b6102208181526a747261666669636b696e6760a81b6102405260a052601161026081815270646f6d65737469632076696f6c656e636560781b6102805260c05260106102a09081526f1ddbdb595b89dcc81b5bdd995b595b9d60821b6102c05260e0526102e09384526863616d706169676e7360b81b6103005261010093909352600a610320908152693937b6b0903bb7b6b2b760b11b61034052610120526008610360908152676964656e7469747960c01b610380526101405260076103a0908152666c6f6262696e6760c81b6103c0526101605260136103e09081527f6d617267696e616c697a65642067726f757073000000000000000000000000006104005261018052610420928352701cd95e1d585b081a185c985cdcdb595b9d607a1b610440526101a0929092526104a0604052600e6104609081526d776f6d656e27732072696768747360901b610480526101c05262000183916004919062000561565b506040805161010081018252600660c082018181526553657262696160d01b60e0840152825282518084018452600781526643726f6174696160c81b6020828101919091528084019190915283518085018552600a8152694d6f6e74656e6567726f60b01b818301528385015283518085018552601681527f426f736e696120616e64204865726365676f76696e6100000000000000000000818301526060840152835180850185526008815267536c6f76656e696160c01b818301526080840152835180850190945260098452684d616365646f6e696160b81b9084015260a0820192909252620002799160059190620005c5565b503480156200028757600080fd5b5060405162002a0538038062002a05833981016040819052620002aa9162000739565b620002b462000301565b620002be62000433565b600680546001600160a01b039485166001600160a01b03199182161790915560078054938516938216939093179092556008805491909316911617905562000824565b60045460005b6200031460018362000799565b8110156200042f5760408051808201909152606060208201528181526004805483908110620003475762000347620007b3565b9060005260206000200180546200035e90620007c9565b80601f01602080910402602001604051908101604052809291908181526020018280546200038c90620007c9565b8015620003dd5780601f10620003b157610100808354040283529160200191620003dd565b820191906000526020600020905b815481529060010190602001808311620003bf57829003601f168201915b5050505060208084019283526000858152600382526040902084518155925180518594935062000414926001850192019062000617565b50905050508080620004269062000806565b91505062000307565b5050565b60055460005b6200044660018362000799565b8110156200042f5760408051808201909152606060208201528181526005805483908110620004795762000479620007b3565b9060005260206000200180546200049090620007c9565b80601f0160208091040260200160405190810160405280929190818152602001828054620004be90620007c9565b80156200050f5780601f10620004e3576101008083540402835291602001916200050f565b820191906000526020600020905b815481529060010190602001808311620004f157829003601f168201915b5050505060208084019283526000858152600282526040902084518155925180518594935062000546926001850192019062000617565b50905050508080620005589062000806565b91505062000439565b828054828255906000526020600020908101928215620005b3579160200282015b82811115620005b35782518051620005a291849160209091019062000617565b509160200191906001019062000582565b50620005c1929150620006a2565b5090565b828054828255906000526020600020908101928215620005b3579160200282015b82811115620005b357825180516200060691849160209091019062000617565b5091602001919060010190620005e6565b8280546200062590620007c9565b90600052602060002090601f01602090048101928262000649576000855562000694565b82601f106200066457805160ff191683800117855562000694565b8280016001018555821562000694579182015b828111156200069457825182559160200191906001019062000677565b50620005c1929150620006c3565b80821115620005c1576000620006b98282620006da565b50600101620006a2565b5b80821115620005c15760008155600101620006c4565b508054620006e890620007c9565b6000825580601f10620006f9575050565b601f016020900490600052602060002090810190620007199190620006c3565b50565b80516001600160a01b03811681146200073457600080fd5b919050565b6000806000606084860312156200074f57600080fd5b6200075a846200071c565b92506200076a602085016200071c565b91506200077a604085016200071c565b90509250925092565b634e487b7160e01b600052601160045260246000fd5b600082821015620007ae57620007ae62000783565b500390565b634e487b7160e01b600052603260045260246000fd5b600181811c90821680620007de57607f821691505b602082108114156200080057634e487b7160e01b600052602260045260246000fd5b50919050565b60006000198214156200081d576200081d62000783565b5060010190565b6121d180620008346000396000f3fe6080604052600436106100e85760003560e01c80639aa7ca421161008a578063d35ada3211610059578063d35ada32146102a5578063d67091c7146102c5578063e2fdcc17146102e5578063eb0934df1461030557600080fd5b80639aa7ca42146101e1578063bd72973214610201578063beca800914610251578063c6ade8351461026657600080fd5b80632db2c04f116100c65780632db2c04f1461016c5780636bf9fe171461017f57806381530e47146101a15780638ab1d681146101c157600080fd5b806304c84c52146100ed578063180d3e3d1461010f578063223702651461012f575b600080fd5b3480156100f957600080fd5b5061010d610108366004611b6a565b61034f565b005b34801561011b57600080fd5b5061010d61012a366004611bad565b610833565b34801561013b57600080fd5b5060065461014f906001600160a01b031681565b6040516001600160a01b0390911681526020015b60405180910390f35b61010d61017a366004611d06565b610a7f565b34801561018b57600080fd5b50610194610d3d565b6040516101639190611df7565b3480156101ad57600080fd5b5061010d6101bc366004611e59565b610e16565b3480156101cd57600080fd5b5061010d6101dc366004611bad565b610f7d565b3480156101ed57600080fd5b5061010d6101fc366004611bad565b61106a565b34801561020d57600080fd5b5061024161021c366004611bad565b6001600160a01b0316600090815260016020526040902054600160a01b900460ff1690565b6040519015158152602001610163565b34801561025d57600080fd5b50610194611174565b34801561027257600080fd5b50610286610281366004611bad565b611244565b604080516001600160a01b039093168352602083019190915201610163565b3480156102b157600080fd5b5061010d6102c0366004611e9e565b6112b4565b3480156102d157600080fd5b5061010d6102e0366004611ed1565b61142c565b3480156102f157600080fd5b5060075461014f906001600160a01b031681565b34801561031157600080fd5b50610241610320366004611e9e565b6001600160a01b0391821660009081526001602081815260408084209490951683529201909152205460ff1690565b6001600160a01b03831660009081526020819052604090206005015442908110156103ba5760405162461bcd60e51b8152602060048201526016602482015275159bdd1a5b99c81a185cc81b9bdd081cdd185c9d195960521b60448201526064015b60405180910390fd5b6001600160a01b03841660009081526020819052604090206006015481106104175760405162461bcd60e51b815260206004820152601060248201526f159bdd1a5b99c81a5cc818db1bdcd95960821b60448201526064016103b1565b336001600160a01b038516148015906104395750336001600160a01b03841614155b6104855760405162461bcd60e51b815260206004820181905260248201527f596f752063616e206e6f7420766f746520666f72207468697320616374696f6e60448201526064016103b1565b6001600160a01b03841660009081526020818152604080832033845260010190915290205460ff16156104f35760405162461bcd60e51b8152602060048201526016602482015275165bdd481a185d9948185b1c9958591e481d9bdd195960521b60448201526064016103b1565b6006546040516370a0823160e01b81526001600160a01b03848116600483015260009216906370a0823190602401602060405180830381865afa15801561053e573d6000803e3d6000fd5b505050506040513d601f19601f820116820180604052508101906105629190611f28565b1161057f5760405162461bcd60e51b81526004016103b190611f41565b6001600160a01b0380851660009081526020818152604080832093871683526002909301905290812060019081018054919290916105be908490611fa9565b90915550506001600160a01b03841660008181526020818152604080832033845260018181018452918420805460ff19169092179091559282525260090154610645576001600160a01b038481166000908152602081815260408220600901805460018101825590835291200180546001600160a01b0319169185169190911790556107e4565b6001600160a01b03808516600081815260208181526040808320948816835260028501808352908320600101549383529082905260099093018054929392829061069157610691611fc1565b60009182526020808320909101546001600160a01b03168352820192909252604001902060010154101561072a576001600160a01b03841660009081526020819052604081206106e691600990910190611a20565b6001600160a01b038481166000908152602081815260408220600901805460018101825590835291200180546001600160a01b0319169185169190911790556107e4565b6001600160a01b03808516600081815260208181526040808320948816835260028501808352908320600101549383529082905260099093018054929392829061077657610776611fc1565b60009182526020808320909101546001600160a01b0316835282019290925260400190206001015414156107e4576001600160a01b038481166000908152602081815260408220600901805460018101825590835291200180546001600160a01b0319169185169190911790555b604080516001600160a01b03868116825285166020820152338183015290517f9a996e61e46622216dcf6afd942a2c58023089cde9ed06bbf46ad67ec78148589181900360600190a150505050565b6001600160a01b03811660009081526020818152604080832033845260020190915290206003015460ff166108c15760405162461bcd60e51b815260206004820152602e60248201527f796f7520646964206e6f742063726561746520616e7920616374696f6e20666f60448201526d1c881d1a1a5cc818dbdb9d195cdd60921b60648201526084016103b1565b6001600160a01b038116600090815260208190526040902060050154429081106109465760405162461bcd60e51b815260206004820152603060248201527f566f746573206861766520737461727465642e596f752063616e6e6f7420646560448201526f3632ba32903a3434b99030b1ba34b7b760811b60648201526084016103b1565b6001600160a01b0382166000908152602081815260408083203384526002019091528120805461097590611fd7565b80601f01602080910402602001604051908101604052809291908181526020018280546109a190611fd7565b80156109ee5780601f106109c3576101008083540402835291602001916109ee565b820191906000526020600020905b8154815290600101906020018083116109d157829003601f168201915b505050506001600160a01b03851660009081526020818152604080832033845260020190915281209293509050610a258282611a41565b506000600182018190556002820155600301805460ff191690556040517e638117e2b363943932d75d6cf954be8104382508e43b19f271a6425be8325e90610a7290859033908590612012565b60405180910390a1505050565b6006546040516370a0823160e01b81523360048201526000916001600160a01b0316906370a0823190602401602060405180830381865afa158015610ac8573d6000803e3d6000fd5b505050506040513d601f19601f82011682018060405250810190610aec9190611f28565b11610b095760405162461bcd60e51b81526004016103b190611f41565b3360009081526020819052604090206008015460ff1615610b7b5760405162461bcd60e51b815260206004820152602660248201527f4f7267616e69736174696f6e20616c72656164792063726561746564206120636044820152651bdb9d195cdd60d21b60648201526084016103b1565b348114610bfa5760405162461bcd60e51b815260206004820152604160248201527f416d6f756e74206f662066756e647320696e20657363726f772069732064696660448201527f666572656e742066726f6d20746865206461746120796f752070726f766964656064820152601960fa1b608482015260a4016103b1565b336000908152602081815260409091208751610c1892890190611a7b565b50336000908152602081815260409091208651610c3d92600390920191880190611aff565b50336000908152602081815260409091208551610c6292600490920191870190611aff565b503360008181526020819052604090819020600581018690556006810185905560078082018590556008909101805460ff19166001179055549051631529554b60e01b815260048101929092523460248301526001600160a01b031690631529554b90604401600060405180830381600087803b158015610ce257600080fd5b505af1158015610cf6573d6000803e3d6000fd5b505050507f98e26a339a5fc57fc1c56d81b9cc18fa5c1b2f45a4121ded1802183d3546744a338783604051610d2d93929190612047565b60405180910390a1505050505050565b60606004805480602002602001604051908101604052809291908181526020016000905b82821015610e0d578382906000526020600020018054610d8090611fd7565b80601f0160208091040260200160405190810160405280929190818152602001828054610dac90611fd7565b8015610df95780601f10610dce57610100808354040283529160200191610df9565b820191906000526020600020905b815481529060010190602001808311610ddc57829003601f168201915b505050505081526020019060010190610d61565b50505050905090565b33600090815260016020526040902054600160a01b900460ff1615610e7d5760405162461bcd60e51b815260206004820152601f60248201527f4f7267616e69736174696f6e20616c726561647920726567697374657265640060448201526064016103b1565b60008251118015610e8c575060015b610ee75760405162461bcd60e51b815260206004820152602660248201527f596f75206d7573742070726f76696465207468656d617469637320616e6420636044820152656f756e74727960d01b60648201526084016103b1565b33600081815260016020908152604090912080546001600160a01b03191690921782558351610f1c9260020191850190611aff565b503360008181526001602090815260409182902060038101859055805460ff60a01b1916600160a01b17905590519182527f2178e9c576507a4c15d3deab489af3f699a3dedbff9a7ef27c43a017027710e591015b60405180910390a15050565b3360009081526001602081815260408084206001600160a01b038616855283019091529091205460ff161515146110055760405162461bcd60e51b815260206004820152602660248201527f746865206164647265737320796f7520656e746572656420646f6573206e6f7460448201526508195e1a5cdd60d21b60648201526084016103b1565b3360008181526001602081815260408084206001600160a01b0387168086529301825292839020805460ff1916905582519384528301527f9721b4c70a74dd00691b5fd0589b9720d9be5657dfd6e1f8072cb7f26d7ce8a8910160405180910390a150565b6001600160a01b038116600090815260208190526040902060060154429081116110d65760405162461bcd60e51b815260206004820152601b60248201527f566f74696e6720686173206e6f742066696e697368656420796574000000000060448201526064016103b1565b6001600160a01b03821660009081526020819052604081206009018054829061110157611101611fc1565b6000918252602080832091909101546001600160a01b03868116845283835260408085209190921680855260029182019093529281902060018101549381015491519294507f6fcbe3932701318f34ad7c0e0c6bf48fbfe94dbd94dc8f04a1c233ec825e1d0693610a729386939061207b565b60606005805480602002602001604051908101604052809291908181526020016000905b82821015610e0d5783829060005260206000200180546111b790611fd7565b80601f01602080910402602001604051908101604052809291908181526020018280546111e390611fd7565b80156112305780601f1061120557610100808354040283529160200191611230565b820191906000526020600020905b81548152906001019060200180831161121357829003601f168201915b505050505081526020019060010190611198565b6001600160a01b0381166000908152602081905260408120600901805482918291829061127357611273611fc1565b60009182526020808320909101546001600160a01b039687168352828252604080842097909116808452600297880190925290912090940154939492505050565b6001600160a01b0382811660009081526001602052604090205416331461132f5760405162461bcd60e51b815260206004820152602960248201527f596f7520617265206e6f7420746865206f776e6572206f6620746865206f726760448201526830b734bd30ba34b7b760b91b60648201526084016103b1565b6001600160a01b0380831660009081526001602081815260408084209486168452939091019052205460ff16156113c25760405162461bcd60e51b815260206004820152603160248201527f4164647265737320616c72656164792077686974656c697374656420666f72206044820152703a3434b99037b933b0b734bd30ba34b7b760791b60648201526084016103b1565b6001600160a01b038281166000818152600160208181526040808420958716808552958301825292839020805460ff191690921790915581519384528301919091527f6991bd45e0feec093b0c381c0561704fd19d427ded55100f5f6e1b4fe335c0829101610f71565b6006546040516370a0823160e01b81523360048201526000916001600160a01b0316906370a0823190602401602060405180830381865afa158015611475573d6000803e3d6000fd5b505050506040513d601f19601f820116820180604052508101906114999190611f28565b116115015760405162461bcd60e51b815260206004820152603260248201527f796f75206e656564205975676f20676f7665726e616e636520746f6b656e2074604482015271379031b932b0ba329030b71030b1ba34b7b760711b60648201526084016103b1565b6001600160a01b0383163314156115695760405162461bcd60e51b815260206004820152602660248201527f436f6e746573742063726561746f722063616e6e6f742070726f706f736520616044820152656374696f6e7360d01b60648201526084016103b1565b6001600160a01b03831660009081526020819052604090206008015460ff166115e95760405162461bcd60e51b815260206004820152602c60248201527f54686973206f7267616e697a6174696f6e20646f6573206e6f7420686176652060448201526b1bdc195b8818dbdb9d195cdd60a21b60648201526084016103b1565b6001600160a01b03831660009081526020818152604080832033845260020190915290206003015460ff161561166c5760405162461bcd60e51b815260206004820152602260248201527f596f75206861766520616c7265616479206372656174656420616e206163746960448201526137b760f11b60648201526084016103b1565b6001600160a01b038316600090815260208181526040808320600401805482518185028101850190935280835291929091908301828280156116cd57602002820191906000526020600020905b8154815260200190600101908083116116b9575b5050336000908152600160205260408120600301549495509250829150505b8351811015611731578284828151811061170857611708611fc1565b6020026020010151141561171f5760019150611731565b8061172981612143565b9150506116ec565b506001600160a01b0386166000908152602081815260408083206003018054825181850281018501909352808352919290919083018282801561179357602002820191906000526020600020905b81548152602001906001019080831161177f575b5050336000908152600160209081526040808320600201805482518185028101850190935280835297985092969095509193509091508301828280156117f857602002820191906000526020600020905b8154815260200190600101908083116117e4575b505050505090506000805b83518110156118805760005b835182101561186d5783818151811061182a5761182a611fc1565b602002602001015185838151811061184457611844611fc1565b6020026020010151141561185b576001925061186d565b8161186581612143565b92505061180f565b508061187881612143565b915050611803565b506001841515146118ef5760405162461bcd60e51b815260206004820152603360248201527f596f7520617265206e6f7420656c696769626c6520746f207061727469636970604482015272185d19481a5b881d1a1a5cc818dbdb9d195cdd606a1b60648201526084016103b1565b6001811515146119675760405162461bcd60e51b815260206004820152603d60248201527f5468656d6573206f6620796f7572206f7267616e69736174696f6e206172652060448201527f6e6f7420656c696769626c6520666f72207468697320636f6e7465737400000060648201526084016103b1565b6001600160a01b03891660009081526020818152604080832033845260020182529091208951611999928b0190611a7b565b506001600160a01b038916600090815260208181526040808320338085526002918201909352928190209283018a90556003909201805460ff1916600117905590517fd3d45429f6c2339a23437577bd167085ad0b979da68a822a522a731bfb12041e91611a0d918c91908c908c9061215e565b60405180910390a1505050505050505050565b5080546000825590600052602060002090810190611a3e9190611b39565b50565b508054611a4d90611fd7565b6000825580601f10611a5d575050565b601f016020900490600052602060002090810190611a3e9190611b39565b828054611a8790611fd7565b90600052602060002090601f016020900481019282611aa95760008555611aef565b82601f10611ac257805160ff1916838001178555611aef565b82800160010185558215611aef579182015b82811115611aef578251825591602001919060010190611ad4565b50611afb929150611b39565b5090565b828054828255906000526020600020908101928215611aef5791602002820182811115611aef578251825591602001919060010190611ad4565b5b80821115611afb5760008155600101611b3a565b80356001600160a01b0381168114611b6557600080fd5b919050565b600080600060608486031215611b7f57600080fd5b611b8884611b4e565b9250611b9660208501611b4e565b9150611ba460408501611b4e565b90509250925092565b600060208284031215611bbf57600080fd5b611bc882611b4e565b9392505050565b634e487b7160e01b600052604160045260246000fd5b604051601f8201601f1916810167ffffffffffffffff81118282101715611c0e57611c0e611bcf565b604052919050565b600082601f830112611c2757600080fd5b813567ffffffffffffffff811115611c4157611c41611bcf565b611c54601f8201601f1916602001611be5565b818152846020838601011115611c6957600080fd5b816020850160208301376000918101602001919091529392505050565b600082601f830112611c9757600080fd5b8135602067ffffffffffffffff821115611cb357611cb3611bcf565b8160051b611cc2828201611be5565b9283528481018201928281019087851115611cdc57600080fd5b83870192505b84831015611cfb57823582529183019190830190611ce2565b979650505050505050565b60008060008060008060c08789031215611d1f57600080fd5b863567ffffffffffffffff80821115611d3757600080fd5b611d438a838b01611c16565b97506020890135915080821115611d5957600080fd5b611d658a838b01611c86565b96506040890135915080821115611d7b57600080fd5b50611d8889828a01611c86565b945050606087013592506080870135915060a087013590509295509295509295565b6000815180845260005b81811015611dd057602081850181015186830182015201611db4565b81811115611de2576000602083870101525b50601f01601f19169290920160200192915050565b6000602080830181845280855180835260408601915060408160051b870101925083870160005b82811015611e4c57603f19888603018452611e3a858351611daa565b94509285019290850190600101611e1e565b5092979650505050505050565b60008060408385031215611e6c57600080fd5b823567ffffffffffffffff811115611e8357600080fd5b611e8f85828601611c86565b95602094909401359450505050565b60008060408385031215611eb157600080fd5b611eba83611b4e565b9150611ec860208401611b4e565b90509250929050565b600080600060608486031215611ee657600080fd5b611eef84611b4e565b9250602084013567ffffffffffffffff811115611f0b57600080fd5b611f1786828701611c16565b925050604084013590509250925092565b600060208284031215611f3a57600080fd5b5051919050565b60208082526032908201527f796f75206e656564205975676f20676f7665726e616e636520746f6b656e20746040820152711bc818dc99585d1948184818dbdb9d195cdd60721b606082015260800190565b634e487b7160e01b600052601160045260246000fd5b60008219821115611fbc57611fbc611f93565b500190565b634e487b7160e01b600052603260045260246000fd5b600181811c90821680611feb57607f821691505b6020821081141561200c57634e487b7160e01b600052602260045260246000fd5b50919050565b6001600160a01b0384811682528316602082015260606040820181905260009061203e90830184611daa565b95945050505050565b6001600160a01b038416815260606020820181905260009061206b90830185611daa565b9050826040830152949350505050565b60018060a01b0385168152600060206080818401526000865481600182811c9150808316806120ab57607f831692505b8583108114156120c957634e487b7160e01b85526022600452602485fd5b6080880183905260a088018180156120e857600181146120f957612124565b60ff19861682528782019650612124565b60008d81526020902060005b8681101561211e57815484820152908501908901612105565b83019750505b5050505050604085019690965260609093019390935250949350505050565b600060001982141561215757612157611f93565b5060010190565b6001600160a01b0385811682528416602082015260806040820181905260009061218a90830185611daa565b90508260608301529594505050505056fea2646970667358221220ab8e0829be3ff2de5b68bb15c497a3c124ebf6254c7b48afaf63fb47e41501e264736f6c634300080b0033",
  "immutableReferences": {},
  "source": "// SPDX-License-Identifier: GPL-3.0\npragma solidity ^0.8.9;\n\nimport \"./interfaces/IYugo.sol\";\nimport \"./interfaces/IGrantEscrow.sol\";\nimport \"./interfaces/IVerifySignature.sol\";\n\n/**  @title Smart Contract for the DAO\n*    @notice This Smart contract stores all vote history \n*/\ncontract YugoDao {\n\n    struct Organisation {\n        address ethAddress;\n        bool isRegistered;\n        mapping (address => bool) participants;\n        uint[] themes;\n        uint country;\n    }\n\n    struct Theme {\n        uint id;\n        string name;\n    }\n\n     struct Country {\n        uint id;\n        string name;\n    }\n\n    struct Action {\n        string name;\n        uint voteNumber;\n        uint requiredFunds;\n        bool isCreated;\n    }\n\n    /**\n    * @notice Contest\n    * @dev A participant can only create one action\n    */\n    struct Contest {\n        string name;\n        mapping(address => bool) hasVoted;\n        mapping(address => Action) actions;\n        uint[] themeIDs;\n        uint[] countryIDs;\n        uint applicationEndDate;\n        uint votingEndDate;\n        uint fundsAvailable;\n        bool isCreated;\n        address[] winningActionAddresses;\n    }\n\n    event OrganizationRegistered(address addressOrga);\n    event ParticipantWhitelisted(address addressParticipant, address addressOrganization); \n    event ParticipantRemoved(address addressOrga, address addressParticipant);\n    event ContestCreated(address addressOrga, string name, uint funds);\n    event ActionCreated(address addressContestCreator, address addressActionCreator, string actionName, uint requiredFunds);\n    event VoteTallied(address winner, string actionName, uint nbVotes, uint requiredFunds);\n    event HasVotedForAction(address addressContestCreator, address addressActionCreator, address voterAddress); \n    event ActionDeleted(address addressContestCreator, address addressActioncreator, string actionName);\n\n    mapping (address => Contest) contests;\n    mapping (address => Organisation) organisation;\n    mapping (uint => Country)  private countries;\n    mapping (uint => Theme)  private thematics;\n\n    string[] private themeList = [\n        \"education\",\n        \"trafficking\",\n        \"domestic violence\",\n        \"women's movement\",\n        \"campaigns\",\n        \"roma women\",\n        \"identity\",\n        \"lobbing\",\n        \"marginalized groups\",\n        \"sexual harassment\",\n        \"women's rights\"\n    ];\n\n     string[] private countryList = [\n        \"Serbia\",\n        \"Croatia\",\n        \"Montenegro\",\n        \"Bosnia and Hercegovina\",\n        \"Slovenia\",\n        \"Macedonia\"\n    ];\n\n    IYugo public yugo;\n    IGrantEscrow public escrow;\n    // IVerifySignature public verifSign;\n    address private verifSignAddr;\n\n    constructor(address _yugo, address _escrow, address _verifSign) {\n        setThematics();\n        setCountries();\n        yugo = IYugo(_yugo);\n        escrow = IGrantEscrow(_escrow);\n        // verifSign = IVerifySignature(_verifSign);\n        verifSignAddr = _verifSign;\n    }\n\n    /**\n    * @dev Sender not authorized for this operation.\n    */\n    error Unauthorized();\n\n   /**\n    * @notice Modifier \n    * @dev Check if _account not equals sender then revert \n    */\n    modifier onlyBy(address _account)\n    {\n        if (msg.sender != _account)\n            revert Unauthorized();\n        _;\n    }\n\n    modifier limitedAccess() {\n        require(msg.sender == verifSignAddr, \"you are not authorized\");\n        _;\n    }\n\n    /**\n    * @notice Populate thematics array\n    * @dev FOR TESTING : Only used in the controller, to initialise the thematics array. Should implement addThematics() so that the thematics are not fixed.\n    */\n    function setThematics() private {\n        uint numThemes = themeList.length;\n        for (uint i=0; i < numThemes-1; i++) {\n            Theme memory theme;\n            theme.id = i;\n            theme.name = themeList[i];\n            thematics[i] = theme;\n        }\n    }\n\n    /**\n    * @notice Populate thematics array\n    * @dev Only used in the controller, to initialise the countries array.\n    */\n    function setCountries() private {\n        uint numCountries = countryList.length;\n        for (uint i=0; i < numCountries-1; i++) {\n            Country memory country;\n            country.id = i;\n            country.name = countryList[i];\n            countries[i] = country;\n        }\n    }\n\n    /**\n    * @notice Return the list of thematics\n    * @return themeList List of thematics\n    */\n    function getThematics() external view returns(string[] memory) {        \n        return themeList;\n    }\n\n    /**\n    * @notice Return the list of countries\n    * @return countryList List of countries\n    */\n    function getCountries() external view returns(string[] memory) {        \n        return countryList;\n    }\n    \n    /**\n    * @notice Registers an Organisation\n    * @dev Creates a mapping for the sender in organisation\n    * @dev Emit OrganizationRegistered event\n    * @param thematicIds List of thematics id\n    * @param countryId Country id\n    * \n    */\n    // function registerOrganisation(uint[] memory thematicIds, uint countryId) external {\n    function registerOrganisation(uint[] memory thematicIds, uint countryId) external {\n        require(!organisation[msg.sender].isRegistered, 'Organisation already registered');\n        require(thematicIds.length > 0 && countryId >= 0, 'You must provide thematics and country');\n        organisation[msg.sender].ethAddress = msg.sender;\n        organisation[msg.sender].themes = thematicIds;\n        organisation[msg.sender].country = countryId;\n        organisation[msg.sender].isRegistered = true;\n        emit OrganizationRegistered(msg.sender);\n    }\n\n    /**\n    * @notice Returns if organisation is registered\n    * @dev - is executed by outside callers and internal functions\n    * @param _orga Address of organisation\n    * @return State of isRegistered, true if organisation is registered\n    */\n    function organisationRegistrationStatus(address _orga) public view returns(bool) {\n        return organisation[_orga].isRegistered;\n    }\n    \n    /**\n    * @notice Returns true if the participant is whitelisted\n    * @dev Can be called either by an organisation or a participant\n    * @param _addrOrganisation  Organisation's address\n    * @param _addrParticipant  Participant's address\n    * @return True if the address exists, false if not\n     */\n    function participantIsWhiteListed(address _addrOrganisation, address _addrParticipant) external view returns(bool) {\n        return organisation[_addrOrganisation].participants[_addrParticipant];\n    }\n\n    /**\n    * @notice allows the organisation (msg.sender) to delete a member from its whitelist\n    * @dev Emit ParticipantRemoved event\n    * @param _addrToDelete  the ethAddress of the participant to be deleted \n    */\n    function removeFromWhitelist(address _addrToDelete) external {\n        require(organisation[msg.sender].participants[_addrToDelete]==true, 'the address you entered does not exist');\n        delete organisation[msg.sender].participants[_addrToDelete];\n        emit ParticipantRemoved(msg.sender, _addrToDelete);\n    }\n\n    /**\n    * @notice Adds a particapants to a organisation\n    * @dev Emit ParticipantWhitelisted event\n    * @param _addrOrga address of organisation\n    * @param _addrParticipant address of particapant \n    */\n    function addParticipant(address _addrOrga, address _addrParticipant ) external {\n        //TODO: verify with oracle _addrParticipant is not an organisation address\n        require(organisation[_addrOrga].ethAddress == msg.sender, 'You are not the owner of the organization');\n        require(!organisation[_addrOrga].participants[_addrParticipant], 'Address already whitelisted for this organization');\n        organisation[_addrOrga].participants[_addrParticipant] = true;\n        emit ParticipantWhitelisted(_addrParticipant, _addrOrga);\n    }\n\n    /**\n    * @notice Add a contest\n    * @dev Emit ContestCreated event\n    * @param _name Name of the contest\n    * @param _themeIds List of thematics IDs\n    * @param _eligibleCountryIds List of country IDs\n    * @param _applicationEndDate End Date of application period \n    * @param _votingEndDate End Date of voting period \n    * @param _funds Value of funds \n    */\n    function addContest(string memory _name, uint[] memory _themeIds, uint[] memory _eligibleCountryIds, uint _applicationEndDate, uint _votingEndDate, uint _funds) external payable {\n        require(yugo.balanceOf(msg.sender) > 0, \"you need Yugo governance token to create a contest\");\n        require(!contests[msg.sender].isCreated, 'Organisation already created a contest');\n        require(_funds == msg.value, \"Amount of funds in escrow is different from the data you provided\");\n        // require(bytes(confidentials[msg.sender].seed).length == 0, \"a seed phrase already exists\");\n        contests[msg.sender].name = _name;\n        contests[msg.sender].themeIDs = _themeIds;\n        contests[msg.sender].countryIDs = _eligibleCountryIds;\n        contests[msg.sender].applicationEndDate = _applicationEndDate;\n        contests[msg.sender].votingEndDate = _votingEndDate;\n        contests[msg.sender].fundsAvailable = _funds;\n        contests[msg.sender].isCreated = true;\n        escrow.depositGrant(msg.sender, msg.value);\n        emit ContestCreated(msg.sender, _name, _funds);\n    }\n\n    /**\n    * @notice Creates an action\n    * @dev Emit ActionCreated event\n    * @param _creatorOfContest Address of creator \n    * @param _name Name of Action\n    * @param _requiredFunds Value of funds\n    */\n    function createAction(address _creatorOfContest, string memory _name, uint _requiredFunds) external {\n        require(yugo.balanceOf(msg.sender) > 0, \"you need Yugo governance token to create an action\");\n        require(_creatorOfContest != msg.sender, 'Contest creator cannot propose actions');\n        require(contests[_creatorOfContest].isCreated, 'This organization does not have open contest');\n        require(!contests[_creatorOfContest].actions[msg.sender].isCreated, 'You have already created an action');\n        //Verify if action creator country is eligible to participate\n        uint[] memory eligibleCountries = contests[_creatorOfContest].countryIDs;\n        uint orgaCountry = organisation[msg.sender].country;\n        bool countryFound=false;\n        for (uint i=0; i<eligibleCountries.length; i++) {\n            if(eligibleCountries[i]==orgaCountry){\n                countryFound=true;\n                break;\n            }\n        }\n        //Verify at least one theme from the orga wanting to create an action is in the contest themes \n        uint[] memory eligibleThemes = contests[_creatorOfContest].themeIDs;\n        uint[] memory orgaThemes = organisation[msg.sender].themes;\n        bool themeFound=false;\n        for (uint i=0; i<eligibleThemes.length; i++) {\n            for (uint j=0; i<orgaThemes.length; i++) {\n                if(eligibleThemes[i]==orgaThemes[j]){\n                    themeFound=true;\n                    break;\n                }\n            }\n        }\n        require(countryFound == true, \"You are not eligible to participate in this contest\");\n        require(themeFound == true, \"Themes of your organisation are not eligible for this contest\");\n        contests[_creatorOfContest].actions[msg.sender].name = _name;\n        contests[_creatorOfContest].actions[msg.sender].requiredFunds = _requiredFunds;\n        contests[_creatorOfContest].actions[msg.sender].isCreated = true;\n        emit ActionCreated(_creatorOfContest, msg.sender, _name, _requiredFunds);\n    }\n\n    /**\n    * @notice Deletes an action\n    * @dev Emit ActionCreated event\n    * @dev requires the msg.sender to be the action's owner\n    * @dev can only be deleted before the application end date\n    * @param _creatorOfContest Address of creator \n    */\n    function deleteActions(address _creatorOfContest) external {\n        require(contests[_creatorOfContest].actions[msg.sender].isCreated, 'you did not create any action for this contest');\n        uint currentTime = block.timestamp; //NOTE: test currentTime might change for check bool applicationsClosed == false\n        require(currentTime < contests[_creatorOfContest].applicationEndDate, 'Votes have started.You cannot delete this action');\n        string memory actionName = contests[_creatorOfContest].actions[msg.sender].name;\n        delete contests[_creatorOfContest].actions[msg.sender];\n        emit ActionDeleted(_creatorOfContest, msg.sender, actionName);\n    }\n\n    /**\n    * @notice Vote for a Action\n    * @dev At each vote, we compare voteNumber of the winning Action with newly voted one. If truee, then push in array\n    * @dev Emit HasVotedForAction event\n    * @param _creatorOfContest Address of Contest creator \n    * @param _actionCreator Address of Action creator\n    */\n    function voteForAction(address _creatorOfContest, address _actionCreator, address _participantOrga) external {\n        uint currentTime = block.timestamp; //NOTE: test currentTime might change for check bool timeToVote == true\n        require(currentTime >= contests[_creatorOfContest].applicationEndDate, 'Voting has not started');\n        require(currentTime < contests[_creatorOfContest].votingEndDate, 'Voting is closed');\n        require(msg.sender != _creatorOfContest && msg.sender != _actionCreator, 'You can not vote for this action');\n        require(!contests[_creatorOfContest].hasVoted[msg.sender], 'You have already voted');\n        require(yugo.balanceOf(_participantOrga) > 0, \"you need Yugo governance token to create a contest\");\n        \n        contests[_creatorOfContest].actions[_actionCreator].voteNumber += 1;\n        contests[_creatorOfContest].hasVoted[msg.sender] = true;\n\n        if(contests[_creatorOfContest].winningActionAddresses.length == 0){\n            contests[_creatorOfContest].winningActionAddresses.push(_actionCreator);\n        }else if(contests[_creatorOfContest].actions[contests[_creatorOfContest].winningActionAddresses[0]].voteNumber < contests[_creatorOfContest].actions[_actionCreator].voteNumber){\n            delete contests[_creatorOfContest].winningActionAddresses;\n            contests[_creatorOfContest].winningActionAddresses.push(_actionCreator);\n        }else if(contests[_creatorOfContest].actions[contests[_creatorOfContest].winningActionAddresses[0]].voteNumber == contests[_creatorOfContest].actions[_actionCreator].voteNumber){\n            contests[_creatorOfContest].winningActionAddresses.push(_actionCreator);\n        }\n        emit HasVotedForAction(_creatorOfContest, _actionCreator, msg.sender);\n        delete currentTime;\n    }\n\n    /**\n    * @notice Tally the vote\n    * @dev Emit VoteTallied event\n    * @param _creatorOfContest Address of Contest creator \n    */\n    function tallyVote(address _creatorOfContest) external {\n        // TODO: tallying votes with time counter / controller / check only callable from manager\n        //TODO needs more testing for multiple winners\n        uint currentTime = block.timestamp; //NOTE: test currentTime might change for check bool timeToTallyVotes == true\n        require(currentTime > contests[_creatorOfContest].votingEndDate, \"Voting has not finished yet\");\n        address winner = contests[_creatorOfContest].winningActionAddresses[0];\n        emit VoteTallied(\n            winner,\n            contests[_creatorOfContest].actions[winner].name, \n            contests[_creatorOfContest].actions[winner].voteNumber, \n            contests[_creatorOfContest].actions[winner].requiredFunds\n            );\n    }\n\n    /**\n    * @notice returns the first winner of the array winningActionAddresses\n    * @dev used in interface IYugoDao\n    * @param _creatorOfContest Address of Contest creator \n    */\n    function getContestWinner(address _creatorOfContest) view public returns(address, uint) {\n        address _winner = contests[_creatorOfContest].winningActionAddresses[0];\n        uint _requiredFunds = contests[_creatorOfContest].actions[_winner].requiredFunds;\n        return (_winner, _requiredFunds);\n    }\n    \n}   ",
  "sourcePath": "/Users/urdoom/blockchain_development/Alyra/YU-GO/Truffle/contracts/YugoDao.sol",
  "compiler": {
    "name": "solc",
    "version": "0.8.11+commit.d7f03943.Emscripten.clang"
  },
  "schemaVersion": "3.4.3",
  "updatedAt": "2022-01-19T18:23:06.984Z",
  "networkType": "ethereum",
  "devdoc": {
    "errors": {
      "Unauthorized()": [
        {
          "details": "Sender not authorized for this operation."
        }
      ]
    },
    "kind": "dev",
    "methods": {
      "addContest(string,uint256[],uint256[],uint256,uint256,uint256)": {
        "details": "Emit ContestCreated event",
        "params": {
          "_applicationEndDate": "End Date of application period ",
          "_eligibleCountryIds": "List of country IDs",
          "_funds": "Value of funds ",
          "_name": "Name of the contest",
          "_themeIds": "List of thematics IDs",
          "_votingEndDate": "End Date of voting period "
        }
      },
      "addParticipant(address,address)": {
        "details": "Emit ParticipantWhitelisted event",
        "params": {
          "_addrOrga": "address of organisation",
          "_addrParticipant": "address of particapant "
        }
      },
      "createAction(address,string,uint256)": {
        "details": "Emit ActionCreated event",
        "params": {
          "_creatorOfContest": "Address of creator ",
          "_name": "Name of Action",
          "_requiredFunds": "Value of funds"
        }
      },
      "deleteActions(address)": {
        "details": "Emit ActionCreated eventrequires the msg.sender to be the action's ownercan only be deleted before the application end date",
        "params": {
          "_creatorOfContest": "Address of creator "
        }
      },
      "getContestWinner(address)": {
        "details": "used in interface IYugoDao",
        "params": {
          "_creatorOfContest": "Address of Contest creator "
        }
      },
      "getCountries()": {
        "returns": {
          "_0": "countryList List of countries"
        }
      },
      "getThematics()": {
        "returns": {
          "_0": "themeList List of thematics"
        }
      },
      "organisationRegistrationStatus(address)": {
        "details": "- is executed by outside callers and internal functions",
        "params": {
          "_orga": "Address of organisation"
        },
        "returns": {
          "_0": "State of isRegistered, true if organisation is registered"
        }
      },
      "participantIsWhiteListed(address,address)": {
        "details": "Can be called either by an organisation or a participant",
        "params": {
          "_addrOrganisation": "Organisation's address",
          "_addrParticipant": "Participant's address"
        },
        "returns": {
          "_0": "True if the address exists, false if not"
        }
      },
      "registerOrganisation(uint256[],uint256)": {
        "details": "Creates a mapping for the sender in organisationEmit OrganizationRegistered event",
        "params": {
          "countryId": "Country id ",
          "thematicIds": "List of thematics id"
        }
      },
      "removeFromWhitelist(address)": {
        "details": "Emit ParticipantRemoved event",
        "params": {
          "_addrToDelete": "the ethAddress of the participant to be deleted "
        }
      },
      "tallyVote(address)": {
        "details": "Emit VoteTallied event",
        "params": {
          "_creatorOfContest": "Address of Contest creator "
        }
      },
      "voteForAction(address,address,address)": {
        "details": "At each vote, we compare voteNumber of the winning Action with newly voted one. If truee, then push in arrayEmit HasVotedForAction event",
        "params": {
          "_actionCreator": "Address of Action creator",
          "_creatorOfContest": "Address of Contest creator "
        }
      }
    },
    "title": "Smart Contract for the DAO",
    "version": 1
  },
  "userdoc": {
    "kind": "user",
    "methods": {
      "addContest(string,uint256[],uint256[],uint256,uint256,uint256)": {
        "notice": "Add a contest"
      },
      "addParticipant(address,address)": {
        "notice": "Adds a particapants to a organisation"
      },
      "createAction(address,string,uint256)": {
        "notice": "Creates an action"
      },
      "deleteActions(address)": {
        "notice": "Deletes an action"
      },
      "getContestWinner(address)": {
        "notice": "returns the first winner of the array winningActionAddresses"
      },
      "getCountries()": {
        "notice": "Return the list of countries"
      },
      "getThematics()": {
        "notice": "Return the list of thematics"
      },
      "organisationRegistrationStatus(address)": {
        "notice": "Returns if organisation is registered"
      },
      "participantIsWhiteListed(address,address)": {
        "notice": "Returns true if the participant is whitelisted"
      },
      "registerOrganisation(uint256[],uint256)": {
        "notice": "Registers an Organisation"
      },
      "removeFromWhitelist(address)": {
        "notice": "allows the organisation (msg.sender) to delete a member from its whitelist"
      },
      "tallyVote(address)": {
        "notice": "Tally the vote"
      },
      "voteForAction(address,address,address)": {
        "notice": "Vote for a Action"
      }
    },
    "notice": "This Smart contract stores all vote history ",
    "version": 1
  }
}