{
  "contractName": "YugoManager",
  "abi": [
    {
      "anonymous": false,
      "inputs": [
        {
          "indexed": false,
          "internalType": "address",
          "name": "yugo",
          "type": "address"
        },
        {
          "indexed": false,
          "internalType": "address",
          "name": "yugodao",
          "type": "address"
        }
      ],
      "name": "ContractsAddrSet",
      "type": "event"
    },
    {
      "anonymous": false,
      "inputs": [
        {
          "indexed": false,
          "internalType": "address",
          "name": "organisation",
          "type": "address"
        }
      ],
      "name": "FundsTransferedToWinner",
      "type": "event"
    },
    {
      "anonymous": false,
      "inputs": [
        {
          "indexed": true,
          "internalType": "address",
          "name": "previousOwner",
          "type": "address"
        },
        {
          "indexed": true,
          "internalType": "address",
          "name": "newOwner",
          "type": "address"
        }
      ],
      "name": "OwnershipTransferred",
      "type": "event"
    },
    {
      "anonymous": false,
      "inputs": [
        {
          "indexed": false,
          "internalType": "address",
          "name": "organisation",
          "type": "address"
        },
        {
          "indexed": false,
          "internalType": "uint256",
          "name": "value",
          "type": "uint256"
        }
      ],
      "name": "Received",
      "type": "event"
    },
    {
      "anonymous": false,
      "inputs": [
        {
          "indexed": false,
          "internalType": "address",
          "name": "organisation",
          "type": "address"
        }
      ],
      "name": "TokenPurchasedBy",
      "type": "event"
    },
    {
      "anonymous": false,
      "inputs": [
        {
          "indexed": false,
          "internalType": "address",
          "name": "recipient",
          "type": "address"
        },
        {
          "indexed": false,
          "internalType": "uint256",
          "name": "amount",
          "type": "uint256"
        }
      ],
      "name": "YugoTransfer",
      "type": "event"
    },
    {
      "inputs": [],
      "name": "owner",
      "outputs": [
        {
          "internalType": "address",
          "name": "",
          "type": "address"
        }
      ],
      "stateMutability": "view",
      "type": "function",
      "constant": true
    },
    {
      "inputs": [],
      "name": "renounceOwnership",
      "outputs": [],
      "stateMutability": "nonpayable",
      "type": "function"
    },
    {
      "inputs": [
        {
          "internalType": "address",
          "name": "newOwner",
          "type": "address"
        }
      ],
      "name": "transferOwnership",
      "outputs": [],
      "stateMutability": "nonpayable",
      "type": "function"
    },
    {
      "inputs": [
        {
          "internalType": "address",
          "name": "_yugo",
          "type": "address"
        },
        {
          "internalType": "address",
          "name": "_dao",
          "type": "address"
        }
      ],
      "name": "setContractsAddresses",
      "outputs": [],
      "stateMutability": "nonpayable",
      "type": "function"
    },
    {
      "inputs": [],
      "name": "purchaseYugo",
      "outputs": [],
      "stateMutability": "payable",
      "type": "function",
      "payable": true
    },
    {
      "inputs": [
        {
          "internalType": "address payable",
          "name": "_to",
          "type": "address"
        },
        {
          "internalType": "uint256",
          "name": "_amount",
          "type": "uint256"
        }
      ],
      "name": "withdrawEth",
      "outputs": [],
      "stateMutability": "payable",
      "type": "function",
      "payable": true
    },
    {
      "inputs": [
        {
          "internalType": "address",
          "name": "account",
          "type": "address"
        }
      ],
      "name": "yugoBalanceOf",
      "outputs": [
        {
          "internalType": "uint256",
          "name": "",
          "type": "uint256"
        }
      ],
      "stateMutability": "view",
      "type": "function",
      "constant": true
    },
    {
      "inputs": [
        {
          "internalType": "address",
          "name": "_account",
          "type": "address"
        }
      ],
      "name": "hasEthDeposit",
      "outputs": [
        {
          "internalType": "bool",
          "name": "_ledgerState",
          "type": "bool"
        }
      ],
      "stateMutability": "view",
      "type": "function",
      "constant": true
    },
    {
      "inputs": [],
      "name": "transferYugo",
      "outputs": [],
      "stateMutability": "nonpayable",
      "type": "function"
    }
  ],
  "bytecode": "0x608060405267016345785d8a000060035534801561001c57600080fd5b506100263361002b565b61007b565b600080546001600160a01b038381166001600160a01b0319831681178455604051919092169283917f8be0079c531659141344cd1fd0a4f28419497f9722a3daafe3b4186f6b6457e09190a35050565b610c378061008a6000396000f3fe6080604052600436106100865760003560e01c8063715018a611610059578063715018a6146100f05780638da5cb5b14610105578063d8437ab31461012d578063f2fde38b1461014d578063fd66d9811461016d57600080fd5b8063056e75971461008b57806313e4e5c6146100a25780631b9a91a4146100aa57806364e2a0e0146100bd575b600080fd5b34801561009757600080fd5b506100a06101b9565b005b6100a061041d565b6100a06100b83660046109bd565b6106b1565b3480156100c957600080fd5b506100dd6100d83660046109e9565b61077a565b6040519081526020015b60405180910390f35b3480156100fc57600080fd5b506100a06107ef565b34801561011157600080fd5b506000546040516001600160a01b0390911681526020016100e7565b34801561013957600080fd5b506100a0610148366004610a0d565b610825565b34801561015957600080fd5b506100a06101683660046109e9565b6108bd565b34801561017957600080fd5b506101a96101883660046109e9565b6003546001600160a01b039091166000908152600460205260409020541490565b60405190151581526020016100e7565b60065460ff16156102025760405162461bcd60e51b815260206004820152600e60248201526d4e6f2072652d656e7472616e637960901b60448201526064015b60405180910390fd5b6006805460ff1916600117905560035433600090815260046020526040902054146102655760405162461bcd60e51b81526020600482015260136024820152721b9bc8115512081dd85cc81c9958d95a5d9959606a1b60448201526064016101f9565b3360009081526005602052604090205460ff1615156001146102c95760405162461bcd60e51b815260206004820152601e60248201527f596f7520616c726561647920726563656976656420796f7572205975676f000060448201526064016101f9565b336000908152600560209081526040808320805460ff19169055600154815163313ce56760e01b815291516001600160a01b039091169263313ce56792600480820193918290030181865afa158015610326573d6000803e3d6000fd5b505050506040513d601f19601f8201168201806040525081019061034a9190610a46565b61035590600a610b63565b610360906001610b72565b60015460405163a9059cbb60e01b8152336004820152602481018390529192506001600160a01b03169063a9059cbb906044016020604051808303816000875af11580156103b2573d6000803e3d6000fd5b505050506040513d601f19601f820116820180604052508101906103d69190610b91565b5060408051338152602081018390527fe94c6e629948b607c16a4b9710b4e775200e3c7963e20b6cbb8dccc8da65d870910160405180910390a1506006805460ff19169055565b600254604051635eb94b9960e11b81523360048201526001600160a01b039091169063bd729732906024016020604051808303816000875af1158015610467573d6000803e3d6000fd5b505050506040513d601f19601f8201168201806040525081019061048b9190610b91565b15156001146104f45760405162461bcd60e51b815260206004820152602f60248201527f796f75206e65656420746f206265207265676973746572656420746f2070757260448201526e31b430b9b2903a3432903a37b5b2b760891b60648201526084016101f9565b33600090815260046020526040902054156105515760405162461bcd60e51b815260206004820152601760248201527f796f752068617665206d6164652061206465706f73697400000000000000000060448201526064016101f9565b6001546040516370a0823160e01b81523360048201526001600160a01b03909116906370a0823190602401602060405180830381865afa158015610599573d6000803e3d6000fd5b505050506040513d601f19601f820116820180604052508101906105bd9190610bb3565b1561060a5760405162461bcd60e51b815260206004820152601d60248201527f796f7520616c726561647920707572636861736564206120746f6b656e00000060448201526064016101f9565b600354341461064e5760405162461bcd60e51b815260206004820152601060248201526f1ddc9bdb99c811551208185b5bdd5b9d60821b60448201526064016101f9565b33600081815260046020908152604080832034908190556005835292819020805460ff191660011790558051938452908301919091527f88a5966d370b9919b20f3e2c13ff65706f196a4e32cc2c12bf57088f88525874910160405180910390a1565b6000546001600160a01b031633146106db5760405162461bcd60e51b81526004016101f990610bcc565b6000826001600160a01b03168260405160006040518083038185875af1925050503d8060008114610728576040519150601f19603f3d011682016040523d82523d6000602084013e61072d565b606091505b50509050806107755760405162461bcd60e51b81526020600482015260146024820152732330b4b632b2103a379039b2b7321022ba3432b960611b60448201526064016101f9565b505050565b6001546040516370a0823160e01b81526001600160a01b03838116600483015260009216906370a0823190602401602060405180830381865afa1580156107c5573d6000803e3d6000fd5b505050506040513d601f19601f820116820180604052508101906107e99190610bb3565b92915050565b6000546001600160a01b031633146108195760405162461bcd60e51b81526004016101f990610bcc565b6108236000610958565b565b6000546001600160a01b0316331461084f5760405162461bcd60e51b81526004016101f990610bcc565b600180546001600160a01b038481166001600160a01b03199283168117909355600280549185169190921681179091556040805192835260208301919091527f9002c211abd499252e56273224dd6a3f259ba469ff482e4e6e4a13fb3d6b154e910160405180910390a15050565b6000546001600160a01b031633146108e75760405162461bcd60e51b81526004016101f990610bcc565b6001600160a01b03811661094c5760405162461bcd60e51b815260206004820152602660248201527f4f776e61626c653a206e6577206f776e657220697320746865207a65726f206160448201526564647265737360d01b60648201526084016101f9565b61095581610958565b50565b600080546001600160a01b038381166001600160a01b0319831681178455604051919092169283917f8be0079c531659141344cd1fd0a4f28419497f9722a3daafe3b4186f6b6457e09190a35050565b6001600160a01b038116811461095557600080fd5b600080604083850312156109d057600080fd5b82356109db816109a8565b946020939093013593505050565b6000602082840312156109fb57600080fd5b8135610a06816109a8565b9392505050565b60008060408385031215610a2057600080fd5b8235610a2b816109a8565b91506020830135610a3b816109a8565b809150509250929050565b600060208284031215610a5857600080fd5b815160ff81168114610a0657600080fd5b634e487b7160e01b600052601160045260246000fd5b600181815b80851115610aba578160001904821115610aa057610aa0610a69565b80851615610aad57918102915b93841c9390800290610a84565b509250929050565b600082610ad1575060016107e9565b81610ade575060006107e9565b8160018114610af45760028114610afe57610b1a565b60019150506107e9565b60ff841115610b0f57610b0f610a69565b50506001821b6107e9565b5060208310610133831016604e8410600b8410161715610b3d575081810a6107e9565b610b478383610a7f565b8060001904821115610b5b57610b5b610a69565b029392505050565b6000610a0660ff841683610ac2565b6000816000190483118215151615610b8c57610b8c610a69565b500290565b600060208284031215610ba357600080fd5b81518015158114610a0657600080fd5b600060208284031215610bc557600080fd5b5051919050565b6020808252818101527f4f776e61626c653a2063616c6c6572206973206e6f7420746865206f776e657260408201526060019056fea264697066735822122075024d87b06033c942905b0754e5ee4b000c57a05fbce0113b5be8d0e49bb3f064736f6c634300080b0033",
  "immutableReferences": {},
  "source": "// SPDX-License-Identifier: GPL-3.0\npragma solidity ^0.8.9;\n\nimport \"@openzeppelin/contracts/access/Ownable.sol\";\nimport \"./interfaces/IYugo.sol\";\nimport \"./interfaces/IYugoDao.sol\";\n\n/**\n* @notice This smart contract allows you to purchase and claim your Yugo Token \n*/\ncontract YugoManager is Ownable {\n\n    IYugo private yugo;\n    IYugoDao private yugoDao;\n\n    uint yugoTokenCost = 0.1 ether; \n    mapping (address => uint) EthLedger;\n    mapping (address => bool) EligibleToClaimYugo;\n    bool internal locked;\n\n    modifier noReentrant() {\n        require(!locked, \"No re-entrancy\");\n        locked = true;\n        _;\n        locked = false;\n    }\n\n    event YugoTransfer (address recipient, uint256 amount);\n    event Received(address organisation, uint value);\n    event TokenPurchasedBy(address organisation);\n    event FundsTransferedToWinner(address organisation);\n    event ContractsAddrSet(address yugo, address yugodao);\n\n    // receive() external payable {\n    //     purchaseYugo();\n    // }\n\n    /**\n    * @notice Set smart contract addresses of YugoDao and VerifySignature\n    * @param _yugo Address of YugoToken\n    * @param _dao Address of YugoDao\n    */\n    function setContractsAddresses(address _yugo, address _dao) external onlyOwner {\n        yugo = IYugo(_yugo);\n        yugoDao = IYugoDao(_dao);\n        emit ContractsAddrSet(_yugo, _dao);\n    }\n        \n     /**\n    * @notice receives ETH\n    * @dev verifies that the organisation is registered\n    * @dev verifies that the caller did not purchase a token before (token are burned at subscription deadline). \n    * @dev verifies that the ETH sent equals the token price\n    */\n    function purchaseYugo() external payable {\n        require(yugoDao.organisationRegistrationStatus(msg.sender) == true, 'you need to be registered to purchase the token');\n        require(EthLedger[msg.sender] == 0, 'you have made a deposit');\n        require(yugo.balanceOf(msg.sender) == 0, \"you already purchased a token\");\n        require(msg.value == yugoTokenCost, \"wrong ETH amount\");\n        EthLedger[msg.sender] = msg.value; // specifies that ETH was deposited\n        EligibleToClaimYugo[msg.sender] = true; //specifies that Yugo can now be claimed by the caller\n        emit Received(msg.sender, msg.value);\n    }\n\n    /**\n    * @notice sends ETH to pay for the project expenditures, only the admin can call it.  \n    * @param _to - the address of a staff member\n    * @param _amount - the amount to send to the recipient\n    * @dev requires success\n    */\n    function withdrawEth(address payable _to, uint _amount) public payable onlyOwner {\n        (bool success, ) = _to.call{value: _amount}(\"\");\n        require(success, \"Failed to send Ether\");\n    }\n\n    /**\n    * @notice checks the Yugo balance of an account\n    * @return a balance type uint256\n    */\n    function yugoBalanceOf(address account) public view returns (uint256) {\n        return yugo.balanceOf(account);\n    }\n\n    /**\n    * @notice Returns deposit state of organization\n    * @return _ledgerState boolean true if organisation has deposit for yugo token\n    */\n    function hasEthDeposit(address _account) external view returns(bool _ledgerState) {        \n        _ledgerState = EthLedger[_account] == yugoTokenCost;\n        return _ledgerState;\n    }\n\n    /**\n    * @notice claim Yugo token \n    * @dev the ETH ledger of the caller must show that the token was purchased\n    * @dev The Yugo Ledger of the caller must be at 0. <br />\n    * Either because it is a first time purchase or because the period of validity of the token has passed\n    * and must be renewed. <br />\n    * @dev Re-entrancy - the noReentrant modifier ensures that the function can not\n    * be run multiple times in parallel. The function is locked until it finishes.  <br />\n    * @dev Pull-Over-Push - the token was not sent after purchase but the buyer was marked as \n    * eligible to claim the token. Afterwards, the condition of eligibility is updated before \n    * the transfer. \n    */\n    function transferYugo() external noReentrant {\n        require(EthLedger[msg.sender] == yugoTokenCost, \"no ETH was received\");\n        require(EligibleToClaimYugo[msg.sender] == true, \"You already received your Yugo\");\n        EligibleToClaimYugo[msg.sender] = false;\n        uint256 amount = 1*10**yugo.decimals();\n        yugo.transfer(msg.sender, amount);\n        emit YugoTransfer(msg.sender, amount);\n    }\n\n\n    // TODO:function verifyByOracle orga\n\n}",
  "sourcePath": "/home/kojche/Documents/projects/alyra/certif-alyra/yu-go-dao/Truffle/contracts/YugoManager.sol",
  "compiler": {
    "name": "solc",
    "version": "0.8.11+commit.d7f03943.Emscripten.clang"
  },
  "schemaVersion": "3.4.3",
  "updatedAt": "2022-01-22T03:27:26.075Z",
  "networkType": "ethereum",
  "devdoc": {
    "kind": "dev",
    "methods": {
      "hasEthDeposit(address)": {
        "returns": {
          "_ledgerState": "boolean true if organisation has deposit for yugo token"
        }
      },
      "owner()": {
        "details": "Returns the address of the current owner."
      },
      "purchaseYugo()": {
        "details": "verifies that the organisation is registeredverifies that the caller did not purchase a token before (token are burned at subscription deadline). verifies that the ETH sent equals the token price"
      },
      "renounceOwnership()": {
        "details": "Leaves the contract without owner. It will not be possible to call `onlyOwner` functions anymore. Can only be called by the current owner. NOTE: Renouncing ownership will leave the contract without an owner, thereby removing any functionality that is only available to the owner."
      },
      "setContractsAddresses(address,address)": {
        "params": {
          "_dao": "Address of YugoDao",
          "_yugo": "Address of YugoToken"
        }
      },
      "transferOwnership(address)": {
        "details": "Transfers ownership of the contract to a new account (`newOwner`). Can only be called by the current owner."
      },
      "transferYugo()": {
        "details": "the ETH ledger of the caller must show that the token was purchasedThe Yugo Ledger of the caller must be at 0. <br /> Either because it is a first time purchase or because the period of validity of the token has passed and must be renewed. <br />Re-entrancy - the noReentrant modifier ensures that the function can not be run multiple times in parallel. The function is locked until it finishes.  <br />Pull-Over-Push - the token was not sent after purchase but the buyer was marked as  eligible to claim the token. Afterwards, the condition of eligibility is updated before  the transfer. "
      },
      "withdrawEth(address,uint256)": {
        "details": "requires success",
        "params": {
          "_amount": "- the amount to send to the recipient",
          "_to": "- the address of a staff member"
        }
      },
      "yugoBalanceOf(address)": {
        "returns": {
          "_0": "a balance type uint256"
        }
      }
    },
    "version": 1
  },
  "userdoc": {
    "kind": "user",
    "methods": {
      "hasEthDeposit(address)": {
        "notice": "Returns deposit state of organization"
      },
      "purchaseYugo()": {
        "notice": "receives ETH"
      },
      "setContractsAddresses(address,address)": {
        "notice": "Set smart contract addresses of YugoDao and VerifySignature"
      },
      "transferYugo()": {
        "notice": "claim Yugo token "
      },
      "withdrawEth(address,uint256)": {
        "notice": "sends ETH to pay for the project expenditures, only the admin can call it.  "
      },
      "yugoBalanceOf(address)": {
        "notice": "checks the Yugo balance of an account"
      }
    },
    "notice": "This smart contract allows you to purchase and claim your Yugo Token ",
    "version": 1
  }
}