{
  "contractName": "Yugo",
  "abi": [
    {
      "inputs": [
        {
          "internalType": "address",
          "name": "_manager",
          "type": "address"
        }
      ],
      "stateMutability": "nonpayable",
      "type": "constructor"
    },
    {
      "anonymous": false,
      "inputs": [
        {
          "indexed": true,
          "internalType": "address",
          "name": "owner",
          "type": "address"
        },
        {
          "indexed": true,
          "internalType": "address",
          "name": "spender",
          "type": "address"
        },
        {
          "indexed": false,
          "internalType": "uint256",
          "name": "value",
          "type": "uint256"
        }
      ],
      "name": "Approval",
      "type": "event"
    },
    {
      "anonymous": false,
      "inputs": [
        {
          "indexed": true,
          "internalType": "address",
          "name": "delegator",
          "type": "address"
        },
        {
          "indexed": true,
          "internalType": "address",
          "name": "fromDelegate",
          "type": "address"
        },
        {
          "indexed": true,
          "internalType": "address",
          "name": "toDelegate",
          "type": "address"
        }
      ],
      "name": "DelegateChanged",
      "type": "event"
    },
    {
      "anonymous": false,
      "inputs": [
        {
          "indexed": true,
          "internalType": "address",
          "name": "delegate",
          "type": "address"
        },
        {
          "indexed": false,
          "internalType": "uint256",
          "name": "previousBalance",
          "type": "uint256"
        },
        {
          "indexed": false,
          "internalType": "uint256",
          "name": "newBalance",
          "type": "uint256"
        }
      ],
      "name": "DelegateVotesChanged",
      "type": "event"
    },
    {
      "anonymous": false,
      "inputs": [
        {
          "indexed": true,
          "internalType": "address",
          "name": "previousOwner",
          "type": "address"
        },
        {
          "indexed": true,
          "internalType": "address",
          "name": "newOwner",
          "type": "address"
        }
      ],
      "name": "OwnershipTransferred",
      "type": "event"
    },
    {
      "anonymous": false,
      "inputs": [
        {
          "indexed": false,
          "internalType": "address",
          "name": "account",
          "type": "address"
        }
      ],
      "name": "Paused",
      "type": "event"
    },
    {
      "anonymous": false,
      "inputs": [
        {
          "indexed": true,
          "internalType": "bytes32",
          "name": "role",
          "type": "bytes32"
        },
        {
          "indexed": true,
          "internalType": "bytes32",
          "name": "previousAdminRole",
          "type": "bytes32"
        },
        {
          "indexed": true,
          "internalType": "bytes32",
          "name": "newAdminRole",
          "type": "bytes32"
        }
      ],
      "name": "RoleAdminChanged",
      "type": "event"
    },
    {
      "anonymous": false,
      "inputs": [
        {
          "indexed": true,
          "internalType": "bytes32",
          "name": "role",
          "type": "bytes32"
        },
        {
          "indexed": true,
          "internalType": "address",
          "name": "account",
          "type": "address"
        },
        {
          "indexed": true,
          "internalType": "address",
          "name": "sender",
          "type": "address"
        }
      ],
      "name": "RoleGranted",
      "type": "event"
    },
    {
      "anonymous": false,
      "inputs": [
        {
          "indexed": true,
          "internalType": "bytes32",
          "name": "role",
          "type": "bytes32"
        },
        {
          "indexed": true,
          "internalType": "address",
          "name": "account",
          "type": "address"
        },
        {
          "indexed": true,
          "internalType": "address",
          "name": "sender",
          "type": "address"
        }
      ],
      "name": "RoleRevoked",
      "type": "event"
    },
    {
      "anonymous": false,
      "inputs": [
        {
          "indexed": true,
          "internalType": "address",
          "name": "from",
          "type": "address"
        },
        {
          "indexed": true,
          "internalType": "address",
          "name": "to",
          "type": "address"
        },
        {
          "indexed": false,
          "internalType": "uint256",
          "name": "value",
          "type": "uint256"
        }
      ],
      "name": "Transfer",
      "type": "event"
    },
    {
      "anonymous": false,
      "inputs": [
        {
          "indexed": false,
          "internalType": "address",
          "name": "account",
          "type": "address"
        }
      ],
      "name": "Unpaused",
      "type": "event"
    },
    {
      "inputs": [],
      "name": "DEFAULT_ADMIN_ROLE",
      "outputs": [
        {
          "internalType": "bytes32",
          "name": "",
          "type": "bytes32"
        }
      ],
      "stateMutability": "view",
      "type": "function",
      "constant": true
    },
    {
      "inputs": [],
      "name": "DOMAIN_SEPARATOR",
      "outputs": [
        {
          "internalType": "bytes32",
          "name": "",
          "type": "bytes32"
        }
      ],
      "stateMutability": "view",
      "type": "function",
      "constant": true
    },
    {
      "inputs": [],
      "name": "MINTER_ROLE",
      "outputs": [
        {
          "internalType": "bytes32",
          "name": "",
          "type": "bytes32"
        }
      ],
      "stateMutability": "view",
      "type": "function",
      "constant": true
    },
    {
      "inputs": [],
      "name": "PAUSER_ROLE",
      "outputs": [
        {
          "internalType": "bytes32",
          "name": "",
          "type": "bytes32"
        }
      ],
      "stateMutability": "view",
      "type": "function",
      "constant": true
    },
    {
      "inputs": [
        {
          "internalType": "address",
          "name": "owner",
          "type": "address"
        },
        {
          "internalType": "address",
          "name": "spender",
          "type": "address"
        }
      ],
      "name": "allowance",
      "outputs": [
        {
          "internalType": "uint256",
          "name": "",
          "type": "uint256"
        }
      ],
      "stateMutability": "view",
      "type": "function",
      "constant": true
    },
    {
      "inputs": [
        {
          "internalType": "address",
          "name": "spender",
          "type": "address"
        },
        {
          "internalType": "uint256",
          "name": "amount",
          "type": "uint256"
        }
      ],
      "name": "approve",
      "outputs": [
        {
          "internalType": "bool",
          "name": "",
          "type": "bool"
        }
      ],
      "stateMutability": "nonpayable",
      "type": "function"
    },
    {
      "inputs": [
        {
          "internalType": "address",
          "name": "account",
          "type": "address"
        }
      ],
      "name": "balanceOf",
      "outputs": [
        {
          "internalType": "uint256",
          "name": "",
          "type": "uint256"
        }
      ],
      "stateMutability": "view",
      "type": "function",
      "constant": true
    },
    {
      "inputs": [
        {
          "internalType": "uint256",
          "name": "amount",
          "type": "uint256"
        }
      ],
      "name": "burn",
      "outputs": [],
      "stateMutability": "nonpayable",
      "type": "function"
    },
    {
      "inputs": [
        {
          "internalType": "address",
          "name": "account",
          "type": "address"
        },
        {
          "internalType": "uint256",
          "name": "amount",
          "type": "uint256"
        }
      ],
      "name": "burnFrom",
      "outputs": [],
      "stateMutability": "nonpayable",
      "type": "function"
    },
    {
      "inputs": [
        {
          "internalType": "address",
          "name": "account",
          "type": "address"
        },
        {
          "internalType": "uint32",
          "name": "pos",
          "type": "uint32"
        }
      ],
      "name": "checkpoints",
      "outputs": [
        {
          "components": [
            {
              "internalType": "uint32",
              "name": "fromBlock",
              "type": "uint32"
            },
            {
              "internalType": "uint224",
              "name": "votes",
              "type": "uint224"
            }
          ],
          "internalType": "struct ERC20Votes.Checkpoint",
          "name": "",
          "type": "tuple"
        }
      ],
      "stateMutability": "view",
      "type": "function",
      "constant": true
    },
    {
      "inputs": [],
      "name": "decimals",
      "outputs": [
        {
          "internalType": "uint8",
          "name": "",
          "type": "uint8"
        }
      ],
      "stateMutability": "view",
      "type": "function",
      "constant": true
    },
    {
      "inputs": [
        {
          "internalType": "address",
          "name": "spender",
          "type": "address"
        },
        {
          "internalType": "uint256",
          "name": "subtractedValue",
          "type": "uint256"
        }
      ],
      "name": "decreaseAllowance",
      "outputs": [
        {
          "internalType": "bool",
          "name": "",
          "type": "bool"
        }
      ],
      "stateMutability": "nonpayable",
      "type": "function"
    },
    {
      "inputs": [
        {
          "internalType": "address",
          "name": "delegatee",
          "type": "address"
        }
      ],
      "name": "delegate",
      "outputs": [],
      "stateMutability": "nonpayable",
      "type": "function"
    },
    {
      "inputs": [
        {
          "internalType": "address",
          "name": "delegatee",
          "type": "address"
        },
        {
          "internalType": "uint256",
          "name": "nonce",
          "type": "uint256"
        },
        {
          "internalType": "uint256",
          "name": "expiry",
          "type": "uint256"
        },
        {
          "internalType": "uint8",
          "name": "v",
          "type": "uint8"
        },
        {
          "internalType": "bytes32",
          "name": "r",
          "type": "bytes32"
        },
        {
          "internalType": "bytes32",
          "name": "s",
          "type": "bytes32"
        }
      ],
      "name": "delegateBySig",
      "outputs": [],
      "stateMutability": "nonpayable",
      "type": "function"
    },
    {
      "inputs": [
        {
          "internalType": "address",
          "name": "account",
          "type": "address"
        }
      ],
      "name": "delegates",
      "outputs": [
        {
          "internalType": "address",
          "name": "",
          "type": "address"
        }
      ],
      "stateMutability": "view",
      "type": "function",
      "constant": true
    },
    {
      "inputs": [
        {
          "internalType": "uint256",
          "name": "blockNumber",
          "type": "uint256"
        }
      ],
      "name": "getPastTotalSupply",
      "outputs": [
        {
          "internalType": "uint256",
          "name": "",
          "type": "uint256"
        }
      ],
      "stateMutability": "view",
      "type": "function",
      "constant": true
    },
    {
      "inputs": [
        {
          "internalType": "address",
          "name": "account",
          "type": "address"
        },
        {
          "internalType": "uint256",
          "name": "blockNumber",
          "type": "uint256"
        }
      ],
      "name": "getPastVotes",
      "outputs": [
        {
          "internalType": "uint256",
          "name": "",
          "type": "uint256"
        }
      ],
      "stateMutability": "view",
      "type": "function",
      "constant": true
    },
    {
      "inputs": [
        {
          "internalType": "bytes32",
          "name": "role",
          "type": "bytes32"
        }
      ],
      "name": "getRoleAdmin",
      "outputs": [
        {
          "internalType": "bytes32",
          "name": "",
          "type": "bytes32"
        }
      ],
      "stateMutability": "view",
      "type": "function",
      "constant": true
    },
    {
      "inputs": [
        {
          "internalType": "address",
          "name": "account",
          "type": "address"
        }
      ],
      "name": "getVotes",
      "outputs": [
        {
          "internalType": "uint256",
          "name": "",
          "type": "uint256"
        }
      ],
      "stateMutability": "view",
      "type": "function",
      "constant": true
    },
    {
      "inputs": [
        {
          "internalType": "bytes32",
          "name": "role",
          "type": "bytes32"
        },
        {
          "internalType": "address",
          "name": "account",
          "type": "address"
        }
      ],
      "name": "grantRole",
      "outputs": [],
      "stateMutability": "nonpayable",
      "type": "function"
    },
    {
      "inputs": [
        {
          "internalType": "bytes32",
          "name": "role",
          "type": "bytes32"
        },
        {
          "internalType": "address",
          "name": "account",
          "type": "address"
        }
      ],
      "name": "hasRole",
      "outputs": [
        {
          "internalType": "bool",
          "name": "",
          "type": "bool"
        }
      ],
      "stateMutability": "view",
      "type": "function",
      "constant": true
    },
    {
      "inputs": [
        {
          "internalType": "address",
          "name": "spender",
          "type": "address"
        },
        {
          "internalType": "uint256",
          "name": "addedValue",
          "type": "uint256"
        }
      ],
      "name": "increaseAllowance",
      "outputs": [
        {
          "internalType": "bool",
          "name": "",
          "type": "bool"
        }
      ],
      "stateMutability": "nonpayable",
      "type": "function"
    },
    {
      "inputs": [],
      "name": "name",
      "outputs": [
        {
          "internalType": "string",
          "name": "",
          "type": "string"
        }
      ],
      "stateMutability": "view",
      "type": "function",
      "constant": true
    },
    {
      "inputs": [
        {
          "internalType": "address",
          "name": "owner",
          "type": "address"
        }
      ],
      "name": "nonces",
      "outputs": [
        {
          "internalType": "uint256",
          "name": "",
          "type": "uint256"
        }
      ],
      "stateMutability": "view",
      "type": "function",
      "constant": true
    },
    {
      "inputs": [
        {
          "internalType": "address",
          "name": "account",
          "type": "address"
        }
      ],
      "name": "numCheckpoints",
      "outputs": [
        {
          "internalType": "uint32",
          "name": "",
          "type": "uint32"
        }
      ],
      "stateMutability": "view",
      "type": "function",
      "constant": true
    },
    {
      "inputs": [],
      "name": "owner",
      "outputs": [
        {
          "internalType": "address",
          "name": "",
          "type": "address"
        }
      ],
      "stateMutability": "view",
      "type": "function",
      "constant": true
    },
    {
      "inputs": [],
      "name": "paused",
      "outputs": [
        {
          "internalType": "bool",
          "name": "",
          "type": "bool"
        }
      ],
      "stateMutability": "view",
      "type": "function",
      "constant": true
    },
    {
      "inputs": [
        {
          "internalType": "address",
          "name": "owner",
          "type": "address"
        },
        {
          "internalType": "address",
          "name": "spender",
          "type": "address"
        },
        {
          "internalType": "uint256",
          "name": "value",
          "type": "uint256"
        },
        {
          "internalType": "uint256",
          "name": "deadline",
          "type": "uint256"
        },
        {
          "internalType": "uint8",
          "name": "v",
          "type": "uint8"
        },
        {
          "internalType": "bytes32",
          "name": "r",
          "type": "bytes32"
        },
        {
          "internalType": "bytes32",
          "name": "s",
          "type": "bytes32"
        }
      ],
      "name": "permit",
      "outputs": [],
      "stateMutability": "nonpayable",
      "type": "function"
    },
    {
      "inputs": [],
      "name": "renounceOwnership",
      "outputs": [],
      "stateMutability": "nonpayable",
      "type": "function"
    },
    {
      "inputs": [
        {
          "internalType": "bytes32",
          "name": "role",
          "type": "bytes32"
        },
        {
          "internalType": "address",
          "name": "account",
          "type": "address"
        }
      ],
      "name": "renounceRole",
      "outputs": [],
      "stateMutability": "nonpayable",
      "type": "function"
    },
    {
      "inputs": [
        {
          "internalType": "bytes32",
          "name": "role",
          "type": "bytes32"
        },
        {
          "internalType": "address",
          "name": "account",
          "type": "address"
        }
      ],
      "name": "revokeRole",
      "outputs": [],
      "stateMutability": "nonpayable",
      "type": "function"
    },
    {
      "inputs": [
        {
          "internalType": "bytes4",
          "name": "interfaceId",
          "type": "bytes4"
        }
      ],
      "name": "supportsInterface",
      "outputs": [
        {
          "internalType": "bool",
          "name": "",
          "type": "bool"
        }
      ],
      "stateMutability": "view",
      "type": "function",
      "constant": true
    },
    {
      "inputs": [],
      "name": "symbol",
      "outputs": [
        {
          "internalType": "string",
          "name": "",
          "type": "string"
        }
      ],
      "stateMutability": "view",
      "type": "function",
      "constant": true
    },
    {
      "inputs": [],
      "name": "totalSupply",
      "outputs": [
        {
          "internalType": "uint256",
          "name": "",
          "type": "uint256"
        }
      ],
      "stateMutability": "view",
      "type": "function",
      "constant": true
    },
    {
      "inputs": [
        {
          "internalType": "address",
          "name": "recipient",
          "type": "address"
        },
        {
          "internalType": "uint256",
          "name": "amount",
          "type": "uint256"
        }
      ],
      "name": "transfer",
      "outputs": [
        {
          "internalType": "bool",
          "name": "",
          "type": "bool"
        }
      ],
      "stateMutability": "nonpayable",
      "type": "function"
    },
    {
      "inputs": [
        {
          "internalType": "address",
          "name": "sender",
          "type": "address"
        },
        {
          "internalType": "address",
          "name": "recipient",
          "type": "address"
        },
        {
          "internalType": "uint256",
          "name": "amount",
          "type": "uint256"
        }
      ],
      "name": "transferFrom",
      "outputs": [
        {
          "internalType": "bool",
          "name": "",
          "type": "bool"
        }
      ],
      "stateMutability": "nonpayable",
      "type": "function"
    },
    {
      "inputs": [
        {
          "internalType": "address",
          "name": "newOwner",
          "type": "address"
        }
      ],
      "name": "transferOwnership",
      "outputs": [],
      "stateMutability": "nonpayable",
      "type": "function"
    },
    {
      "inputs": [],
      "name": "pause",
      "outputs": [],
      "stateMutability": "nonpayable",
      "type": "function"
    },
    {
      "inputs": [],
      "name": "unpause",
      "outputs": [],
      "stateMutability": "nonpayable",
      "type": "function"
    },
    {
      "inputs": [
        {
          "internalType": "address",
          "name": "to",
          "type": "address"
        },
        {
          "internalType": "uint256",
          "name": "amount",
          "type": "uint256"
        }
      ],
      "name": "mint",
      "outputs": [],
      "stateMutability": "nonpayable",
      "type": "function"
    }
  ],
  "bytecode": "0x6101606040527f6e71edae12b1b97f4d1f60370fef10105fa2faae0126114a169c64845d6126c9610140523480156200003757600080fd5b50604051620035f2380380620035f28339810160408190526200005a9162000a41565b604051806040016040528060048152602001635975676f60e01b81525080604051806040016040528060018152602001603160f81b815250604051806040016040528060048152602001635975676f60e01b81525060405180604001604052806002815260200161594760f01b8152508160039080519060200190620000e2929190620009a5565b508051620000f8906004906020840190620009a5565b50506005805460ff1916905550815160209283012081519183019190912060e08290526101008190524660a0818152604080517f8b73c3c69bb8fe3d512ecc4cf759cc79239f7b179b0ffacaa9a75d522b39400f818801819052818301969096526060810194909452608080850193909352308483018190528151808603909301835260c0948501909152815191909501209052919091526101205250620001a03362000233565b620001ad60008262000285565b620001d97f65d7a28e3265b37a6474929f336521b332c1681b933f6cb9f3376673440d862a8262000285565b6200020081620001ec6012600a62000b7f565b620001fa906101f462000b90565b62000310565b6200022c7f9f2df0fed2c77648de5860a4cc508cd0818c85b8b8a1ab4ceeef8d981c8956a68262000285565b5062000c3a565b600b80546001600160a01b038381166001600160a01b0319831681179093556040519116919082907f8be0079c531659141344cd1fd0a4f28419497f9722a3daafe3b4186f6b6457e090600090a35050565b62000291828262000327565b6200030c5760008281526006602090815260408083206001600160a01b03851684529091529020805460ff19166001179055620002cb3390565b6001600160a01b0316816001600160a01b0316837f2f8788117e7eff1d82e926ec794901d17c78024a50270940304540a733656f0d60405160405180910390a45b5050565b6200030c82826200035460201b620010951760201c565b60008281526006602090815260408083206001600160a01b038516845290915290205460ff165b92915050565b6200036b82826200040b60201b620011251760201c565b6001600160e01b036200037f620005088216565b1115620003ec5760405162461bcd60e51b815260206004820152603060248201527f4552433230566f7465733a20746f74616c20737570706c79207269736b73206f60448201526f766572666c6f77696e6720766f74657360801b60648201526084015b60405180910390fd5b62000405600a620012186200050e60201b178362000523565b50505050565b6001600160a01b038216620004635760405162461bcd60e51b815260206004820152601f60248201527f45524332303a206d696e7420746f20746865207a65726f2061646472657373006044820152606401620003e3565b6200047160008383620006d5565b806002600082825462000485919062000bb2565b90915550506001600160a01b03821660009081526020819052604081208054839290620004b490849062000bb2565b90915550506040518181526001600160a01b038316906000907fddf252ad1be2c89b69c2b068fc378daa952ba7f163c4a11628f55a4df523b3ef9060200160405180910390a36200030c600083836200073a565b60025490565b60006200051c828462000bb2565b9392505050565b8254600090819080156200057557856200053f60018362000bcd565b8154811062000552576200055262000be7565b60009182526020909120015464010000000090046001600160e01b031662000578565b60005b6001600160e01b031692506200058f83858760201c565b9150600081118015620005d357504386620005ac60018462000bcd565b81548110620005bf57620005bf62000be7565b60009182526020909120015463ffffffff16145b156200064757620005ef826200075260201b620012241760201c565b86620005fd60018462000bcd565b8154811062000610576200061062000be7565b9060005260206000200160000160046101000a8154816001600160e01b0302191690836001600160e01b03160217905550620006cc565b8560405180604001604052806200066943620007c160201b620012911760201c565b63ffffffff1681526020016200068a856200075260201b620012241760201c565b6001600160e01b0390811690915282546001810184556000938452602093849020835194909301519091166401000000000263ffffffff909316929092179101555b50935093915050565b60055460ff16156200071d5760405162461bcd60e51b815260206004820152601060248201526f14185d5cd8589b194e881c185d5cd95960821b6044820152606401620003e3565b620007358383836200073560201b620007a51760201c565b505050565b620007358383836200082860201b620012f61760201c565b60006001600160e01b03821115620007bd5760405162461bcd60e51b815260206004820152602760248201527f53616665436173743a2076616c756520646f65736e27742066697420696e20326044820152663234206269747360c81b6064820152608401620003e3565b5090565b600063ffffffff821115620007bd5760405162461bcd60e51b815260206004820152602660248201527f53616665436173743a2076616c756520646f65736e27742066697420696e203360448201526532206269747360d01b6064820152608401620003e3565b620008408383836200073560201b620007a51760201c565b6001600160a01b0383811660009081526008602052604080822054858416835291205462000735929182169116838183148015906200087f5750600081115b1562000735576001600160a01b038316156200090c576001600160a01b038316600090815260096020908152604082208291620008c9919062000997901b62001328178562000523565b91509150846001600160a01b0316600080516020620035d2833981519152838360405162000901929190918252602082015260400190565b60405180910390a250505b6001600160a01b0382161562000735576001600160a01b0382166000908152600960209081526040822082916200095091906200050e901b62001218178562000523565b91509150836001600160a01b0316600080516020620035d2833981519152838360405162000988929190918252602082015260400190565b60405180910390a25050505050565b60006200051c828462000bcd565b828054620009b39062000bfd565b90600052602060002090601f016020900481019282620009d7576000855562000a22565b82601f10620009f257805160ff191683800117855562000a22565b8280016001018555821562000a22579182015b8281111562000a2257825182559160200191906001019062000a05565b50620007bd9291505b80821115620007bd576000815560010162000a2b565b60006020828403121562000a5457600080fd5b81516001600160a01b03811681146200051c57600080fd5b634e487b7160e01b600052601160045260246000fd5b600181815b8085111562000ac357816000190482111562000aa75762000aa762000a6c565b8085161562000ab557918102915b93841c939080029062000a87565b509250929050565b60008262000adc575060016200034e565b8162000aeb575060006200034e565b816001811462000b04576002811462000b0f5762000b2f565b60019150506200034e565b60ff84111562000b235762000b2362000a6c565b50506001821b6200034e565b5060208310610133831016604e8410600b841016171562000b54575081810a6200034e565b62000b60838362000a82565b806000190482111562000b775762000b7762000a6c565b029392505050565b60006200051c60ff84168362000acb565b600081600019048311821515161562000bad5762000bad62000a6c565b500290565b6000821982111562000bc85762000bc862000a6c565b500190565b60008282101562000be25762000be262000a6c565b500390565b634e487b7160e01b600052603260045260246000fd5b600181811c9082168062000c1257607f821691505b6020821081141562000c3457634e487b7160e01b600052602260045260246000fd5b50919050565b60805160a05160c05160e05161010051610120516101405161293d62000c956000396000610e13015260006117ab015260006117fa015260006117d50152600061172e0152600061175801526000611782015261293d6000f3fe608060405234801561001057600080fd5b50600436106102485760003560e01c8063715018a61161013b578063a457c2d7116100b8578063d547741f1161007c578063d547741f1461052e578063dd62ed3e14610541578063e63ab1e91461057a578063f1127ed8146105a1578063f2fde38b146105de57600080fd5b8063a457c2d7146104bb578063a9059cbb146104ce578063c3cda520146104e1578063d505accf146104f4578063d53913931461050757600080fd5b80638e539e8c116100ff5780638e539e8c1461047257806391d148541461048557806395d89b41146104985780639ab24eb0146104a0578063a217fddf146104b357600080fd5b8063715018a61461042b57806379cc6790146104335780637ecebe00146104465780638456cb59146104595780638da5cb5b1461046157600080fd5b806339509351116101c9578063587cde1e1161018d578063587cde1e146103785780635c19a95c146103bc5780635c975abb146103cf5780636fcfff45146103da57806370a082311461040257600080fd5b806339509351146103245780633a46b1a8146103375780633f4ba83a1461034a57806340c10f191461035257806342966c681461036557600080fd5b8063248a9ca311610210578063248a9ca3146102c25780632f2ff15d146102e5578063313ce567146102fa5780633644e5151461030957806336568abe1461031157600080fd5b806301ffc9a71461024d57806306fdde0314610275578063095ea7b31461028a57806318160ddd1461029d57806323b872dd146102af575b600080fd5b61026061025b3660046124d6565b6105f1565b60405190151581526020015b60405180910390f35b61027d610628565b60405161026c919061252c565b61026061029836600461257b565b6106ba565b6002545b60405190815260200161026c565b6102606102bd3660046125a5565b6106d0565b6102a16102d03660046125e1565b60009081526006602052604090206001015490565b6102f86102f33660046125fa565b61077f565b005b6040516012815260200161026c565b6102a16107aa565b6102f861031f3660046125fa565b6107b9565b61026061033236600461257b565b610837565b6102a161034536600461257b565b610873565b6102f86108ed565b6102f861036036600461257b565b610923565b6102f86103733660046125e1565b610958565b6103a4610386366004612626565b6001600160a01b039081166000908152600860205260409020541690565b6040516001600160a01b03909116815260200161026c565b6102f86103ca366004612626565b610962565b60055460ff16610260565b6103ed6103e8366004612626565b61096c565b60405163ffffffff909116815260200161026c565b6102a1610410366004612626565b6001600160a01b031660009081526020819052604090205490565b6102f861098e565b6102f861044136600461257b565b6109f4565b6102a1610454366004612626565b610a75565b6102f8610a93565b600b546001600160a01b03166103a4565b6102a16104803660046125e1565b610ac6565b6102606104933660046125fa565b610b22565b61027d610b4d565b6102a16104ae366004612626565b610b5c565b6102a1600081565b6102606104c936600461257b565b610be3565b6102606104dc36600461257b565b610c7c565b6102f86104ef366004612652565b610c89565b6102f86105023660046126aa565b610dbf565b6102a17f9f2df0fed2c77648de5860a4cc508cd0818c85b8b8a1ab4ceeef8d981c8956a681565b6102f861053c3660046125fa565b610f23565b6102a161054f366004612714565b6001600160a01b03918216600090815260016020908152604080832093909416825291909152205490565b6102a17f65d7a28e3265b37a6474929f336521b332c1681b933f6cb9f3376673440d862a81565b6105b46105af36600461273e565b610f49565b60408051825163ffffffff1681526020928301516001600160e01b0316928101929092520161026c565b6102f86105ec366004612626565b610fcd565b60006001600160e01b03198216637965db0b60e01b148061062257506301ffc9a760e01b6001600160e01b03198316145b92915050565b6060600380546106379061277e565b80601f01602080910402602001604051908101604052809291908181526020018280546106639061277e565b80156106b05780601f10610685576101008083540402835291602001916106b0565b820191906000526020600020905b81548152906001019060200180831161069357829003601f168201915b5050505050905090565b60006106c7338484611334565b50600192915050565b60006106dd848484611458565b6001600160a01b0384166000908152600160209081526040808320338452909152902054828110156107675760405162461bcd60e51b815260206004820152602860248201527f45524332303a207472616e7366657220616d6f756e74206578636565647320616044820152676c6c6f77616e636560c01b60648201526084015b60405180910390fd5b6107748533858403611334565b506001949350505050565b60008281526006602052604090206001015461079b8133611637565b6107a5838361169b565b505050565b60006107b4611721565b905090565b6001600160a01b03811633146108295760405162461bcd60e51b815260206004820152602f60248201527f416363657373436f6e74726f6c3a2063616e206f6e6c792072656e6f756e636560448201526e103937b632b9903337b91039b2b63360891b606482015260840161075e565b6108338282611848565b5050565b3360008181526001602090815260408083206001600160a01b038716845290915281205490916106c791859061086e9086906127c9565b611334565b60004382106108c45760405162461bcd60e51b815260206004820152601f60248201527f4552433230566f7465733a20626c6f636b206e6f7420796574206d696e656400604482015260640161075e565b6001600160a01b03831660009081526009602052604090206108e690836118af565b9392505050565b7f65d7a28e3265b37a6474929f336521b332c1681b933f6cb9f3376673440d862a6109188133611637565b61092061196c565b50565b7f9f2df0fed2c77648de5860a4cc508cd0818c85b8b8a1ab4ceeef8d981c8956a661094e8133611637565b6107a583836119ff565b6109203382611a09565b6109203382611a13565b6001600160a01b03811660009081526009602052604081205461062290611291565b600b546001600160a01b031633146109e85760405162461bcd60e51b815260206004820181905260248201527f4f776e61626c653a2063616c6c6572206973206e6f7420746865206f776e6572604482015260640161075e565b6109f26000611a8c565b565b6000610a00833361054f565b905081811015610a5e5760405162461bcd60e51b8152602060048201526024808201527f45524332303a206275726e20616d6f756e74206578636565647320616c6c6f77604482015263616e636560e01b606482015260840161075e565b610a6b8333848403611334565b6107a58383611a09565b6001600160a01b038116600090815260076020526040812054610622565b7f65d7a28e3265b37a6474929f336521b332c1681b933f6cb9f3376673440d862a610abe8133611637565b610920611ade565b6000438210610b175760405162461bcd60e51b815260206004820152601f60248201527f4552433230566f7465733a20626c6f636b206e6f7420796574206d696e656400604482015260640161075e565b610622600a836118af565b60009182526006602090815260408084206001600160a01b0393909316845291905290205460ff1690565b6060600480546106379061277e565b6001600160a01b0381166000908152600960205260408120548015610bd0576001600160a01b0383166000908152600960205260409020610b9e6001836127e1565b81548110610bae57610bae6127f8565b60009182526020909120015464010000000090046001600160e01b0316610bd3565b60005b6001600160e01b03169392505050565b3360009081526001602090815260408083206001600160a01b038616845290915281205482811015610c655760405162461bcd60e51b815260206004820152602560248201527f45524332303a2064656372656173656420616c6c6f77616e63652062656c6f77604482015264207a65726f60d81b606482015260840161075e565b610c723385858403611334565b5060019392505050565b60006106c7338484611458565b83421115610cd95760405162461bcd60e51b815260206004820152601d60248201527f4552433230566f7465733a207369676e61747572652065787069726564000000604482015260640161075e565b604080517fe48329057bfd03d55e49b547132e39cffd9c1820ad7b9d4c5307691425d15adf60208201526001600160a01b038816918101919091526060810186905260808101859052600090610d5390610d4b9060a00160405160208183030381529060405280519060200120611b59565b858585611ba7565b9050610d5e81611bcf565b8614610dac5760405162461bcd60e51b815260206004820152601960248201527f4552433230566f7465733a20696e76616c6964206e6f6e636500000000000000604482015260640161075e565b610db68188611a13565b50505050505050565b83421115610e0f5760405162461bcd60e51b815260206004820152601d60248201527f45524332305065726d69743a206578706972656420646561646c696e65000000604482015260640161075e565b60007f0000000000000000000000000000000000000000000000000000000000000000888888610e3e8c611bcf565b6040805160208101969096526001600160a01b0394851690860152929091166060840152608083015260a082015260c0810186905260e0016040516020818303038152906040528051906020012090506000610e9982611b59565b90506000610ea982878787611ba7565b9050896001600160a01b0316816001600160a01b031614610f0c5760405162461bcd60e51b815260206004820152601e60248201527f45524332305065726d69743a20696e76616c6964207369676e61747572650000604482015260640161075e565b610f178a8a8a611334565b50505050505050505050565b600082815260066020526040902060010154610f3f8133611637565b6107a58383611848565b60408051808201909152600080825260208201526001600160a01b0383166000908152600960205260409020805463ffffffff8416908110610f8d57610f8d6127f8565b60009182526020918290206040805180820190915291015463ffffffff8116825264010000000090046001600160e01b0316918101919091529392505050565b600b546001600160a01b031633146110275760405162461bcd60e51b815260206004820181905260248201527f4f776e61626c653a2063616c6c6572206973206e6f7420746865206f776e6572604482015260640161075e565b6001600160a01b03811661108c5760405162461bcd60e51b815260206004820152602660248201527f4f776e61626c653a206e6577206f776e657220697320746865207a65726f206160448201526564647265737360d01b606482015260840161075e565b61092081611a8c565b61109f8282611125565b6002546001600160e01b0310156111115760405162461bcd60e51b815260206004820152603060248201527f4552433230566f7465733a20746f74616c20737570706c79207269736b73206f60448201526f766572666c6f77696e6720766f74657360801b606482015260840161075e565b61111f600a61121883611bf7565b50505050565b6001600160a01b03821661117b5760405162461bcd60e51b815260206004820152601f60248201527f45524332303a206d696e7420746f20746865207a65726f206164647265737300604482015260640161075e565b61118760008383611d70565b806002600082825461119991906127c9565b90915550506001600160a01b038216600090815260208190526040812080548392906111c69084906127c9565b90915550506040518181526001600160a01b038316906000907fddf252ad1be2c89b69c2b068fc378daa952ba7f163c4a11628f55a4df523b3ef9060200160405180910390a361083360008383611db6565b60006108e682846127c9565b60006001600160e01b0382111561128d5760405162461bcd60e51b815260206004820152602760248201527f53616665436173743a2076616c756520646f65736e27742066697420696e20326044820152663234206269747360c81b606482015260840161075e565b5090565b600063ffffffff82111561128d5760405162461bcd60e51b815260206004820152602660248201527f53616665436173743a2076616c756520646f65736e27742066697420696e203360448201526532206269747360d01b606482015260840161075e565b6001600160a01b038381166000908152600860205260408082205485841683529120546107a592918216911683611dc1565b60006108e682846127e1565b6001600160a01b0383166113965760405162461bcd60e51b8152602060048201526024808201527f45524332303a20617070726f76652066726f6d20746865207a65726f206164646044820152637265737360e01b606482015260840161075e565b6001600160a01b0382166113f75760405162461bcd60e51b815260206004820152602260248201527f45524332303a20617070726f766520746f20746865207a65726f206164647265604482015261737360f01b606482015260840161075e565b6001600160a01b0383811660008181526001602090815260408083209487168084529482529182902085905590518481527f8c5be1e5ebec7d5bd14f71427d1e84f3dd0314c0f7b2291e5b200ac8c7c3b925910160405180910390a3505050565b6001600160a01b0383166114bc5760405162461bcd60e51b815260206004820152602560248201527f45524332303a207472616e736665722066726f6d20746865207a65726f206164604482015264647265737360d81b606482015260840161075e565b6001600160a01b03821661151e5760405162461bcd60e51b815260206004820152602360248201527f45524332303a207472616e7366657220746f20746865207a65726f206164647260448201526265737360e81b606482015260840161075e565b611529838383611d70565b6001600160a01b038316600090815260208190526040902054818110156115a15760405162461bcd60e51b815260206004820152602660248201527f45524332303a207472616e7366657220616d6f756e7420657863656564732062604482015265616c616e636560d01b606482015260840161075e565b6001600160a01b038085166000908152602081905260408082208585039055918516815290812080548492906115d89084906127c9565b92505081905550826001600160a01b0316846001600160a01b03167fddf252ad1be2c89b69c2b068fc378daa952ba7f163c4a11628f55a4df523b3ef8460405161162491815260200190565b60405180910390a361111f848484611db6565b6116418282610b22565b61083357611659816001600160a01b03166014611efe565b611664836020611efe565b60405160200161167592919061280e565b60408051601f198184030181529082905262461bcd60e51b825261075e9160040161252c565b6116a58282610b22565b6108335760008281526006602090815260408083206001600160a01b03851684529091529020805460ff191660011790556116dd3390565b6001600160a01b0316816001600160a01b0316837f2f8788117e7eff1d82e926ec794901d17c78024a50270940304540a733656f0d60405160405180910390a45050565b6000306001600160a01b037f00000000000000000000000000000000000000000000000000000000000000001614801561177a57507f000000000000000000000000000000000000000000000000000000000000000046145b156117a457507f000000000000000000000000000000000000000000000000000000000000000090565b50604080517f00000000000000000000000000000000000000000000000000000000000000006020808301919091527f0000000000000000000000000000000000000000000000000000000000000000828401527f000000000000000000000000000000000000000000000000000000000000000060608301524660808301523060a0808401919091528351808403909101815260c0909201909252805191012090565b6118528282610b22565b156108335760008281526006602090815260408083206001600160a01b0385168085529252808320805460ff1916905551339285917ff6391f5c32d9c69d2a47ea670b442974b53935d1edc7fd64eb21e047a839171b9190a45050565b8154600090815b818110156119135760006118ca828461209a565b9050848682815481106118df576118df6127f8565b60009182526020909120015463ffffffff1611156118ff5780925061190d565b61190a8160016127c9565b91505b506118b6565b811561195757846119256001846127e1565b81548110611935576119356127f8565b60009182526020909120015464010000000090046001600160e01b031661195a565b60005b6001600160e01b031695945050505050565b60055460ff166119b55760405162461bcd60e51b815260206004820152601460248201527314185d5cd8589b194e881b9bdd081c185d5cd95960621b604482015260640161075e565b6005805460ff191690557f5db9ee0a495bf2e6ff9c91a7834c1ba4fdd244a5e8aa4e537bd38aeae4b073aa335b6040516001600160a01b03909116815260200160405180910390a1565b6108338282611095565b61083382826120b5565b6001600160a01b038281166000818152600860208181526040808420805485845282862054949093528787166001600160a01b03198416811790915590519190951694919391928592917f3134e8a2e6d97e929a7e54011ea5485d7d196dd5f0ba4d4ef95803e8e3fc257f9190a461111f828483611dc1565b600b80546001600160a01b038381166001600160a01b0319831681179093556040519116919082907f8be0079c531659141344cd1fd0a4f28419497f9722a3daafe3b4186f6b6457e090600090a35050565b60055460ff1615611b245760405162461bcd60e51b815260206004820152601060248201526f14185d5cd8589b194e881c185d5cd95960821b604482015260640161075e565b6005805460ff191660011790557f62e78cea01bee320cd4e420270b5ea74000d11b0c9f74754ebdbfc544b05a2586119e23390565b6000610622611b66611721565b8360405161190160f01b6020820152602281018390526042810182905260009060620160405160208183030381529060405280519060200120905092915050565b6000806000611bb8878787876120cd565b91509150611bc5816121ba565b5095945050505050565b6001600160a01b03811660009081526007602052604090208054600181018255905b50919050565b825460009081908015611c425785611c106001836127e1565b81548110611c2057611c206127f8565b60009182526020909120015464010000000090046001600160e01b0316611c45565b60005b6001600160e01b03169250611c5e83858763ffffffff16565b9150600081118015611c9c57504386611c786001846127e1565b81548110611c8857611c886127f8565b60009182526020909120015463ffffffff16145b15611cfc57611caa82611224565b86611cb66001846127e1565b81548110611cc657611cc66127f8565b9060005260206000200160000160046101000a8154816001600160e01b0302191690836001600160e01b03160217905550611d67565b856040518060400160405280611d1143611291565b63ffffffff168152602001611d2585611224565b6001600160e01b0390811690915282546001810184556000938452602093849020835194909301519091166401000000000263ffffffff909316929092179101555b50935093915050565b60055460ff16156107a55760405162461bcd60e51b815260206004820152601060248201526f14185d5cd8589b194e881c185d5cd95960821b604482015260640161075e565b6107a58383836112f6565b816001600160a01b0316836001600160a01b031614158015611de35750600081115b156107a5576001600160a01b03831615611e71576001600160a01b03831660009081526009602052604081208190611e1e9061132885611bf7565b91509150846001600160a01b03167fdec2bacdd2f05b59de34da9b523dff8be42e5e38e818c82fdb0bae774387a7248383604051611e66929190918252602082015260400190565b60405180910390a250505b6001600160a01b038216156107a5576001600160a01b03821660009081526009602052604081208190611ea79061121885611bf7565b91509150836001600160a01b03167fdec2bacdd2f05b59de34da9b523dff8be42e5e38e818c82fdb0bae774387a7248383604051611eef929190918252602082015260400190565b60405180910390a25050505050565b60606000611f0d836002612883565b611f189060026127c9565b67ffffffffffffffff811115611f3057611f306128a2565b6040519080825280601f01601f191660200182016040528015611f5a576020820181803683370190505b509050600360fc1b81600081518110611f7557611f756127f8565b60200101906001600160f81b031916908160001a905350600f60fb1b81600181518110611fa457611fa46127f8565b60200101906001600160f81b031916908160001a9053506000611fc8846002612883565b611fd39060016127c9565b90505b600181111561204b576f181899199a1a9b1b9c1cb0b131b232b360811b85600f1660108110612007576120076127f8565b1a60f81b82828151811061201d5761201d6127f8565b60200101906001600160f81b031916908160001a90535060049490941c93612044816128b8565b9050611fd6565b5083156108e65760405162461bcd60e51b815260206004820181905260248201527f537472696e67733a20686578206c656e67746820696e73756666696369656e74604482015260640161075e565b60006120a960028484186128cf565b6108e6908484166127c9565b6120bf8282612375565b61111f600a61132883611bf7565b6000807f7fffffffffffffffffffffffffffffff5d576e7357a4501ddfe92f46681b20a083111561210457506000905060036121b1565b8460ff16601b1415801561211c57508460ff16601c14155b1561212d57506000905060046121b1565b6040805160008082526020820180845289905260ff881692820192909252606081018690526080810185905260019060a0016020604051602081039080840390855afa158015612181573d6000803e3d6000fd5b5050604051601f1901519150506001600160a01b0381166121aa576000600192509250506121b1565b9150600090505b94509492505050565b60008160048111156121ce576121ce6128f1565b14156121d75750565b60018160048111156121eb576121eb6128f1565b14156122395760405162461bcd60e51b815260206004820152601860248201527f45434453413a20696e76616c6964207369676e61747572650000000000000000604482015260640161075e565b600281600481111561224d5761224d6128f1565b141561229b5760405162461bcd60e51b815260206004820152601f60248201527f45434453413a20696e76616c6964207369676e6174757265206c656e67746800604482015260640161075e565b60038160048111156122af576122af6128f1565b14156123085760405162461bcd60e51b815260206004820152602260248201527f45434453413a20696e76616c6964207369676e6174757265202773272076616c604482015261756560f01b606482015260840161075e565b600481600481111561231c5761231c6128f1565b14156109205760405162461bcd60e51b815260206004820152602260248201527f45434453413a20696e76616c6964207369676e6174757265202776272076616c604482015261756560f01b606482015260840161075e565b6001600160a01b0382166123d55760405162461bcd60e51b815260206004820152602160248201527f45524332303a206275726e2066726f6d20746865207a65726f206164647265736044820152607360f81b606482015260840161075e565b6123e182600083611d70565b6001600160a01b038216600090815260208190526040902054818110156124555760405162461bcd60e51b815260206004820152602260248201527f45524332303a206275726e20616d6f756e7420657863656564732062616c616e604482015261636560f01b606482015260840161075e565b6001600160a01b03831660009081526020819052604081208383039055600280548492906124849084906127e1565b90915550506040518281526000906001600160a01b038516907fddf252ad1be2c89b69c2b068fc378daa952ba7f163c4a11628f55a4df523b3ef9060200160405180910390a36107a583600084611db6565b6000602082840312156124e857600080fd5b81356001600160e01b0319811681146108e657600080fd5b60005b8381101561251b578181015183820152602001612503565b8381111561111f5750506000910152565b602081526000825180602084015261254b816040850160208701612500565b601f01601f19169190910160400192915050565b80356001600160a01b038116811461257657600080fd5b919050565b6000806040838503121561258e57600080fd5b6125978361255f565b946020939093013593505050565b6000806000606084860312156125ba57600080fd5b6125c38461255f565b92506125d16020850161255f565b9150604084013590509250925092565b6000602082840312156125f357600080fd5b5035919050565b6000806040838503121561260d57600080fd5b8235915061261d6020840161255f565b90509250929050565b60006020828403121561263857600080fd5b6108e68261255f565b803560ff8116811461257657600080fd5b60008060008060008060c0878903121561266b57600080fd5b6126748761255f565b9550602087013594506040870135935061269060608801612641565b92506080870135915060a087013590509295509295509295565b600080600080600080600060e0888a0312156126c557600080fd5b6126ce8861255f565b96506126dc6020890161255f565b955060408801359450606088013593506126f860808901612641565b925060a0880135915060c0880135905092959891949750929550565b6000806040838503121561272757600080fd5b6127308361255f565b915061261d6020840161255f565b6000806040838503121561275157600080fd5b61275a8361255f565b9150602083013563ffffffff8116811461277357600080fd5b809150509250929050565b600181811c9082168061279257607f821691505b60208210811415611bf157634e487b7160e01b600052602260045260246000fd5b634e487b7160e01b600052601160045260246000fd5b600082198211156127dc576127dc6127b3565b500190565b6000828210156127f3576127f36127b3565b500390565b634e487b7160e01b600052603260045260246000fd5b7f416363657373436f6e74726f6c3a206163636f756e7420000000000000000000815260008351612846816017850160208801612500565b7001034b99036b4b9b9b4b733903937b6329607d1b6017918401918201528351612877816028840160208801612500565b01602801949350505050565b600081600019048311821515161561289d5761289d6127b3565b500290565b634e487b7160e01b600052604160045260246000fd5b6000816128c7576128c76127b3565b506000190190565b6000826128ec57634e487b7160e01b600052601260045260246000fd5b500490565b634e487b7160e01b600052602160045260246000fdfea2646970667358221220ec5b03f4f0fe2debb1728973fbc68feeb7d59ad55269bea4e3702f471bb3964064736f6c634300080b0033dec2bacdd2f05b59de34da9b523dff8be42e5e38e818c82fdb0bae774387a724",
  "immutableReferences": {
    "4758": [
      {
        "length": 32,
        "start": 3603
      }
    ],
    "6141": [
      {
        "length": 32,
        "start": 6018
      }
    ],
    "6143": [
      {
        "length": 32,
        "start": 5976
      }
    ],
    "6145": [
      {
        "length": 32,
        "start": 5934
      }
    ],
    "6147": [
      {
        "length": 32,
        "start": 6101
      }
    ],
    "6149": [
      {
        "length": 32,
        "start": 6138
      }
    ],
    "6151": [
      {
        "length": 32,
        "start": 6059
      }
    ]
  },
  "source": "// SPDX-License-Identifier: MIT\r\npragma solidity 0.8.11;\r\n\r\nimport \"@openzeppelin/contracts/token/ERC20/ERC20.sol\";\r\nimport \"@openzeppelin/contracts/token/ERC20/extensions/ERC20Burnable.sol\";\r\nimport \"@openzeppelin/contracts/security/Pausable.sol\";\r\nimport \"@openzeppelin/contracts/access/AccessControl.sol\";\r\nimport \"@openzeppelin/contracts/token/ERC20/extensions/draft-ERC20Permit.sol\";\r\nimport \"@openzeppelin/contracts/token/ERC20/extensions/ERC20Votes.sol\";\r\nimport \"@openzeppelin/contracts/access/Ownable.sol\";\r\n\r\ncontract Yugo is ERC20, ERC20Burnable, Pausable, AccessControl, ERC20Permit, ERC20Votes, Ownable {\r\n    bytes32 public constant PAUSER_ROLE = keccak256(\"PAUSER_ROLE\");\r\n    bytes32 public constant MINTER_ROLE = keccak256(\"MINTER_ROLE\");\r\n\r\n    constructor(address _manager) ERC20(\"Yugo\", \"YG\") ERC20Permit(\"Yugo\") {\r\n        _grantRole(DEFAULT_ADMIN_ROLE, _manager);\r\n        _grantRole(PAUSER_ROLE, _manager);\r\n        _mint(_manager, 500 * 10 ** decimals());\r\n        _grantRole(MINTER_ROLE, _manager);\r\n    }\r\n\r\n    function pause() public onlyRole(PAUSER_ROLE) {\r\n        _pause();\r\n    }\r\n\r\n    function unpause() public onlyRole(PAUSER_ROLE) {\r\n        _unpause();\r\n    }\r\n\r\n    function mint(address to, uint256 amount) public onlyRole(MINTER_ROLE) {\r\n        _mint(to, amount);\r\n    }\r\n\r\n    function _beforeTokenTransfer(address from, address to, uint256 amount)\r\n        internal\r\n        whenNotPaused\r\n        override\r\n    {\r\n        super._beforeTokenTransfer(from, to, amount);\r\n    }\r\n\r\n    // The following functions are overrides required by Solidity.\r\n\r\n    function _afterTokenTransfer(address from, address to, uint256 amount)\r\n        internal\r\n        override(ERC20, ERC20Votes)\r\n    {\r\n        super._afterTokenTransfer(from, to, amount);\r\n    }\r\n\r\n    function _mint(address to, uint256 amount)\r\n        internal\r\n        override(ERC20, ERC20Votes)\r\n    {\r\n        super._mint(to, amount);\r\n    }\r\n\r\n    function _burn(address account, uint256 amount)\r\n        internal\r\n        override(ERC20, ERC20Votes)\r\n    {\r\n        super._burn(account, amount);\r\n    }\r\n}",
  "sourcePath": "F:\\workspace\\alyra\\yugo\\YU-GO\\Truffle\\contracts\\YugoToken.sol",
  "compiler": {
    "name": "solc",
    "version": "0.8.11+commit.d7f03943.Emscripten.clang"
  },
  "schemaVersion": "3.4.3",
  "updatedAt": "2022-01-18T21:34:35.216Z",
  "networkType": "ethereum",
  "devdoc": {
    "kind": "dev",
    "methods": {
      "DOMAIN_SEPARATOR()": {
        "details": "See {IERC20Permit-DOMAIN_SEPARATOR}."
      },
      "allowance(address,address)": {
        "details": "See {IERC20-allowance}."
      },
      "approve(address,uint256)": {
        "details": "See {IERC20-approve}. Requirements: - `spender` cannot be the zero address."
      },
      "balanceOf(address)": {
        "details": "See {IERC20-balanceOf}."
      },
      "burn(uint256)": {
        "details": "Destroys `amount` tokens from the caller. See {ERC20-_burn}."
      },
      "burnFrom(address,uint256)": {
        "details": "Destroys `amount` tokens from `account`, deducting from the caller's allowance. See {ERC20-_burn} and {ERC20-allowance}. Requirements: - the caller must have allowance for ``accounts``'s tokens of at least `amount`."
      },
      "checkpoints(address,uint32)": {
        "details": "Get the `pos`-th checkpoint for `account`."
      },
      "decimals()": {
        "details": "Returns the number of decimals used to get its user representation. For example, if `decimals` equals `2`, a balance of `505` tokens should be displayed to a user as `5.05` (`505 / 10 ** 2`). Tokens usually opt for a value of 18, imitating the relationship between Ether and Wei. This is the value {ERC20} uses, unless this function is overridden; NOTE: This information is only used for _display_ purposes: it in no way affects any of the arithmetic of the contract, including {IERC20-balanceOf} and {IERC20-transfer}."
      },
      "decreaseAllowance(address,uint256)": {
        "details": "Atomically decreases the allowance granted to `spender` by the caller. This is an alternative to {approve} that can be used as a mitigation for problems described in {IERC20-approve}. Emits an {Approval} event indicating the updated allowance. Requirements: - `spender` cannot be the zero address. - `spender` must have allowance for the caller of at least `subtractedValue`."
      },
      "delegate(address)": {
        "details": "Delegate votes from the sender to `delegatee`."
      },
      "delegateBySig(address,uint256,uint256,uint8,bytes32,bytes32)": {
        "details": "Delegates votes from signer to `delegatee`"
      },
      "delegates(address)": {
        "details": "Get the address `account` is currently delegating to."
      },
      "getPastTotalSupply(uint256)": {
        "details": "Retrieve the `totalSupply` at the end of `blockNumber`. Note, this value is the sum of all balances. It is but NOT the sum of all the delegated votes! Requirements: - `blockNumber` must have been already mined"
      },
      "getPastVotes(address,uint256)": {
        "details": "Retrieve the number of votes for `account` at the end of `blockNumber`. Requirements: - `blockNumber` must have been already mined"
      },
      "getRoleAdmin(bytes32)": {
        "details": "Returns the admin role that controls `role`. See {grantRole} and {revokeRole}. To change a role's admin, use {_setRoleAdmin}."
      },
      "getVotes(address)": {
        "details": "Gets the current votes balance for `account`"
      },
      "grantRole(bytes32,address)": {
        "details": "Grants `role` to `account`. If `account` had not been already granted `role`, emits a {RoleGranted} event. Requirements: - the caller must have ``role``'s admin role."
      },
      "hasRole(bytes32,address)": {
        "details": "Returns `true` if `account` has been granted `role`."
      },
      "increaseAllowance(address,uint256)": {
        "details": "Atomically increases the allowance granted to `spender` by the caller. This is an alternative to {approve} that can be used as a mitigation for problems described in {IERC20-approve}. Emits an {Approval} event indicating the updated allowance. Requirements: - `spender` cannot be the zero address."
      },
      "name()": {
        "details": "Returns the name of the token."
      },
      "nonces(address)": {
        "details": "See {IERC20Permit-nonces}."
      },
      "numCheckpoints(address)": {
        "details": "Get number of checkpoints for `account`."
      },
      "owner()": {
        "details": "Returns the address of the current owner."
      },
      "paused()": {
        "details": "Returns true if the contract is paused, and false otherwise."
      },
      "permit(address,address,uint256,uint256,uint8,bytes32,bytes32)": {
        "details": "See {IERC20Permit-permit}."
      },
      "renounceOwnership()": {
        "details": "Leaves the contract without owner. It will not be possible to call `onlyOwner` functions anymore. Can only be called by the current owner. NOTE: Renouncing ownership will leave the contract without an owner, thereby removing any functionality that is only available to the owner."
      },
      "renounceRole(bytes32,address)": {
        "details": "Revokes `role` from the calling account. Roles are often managed via {grantRole} and {revokeRole}: this function's purpose is to provide a mechanism for accounts to lose their privileges if they are compromised (such as when a trusted device is misplaced). If the calling account had been revoked `role`, emits a {RoleRevoked} event. Requirements: - the caller must be `account`."
      },
      "revokeRole(bytes32,address)": {
        "details": "Revokes `role` from `account`. If `account` had been granted `role`, emits a {RoleRevoked} event. Requirements: - the caller must have ``role``'s admin role."
      },
      "supportsInterface(bytes4)": {
        "details": "See {IERC165-supportsInterface}."
      },
      "symbol()": {
        "details": "Returns the symbol of the token, usually a shorter version of the name."
      },
      "totalSupply()": {
        "details": "See {IERC20-totalSupply}."
      },
      "transfer(address,uint256)": {
        "details": "See {IERC20-transfer}. Requirements: - `recipient` cannot be the zero address. - the caller must have a balance of at least `amount`."
      },
      "transferFrom(address,address,uint256)": {
        "details": "See {IERC20-transferFrom}. Emits an {Approval} event indicating the updated allowance. This is not required by the EIP. See the note at the beginning of {ERC20}. Requirements: - `sender` and `recipient` cannot be the zero address. - `sender` must have a balance of at least `amount`. - the caller must have allowance for ``sender``'s tokens of at least `amount`."
      },
      "transferOwnership(address)": {
        "details": "Transfers ownership of the contract to a new account (`newOwner`). Can only be called by the current owner."
      }
    },
    "version": 1
  },
  "userdoc": {
    "kind": "user",
    "methods": {},
    "version": 1
  }
}