{
  "contractName": "YugoDao",
  "abi": [
    {
      "inputs": [
        {
          "internalType": "address",
          "name": "_yugo",
          "type": "address"
        },
        {
          "internalType": "address",
          "name": "_escrow",
          "type": "address"
        }
      ],
      "stateMutability": "nonpayable",
      "type": "constructor"
    },
    {
      "inputs": [],
      "name": "Unauthorized",
      "type": "error"
    },
    {
      "anonymous": false,
      "inputs": [
        {
          "indexed": false,
          "internalType": "address",
          "name": "addressContestCreator",
          "type": "address"
        },
        {
          "indexed": false,
          "internalType": "address",
          "name": "addressActionCreator",
          "type": "address"
        },
        {
          "indexed": false,
          "internalType": "string",
          "name": "actionName",
          "type": "string"
        },
        {
          "indexed": false,
          "internalType": "uint256",
          "name": "requiredFunds",
          "type": "uint256"
        }
      ],
      "name": "ActionCreated",
      "type": "event"
    },
    {
      "anonymous": false,
      "inputs": [
        {
          "indexed": false,
          "internalType": "address",
          "name": "addressContestCreator",
          "type": "address"
        },
        {
          "indexed": false,
          "internalType": "address",
          "name": "addressActioncreator",
          "type": "address"
        },
        {
          "indexed": false,
          "internalType": "string",
          "name": "actionName",
          "type": "string"
        }
      ],
      "name": "ActionDeleted",
      "type": "event"
    },
    {
      "anonymous": false,
      "inputs": [
        {
          "indexed": false,
          "internalType": "address",
          "name": "addressOrga",
          "type": "address"
        },
        {
          "indexed": false,
          "internalType": "string",
          "name": "name",
          "type": "string"
        },
        {
          "indexed": false,
          "internalType": "uint256",
          "name": "funds",
          "type": "uint256"
        }
      ],
      "name": "ContestCreated",
      "type": "event"
    },
    {
      "anonymous": false,
      "inputs": [
        {
          "indexed": false,
          "internalType": "address",
          "name": "addressContestCreator",
          "type": "address"
        },
        {
          "indexed": false,
          "internalType": "address",
          "name": "addressActionCreator",
          "type": "address"
        },
        {
          "indexed": false,
          "internalType": "address",
          "name": "voterAddress",
          "type": "address"
        }
      ],
      "name": "HasVotedForAction",
      "type": "event"
    },
    {
      "anonymous": false,
      "inputs": [
        {
          "indexed": false,
          "internalType": "address",
          "name": "addressOrga",
          "type": "address"
        }
      ],
      "name": "OrganizationRegistered",
      "type": "event"
    },
    {
      "anonymous": false,
      "inputs": [
        {
          "indexed": false,
          "internalType": "address",
          "name": "addressOrga",
          "type": "address"
        },
        {
          "indexed": false,
          "internalType": "address",
          "name": "addressParticipant",
          "type": "address"
        }
      ],
      "name": "ParticipantRemoved",
      "type": "event"
    },
    {
      "anonymous": false,
      "inputs": [
        {
          "indexed": false,
          "internalType": "address",
          "name": "addressParticipant",
          "type": "address"
        },
        {
          "indexed": false,
          "internalType": "address",
          "name": "addressOrganization",
          "type": "address"
        }
      ],
      "name": "ParticipantWhitelisted",
      "type": "event"
    },
    {
      "anonymous": false,
      "inputs": [
        {
          "indexed": false,
          "internalType": "address",
          "name": "winner",
          "type": "address"
        },
        {
          "indexed": false,
          "internalType": "string",
          "name": "actionName",
          "type": "string"
        },
        {
          "indexed": false,
          "internalType": "uint256",
          "name": "nbVotes",
          "type": "uint256"
        },
        {
          "indexed": false,
          "internalType": "uint256",
          "name": "requiredFunds",
          "type": "uint256"
        }
      ],
      "name": "VoteTallied",
      "type": "event"
    },
    {
      "inputs": [],
      "name": "escrow",
      "outputs": [
        {
          "internalType": "contract IGrantEscrow",
          "name": "",
          "type": "address"
        }
      ],
      "stateMutability": "view",
      "type": "function",
      "constant": true
    },
    {
      "inputs": [],
      "name": "yugo",
      "outputs": [
        {
          "internalType": "contract IYugo",
          "name": "",
          "type": "address"
        }
      ],
      "stateMutability": "view",
      "type": "function",
      "constant": true
    },
    {
      "inputs": [],
      "name": "getThematics",
      "outputs": [
        {
          "internalType": "string[]",
          "name": "",
          "type": "string[]"
        }
      ],
      "stateMutability": "view",
      "type": "function",
      "constant": true
    },
    {
      "inputs": [],
      "name": "getCountries",
      "outputs": [
        {
          "internalType": "string[]",
          "name": "",
          "type": "string[]"
        }
      ],
      "stateMutability": "view",
      "type": "function",
      "constant": true
    },
    {
      "inputs": [
        {
          "internalType": "uint256[]",
          "name": "thematicIds",
          "type": "uint256[]"
        },
        {
          "internalType": "uint256",
          "name": "countryId",
          "type": "uint256"
        }
      ],
      "name": "registerOrganisation",
      "outputs": [],
      "stateMutability": "nonpayable",
      "type": "function"
    },
    {
      "inputs": [
        {
          "internalType": "address",
          "name": "_orga",
          "type": "address"
        }
      ],
      "name": "organisationRegistrationStatus",
      "outputs": [
        {
          "internalType": "bool",
          "name": "",
          "type": "bool"
        }
      ],
      "stateMutability": "view",
      "type": "function",
      "constant": true
    },
    {
      "inputs": [
        {
          "internalType": "address",
          "name": "_addrOrganisation",
          "type": "address"
        },
        {
          "internalType": "address",
          "name": "_addrParticipant",
          "type": "address"
        }
      ],
      "name": "participantIsWhiteListed",
      "outputs": [
        {
          "internalType": "bool",
          "name": "",
          "type": "bool"
        }
      ],
      "stateMutability": "view",
      "type": "function",
      "constant": true
    },
    {
      "inputs": [
        {
          "internalType": "address",
          "name": "_addrToDelete",
          "type": "address"
        }
      ],
      "name": "removeFromWhitelist",
      "outputs": [],
      "stateMutability": "nonpayable",
      "type": "function"
    },
    {
      "inputs": [
        {
          "internalType": "address",
          "name": "_addrOrga",
          "type": "address"
        },
        {
          "internalType": "address",
          "name": "_addrParticipant",
          "type": "address"
        }
      ],
      "name": "addParticipant",
      "outputs": [],
      "stateMutability": "nonpayable",
      "type": "function"
    },
    {
      "inputs": [
        {
          "internalType": "string",
          "name": "_name",
          "type": "string"
        },
        {
          "internalType": "uint256[]",
          "name": "_themeIds",
          "type": "uint256[]"
        },
        {
          "internalType": "uint256[]",
          "name": "_eligibleCountryIds",
          "type": "uint256[]"
        },
        {
          "internalType": "uint256",
          "name": "_applicationEndDate",
          "type": "uint256"
        },
        {
          "internalType": "uint256",
          "name": "_votingEndDate",
          "type": "uint256"
        },
        {
          "internalType": "uint256",
          "name": "_funds",
          "type": "uint256"
        }
      ],
      "name": "addContest",
      "outputs": [],
      "stateMutability": "payable",
      "type": "function",
      "payable": true
    },
    {
      "inputs": [
        {
          "internalType": "address",
          "name": "_creatorOfContest",
          "type": "address"
        },
        {
          "internalType": "string",
          "name": "_name",
          "type": "string"
        },
        {
          "internalType": "uint256",
          "name": "_requiredFunds",
          "type": "uint256"
        }
      ],
      "name": "createAction",
      "outputs": [],
      "stateMutability": "nonpayable",
      "type": "function"
    },
    {
      "inputs": [
        {
          "internalType": "address",
          "name": "_creatorOfContest",
          "type": "address"
        }
      ],
      "name": "deleteActions",
      "outputs": [],
      "stateMutability": "nonpayable",
      "type": "function"
    },
    {
      "inputs": [
        {
          "internalType": "address",
          "name": "_creatorOfContest",
          "type": "address"
        },
        {
          "internalType": "address",
          "name": "_actionCreator",
          "type": "address"
        },
        {
          "internalType": "address",
          "name": "_participantOrga",
          "type": "address"
        }
      ],
      "name": "voteForAction",
      "outputs": [],
      "stateMutability": "nonpayable",
      "type": "function"
    },
    {
      "inputs": [
        {
          "internalType": "address",
          "name": "_creatorOfContest",
          "type": "address"
        }
      ],
      "name": "tallyVotes",
      "outputs": [],
      "stateMutability": "nonpayable",
      "type": "function"
    },
    {
      "inputs": [
        {
          "internalType": "address",
          "name": "_creatorOfContest",
          "type": "address"
        }
      ],
      "name": "getContestWinner",
      "outputs": [
        {
          "internalType": "address",
          "name": "",
          "type": "address"
        },
        {
          "internalType": "uint256",
          "name": "",
          "type": "uint256"
        }
      ],
      "stateMutability": "view",
      "type": "function",
      "constant": true
    }
  ],
  "bytecode": "0x60096102208181526832b23ab1b0ba34b7b760b91b6102405260c0908152600b6102608181526a747261666669636b696e6760a81b6102805260e05260116102a081815270646f6d65737469632076696f6c656e636560781b6102c0526101005260106102e09081526f1ddbdb595b89dcc81b5bdd995b595b9d60821b61030052610120526103209384526863616d706169676e7360b81b6103405261014093909352600a610360908152693937b6b0903bb7b6b2b760b11b610380526101605260086103a0908152676964656e7469747960c01b6103c0526101805260076103e0908152666c6f6262696e6760c81b610400526101a05260136104209081527f6d617267696e616c697a65642067726f75707300000000000000000000000000610440526101c052610460928352701cd95e1d585b081a185c985cdcdb595b9d607a1b610480526101e0929092526104e0604052600e6104a09081526d776f6d656e27732072696768747360901b6104c0526102005262000185916004919062000538565b506040805161010081018252600660c082018181526553657262696160d01b60e0840152825282518084018452600781526643726f6174696160c81b6020828101919091528084019190915283518085018552600a8152694d6f6e74656e6567726f60b01b818301528385015283518085018552601681527f426f736e696120616e64204865726365676f76696e6100000000000000000000818301526060840152835180850185526008815267536c6f76656e696160c01b818301526080840152835180850190945260098452684d616365646f6e696160b81b9084015260a08201929092526200027b91600591906200059c565b503480156200028957600080fd5b5060405162002abf38038062002abf833981016040819052620002ac9162000710565b620002b6620002d8565b620002c06200040a565b6001600160a01b039182166080521660a052620007e9565b60045460005b620002eb6001836200075e565b8110156200040657604080518082019091526060602082015281815260048054839081106200031e576200031e62000778565b90600052602060002001805462000335906200078e565b80601f016020809104026020016040519081016040528092919081815260200182805462000363906200078e565b8015620003b45780601f106200038857610100808354040283529160200191620003b4565b820191906000526020600020905b8154815290600101906020018083116200039657829003601f168201915b50505050602080840192835260008581526003825260409020845181559251805185949350620003eb9260018501920190620005ee565b50905050508080620003fd90620007cb565b915050620002de565b5050565b60055460005b6200041d6001836200075e565b81101562000406576040805180820190915260606020820152818152600580548390811062000450576200045062000778565b90600052602060002001805462000467906200078e565b80601f016020809104026020016040519081016040528092919081815260200182805462000495906200078e565b8015620004e65780601f10620004ba57610100808354040283529160200191620004e6565b820191906000526020600020905b815481529060010190602001808311620004c857829003601f168201915b505050506020808401928352600085815260028252604090208451815592518051859493506200051d9260018501920190620005ee565b509050505080806200052f90620007cb565b91505062000410565b8280548282559060005260206000209081019282156200058a579160200282015b828111156200058a578251805162000579918491602090910190620005ee565b509160200191906001019062000559565b506200059892915062000679565b5090565b8280548282559060005260206000209081019282156200058a579160200282015b828111156200058a5782518051620005dd918491602090910190620005ee565b5091602001919060010190620005bd565b828054620005fc906200078e565b90600052602060002090601f0160209004810192826200062057600085556200066b565b82601f106200063b57805160ff19168380011785556200066b565b828001600101855582156200066b579182015b828111156200066b5782518255916020019190600101906200064e565b50620005989291506200069a565b8082111562000598576000620006908282620006b1565b5060010162000679565b5b808211156200059857600081556001016200069b565b508054620006bf906200078e565b6000825580601f10620006d0575050565b601f016020900490600052602060002090810190620006f091906200069a565b50565b80516001600160a01b03811681146200070b57600080fd5b919050565b600080604083850312156200072457600080fd5b6200072f83620006f3565b91506200073f60208401620006f3565b90509250929050565b634e487b7160e01b600052601160045260246000fd5b60008282101562000773576200077362000748565b500390565b634e487b7160e01b600052603260045260246000fd5b600181811c90821680620007a357607f821691505b60208210811415620007c557634e487b7160e01b600052602260045260246000fd5b50919050565b6000600019821415620007e257620007e262000748565b5060010190565b60805160a05161229b620008246000396000818161030b0152610da8015260008181610141015281816105400152610b6c015261229b6000f3fe6080604052600436106100e85760003560e01c8063ba7f56e31161008a578063d35ada3211610059578063d35ada32146102b9578063d67091c7146102d9578063e2fdcc17146102f9578063eb0934df1461032d57600080fd5b8063ba7f56e3146101f5578063bd72973214610215578063beca800914610265578063c6ade8351461027a57600080fd5b80632db2c04f116100c65780632db2c04f146101805780636bf9fe171461019357806381530e47146101b55780638ab1d681146101d557600080fd5b806304c84c52146100ed578063180d3e3d1461010f578063223702651461012f575b600080fd5b3480156100f957600080fd5b5061010d610108366004611c34565b61037a565b005b34801561011b57600080fd5b5061010d61012a366004611c77565b61087c565b34801561013b57600080fd5b506101637f000000000000000000000000000000000000000000000000000000000000000081565b6040516001600160a01b0390911681526020015b60405180910390f35b61010d61018e366004611dd0565b610b54565b34801561019f57600080fd5b506101a8610e4f565b6040516101779190611ec1565b3480156101c157600080fd5b5061010d6101d0366004611f23565b610f28565b3480156101e157600080fd5b5061010d6101f0366004611c77565b61108f565b34801561020157600080fd5b5061010d610210366004611c77565b611184565b34801561022157600080fd5b50610255610230366004611c77565b6001600160a01b0316600090815260016020526040902054600160a01b900460ff1690565b6040519015158152602001610177565b34801561027157600080fd5b506101a8611291565b34801561028657600080fd5b5061029a610295366004611c77565b611361565b604080516001600160a01b039093168352602083019190915201610177565b3480156102c557600080fd5b5061010d6102d4366004611f68565b6113d0565b3480156102e557600080fd5b5061010d6102f4366004611f9b565b61154b565b34801561030557600080fd5b506101637f000000000000000000000000000000000000000000000000000000000000000081565b34801561033957600080fd5b50610255610348366004611f68565b6001600160a01b0391821660009081526001602090815260408083209390941682526003909201909152205460ff1690565b6001600160a01b03831660009081526020819052604090206003015442908110156103e55760405162461bcd60e51b8152602060048201526016602482015275159bdd1a5b99c81a185cc81b9bdd081cdd185c9d195960521b60448201526064015b60405180910390fd5b6001600160a01b03841660009081526020819052604090206004015481106104425760405162461bcd60e51b815260206004820152601060248201526f159bdd1a5b99c81a5cc818db1bdcd95960821b60448201526064016103dc565b336001600160a01b038516148015906104645750336001600160a01b03841614155b6104b05760405162461bcd60e51b815260206004820181905260248201527f596f752063616e206e6f7420766f746520666f72207468697320616374696f6e60448201526064016103dc565b6001600160a01b03841660009081526020818152604080832033845260080190915290205460ff161561051e5760405162461bcd60e51b8152602060048201526016602482015275165bdd481a185d9948185b1c9958591e481d9bdd195960521b60448201526064016103dc565b6040516370a0823160e01b81526001600160a01b0383811660048301526000917f0000000000000000000000000000000000000000000000000000000000000000909116906370a0823190602401602060405180830381865afa158015610589573d6000803e3d6000fd5b505050506040513d601f19601f820116820180604052508101906105ad9190611ff2565b116105ca5760405162461bcd60e51b81526004016103dc9061200b565b6001600160a01b038085166000908152602081815260408083209387168352600990930190529081206001908101805491929091610609908490612073565b90915550506001600160a01b038416600081815260208181526040808320338452600881018352908320805460ff19166001179055928252526007015461068e576001600160a01b038481166000908152602081815260408220600701805460018101825590835291200180546001600160a01b03191691851691909117905561082d565b6001600160a01b0380851660008181526020818152604080832094881683526009850180835290832060010154938352908290526007909301805492939282906106da576106da61208b565b60009182526020808320909101546001600160a01b031683528201929092526040019020600101541015610773576001600160a01b038416600090815260208190526040812061072f91600790910190611aea565b6001600160a01b038481166000908152602081815260408220600701805460018101825590835291200180546001600160a01b03191691851691909117905561082d565b6001600160a01b0380851660008181526020818152604080832094881683526009850180835290832060010154938352908290526007909301805492939282906107bf576107bf61208b565b60009182526020808320909101546001600160a01b03168352820192909252604001902060010154141561082d576001600160a01b038481166000908152602081815260408220600701805460018101825590835291200180546001600160a01b0319169185169190911790555b604080516001600160a01b03868116825285166020820152338183015290517f9a996e61e46622216dcf6afd942a2c58023089cde9ed06bbf46ad67ec78148589181900360600190a150505050565b6001600160a01b03811660009081526020818152604080832033845260090190915290206003015460ff1661090a5760405162461bcd60e51b815260206004820152602e60248201527f796f7520646964206e6f742063726561746520616e7920616374696f6e20666f60448201526d1c881d1a1a5cc818dbdb9d195cdd60921b60648201526084016103dc565b6001600160a01b0381166000908152602081905260409020600301544290811061098f5760405162461bcd60e51b815260206004820152603060248201527f566f746573206861766520737461727465642e596f752063616e6e6f7420646560448201526f3632ba32903a3434b99030b1ba34b7b760811b60648201526084016103dc565b6001600160a01b038216600090815260208181526040808320338452600901909152812080546109be906120a1565b80601f01602080910402602001604051908101604052809291908181526020018280546109ea906120a1565b8015610a375780601f10610a0c57610100808354040283529160200191610a37565b820191906000526020600020905b815481529060010190602001808311610a1a57829003601f168201915b50506040805160a08101825260006080820181815282526020808301829052828401829052606083018290526001600160a01b038b1682528181528382203383526009018152929020815180519798509196909550610a9c9450859350910190611b0b565b50602082810151600183015560408084015160028401556060909301516003909201805460ff1916921515929092179091556001600160a01b038516600090815280825282812033825260090190915290812090610afa8282611b8f565b506000600182018190556002820155600301805460ff191690556040517e638117e2b363943932d75d6cf954be8104382508e43b19f271a6425be8325e90610b47908590339085906120dc565b60405180910390a1505050565b6040516370a0823160e01b81523360048201526000907f00000000000000000000000000000000000000000000000000000000000000006001600160a01b0316906370a0823190602401602060405180830381865afa158015610bbb573d6000803e3d6000fd5b505050506040513d601f19601f82011682018060405250810190610bdf9190611ff2565b11610bfc5760405162461bcd60e51b81526004016103dc9061200b565b3360009081526020819052604090206006015460ff1615610c6e5760405162461bcd60e51b815260206004820152602660248201527f4f7267616e69736174696f6e20616c72656164792063726561746564206120636044820152651bdb9d195cdd60d21b60648201526084016103dc565b348114610ced5760405162461bcd60e51b815260206004820152604160248201527f416d6f756e74206f662066756e647320696e20657363726f772069732064696660448201527f666572656e742066726f6d20746865206461746120796f752070726f766964656064820152601960fa1b608482015260a4016103dc565b336000908152602081815260409091208751610d0b92890190611b0b565b50336000908152602081815260409091208651610d3092600190920191880190611bc9565b50336000908152602081815260409091208551610d5592600290920191870190611bc9565b503360008181526020819052604090819020600381018690556004808201869055600582018590556006909101805460ff191660011790559051631529554b60e01b8152908101919091523460248201527f00000000000000000000000000000000000000000000000000000000000000006001600160a01b031690631529554b90604401600060405180830381600087803b158015610df457600080fd5b505af1158015610e08573d6000803e3d6000fd5b505050507f98e26a339a5fc57fc1c56d81b9cc18fa5c1b2f45a4121ded1802183d3546744a338783604051610e3f93929190612111565b60405180910390a1505050505050565b60606004805480602002602001604051908101604052809291908181526020016000905b82821015610f1f578382906000526020600020018054610e92906120a1565b80601f0160208091040260200160405190810160405280929190818152602001828054610ebe906120a1565b8015610f0b5780601f10610ee057610100808354040283529160200191610f0b565b820191906000526020600020905b815481529060010190602001808311610eee57829003601f168201915b505050505081526020019060010190610e73565b50505050905090565b33600090815260016020526040902054600160a01b900460ff1615610f8f5760405162461bcd60e51b815260206004820152601f60248201527f4f7267616e69736174696f6e20616c726561647920726567697374657265640060448201526064016103dc565b60008251118015610f9e575060015b610ff95760405162461bcd60e51b815260206004820152602660248201527f596f75206d7573742070726f76696465207468656d617469637320616e6420636044820152656f756e74727960d01b60648201526084016103dc565b33600081815260016020818152604090922080546001600160a01b0319169093178355845161102e9390910191850190611bc9565b503360008181526001602090815260409182902060028101859055805460ff60a01b1916600160a01b17905590519182527f2178e9c576507a4c15d3deab489af3f699a3dedbff9a7ef27c43a017027710e591015b60405180910390a15050565b3360009081526001602081815260408084206001600160a01b03861685526003019091529091205460ff161515146111185760405162461bcd60e51b815260206004820152602660248201527f746865206164647265737320796f7520656e746572656420646f6573206e6f7460448201526508195e1a5cdd60d21b60648201526084016103dc565b3360008181526001602090815260408083206001600160a01b0386168085526003909101835292819020805460ff191690558051938452908301919091527f9721b4c70a74dd00691b5fd0589b9720d9be5657dfd6e1f8072cb7f26d7ce8a8910160405180910390a150565b6001600160a01b038116600090815260208190526040902060040154429081116111f05760405162461bcd60e51b815260206004820152601b60248201527f566f74696e6720686173206e6f742066696e697368656420796574000000000060448201526064016103dc565b6001600160a01b03821660009081526020819052604081206007018054829061121b5761121b61208b565b6000918252602080832091909101546001600160a01b0386811684528383526040808520919092168085526009909101909252918290206001810154600282015493519294507f6fcbe3932701318f34ad7c0e0c6bf48fbfe94dbd94dc8f04a1c233ec825e1d0693610b47938693929190612145565b60606005805480602002602001604051908101604052809291908181526020016000905b82821015610f1f5783829060005260206000200180546112d4906120a1565b80601f0160208091040260200160405190810160405280929190818152602001828054611300906120a1565b801561134d5780601f106113225761010080835404028352916020019161134d565b820191906000526020600020905b81548152906001019060200180831161133057829003601f168201915b5050505050815260200190600101906112b5565b6001600160a01b038116600090815260208190526040812060070180548291829182906113905761139061208b565b60009182526020808320909101546001600160a01b0396871683528282526040808420979091168084526009909701909152902060020154939492505050565b6001600160a01b0382811660009081526001602052604090205416331461144b5760405162461bcd60e51b815260206004820152602960248201527f596f7520617265206e6f7420746865206f776e6572206f6620746865206f726760448201526830b734bd30ba34b7b760b91b60648201526084016103dc565b6001600160a01b038083166000908152600160209081526040808320938516835260039093019052205460ff16156114df5760405162461bcd60e51b815260206004820152603160248201527f4164647265737320616c72656164792077686974656c697374656420666f72206044820152703a3434b99037b933b0b734bd30ba34b7b760791b60648201526084016103dc565b6001600160a01b0382811660008181526001602081815260408084209587168085526003909601825292839020805460ff191690921790915581519384528301919091527f6991bd45e0feec093b0c381c0561704fd19d427ded55100f5f6e1b4fe335c0829101611083565b6001600160a01b0383163314156115b35760405162461bcd60e51b815260206004820152602660248201527f436f6e746573742063726561746f722063616e6e6f742070726f706f736520616044820152656374696f6e7360d01b60648201526084016103dc565b6001600160a01b03831660009081526020819052604090206006015460ff166116335760405162461bcd60e51b815260206004820152602c60248201527f54686973206f7267616e697a6174696f6e20646f6573206e6f7420686176652060448201526b1bdc195b8818dbdb9d195cdd60a21b60648201526084016103dc565b6001600160a01b03831660009081526020818152604080832033845260090190915290206003015460ff16156116b65760405162461bcd60e51b815260206004820152602260248201527f596f75206861766520616c7265616479206372656174656420616e206163746960448201526137b760f11b60648201526084016103dc565b6001600160a01b0383166000908152602081905260409020600501548111156117385760405162461bcd60e51b815260206004820152602e60248201527f46756e647320726571756972656420617265207375706572696f7220746f206660448201526d756e647320617661696c61626c6560901b60648201526084016103dc565b6001600160a01b0383166000908152602081815260408083206002018054825181850281018501909352808352919290919083018282801561179957602002820191906000526020600020905b815481526020019060010190808311611785575b5050336000908152600160205260408120600201549495509250829150505b83518110156117fd57828482815181106117d4576117d461208b565b602002602001015114156117eb57600191506117fd565b806117f58161220d565b9150506117b8565b506001600160a01b0386166000908152602081815260408083206001018054825181850281018501909352808352919290919083018282801561185f57602002820191906000526020600020905b81548152602001906001019080831161184b575b50503360009081526001602081815260408084209092018054835181840281018401909452808452979850929691955091935091508301828280156118c357602002820191906000526020600020905b8154815260200190600101908083116118af575b505050505090506000805b835181101561194b5760005b8351821015611938578381815181106118f5576118f561208b565b602002602001015185838151811061190f5761190f61208b565b602002602001015114156119265760019250611938565b816119308161220d565b9250506118da565b50806119438161220d565b9150506118ce565b506001841515146119ba5760405162461bcd60e51b815260206004820152603360248201527f596f7520617265206e6f7420656c696769626c6520746f207061727469636970604482015272185d19481a5b881d1a1a5cc818dbdb9d195cdd606a1b60648201526084016103dc565b600181151514611a325760405162461bcd60e51b815260206004820152603d60248201527f5468656d6573206f6620796f7572206f7267616e69736174696f6e206172652060448201527f6e6f7420656c696769626c6520666f72207468697320636f6e7465737400000060648201526084016103dc565b6001600160a01b03891660009081526020818152604080832033845260090182529091208951611a64928b0190611b0b565b506001600160a01b03891660009081526020818152604080832033808552600990910190925291829020600281018a9055600301805460ff1916600117905590517fd3d45429f6c2339a23437577bd167085ad0b979da68a822a522a731bfb12041e91611ad7918c91908c908c90612228565b60405180910390a1505050505050505050565b5080546000825590600052602060002090810190611b089190611c03565b50565b828054611b17906120a1565b90600052602060002090601f016020900481019282611b395760008555611b7f565b82601f10611b5257805160ff1916838001178555611b7f565b82800160010185558215611b7f579182015b82811115611b7f578251825591602001919060010190611b64565b50611b8b929150611c03565b5090565b508054611b9b906120a1565b6000825580601f10611bab575050565b601f016020900490600052602060002090810190611b089190611c03565b828054828255906000526020600020908101928215611b7f5791602002820182811115611b7f578251825591602001919060010190611b64565b5b80821115611b8b5760008155600101611c04565b80356001600160a01b0381168114611c2f57600080fd5b919050565b600080600060608486031215611c4957600080fd5b611c5284611c18565b9250611c6060208501611c18565b9150611c6e60408501611c18565b90509250925092565b600060208284031215611c8957600080fd5b611c9282611c18565b9392505050565b634e487b7160e01b600052604160045260246000fd5b604051601f8201601f1916810167ffffffffffffffff81118282101715611cd857611cd8611c99565b604052919050565b600082601f830112611cf157600080fd5b813567ffffffffffffffff811115611d0b57611d0b611c99565b611d1e601f8201601f1916602001611caf565b818152846020838601011115611d3357600080fd5b816020850160208301376000918101602001919091529392505050565b600082601f830112611d6157600080fd5b8135602067ffffffffffffffff821115611d7d57611d7d611c99565b8160051b611d8c828201611caf565b9283528481018201928281019087851115611da657600080fd5b83870192505b84831015611dc557823582529183019190830190611dac565b979650505050505050565b60008060008060008060c08789031215611de957600080fd5b863567ffffffffffffffff80821115611e0157600080fd5b611e0d8a838b01611ce0565b97506020890135915080821115611e2357600080fd5b611e2f8a838b01611d50565b96506040890135915080821115611e4557600080fd5b50611e5289828a01611d50565b945050606087013592506080870135915060a087013590509295509295509295565b6000815180845260005b81811015611e9a57602081850181015186830182015201611e7e565b81811115611eac576000602083870101525b50601f01601f19169290920160200192915050565b6000602080830181845280855180835260408601915060408160051b870101925083870160005b82811015611f1657603f19888603018452611f04858351611e74565b94509285019290850190600101611ee8565b5092979650505050505050565b60008060408385031215611f3657600080fd5b823567ffffffffffffffff811115611f4d57600080fd5b611f5985828601611d50565b95602094909401359450505050565b60008060408385031215611f7b57600080fd5b611f8483611c18565b9150611f9260208401611c18565b90509250929050565b600080600060608486031215611fb057600080fd5b611fb984611c18565b9250602084013567ffffffffffffffff811115611fd557600080fd5b611fe186828701611ce0565b925050604084013590509250925092565b60006020828403121561200457600080fd5b5051919050565b60208082526032908201527f796f75206e656564205975676f20676f7665726e616e636520746f6b656e20746040820152711bc818dc99585d1948184818dbdb9d195cdd60721b606082015260800190565b634e487b7160e01b600052601160045260246000fd5b600082198211156120865761208661205d565b500190565b634e487b7160e01b600052603260045260246000fd5b600181811c908216806120b557607f821691505b602082108114156120d657634e487b7160e01b600052602260045260246000fd5b50919050565b6001600160a01b0384811682528316602082015260606040820181905260009061210890830184611e74565b95945050505050565b6001600160a01b038416815260606020820181905260009061213590830185611e74565b9050826040830152949350505050565b60018060a01b0385168152600060206080818401526000865481600182811c91508083168061217557607f831692505b85831081141561219357634e487b7160e01b85526022600452602485fd5b6080880183905260a088018180156121b257600181146121c3576121ee565b60ff198616825287820196506121ee565b60008d81526020902060005b868110156121e8578154848201529085019089016121cf565b83019750505b5050505050604085019690965260609093019390935250949350505050565b60006000198214156122215761222161205d565b5060010190565b6001600160a01b0385811682528416602082015260806040820181905260009061225490830185611e74565b90508260608301529594505050505056fea2646970667358221220fa043a4a38f4309fa63866d751394e0c9d762203032ac35721273f22e1c4eab064736f6c634300080b0033",
  "immutableReferences": {
    "7503": [
      {
        "length": 32,
        "start": 321
      },
      {
        "length": 32,
        "start": 1344
      },
      {
        "length": 32,
        "start": 2924
      }
    ],
    "7506": [
      {
        "length": 32,
        "start": 779
      },
      {
        "length": 32,
        "start": 3496
      }
    ]
  },
  "source": "// SPDX-License-Identifier: GPL-3.0\npragma solidity ^0.8.9;\n\nimport \"./interfaces/IYugo.sol\";\nimport \"./interfaces/IGrantEscrow.sol\";\n\n/**  \n* @title Smart Contract for the DAO\n* @notice This Smart contract is the center piece of the application.  \n* @notice This contract allows you to create a contest, create an action, vote for an action, tally the votes  \n*/\ncontract YugoDao {\n\n    struct Organisation {\n        address ethAddress;\n        bool isRegistered;\n        uint[] themes;\n        uint country;\n        mapping (address => bool) participants;\n    }\n\n    struct Theme {\n        uint id;\n        string name;\n    }\n\n    struct Country {\n        uint id;\n        string name;\n    }\n\n    struct Action {\n        string name;\n        uint voteNumber;\n        uint requiredFunds;\n        bool isCreated;\n    }\n\n    /**\n    * @notice Contest\n    * @dev A participant can only create one action\n    */\n    struct Contest {\n        string name;    \n        uint[] themeIDs;\n        uint[] countryIDs;\n        uint applicationEndDate;\n        uint votingEndDate;\n        uint fundsAvailable;\n        bool isCreated;\n        address[] winningActionAddresses;\n        mapping(address => bool) hasVoted;\n        mapping(address => Action) actions;\n    }\n\n    event OrganizationRegistered(address addressOrga);\n    event ParticipantWhitelisted(address addressParticipant, address addressOrganization); \n    event ParticipantRemoved(address addressOrga, address addressParticipant);\n    event ContestCreated(address addressOrga, string name, uint funds);\n    event ActionCreated(address addressContestCreator, address addressActionCreator, string actionName, uint requiredFunds);\n    event VoteTallied(address winner, string actionName, uint nbVotes, uint requiredFunds);\n    event HasVotedForAction(address addressContestCreator, address addressActionCreator, address voterAddress); \n    event ActionDeleted(address addressContestCreator, address addressActioncreator, string actionName);\n\n    mapping (address => Contest) contests;\n    mapping (address => Organisation) organisation;\n    mapping (uint => Country)  private countries;\n    mapping (uint => Theme)  private thematics;\n\n    string[] private themeList = [\n        \"education\",\n        \"trafficking\",\n        \"domestic violence\",\n        \"women's movement\",\n        \"campaigns\",\n        \"roma women\",\n        \"identity\",\n        \"lobbing\",\n        \"marginalized groups\",\n        \"sexual harassment\",\n        \"women's rights\"\n    ];\n\n     string[] private countryList = [\n        \"Serbia\",\n        \"Croatia\",\n        \"Montenegro\",\n        \"Bosnia and Hercegovina\",\n        \"Slovenia\",\n        \"Macedonia\"\n    ];\n\n    IYugo public immutable yugo;\n    IGrantEscrow public immutable escrow;\n\n    /**\n    * @notice Set smart contracts' address from migration\n    * @param _yugo Address of the YugoToken contract\n    * @param _escrow Address of the GrantEscrow contract\n    */\n    constructor(address _yugo, address _escrow) {\n        setThematics();\n        setCountries();\n        yugo = IYugo(_yugo);\n        escrow = IGrantEscrow(_escrow);\n    }\n\n    /**\n    * @notice used when sender not authorized for an operation.\n    */\n    error Unauthorized();\n\n   /**\n    * @notice Modifier \n    * @dev Check if _account not equals sender then revert \n    */\n    modifier onlyBy(address _account)\n    {\n        if (msg.sender != _account)\n            revert Unauthorized();\n        _;\n    }\n\n    /**\n    * @notice Populate thematics array\n    * @dev FOR TESTING : Only used in the controller, to initialise the thematics array. Should implement addThematics() so that the thematics are not fixed.\n    */\n    function setThematics() private {\n        uint numThemes = themeList.length;\n        for (uint i=0; i < numThemes-1; i++) {\n            Theme memory theme;\n            theme.id = i;\n            theme.name = themeList[i];\n            thematics[i] = theme;\n        }\n    }\n\n    /**\n    * @notice Populate thematics array\n    * @dev Only used in the controller, to initialise the countries array.\n    */\n    function setCountries() private {\n        uint numCountries = countryList.length;\n        for (uint i=0; i < numCountries-1; i++) {\n            Country memory country;\n            country.id = i;\n            country.name = countryList[i];\n            countries[i] = country;\n        }\n    }\n\n    /**\n    * @notice Return the list of thematics\n    * @return themeList List of thematics\n    */\n    function getThematics() external view returns(string[] memory) {        \n        return themeList;\n    }\n\n    /**\n    * @notice Return the list of countries\n    * @return countryList List of countries\n    */\n    function getCountries() external view returns(string[] memory) {        \n        return countryList;\n    }\n    \n    /**\n    * @notice Registers an Organisation\n    * @dev Creates a mapping for the sender in organisation\n    * @dev Emit OrganizationRegistered event\n    * @param thematicIds List of thematics id\n    * @param countryId Country id\n    * \n    */\n    function registerOrganisation(uint[] memory thematicIds, uint countryId) external {\n        require(!organisation[msg.sender].isRegistered, 'Organisation already registered');\n        require(thematicIds.length > 0 && countryId >= 0, 'You must provide thematics and country');\n        organisation[msg.sender].ethAddress = msg.sender;\n        organisation[msg.sender].themes = thematicIds;\n        organisation[msg.sender].country = countryId;\n        organisation[msg.sender].isRegistered = true;\n        emit OrganizationRegistered(msg.sender);\n    }\n\n    /**\n    * @notice Returns if organisation is registered\n    * @dev - is executed by outside callers and internal functions\n    * @param _orga Address of organisation\n    * @return State of isRegistered, true if organisation is registered\n    */\n    function organisationRegistrationStatus(address _orga) public view returns(bool) {\n        return organisation[_orga].isRegistered;\n    }\n    \n    /**\n    * @notice Returns true if the participant is whitelisted\n    * @dev Can be called either by an organisation or a participant\n    * @param _addrOrganisation  Organisation's address\n    * @param _addrParticipant  Participant's address\n    * @return True if the address exists, false if not\n     */\n    function participantIsWhiteListed(address _addrOrganisation, address _addrParticipant) external view returns(bool) {\n        return organisation[_addrOrganisation].participants[_addrParticipant];\n    }\n\n    /**\n    * @notice allows the organisation (msg.sender) to delete a member from its whitelist\n    * @dev Emit ParticipantRemoved event\n    * @param _addrToDelete  the ethAddress of the participant to be deleted \n    */\n    function removeFromWhitelist(address _addrToDelete) external {\n        require(organisation[msg.sender].participants[_addrToDelete]==true, 'the address you entered does not exist');\n        delete organisation[msg.sender].participants[_addrToDelete];\n        emit ParticipantRemoved(msg.sender, _addrToDelete);\n    }\n\n    /**\n    * @notice Adds a particapants to a organisation\n    * @dev Emit ParticipantWhitelisted event\n    * @param _addrOrga address of organisation\n    * @param _addrParticipant address of particapant \n    */\n    function addParticipant(address _addrOrga, address _addrParticipant ) external {\n        //TODO: verify with oracle _addrParticipant is not an organisation address\n        require(organisation[_addrOrga].ethAddress == msg.sender, 'You are not the owner of the organization');\n        require(!organisation[_addrOrga].participants[_addrParticipant], 'Address already whitelisted for this organization');\n        organisation[_addrOrga].participants[_addrParticipant] = true;\n        emit ParticipantWhitelisted(_addrParticipant, _addrOrga);\n    }\n\n    /**\n    * @notice Add a contest\n    * @dev Emit ContestCreated event\n    * @param _name Name of the contest\n    * @param _themeIds List of thematics IDs\n    * @param _eligibleCountryIds List of country IDs\n    * @param _applicationEndDate End Date of application period \n    * @param _votingEndDate End Date of voting period \n    * @param _funds Value of funds \n    */\n    function addContest(string memory _name, uint[] memory _themeIds, uint[] memory _eligibleCountryIds, uint _applicationEndDate, uint _votingEndDate, uint _funds) external payable {\n        require(yugo.balanceOf(msg.sender) > 0, \"you need Yugo governance token to create a contest\");\n        require(!contests[msg.sender].isCreated, 'Organisation already created a contest');\n        require(_funds == msg.value, \"Amount of funds in escrow is different from the data you provided\");\n        contests[msg.sender].name = _name;\n        contests[msg.sender].themeIDs = _themeIds;\n        contests[msg.sender].countryIDs = _eligibleCountryIds;\n        contests[msg.sender].applicationEndDate = _applicationEndDate;\n        contests[msg.sender].votingEndDate = _votingEndDate;\n        contests[msg.sender].fundsAvailable = _funds;\n        contests[msg.sender].isCreated = true;\n        escrow.depositGrant(msg.sender, msg.value);\n        emit ContestCreated(msg.sender, _name, _funds);\n    }\n\n    /**\n    * @notice Creates an action\n    * @dev Emit ActionCreated event\n    * @param _creatorOfContest Address of creator \n    * @param _name Name of Action\n    * @param _requiredFunds Value of funds\n    */\n    function createAction(address _creatorOfContest, string memory _name, uint _requiredFunds) external {\n        // require(yugo.balanceOf(msg.sender) > 0, \"you need Yugo governance token to create an action\");\n        require(_creatorOfContest != msg.sender, 'Contest creator cannot propose actions');\n        require(contests[_creatorOfContest].isCreated, 'This organization does not have open contest');\n        require(!contests[_creatorOfContest].actions[msg.sender].isCreated, 'You have already created an action');\n        require(_requiredFunds <= contests[_creatorOfContest].fundsAvailable, 'Funds required are superior to funds available');\n        //Verify if action creator country is eligible to participate\n        uint[] memory eligibleCountries = contests[_creatorOfContest].countryIDs;\n        uint orgaCountry = organisation[msg.sender].country;\n        bool countryFound=false;\n        for (uint i=0; i<eligibleCountries.length; i++) {\n            if(eligibleCountries[i]==orgaCountry){\n                countryFound=true;\n                break;\n            }\n        }\n        //Verify at least one theme from the orga wanting to create an action is in the contest themes \n        uint[] memory eligibleThemes = contests[_creatorOfContest].themeIDs;\n        uint[] memory orgaThemes = organisation[msg.sender].themes;\n        bool themeFound=false;\n        for (uint i=0; i<eligibleThemes.length; i++) {\n            for (uint j=0; i<orgaThemes.length; i++) {\n                if(eligibleThemes[i]==orgaThemes[j]){\n                    themeFound=true;\n                    break;\n                }\n            }\n        }\n        require(countryFound == true, \"You are not eligible to participate in this contest\");\n        require(themeFound == true, \"Themes of your organisation are not eligible for this contest\");\n        contests[_creatorOfContest].actions[msg.sender].name = _name;\n        contests[_creatorOfContest].actions[msg.sender].requiredFunds = _requiredFunds;\n        contests[_creatorOfContest].actions[msg.sender].isCreated = true;\n        emit ActionCreated(_creatorOfContest, msg.sender, _name, _requiredFunds);\n    }\n\n    /**\n    * @notice Deletes an action\n    * @dev Emit ActionCreated event\n    * @dev requires the msg.sender to be the action's owner\n    * @dev can only be deleted before the application end date\n    * @dev Struct Action is reinitialise before delete to avoid to avoid a sort of \"pointer rewinding\" effect\n    * @param _creatorOfContest Address of creator \n    */\n    function deleteActions(address _creatorOfContest) external {\n        require(contests[_creatorOfContest].actions[msg.sender].isCreated, 'you did not create any action for this contest');\n        uint currentTime = block.timestamp; //NOTE: test currentTime might change for check bool applicationsClosed == false\n        require(currentTime < contests[_creatorOfContest].applicationEndDate, 'Votes have started.You cannot delete this action');\n        string memory actionName = contests[_creatorOfContest].actions[msg.sender].name;\n        contests[_creatorOfContest].actions[msg.sender] = Action('', 0, 0, false); \n        delete contests[_creatorOfContest].actions[msg.sender]; \n        emit ActionDeleted(_creatorOfContest, msg.sender, actionName);\n    }\n\n    /**\n    * @notice Vote for a Action\n    * @dev At each vote, we compare voteNumber of the winning Action with newly voted one. If truee, then push in array\n    * @dev Emit HasVotedForAction event\n    * @param _creatorOfContest Address of Contest creator \n    * @param _actionCreator Address of Action creator\n    * @param _participantOrga Address of the participant's organisation\n    */\n    function voteForAction(address _creatorOfContest, address _actionCreator, address _participantOrga) external {\n        uint currentTime = block.timestamp; //NOTE: test currentTime might change for check bool timeToVote == true\n        require(currentTime >= contests[_creatorOfContest].applicationEndDate, 'Voting has not started');\n        require(currentTime < contests[_creatorOfContest].votingEndDate, 'Voting is closed');\n        require(msg.sender != _creatorOfContest && msg.sender != _actionCreator, 'You can not vote for this action');\n        require(!contests[_creatorOfContest].hasVoted[msg.sender], 'You have already voted');\n        require(yugo.balanceOf(_participantOrga) > 0, \"you need Yugo governance token to create a contest\");\n        \n        contests[_creatorOfContest].actions[_actionCreator].voteNumber += 1;\n        contests[_creatorOfContest].hasVoted[msg.sender] = true;\n\n        if(contests[_creatorOfContest].winningActionAddresses.length == 0){\n            contests[_creatorOfContest].winningActionAddresses.push(_actionCreator);\n        }else if(contests[_creatorOfContest].actions[contests[_creatorOfContest].winningActionAddresses[0]].voteNumber < contests[_creatorOfContest].actions[_actionCreator].voteNumber){\n            delete contests[_creatorOfContest].winningActionAddresses;\n            contests[_creatorOfContest].winningActionAddresses.push(_actionCreator);\n        }else if(contests[_creatorOfContest].actions[contests[_creatorOfContest].winningActionAddresses[0]].voteNumber == contests[_creatorOfContest].actions[_actionCreator].voteNumber){\n            contests[_creatorOfContest].winningActionAddresses.push(_actionCreator);\n        }\n        emit HasVotedForAction(_creatorOfContest, _actionCreator, msg.sender);\n        delete currentTime;\n    }\n\n    /**\n    * @notice Tally the vote\n    * @dev Emit VoteTallied event\n    * @param _creatorOfContest Address of Contest creator \n    */\n    function tallyVotes(address _creatorOfContest) external {\n        //NOTE needs more testing for multiple winners\n        uint currentTime = block.timestamp; //NOTE: test currentTime might change for check bool timeTotallyVotess == true\n        require(currentTime > contests[_creatorOfContest].votingEndDate, \"Voting has not finished yet\");\n        address winner = contests[_creatorOfContest].winningActionAddresses[0];\n        emit VoteTallied(\n            winner,\n            contests[_creatorOfContest].actions[winner].name, \n            contests[_creatorOfContest].actions[winner].voteNumber, \n            contests[_creatorOfContest].actions[winner].requiredFunds\n            );\n    }\n\n    /**\n    * @notice returns the first winner of the array winningActionAddresses\n    * @dev used in interface IYugoDao\n    * @param _creatorOfContest Address of Contest creator \n    */\n    function getContestWinner(address _creatorOfContest) view public returns(address, uint) {\n        address _winner = contests[_creatorOfContest].winningActionAddresses[0];\n        uint _requiredFunds = contests[_creatorOfContest].actions[_winner].requiredFunds;\n        return (_winner, _requiredFunds);\n    }\n    \n}   ",
  "sourcePath": "/home/kojche/Documents/projects/alyra/certif-alyra/yu-go-dao/Truffle/contracts/YugoDao.sol",
  "compiler": {
    "name": "solc",
    "version": "0.8.11+commit.d7f03943.Emscripten.clang"
  },
  "schemaVersion": "3.4.3",
  "updatedAt": "2022-01-22T03:27:26.098Z",
  "networkType": "ethereum",
  "devdoc": {
    "kind": "dev",
    "methods": {
      "addContest(string,uint256[],uint256[],uint256,uint256,uint256)": {
        "details": "Emit ContestCreated event",
        "params": {
          "_applicationEndDate": "End Date of application period ",
          "_eligibleCountryIds": "List of country IDs",
          "_funds": "Value of funds ",
          "_name": "Name of the contest",
          "_themeIds": "List of thematics IDs",
          "_votingEndDate": "End Date of voting period "
        }
      },
      "addParticipant(address,address)": {
        "details": "Emit ParticipantWhitelisted event",
        "params": {
          "_addrOrga": "address of organisation",
          "_addrParticipant": "address of particapant "
        }
      },
      "constructor": {
        "params": {
          "_escrow": "Address of the GrantEscrow contract",
          "_yugo": "Address of the YugoToken contract"
        }
      },
      "createAction(address,string,uint256)": {
        "details": "Emit ActionCreated event",
        "params": {
          "_creatorOfContest": "Address of creator ",
          "_name": "Name of Action",
          "_requiredFunds": "Value of funds"
        }
      },
      "deleteActions(address)": {
        "details": "Emit ActionCreated eventrequires the msg.sender to be the action's ownercan only be deleted before the application end dateStruct Action is reinitialise before delete to avoid to avoid a sort of \"pointer rewinding\" effect",
        "params": {
          "_creatorOfContest": "Address of creator "
        }
      },
      "getContestWinner(address)": {
        "details": "used in interface IYugoDao",
        "params": {
          "_creatorOfContest": "Address of Contest creator "
        }
      },
      "getCountries()": {
        "returns": {
          "_0": "countryList List of countries"
        }
      },
      "getThematics()": {
        "returns": {
          "_0": "themeList List of thematics"
        }
      },
      "organisationRegistrationStatus(address)": {
        "details": "- is executed by outside callers and internal functions",
        "params": {
          "_orga": "Address of organisation"
        },
        "returns": {
          "_0": "State of isRegistered, true if organisation is registered"
        }
      },
      "participantIsWhiteListed(address,address)": {
        "details": "Can be called either by an organisation or a participant",
        "params": {
          "_addrOrganisation": "Organisation's address",
          "_addrParticipant": "Participant's address"
        },
        "returns": {
          "_0": "True if the address exists, false if not"
        }
      },
      "registerOrganisation(uint256[],uint256)": {
        "details": "Creates a mapping for the sender in organisationEmit OrganizationRegistered event",
        "params": {
          "countryId": "Country id ",
          "thematicIds": "List of thematics id"
        }
      },
      "removeFromWhitelist(address)": {
        "details": "Emit ParticipantRemoved event",
        "params": {
          "_addrToDelete": "the ethAddress of the participant to be deleted "
        }
      },
      "tallyVotes(address)": {
        "details": "Emit VoteTallied event",
        "params": {
          "_creatorOfContest": "Address of Contest creator "
        }
      },
      "voteForAction(address,address,address)": {
        "details": "At each vote, we compare voteNumber of the winning Action with newly voted one. If truee, then push in arrayEmit HasVotedForAction event",
        "params": {
          "_actionCreator": "Address of Action creator",
          "_creatorOfContest": "Address of Contest creator ",
          "_participantOrga": "Address of the participant's organisation"
        }
      }
    },
    "title": "Smart Contract for the DAO",
    "version": 1
  },
  "userdoc": {
    "errors": {
      "Unauthorized()": [
        {
          "notice": "used when sender not authorized for an operation."
        }
      ]
    },
    "kind": "user",
    "methods": {
      "addContest(string,uint256[],uint256[],uint256,uint256,uint256)": {
        "notice": "Add a contest"
      },
      "addParticipant(address,address)": {
        "notice": "Adds a particapants to a organisation"
      },
      "constructor": {
        "notice": "Set smart contracts' address from migration"
      },
      "createAction(address,string,uint256)": {
        "notice": "Creates an action"
      },
      "deleteActions(address)": {
        "notice": "Deletes an action"
      },
      "getContestWinner(address)": {
        "notice": "returns the first winner of the array winningActionAddresses"
      },
      "getCountries()": {
        "notice": "Return the list of countries"
      },
      "getThematics()": {
        "notice": "Return the list of thematics"
      },
      "organisationRegistrationStatus(address)": {
        "notice": "Returns if organisation is registered"
      },
      "participantIsWhiteListed(address,address)": {
        "notice": "Returns true if the participant is whitelisted"
      },
      "registerOrganisation(uint256[],uint256)": {
        "notice": "Registers an Organisation"
      },
      "removeFromWhitelist(address)": {
        "notice": "allows the organisation (msg.sender) to delete a member from its whitelist"
      },
      "tallyVotes(address)": {
        "notice": "Tally the vote"
      },
      "voteForAction(address,address,address)": {
        "notice": "Vote for a Action"
      }
    },
    "notice": "This Smart contract is the center piece of the application.  This contract allows you to create a contest, create an action, vote for an action, tally the votes  ",
    "version": 1
  }
}