{
  "contractName": "YugoManager",
  "abi": [
    {
      "anonymous": false,
      "inputs": [
        {
          "indexed": false,
          "internalType": "address",
          "name": "yugo",
          "type": "address"
        },
        {
          "indexed": false,
          "internalType": "address",
          "name": "yugodao",
          "type": "address"
        }
      ],
      "name": "ContractsAddrSet",
      "type": "event"
    },
    {
      "anonymous": false,
      "inputs": [
        {
          "indexed": false,
          "internalType": "address",
          "name": "organisation",
          "type": "address"
        }
      ],
      "name": "FundsTransferedToWinner",
      "type": "event"
    },
    {
      "anonymous": false,
      "inputs": [
        {
          "indexed": true,
          "internalType": "address",
          "name": "previousOwner",
          "type": "address"
        },
        {
          "indexed": true,
          "internalType": "address",
          "name": "newOwner",
          "type": "address"
        }
      ],
      "name": "OwnershipTransferred",
      "type": "event"
    },
    {
      "anonymous": false,
      "inputs": [
        {
          "indexed": false,
          "internalType": "address",
          "name": "organisation",
          "type": "address"
        },
        {
          "indexed": false,
          "internalType": "uint256",
          "name": "value",
          "type": "uint256"
        }
      ],
      "name": "Received",
      "type": "event"
    },
    {
      "anonymous": false,
      "inputs": [
        {
          "indexed": false,
          "internalType": "address",
          "name": "organisation",
          "type": "address"
        }
      ],
      "name": "TokenPurchasedBy",
      "type": "event"
    },
    {
      "anonymous": false,
      "inputs": [
        {
          "indexed": false,
          "internalType": "address",
          "name": "recipient",
          "type": "address"
        },
        {
          "indexed": false,
          "internalType": "uint256",
          "name": "amount",
          "type": "uint256"
        }
      ],
      "name": "YugoTransfer",
      "type": "event"
    },
    {
      "inputs": [],
      "name": "owner",
      "outputs": [
        {
          "internalType": "address",
          "name": "",
          "type": "address"
        }
      ],
      "stateMutability": "view",
      "type": "function",
      "constant": true
    },
    {
      "inputs": [],
      "name": "renounceOwnership",
      "outputs": [],
      "stateMutability": "nonpayable",
      "type": "function"
    },
    {
      "inputs": [
        {
          "internalType": "address",
          "name": "newOwner",
          "type": "address"
        }
      ],
      "name": "transferOwnership",
      "outputs": [],
      "stateMutability": "nonpayable",
      "type": "function"
    },
    {
      "stateMutability": "payable",
      "type": "receive",
      "payable": true
    },
    {
      "inputs": [],
      "name": "purchaseYugo",
      "outputs": [],
      "stateMutability": "payable",
      "type": "function",
      "payable": true
    },
    {
      "inputs": [
        {
          "internalType": "address payable",
          "name": "_to",
          "type": "address"
        }
      ],
      "name": "sendEth",
      "outputs": [],
      "stateMutability": "payable",
      "type": "function",
      "payable": true
    },
    {
      "inputs": [
        {
          "internalType": "address",
          "name": "account",
          "type": "address"
        }
      ],
      "name": "yugoBalanceOf",
      "outputs": [
        {
          "internalType": "uint256",
          "name": "",
          "type": "uint256"
        }
      ],
      "stateMutability": "view",
      "type": "function",
      "constant": true
    },
    {
      "inputs": [
        {
          "internalType": "address",
          "name": "_yugo",
          "type": "address"
        },
        {
          "internalType": "address",
          "name": "_dao",
          "type": "address"
        }
      ],
      "name": "setContractsAddresses",
      "outputs": [],
      "stateMutability": "nonpayable",
      "type": "function"
    },
    {
      "inputs": [],
      "name": "hasEthDeposit",
      "outputs": [
        {
          "internalType": "bool",
          "name": "_ledgerState",
          "type": "bool"
        }
      ],
      "stateMutability": "view",
      "type": "function",
      "constant": true
    },
    {
      "inputs": [],
      "name": "transferYugo",
      "outputs": [],
      "stateMutability": "nonpayable",
      "type": "function"
    }
  ],
  "bytecode": "0x608060405267016345785d8a000060035534801561001c57600080fd5b506100263361002b565b61007b565b600080546001600160a01b038381166001600160a01b0319831681178455604051919092169283917f8be0079c531659141344cd1fd0a4f28419497f9722a3daafe3b4186f6b6457e09190a35050565b610bda8061008a6000396000f3fe60806040526004361061008a5760003560e01c8063715018a611610059578063715018a61461011f57806376a54c60146101345780638da5cb5b14610147578063d8437ab31461016f578063f2fde38b1461018f57600080fd5b8063056e75971461009e57806313e4e5c6146100b357806335732c86146100bb57806364e2a0e0146100f157600080fd5b36610099576100976101af565b005b600080fd5b3480156100aa57600080fd5b50610097610457565b6100976101af565b3480156100c757600080fd5b50600354336000908152600460205260409020541460405190151581526020015b60405180910390f35b3480156100fd57600080fd5b5061011161010c36600461098c565b6106b6565b6040519081526020016100e8565b34801561012b57600080fd5b5061009761072b565b61009761014236600461098c565b610761565b34801561015357600080fd5b506000546040516001600160a01b0390911681526020016100e8565b34801561017b57600080fd5b5061009761018a3660046109b0565b6107fb565b34801561019b57600080fd5b506100976101aa36600461098c565b61088c565b600254604051635eb94b9960e11b81523360048201526001600160a01b039091169063bd729732906024016020604051808303816000875af11580156101f9573d6000803e3d6000fd5b505050506040513d601f19601f8201168201806040525081019061021d91906109e9565b151560011461028b5760405162461bcd60e51b815260206004820152602f60248201527f796f75206e65656420746f206265207265676973746572656420746f2070757260448201526e31b430b9b2903a3432903a37b5b2b760891b60648201526084015b60405180910390fd5b33600090815260046020526040902054156102e85760405162461bcd60e51b815260206004820152601760248201527f796f752068617665206d6164652061206465706f7369740000000000000000006044820152606401610282565b6001546040516370a0823160e01b81523360048201526001600160a01b03909116906370a0823190602401602060405180830381865afa158015610330573d6000803e3d6000fd5b505050506040513d601f19601f820116820180604052508101906103549190610a0b565b156103a15760405162461bcd60e51b815260206004820152601d60248201527f796f7520616c726561647920707572636861736564206120746f6b656e0000006044820152606401610282565b60035434146103f25760405162461bcd60e51b815260206004820152601a60248201527f796f7520646f206e6f74206861766520656e6f756768204554480000000000006044820152606401610282565b33600081815260046020908152604080832034908190556005835292819020805460ff1916600117905580518481529182018390527f88a5966d370b9919b20f3e2c13ff65706f196a4e32cc2c12bf57088f8852587491015b60405180910390a15050565b60065460ff161561049b5760405162461bcd60e51b815260206004820152600e60248201526d4e6f2072652d656e7472616e637960901b6044820152606401610282565b6006805460ff1916600117905560035433600090815260046020526040902054146104fe5760405162461bcd60e51b81526020600482015260136024820152721b9bc8115512081dd85cc81c9958d95a5d9959606a1b6044820152606401610282565b3360009081526005602052604090205460ff1615156001146105625760405162461bcd60e51b815260206004820152601e60248201527f596f7520616c726561647920726563656976656420796f7572205975676f00006044820152606401610282565b336000908152600560209081526040808320805460ff19169055600154815163313ce56760e01b815291516001600160a01b039091169263313ce56792600480820193918290030181865afa1580156105bf573d6000803e3d6000fd5b505050506040513d601f19601f820116820180604052508101906105e39190610a24565b6105ee90600a610b41565b6105f9906001610b50565b60015460405163a9059cbb60e01b8152336004820152602481018390529192506001600160a01b03169063a9059cbb906044016020604051808303816000875af115801561064b573d6000803e3d6000fd5b505050506040513d601f19601f8201168201806040525081019061066f91906109e9565b5060408051338152602081018390527fe94c6e629948b607c16a4b9710b4e775200e3c7963e20b6cbb8dccc8da65d870910160405180910390a1506006805460ff19169055565b6001546040516370a0823160e01b81526001600160a01b03838116600483015260009216906370a0823190602401602060405180830381865afa158015610701573d6000803e3d6000fd5b505050506040513d601f19601f820116820180604052508101906107259190610a0b565b92915050565b6000546001600160a01b031633146107555760405162461bcd60e51b815260040161028290610b6f565b61075f6000610927565b565b6000546001600160a01b0316331461078b5760405162461bcd60e51b815260040161028290610b6f565b6040516000906001600160a01b038316903480156108fc029184818181858888f193505050509050806107f75760405162461bcd60e51b81526020600482015260146024820152732330b4b632b2103a379039b2b7321022ba3432b960611b6044820152606401610282565b5050565b6000546001600160a01b031633146108255760405162461bcd60e51b815260040161028290610b6f565b600180546001600160a01b038481166001600160a01b03199283168117909355600280549185169190921681179091556040805192835260208301919091527f9002c211abd499252e56273224dd6a3f259ba469ff482e4e6e4a13fb3d6b154e910161044b565b6000546001600160a01b031633146108b65760405162461bcd60e51b815260040161028290610b6f565b6001600160a01b03811661091b5760405162461bcd60e51b815260206004820152602660248201527f4f776e61626c653a206e6577206f776e657220697320746865207a65726f206160448201526564647265737360d01b6064820152608401610282565b61092481610927565b50565b600080546001600160a01b038381166001600160a01b0319831681178455604051919092169283917f8be0079c531659141344cd1fd0a4f28419497f9722a3daafe3b4186f6b6457e09190a35050565b6001600160a01b038116811461092457600080fd5b60006020828403121561099e57600080fd5b81356109a981610977565b9392505050565b600080604083850312156109c357600080fd5b82356109ce81610977565b915060208301356109de81610977565b809150509250929050565b6000602082840312156109fb57600080fd5b815180151581146109a957600080fd5b600060208284031215610a1d57600080fd5b5051919050565b600060208284031215610a3657600080fd5b815160ff811681146109a957600080fd5b634e487b7160e01b600052601160045260246000fd5b600181815b80851115610a98578160001904821115610a7e57610a7e610a47565b80851615610a8b57918102915b93841c9390800290610a62565b509250929050565b600082610aaf57506001610725565b81610abc57506000610725565b8160018114610ad25760028114610adc57610af8565b6001915050610725565b60ff841115610aed57610aed610a47565b50506001821b610725565b5060208310610133831016604e8410600b8410161715610b1b575081810a610725565b610b258383610a5d565b8060001904821115610b3957610b39610a47565b029392505050565b60006109a960ff841683610aa0565b6000816000190483118215151615610b6a57610b6a610a47565b500290565b6020808252818101527f4f776e61626c653a2063616c6c6572206973206e6f7420746865206f776e657260408201526060019056fea2646970667358221220c27e48066b3ffefcf1d91f09f002f2b124b339a26be249bbdb2ef6b8de03473e64736f6c634300080b0033",
  "immutableReferences": {},
  "source": "// SPDX-License-Identifier: GPL-3.0\npragma solidity ^0.8.9;\n\nimport \"@openzeppelin/contracts/access/Ownable.sol\";\nimport \"./interfaces/IYugo.sol\";\nimport \"./interfaces/IYugoDao.sol\";\n\ncontract YugoManager is Ownable {\n\n    IYugo private yugo;\n    IYugoDao private yugoDao;\n\n    uint yugoTokenCost = 100000000000000000; //0.1 ETH\n    mapping (address => uint) EthLedger;\n    mapping (address => bool) EligibleToClaimYugo;\n    bool internal locked;\n\n    modifier noReentrant() {\n        require(!locked, \"No re-entrancy\");\n        locked = true;\n        _;\n        locked = false;\n    }\n\n    // event AddressSet (address addrSetTo, address setter);\n    event YugoTransfer (address recipient, uint256 amount);\n    event Received(address organisation, uint value);\n    event TokenPurchasedBy(address organisation);\n    event FundsTransferedToWinner(address organisation);\n    event ContractsAddrSet(address yugo, address yugodao);\n\n    /**\n    * @notice receives ETH\n    * @dev verifies that the organisation is registered\n    * @dev verifies that the caller did not purchase a token before\n    * @dev verifies that the ETH sent equals the token price\n    */\n    receive() external payable {\n        purchaseYugo();\n    }\n        \n    function purchaseYugo() public payable {\n        require(yugoDao.organisationRegistrationStatus(msg.sender) == true, 'you need to be registered to purchase the token');\n        require(EthLedger[msg.sender] == 0, 'you have made a deposit');\n        require(yugo.balanceOf(msg.sender) == 0, \"you already purchased a token\");\n        require(msg.value == yugoTokenCost, \"you do not have enough ETH\");\n        address sender = msg.sender;\n        uint deposited = msg.value;\n        EthLedger[sender] = deposited; // specifies that ETH was deposited\n        EligibleToClaimYugo[msg.sender] = true; //specifies that Yugo can now be claimed by the caller\n        emit Received(msg.sender, msg.value);\n    }\n\n    /**\n    * @notice sends ETH to pay the platform staff, only the admin can call it\n    * @param _to - the address of a staff member\n    * @dev requires success\n    */\n    function sendEth(address payable _to) public payable onlyOwner {\n        bool sent = _to.send(msg.value);\n        require(sent, \"Failed to send Ether\");\n    }\n\n    /**\n    * @notice checks the Yugo balance of an account\n    * @return a balance type uint256\n    */\n    function yugoBalanceOf(address account) public view returns (uint256) {\n        return yugo.balanceOf(account);\n    }\n\n    function setContractsAddresses(address _yugo, address _dao) external onlyOwner {\n        yugo = IYugo(_yugo);\n        yugoDao = IYugoDao(_dao);\n        emit ContractsAddrSet(_yugo, _dao);\n    }\n\n    /**\n    * @notice Returns deposit state of organization\n    * @return _ledgerState boolean true if organisation has deposit for yugo token\n    */\n    function hasEthDeposit() external view returns(bool _ledgerState) {        \n        _ledgerState = EthLedger[msg.sender] == yugoTokenCost;\n        return _ledgerState;\n    }\n\n    /**\n    * @notice claim Yugo token \n    * @dev the ETH ledger of the caller must show that the token was purchased\n    * @dev The Yugo Ledger of the caller must be at 0. Either because it is a \n    * first time purchase or because the period of validity of the token has passed\n    * and must renewed\n    * @dev Re-entrancy - the noReentrant modifier ensures that the function can not\n    * be run multiple times in parallel. The function is locked until it finishes.  \n    * @dev Pull-Over-Push - the token was not sent after purchase but the buyer was marked as \n    * eligible to claim the token. Afterwards, the condition of eligibility is updated before \n    * the transfer. \n    */\n    function transferYugo() external noReentrant {\n        require(EthLedger[msg.sender] == yugoTokenCost, \"no ETH was received\");\n        require(EligibleToClaimYugo[msg.sender] == true, \"You already received your Yugo\");\n        EligibleToClaimYugo[msg.sender] = false;\n        uint256 amount = 1*10**yugo.decimals();\n        yugo.transfer(msg.sender, amount);\n        emit YugoTransfer(msg.sender, amount);\n    }\n\n\n    // TODO:function verifyByOracle orga\n\n}",
  "sourcePath": "/home/kojche/Documents/projects/alyra/certif-alyra/yu-go-dao/Truffle/contracts/YugoManager.sol",
  "compiler": {
    "name": "solc",
    "version": "0.8.11+commit.d7f03943.Emscripten.clang"
  },
  "schemaVersion": "3.4.3",
  "updatedAt": "2022-01-20T04:45:16.479Z",
  "networkType": "ethereum",
  "devdoc": {
    "kind": "dev",
    "methods": {
      "hasEthDeposit()": {
        "returns": {
          "_ledgerState": "boolean true if organisation has deposit for yugo token"
        }
      },
      "owner()": {
        "details": "Returns the address of the current owner."
      },
      "renounceOwnership()": {
        "details": "Leaves the contract without owner. It will not be possible to call `onlyOwner` functions anymore. Can only be called by the current owner. NOTE: Renouncing ownership will leave the contract without an owner, thereby removing any functionality that is only available to the owner."
      },
      "sendEth(address)": {
        "details": "requires success",
        "params": {
          "_to": "- the address of a staff member"
        }
      },
      "transferOwnership(address)": {
        "details": "Transfers ownership of the contract to a new account (`newOwner`). Can only be called by the current owner."
      },
      "transferYugo()": {
        "details": "the ETH ledger of the caller must show that the token was purchasedThe Yugo Ledger of the caller must be at 0. Either because it is a  first time purchase or because the period of validity of the token has passed and must renewedRe-entrancy - the noReentrant modifier ensures that the function can not be run multiple times in parallel. The function is locked until it finishes.  Pull-Over-Push - the token was not sent after purchase but the buyer was marked as  eligible to claim the token. Afterwards, the condition of eligibility is updated before  the transfer. "
      },
      "yugoBalanceOf(address)": {
        "returns": {
          "_0": "a balance type uint256"
        }
      }
    },
    "version": 1
  },
  "userdoc": {
    "kind": "user",
    "methods": {
      "hasEthDeposit()": {
        "notice": "Returns deposit state of organization"
      },
      "sendEth(address)": {
        "notice": "sends ETH to pay the platform staff, only the admin can call it"
      },
      "transferYugo()": {
        "notice": "claim Yugo token "
      },
      "yugoBalanceOf(address)": {
        "notice": "checks the Yugo balance of an account"
      }
    },
    "version": 1
  }
}