{
  "contractName": "YugoManager",
  "abi": [
    {
      "anonymous": false,
      "inputs": [
        {
          "indexed": false,
          "internalType": "address",
          "name": "addrSetTo",
          "type": "address"
        },
        {
          "indexed": false,
          "internalType": "address",
          "name": "setter",
          "type": "address"
        }
      ],
      "name": "AddressSet",
      "type": "event"
    },
    {
      "anonymous": false,
      "inputs": [
        {
          "indexed": false,
          "internalType": "address",
          "name": "organisation",
          "type": "address"
        }
      ],
      "name": "FundsTransferedToWinner",
      "type": "event"
    },
    {
      "anonymous": false,
      "inputs": [
        {
          "indexed": true,
          "internalType": "address",
          "name": "previousOwner",
          "type": "address"
        },
        {
          "indexed": true,
          "internalType": "address",
          "name": "newOwner",
          "type": "address"
        }
      ],
      "name": "OwnershipTransferred",
      "type": "event"
    },
    {
      "anonymous": false,
      "inputs": [
        {
          "indexed": false,
          "internalType": "address",
          "name": "organisation",
          "type": "address"
        },
        {
          "indexed": false,
          "internalType": "uint256",
          "name": "value",
          "type": "uint256"
        }
      ],
      "name": "Received",
      "type": "event"
    },
    {
      "anonymous": false,
      "inputs": [
        {
          "indexed": false,
          "internalType": "address",
          "name": "organisation",
          "type": "address"
        }
      ],
      "name": "TokenPurchasedBy",
      "type": "event"
    },
    {
      "anonymous": false,
      "inputs": [
        {
          "indexed": false,
          "internalType": "address",
          "name": "recipient",
          "type": "address"
        },
        {
          "indexed": false,
          "internalType": "uint256",
          "name": "amount",
          "type": "uint256"
        }
      ],
      "name": "YugoTransfer",
      "type": "event"
    },
    {
      "inputs": [],
      "name": "owner",
      "outputs": [
        {
          "internalType": "address",
          "name": "",
          "type": "address"
        }
      ],
      "stateMutability": "view",
      "type": "function",
      "constant": true
    },
    {
      "inputs": [],
      "name": "renounceOwnership",
      "outputs": [],
      "stateMutability": "nonpayable",
      "type": "function"
    },
    {
      "inputs": [
        {
          "internalType": "address",
          "name": "newOwner",
          "type": "address"
        }
      ],
      "name": "transferOwnership",
      "outputs": [],
      "stateMutability": "nonpayable",
      "type": "function"
    },
    {
      "inputs": [],
      "name": "yugo",
      "outputs": [
        {
          "internalType": "contract IYugo",
          "name": "",
          "type": "address"
        }
      ],
      "stateMutability": "view",
      "type": "function",
      "constant": true
    },
    {
      "inputs": [],
      "name": "yugoDao",
      "outputs": [
        {
          "internalType": "contract IYugoDao",
          "name": "",
          "type": "address"
        }
      ],
      "stateMutability": "view",
      "type": "function",
      "constant": true
    },
    {
      "stateMutability": "payable",
      "type": "receive",
      "payable": true
    },
    {
      "inputs": [
        {
          "internalType": "address payable",
          "name": "_to",
          "type": "address"
        }
      ],
      "name": "sendEth",
      "outputs": [],
      "stateMutability": "payable",
      "type": "function",
      "payable": true
    },
    {
      "inputs": [
        {
          "internalType": "address",
          "name": "_addy",
          "type": "address"
        }
      ],
      "name": "setYugoAddress",
      "outputs": [],
      "stateMutability": "nonpayable",
      "type": "function"
    },
    {
      "inputs": [
        {
          "internalType": "address",
          "name": "_addydao",
          "type": "address"
        }
      ],
      "name": "setYugoDaoAddress",
      "outputs": [],
      "stateMutability": "nonpayable",
      "type": "function"
    },
    {
      "inputs": [
        {
          "internalType": "address",
          "name": "account",
          "type": "address"
        }
      ],
      "name": "yugoBalanceOf",
      "outputs": [
        {
          "internalType": "uint256",
          "name": "",
          "type": "uint256"
        }
      ],
      "stateMutability": "view",
      "type": "function",
      "constant": true
    },
    {
      "inputs": [],
      "name": "transferYugo",
      "outputs": [],
      "stateMutability": "nonpayable",
      "type": "function"
    },
    {
      "inputs": [],
      "name": "transferWinningOrganisation",
      "outputs": [],
      "stateMutability": "nonpayable",
      "type": "function"
    }
  ],
  "bytecode": "0x608060405267016345785d8a000060035534801561001c57600080fd5b506100263361002b565b61007b565b600080546001600160a01b038381166001600160a01b0319831681178455604051919092169283917f8be0079c531659141344cd1fd0a4f28419497f9722a3daafe3b4186f6b6457e09190a35050565b610b1c8061008a6000396000f3fe6080604052600436106100a05760003560e01c806376a54c601161006457806376a54c601461039a5780638da5cb5b146103ad5780639d87eb6a146103cb578063b0cbe770146103eb578063e034b77c1461040b578063f2fde38b1461041a57600080fd5b8063056e7597146102e357806322370265146102fa5780635fe581dc1461033757806364e2a0e014610357578063715018a61461038557600080fd5b366102de57600254604051635eb94b9960e11b81523360048201526001600160a01b039091169063bd729732906024016020604051808303816000875af11580156100ef573d6000803e3d6000fd5b505050506040513d601f19601f8201168201806040525081019061011391906108f2565b15156001146101815760405162461bcd60e51b815260206004820152602f60248201527f796f75206e65656420746f206265207265676973746572656420746f2070757260448201526e31b430b9b2903a3432903a37b5b2b760891b60648201526084015b60405180910390fd5b6001546040516370a0823160e01b81523360048201526001600160a01b03909116906370a0823190602401602060405180830381865afa1580156101c9573d6000803e3d6000fd5b505050506040513d601f19601f820116820180604052508101906101ed919061091b565b1561023a5760405162461bcd60e51b815260206004820152601d60248201527f796f7520616c726561647920707572636861736564206120746f6b656e0000006044820152606401610178565b600354341461028b5760405162461bcd60e51b815260206004820152601a60248201527f796f7520646f206e6f74206861766520656e6f756768204554480000000000006044820152606401610178565b3360008181526004602090815260409182902034908190558251848152918201819052917f88a5966d370b9919b20f3e2c13ff65706f196a4e32cc2c12bf57088f88525874910160405180910390a15050005b600080fd5b3480156102ef57600080fd5b506102f861043a565b005b34801561030657600080fd5b5060015461031a906001600160a01b031681565b6040516001600160a01b0390911681526020015b60405180910390f35b34801561034357600080fd5b506102f8610352366004610949565b6105c8565b34801561036357600080fd5b50610377610372366004610949565b610645565b60405190815260200161032e565b34801561039157600080fd5b506102f86106ba565b6102f86103a8366004610949565b6106f0565b3480156103b957600080fd5b506000546001600160a01b031661031a565b3480156103d757600080fd5b5060025461031a906001600160a01b031681565b3480156103f757600080fd5b506102f8610406366004610949565b61078a565b34801561041757600080fd5b50005b34801561042657600080fd5b506102f8610435366004610949565b610807565b60035433600090815260046020526040902054146104905760405162461bcd60e51b81526020600482015260136024820152721b9bc8115512081dd85cc81c9958d95a5d9959606a1b6044820152606401610178565b6001546040805163313ce56760e01b815290516000926001600160a01b03169163313ce5679160048083019260209291908290030181865afa1580156104da573d6000803e3d6000fd5b505050506040513d601f19601f820116820180604052508101906104fe9190610966565b61050990600a610a83565b610514906001610a92565b60015460405163a9059cbb60e01b8152336004820152602481018390529192506001600160a01b03169063a9059cbb906044016020604051808303816000875af1158015610566573d6000803e3d6000fd5b505050506040513d601f19601f8201168201806040525081019061058a91906108f2565b5060408051338152602081018390527fe94c6e629948b607c16a4b9710b4e775200e3c7963e20b6cbb8dccc8da65d87091015b60405180910390a150565b6000546001600160a01b031633146105f25760405162461bcd60e51b815260040161017890610ab1565b600180546001600160a01b0319166001600160a01b038316908117909155604080519182523360208301527f7c70e2d89d1dca170b21f8ef849678463944a87b2c710218a895aeb967ed52f791016105bd565b6001546040516370a0823160e01b81526001600160a01b03838116600483015260009216906370a0823190602401602060405180830381865afa158015610690573d6000803e3d6000fd5b505050506040513d601f19601f820116820180604052508101906106b4919061091b565b92915050565b6000546001600160a01b031633146106e45760405162461bcd60e51b815260040161017890610ab1565b6106ee60006108a2565b565b6000546001600160a01b0316331461071a5760405162461bcd60e51b815260040161017890610ab1565b6040516000906001600160a01b038316903480156108fc029184818181858888f193505050509050806107865760405162461bcd60e51b81526020600482015260146024820152732330b4b632b2103a379039b2b7321022ba3432b960611b6044820152606401610178565b5050565b6000546001600160a01b031633146107b45760405162461bcd60e51b815260040161017890610ab1565b600280546001600160a01b0319166001600160a01b038316908117909155604080519182523360208301527f7c70e2d89d1dca170b21f8ef849678463944a87b2c710218a895aeb967ed52f791016105bd565b6000546001600160a01b031633146108315760405162461bcd60e51b815260040161017890610ab1565b6001600160a01b0381166108965760405162461bcd60e51b815260206004820152602660248201527f4f776e61626c653a206e6577206f776e657220697320746865207a65726f206160448201526564647265737360d01b6064820152608401610178565b61089f816108a2565b50565b600080546001600160a01b038381166001600160a01b0319831681178455604051919092169283917f8be0079c531659141344cd1fd0a4f28419497f9722a3daafe3b4186f6b6457e09190a35050565b60006020828403121561090457600080fd5b8151801515811461091457600080fd5b9392505050565b60006020828403121561092d57600080fd5b5051919050565b6001600160a01b038116811461089f57600080fd5b60006020828403121561095b57600080fd5b813561091481610934565b60006020828403121561097857600080fd5b815160ff8116811461091457600080fd5b634e487b7160e01b600052601160045260246000fd5b600181815b808511156109da5781600019048211156109c0576109c0610989565b808516156109cd57918102915b93841c93908002906109a4565b509250929050565b6000826109f1575060016106b4565b816109fe575060006106b4565b8160018114610a145760028114610a1e57610a3a565b60019150506106b4565b60ff841115610a2f57610a2f610989565b50506001821b6106b4565b5060208310610133831016604e8410600b8410161715610a5d575081810a6106b4565b610a67838361099f565b8060001904821115610a7b57610a7b610989565b029392505050565b600061091460ff8416836109e2565b6000816000190483118215151615610aac57610aac610989565b500290565b6020808252818101527f4f776e61626c653a2063616c6c6572206973206e6f7420746865206f776e657260408201526060019056fea26469706673582212201b3b0fa6123401cefeef4630fb1d5d4ba24f4b4749cd9b3c869515695948d85164736f6c634300080b0033",
  "immutableReferences": {},
  "source": "// SPDX-License-Identifier: GPL-3.0\npragma solidity 0.8.11;\n\nimport \"@openzeppelin/contracts/access/Ownable.sol\";\nimport \"./IYugo.sol\";\nimport \"./IYugoDao.sol\";\n\n// interface IYugo {\n//     function balanceOf(address account) external view returns (uint256);\n// }\n\ncontract YugoManager is Ownable {\n\n    IYugo public yugo;\n    IYugoDao public yugoDao;\n\n    uint yugoTokenCost = 100000000000000000; //0.1 ETH\n    mapping (address => uint) EthLedger;\n\n    event AddressSet (address addrSetTo, address setter);\n    event YugoTransfer (address recipient, uint256 amount);\n    event Received(address organisation, uint value);\n    event TokenPurchasedBy(address organisation);\n    event FundsTransferedToWinner(address organisation);\n\n    /**\n    * @notice receives ETH\n    * @dev verifies that the organisation is registered\n    * @dev verifies that the caller did not purchase a token before\n    * @dev verifies that the ETH sent equals the token price\n    */\n    receive() external payable {\n        require(yugoDao.organisationRegistrationStatus(msg.sender) == true, 'you need to be registered to purchase the token');\n        require(yugo.balanceOf(msg.sender) == 0, \"you already purchased a token\");\n        require(msg.value == yugoTokenCost, \"you do not have enough ETH\");\n        // require(msg.value > 0);\n        address sender = msg.sender;\n        uint deposited = msg.value;\n        // receiver = owner;\n        EthLedger[sender] = deposited;\n        // receiver.transfer(deposited);\n        emit Received(msg.sender, msg.value);\n    }\n\n    /**\n    * @notice sends ETH to pay the platform staff, only the admin can call it\n    * @param _to - the address of a staff member\n    * @dev requires success\n    */\n    function sendEth(address payable _to) public payable onlyOwner {\n        bool sent = _to.send(msg.value);\n        require(sent, \"Failed to send Ether\");\n    }\n\n    /**\n    * @notice set the address of the Yugo contract for use with its interface \n    * @param _addy - the address of the Yugo contract\n    */\n    function setYugoAddress(address _addy) external onlyOwner {\n        yugo = IYugo(_addy);\n        emit AddressSet(_addy, msg.sender);\n    }\n\n    /**\n    * @notice set the address of the YugoDao contract for use with its interface \n    * @param _addydao - the address of the YugoDao contract\n    */\n    function setYugoDaoAddress(address _addydao) external onlyOwner {\n        yugoDao = IYugoDao(_addydao);\n        emit AddressSet(_addydao, msg.sender);\n    }\n\n    /**\n    * @notice checks the Yugo balance of an account\n    * @return a balance type uint256\n    */\n    function yugoBalanceOf(address account) public view returns (uint256) {\n        return yugo.balanceOf(account);\n    }\n\n    /**\n    * @notice Pull over Push: claim Yugo token \n    * @dev the ledger's balance of the caller must show that the token was purchased\n    */\n    function transferYugo() external {\n        require(EthLedger[msg.sender] == yugoTokenCost, \"no ETH was received\");\n        uint256 amount = 1*10**yugo.decimals();\n        yugo.transfer(msg.sender, amount);\n        emit YugoTransfer(msg.sender, amount);\n    }\n\n    /**\n    * @notice transfers funds to winning organisation\n    */\n    function transferWinningOrganisation() external {\n        //TODO\n    }\n\n    // TODO:function verifyByOracle orga\n\n}",
  "sourcePath": "/home/kojche/Documents/projects/alyra/certif-alyra/yu-go-dao/Truffle/contracts/YugoManager.sol",
  "compiler": {
    "name": "solc",
    "version": "0.8.11+commit.d7f03943.Emscripten.clang"
  },
  "schemaVersion": "3.4.3",
  "updatedAt": "2022-01-12T21:53:14.885Z",
  "networkType": "ethereum",
  "devdoc": {
    "kind": "dev",
    "methods": {
      "owner()": {
        "details": "Returns the address of the current owner."
      },
      "renounceOwnership()": {
        "details": "Leaves the contract without owner. It will not be possible to call `onlyOwner` functions anymore. Can only be called by the current owner. NOTE: Renouncing ownership will leave the contract without an owner, thereby removing any functionality that is only available to the owner."
      },
      "sendEth(address)": {
        "details": "requires success",
        "params": {
          "_to": "- the address of a staff member"
        }
      },
      "setYugoAddress(address)": {
        "params": {
          "_addy": "- the address of the Yugo contract"
        }
      },
      "setYugoDaoAddress(address)": {
        "params": {
          "_addydao": "- the address of the YugoDao contract"
        }
      },
      "transferOwnership(address)": {
        "details": "Transfers ownership of the contract to a new account (`newOwner`). Can only be called by the current owner."
      },
      "transferYugo()": {
        "details": "the ledger's balance of the caller must show that the token was purchased"
      },
      "yugoBalanceOf(address)": {
        "returns": {
          "_0": "a balance type uint256"
        }
      }
    },
    "version": 1
  },
  "userdoc": {
    "kind": "user",
    "methods": {
      "sendEth(address)": {
        "notice": "sends ETH to pay the platform staff, only the admin can call it"
      },
      "setYugoAddress(address)": {
        "notice": "set the address of the Yugo contract for use with its interface "
      },
      "setYugoDaoAddress(address)": {
        "notice": "set the address of the YugoDao contract for use with its interface "
      },
      "transferWinningOrganisation()": {
        "notice": "transfers funds to winning organisation"
      },
      "transferYugo()": {
        "notice": "Pull over Push: claim Yugo token "
      },
      "yugoBalanceOf(address)": {
        "notice": "checks the Yugo balance of an account"
      }
    },
    "version": 1
  }
}