{
  "contractName": "YugoManager",
  "abi": [
    {
      "anonymous": false,
      "inputs": [
        {
          "indexed": false,
          "internalType": "address",
          "name": "yugo",
          "type": "address"
        },
        {
          "indexed": false,
          "internalType": "address",
          "name": "yugodao",
          "type": "address"
        }
      ],
      "name": "ContractsAddrSet",
      "type": "event"
    },
    {
      "anonymous": false,
      "inputs": [
        {
          "indexed": false,
          "internalType": "address",
          "name": "organisation",
          "type": "address"
        }
      ],
      "name": "FundsTransferedToWinner",
      "type": "event"
    },
    {
      "anonymous": false,
      "inputs": [
        {
          "indexed": true,
          "internalType": "address",
          "name": "previousOwner",
          "type": "address"
        },
        {
          "indexed": true,
          "internalType": "address",
          "name": "newOwner",
          "type": "address"
        }
      ],
      "name": "OwnershipTransferred",
      "type": "event"
    },
    {
      "anonymous": false,
      "inputs": [
        {
          "indexed": false,
          "internalType": "address",
          "name": "organisation",
          "type": "address"
        },
        {
          "indexed": false,
          "internalType": "uint256",
          "name": "value",
          "type": "uint256"
        }
      ],
      "name": "Received",
      "type": "event"
    },
    {
      "anonymous": false,
      "inputs": [
        {
          "indexed": false,
          "internalType": "address",
          "name": "organisation",
          "type": "address"
        }
      ],
      "name": "TokenPurchasedBy",
      "type": "event"
    },
    {
      "anonymous": false,
      "inputs": [
        {
          "indexed": false,
          "internalType": "address",
          "name": "recipient",
          "type": "address"
        },
        {
          "indexed": false,
          "internalType": "uint256",
          "name": "amount",
          "type": "uint256"
        }
      ],
      "name": "YugoTransfer",
      "type": "event"
    },
    {
      "inputs": [],
      "name": "owner",
      "outputs": [
        {
          "internalType": "address",
          "name": "",
          "type": "address"
        }
      ],
      "stateMutability": "view",
      "type": "function",
      "constant": true
    },
    {
      "inputs": [],
      "name": "renounceOwnership",
      "outputs": [],
      "stateMutability": "nonpayable",
      "type": "function"
    },
    {
      "inputs": [
        {
          "internalType": "address",
          "name": "newOwner",
          "type": "address"
        }
      ],
      "name": "transferOwnership",
      "outputs": [],
      "stateMutability": "nonpayable",
      "type": "function"
    },
    {
      "stateMutability": "payable",
      "type": "receive",
      "payable": true
    },
    {
      "inputs": [],
      "name": "purchaseYugo",
      "outputs": [],
      "stateMutability": "payable",
      "type": "function",
      "payable": true
    },
    {
      "inputs": [
        {
          "internalType": "address payable",
          "name": "_to",
          "type": "address"
        }
      ],
      "name": "sendEth",
      "outputs": [],
      "stateMutability": "payable",
      "type": "function",
      "payable": true
    },
    {
      "inputs": [
        {
          "internalType": "address",
          "name": "account",
          "type": "address"
        }
      ],
      "name": "yugoBalanceOf",
      "outputs": [
        {
          "internalType": "uint256",
          "name": "",
          "type": "uint256"
        }
      ],
      "stateMutability": "view",
      "type": "function",
      "constant": true
    },
    {
      "inputs": [
        {
          "internalType": "address",
          "name": "_yugo",
          "type": "address"
        },
        {
          "internalType": "address",
          "name": "_dao",
          "type": "address"
        }
      ],
      "name": "setContractsAddresses",
      "outputs": [],
      "stateMutability": "nonpayable",
      "type": "function"
    },
    {
      "inputs": [],
      "name": "transferYugo",
      "outputs": [],
      "stateMutability": "nonpayable",
      "type": "function"
    },
    {
      "inputs": [],
      "name": "transferWinningOrganisation",
      "outputs": [],
      "stateMutability": "nonpayable",
      "type": "function"
    }
  ],
  "bytecode": "0x608060405267016345785d8a000060035534801561001c57600080fd5b506100263361002b565b61007b565b600080546001600160a01b038381166001600160a01b0319831681178455604051919092169283917f8be0079c531659141344cd1fd0a4f28419497f9722a3daafe3b4186f6b6457e09190a35050565b610b5b8061008a6000396000f3fe60806040526004361061008a5760003560e01c806376a54c601161005957806376a54c60146101035780638da5cb5b14610116578063d8437ab31461013e578063e034b77c1461015e578063f2fde38b1461016d57600080fd5b8063056e75971461009e57806313e4e5c6146100b357806364e2a0e0146100bb578063715018a6146100ee57600080fd5b366100995761009761018d565b005b600080fd5b3480156100aa57600080fd5b506100976103d8565b61009761018d565b3480156100c757600080fd5b506100db6100d636600461090d565b610637565b6040519081526020015b60405180910390f35b3480156100fa57600080fd5b506100976106ac565b61009761011136600461090d565b6106e2565b34801561012257600080fd5b506000546040516001600160a01b0390911681526020016100e5565b34801561014a57600080fd5b50610097610159366004610931565b61077c565b34801561016a57600080fd5b50005b34801561017957600080fd5b5061009761018836600461090d565b61080d565b600254604051635eb94b9960e11b81523360048201526001600160a01b039091169063bd729732906024016020604051808303816000875af11580156101d7573d6000803e3d6000fd5b505050506040513d601f19601f820116820180604052508101906101fb919061096a565b15156001146102695760405162461bcd60e51b815260206004820152602f60248201527f796f75206e65656420746f206265207265676973746572656420746f2070757260448201526e31b430b9b2903a3432903a37b5b2b760891b60648201526084015b60405180910390fd5b6001546040516370a0823160e01b81523360048201526001600160a01b03909116906370a0823190602401602060405180830381865afa1580156102b1573d6000803e3d6000fd5b505050506040513d601f19601f820116820180604052508101906102d5919061098c565b156103225760405162461bcd60e51b815260206004820152601d60248201527f796f7520616c726561647920707572636861736564206120746f6b656e0000006044820152606401610260565b60035434146103735760405162461bcd60e51b815260206004820152601a60248201527f796f7520646f206e6f74206861766520656e6f756768204554480000000000006044820152606401610260565b33600081815260046020908152604080832034908190556005835292819020805460ff1916600117905580518481529182018390527f88a5966d370b9919b20f3e2c13ff65706f196a4e32cc2c12bf57088f8852587491015b60405180910390a15050565b60065460ff161561041c5760405162461bcd60e51b815260206004820152600e60248201526d4e6f2072652d656e7472616e637960901b6044820152606401610260565b6006805460ff19166001179055600354336000908152600460205260409020541461047f5760405162461bcd60e51b81526020600482015260136024820152721b9bc8115512081dd85cc81c9958d95a5d9959606a1b6044820152606401610260565b3360009081526005602052604090205460ff1615156001146104e35760405162461bcd60e51b815260206004820152601e60248201527f596f7520616c726561647920726563656976656420796f7572205975676f00006044820152606401610260565b336000908152600560209081526040808320805460ff19169055600154815163313ce56760e01b815291516001600160a01b039091169263313ce56792600480820193918290030181865afa158015610540573d6000803e3d6000fd5b505050506040513d601f19601f8201168201806040525081019061056491906109a5565b61056f90600a610ac2565b61057a906001610ad1565b60015460405163a9059cbb60e01b8152336004820152602481018390529192506001600160a01b03169063a9059cbb906044016020604051808303816000875af11580156105cc573d6000803e3d6000fd5b505050506040513d601f19601f820116820180604052508101906105f0919061096a565b5060408051338152602081018390527fe94c6e629948b607c16a4b9710b4e775200e3c7963e20b6cbb8dccc8da65d870910160405180910390a1506006805460ff19169055565b6001546040516370a0823160e01b81526001600160a01b03838116600483015260009216906370a0823190602401602060405180830381865afa158015610682573d6000803e3d6000fd5b505050506040513d601f19601f820116820180604052508101906106a6919061098c565b92915050565b6000546001600160a01b031633146106d65760405162461bcd60e51b815260040161026090610af0565b6106e060006108a8565b565b6000546001600160a01b0316331461070c5760405162461bcd60e51b815260040161026090610af0565b6040516000906001600160a01b038316903480156108fc029184818181858888f193505050509050806107785760405162461bcd60e51b81526020600482015260146024820152732330b4b632b2103a379039b2b7321022ba3432b960611b6044820152606401610260565b5050565b6000546001600160a01b031633146107a65760405162461bcd60e51b815260040161026090610af0565b600180546001600160a01b038481166001600160a01b03199283168117909355600280549185169190921681179091556040805192835260208301919091527f9002c211abd499252e56273224dd6a3f259ba469ff482e4e6e4a13fb3d6b154e91016103cc565b6000546001600160a01b031633146108375760405162461bcd60e51b815260040161026090610af0565b6001600160a01b03811661089c5760405162461bcd60e51b815260206004820152602660248201527f4f776e61626c653a206e6577206f776e657220697320746865207a65726f206160448201526564647265737360d01b6064820152608401610260565b6108a5816108a8565b50565b600080546001600160a01b038381166001600160a01b0319831681178455604051919092169283917f8be0079c531659141344cd1fd0a4f28419497f9722a3daafe3b4186f6b6457e09190a35050565b6001600160a01b03811681146108a557600080fd5b60006020828403121561091f57600080fd5b813561092a816108f8565b9392505050565b6000806040838503121561094457600080fd5b823561094f816108f8565b9150602083013561095f816108f8565b809150509250929050565b60006020828403121561097c57600080fd5b8151801515811461092a57600080fd5b60006020828403121561099e57600080fd5b5051919050565b6000602082840312156109b757600080fd5b815160ff8116811461092a57600080fd5b634e487b7160e01b600052601160045260246000fd5b600181815b80851115610a195781600019048211156109ff576109ff6109c8565b80851615610a0c57918102915b93841c93908002906109e3565b509250929050565b600082610a30575060016106a6565b81610a3d575060006106a6565b8160018114610a535760028114610a5d57610a79565b60019150506106a6565b60ff841115610a6e57610a6e6109c8565b50506001821b6106a6565b5060208310610133831016604e8410600b8410161715610a9c575081810a6106a6565b610aa683836109de565b8060001904821115610aba57610aba6109c8565b029392505050565b600061092a60ff841683610a21565b6000816000190483118215151615610aeb57610aeb6109c8565b500290565b6020808252818101527f4f776e61626c653a2063616c6c6572206973206e6f7420746865206f776e657260408201526060019056fea26469706673582212207ef1f3d5ef8c521808e687d0e352be68bed00f1d72b94e9e5980da7207bf6b8b64736f6c634300080b0033",
  "immutableReferences": {},
  "source": "// SPDX-License-Identifier: GPL-3.0\npragma solidity ^0.8.9;\n\nimport \"@openzeppelin/contracts/access/Ownable.sol\";\nimport \"./interfaces/IYugo.sol\";\nimport \"./interfaces/IYugoDao.sol\";\n\ncontract YugoManager is Ownable {\n\n    IYugo private yugo;\n    IYugoDao private yugoDao;\n\n    uint yugoTokenCost = 100000000000000000; //0.1 ETH\n    mapping (address => uint) EthLedger;\n    mapping (address => bool) EligibleToClaimYugo;\n    bool internal locked;\n\n    modifier noReentrant() {\n        require(!locked, \"No re-entrancy\");\n        locked = true;\n        _;\n        locked = false;\n    }\n\n    // event AddressSet (address addrSetTo, address setter);\n    event YugoTransfer (address recipient, uint256 amount);\n    event Received(address organisation, uint value);\n    event TokenPurchasedBy(address organisation);\n    event FundsTransferedToWinner(address organisation);\n    event ContractsAddrSet(address yugo, address yugodao);\n\n    /**\n    * @notice receives ETH\n    * @dev verifies that the organisation is registered\n    * @dev verifies that the caller did not purchase a token before\n    * @dev verifies that the ETH sent equals the token price\n    */\n    receive() external payable {\n        purchaseYugo();\n    }\n        \n    function purchaseYugo() public payable {\n        require(yugoDao.organisationRegistrationStatus(msg.sender) == true, 'you need to be registered to purchase the token');\n        require(yugo.balanceOf(msg.sender) == 0, \"you already purchased a token\");\n        require(msg.value == yugoTokenCost, \"you do not have enough ETH\");\n        address sender = msg.sender;\n        uint deposited = msg.value;\n        EthLedger[sender] = deposited; // specifies that ETH was deposited\n        EligibleToClaimYugo[msg.sender] = true; //specifies that Yugo can now be claimed by the caller\n        emit Received(msg.sender, msg.value);\n    }\n\n    /**\n    * @notice sends ETH to pay the platform staff, only the admin can call it\n    * @param _to - the address of a staff member\n    * @dev requires success\n    */\n    function sendEth(address payable _to) public payable onlyOwner {\n        bool sent = _to.send(msg.value);\n        require(sent, \"Failed to send Ether\");\n    }\n\n    /**\n    * @notice checks the Yugo balance of an account\n    * @return a balance type uint256\n    */\n    function yugoBalanceOf(address account) public view returns (uint256) {\n        return yugo.balanceOf(account);\n    }\n\n    function setContractsAddresses(address _yugo, address _dao) external onlyOwner {\n        yugo = IYugo(_yugo);\n        yugoDao = IYugoDao(_dao);\n        emit ContractsAddrSet(_yugo, _dao);\n    }\n\n    /**\n    * @notice claim Yugo token \n    * @dev the ETH ledger of the caller must show that the token was purchased\n    * @dev The Yugo Ledger of the caller must be at 0. Either because it is a \n    * first time purchase or because the period of validity of the token has passed\n    * and must renewed\n    * @dev Re-entrancy - the noReentrant modifier ensures that the function can not\n    * be run multiple times in parallel. The function is locked until it finishes.  \n    * @dev Pull-Over-Push - the token was not sent after purchase but the buyer was marked as \n    * eligible to claim the token. Afterwards, the condition of eligibility is updated before \n    * the transfer. \n    */\n    function transferYugo() external noReentrant {\n        require(EthLedger[msg.sender] == yugoTokenCost, \"no ETH was received\");\n        require(EligibleToClaimYugo[msg.sender] == true, \"You already received your Yugo\");\n        EligibleToClaimYugo[msg.sender] = false;\n        uint256 amount = 1*10**yugo.decimals();\n        yugo.transfer(msg.sender, amount);\n        emit YugoTransfer(msg.sender, amount);\n    }\n\n    /**\n    * @notice transfers funds to winning organisation\n    */\n    function transferWinningOrganisation() external {\n        //TODO: communicate with GrantEscrow.sol\n    }\n\n    // TODO:function verifyByOracle orga\n\n}",
  "sourcePath": "/Users/urdoom/blockchain_development/Alyra/YU-GO/Truffle/contracts/YugoManager.sol",
  "compiler": {
    "name": "solc",
    "version": "0.8.11+commit.d7f03943.Emscripten.clang"
  },
  "schemaVersion": "3.4.3",
  "updatedAt": "2022-01-19T18:23:06.951Z",
  "networkType": "ethereum",
  "devdoc": {
    "kind": "dev",
    "methods": {
      "owner()": {
        "details": "Returns the address of the current owner."
      },
      "renounceOwnership()": {
        "details": "Leaves the contract without owner. It will not be possible to call `onlyOwner` functions anymore. Can only be called by the current owner. NOTE: Renouncing ownership will leave the contract without an owner, thereby removing any functionality that is only available to the owner."
      },
      "sendEth(address)": {
        "details": "requires success",
        "params": {
          "_to": "- the address of a staff member"
        }
      },
      "transferOwnership(address)": {
        "details": "Transfers ownership of the contract to a new account (`newOwner`). Can only be called by the current owner."
      },
      "transferYugo()": {
        "details": "the ETH ledger of the caller must show that the token was purchasedThe Yugo Ledger of the caller must be at 0. Either because it is a  first time purchase or because the period of validity of the token has passed and must renewedRe-entrancy - the noReentrant modifier ensures that the function can not be run multiple times in parallel. The function is locked until it finishes.  Pull-Over-Push - the token was not sent after purchase but the buyer was marked as  eligible to claim the token. Afterwards, the condition of eligibility is updated before  the transfer. "
      },
      "yugoBalanceOf(address)": {
        "returns": {
          "_0": "a balance type uint256"
        }
      }
    },
    "version": 1
  },
  "userdoc": {
    "kind": "user",
    "methods": {
      "sendEth(address)": {
        "notice": "sends ETH to pay the platform staff, only the admin can call it"
      },
      "transferWinningOrganisation()": {
        "notice": "transfers funds to winning organisation"
      },
      "transferYugo()": {
        "notice": "claim Yugo token "
      },
      "yugoBalanceOf(address)": {
        "notice": "checks the Yugo balance of an account"
      }
    },
    "version": 1
  }
}