{
  "contractName": "YugoDao",
  "abi": [
    {
      "inputs": [
        {
          "internalType": "address",
          "name": "_yugo",
          "type": "address"
        },
        {
          "internalType": "address",
          "name": "_escrow",
          "type": "address"
        }
      ],
      "stateMutability": "nonpayable",
      "type": "constructor"
    },
    {
      "inputs": [],
      "name": "Unauthorized",
      "type": "error"
    },
    {
      "anonymous": false,
      "inputs": [
        {
          "indexed": false,
          "internalType": "address",
          "name": "addressContestCreator",
          "type": "address"
        },
        {
          "indexed": false,
          "internalType": "address",
          "name": "addressActionCreator",
          "type": "address"
        },
        {
          "indexed": false,
          "internalType": "string",
          "name": "actionName",
          "type": "string"
        },
        {
          "indexed": false,
          "internalType": "uint256",
          "name": "requiredFunds",
          "type": "uint256"
        }
      ],
      "name": "ActionCreated",
      "type": "event"
    },
    {
      "anonymous": false,
      "inputs": [
        {
          "indexed": false,
          "internalType": "address",
          "name": "addressContestCreator",
          "type": "address"
        },
        {
          "indexed": false,
          "internalType": "address",
          "name": "addressActioncreator",
          "type": "address"
        },
        {
          "indexed": false,
          "internalType": "string",
          "name": "actionName",
          "type": "string"
        }
      ],
      "name": "ActionDeleted",
      "type": "event"
    },
    {
      "anonymous": false,
      "inputs": [
        {
          "indexed": false,
          "internalType": "address",
          "name": "addressOrga",
          "type": "address"
        },
        {
          "indexed": false,
          "internalType": "string",
          "name": "name",
          "type": "string"
        },
        {
          "indexed": false,
          "internalType": "uint256",
          "name": "funds",
          "type": "uint256"
        }
      ],
      "name": "ContestCreated",
      "type": "event"
    },
    {
      "anonymous": false,
      "inputs": [
        {
          "indexed": false,
          "internalType": "address",
          "name": "addressContestCreator",
          "type": "address"
        },
        {
          "indexed": false,
          "internalType": "address",
          "name": "addressActionCreator",
          "type": "address"
        },
        {
          "indexed": false,
          "internalType": "address",
          "name": "voterAddress",
          "type": "address"
        }
      ],
      "name": "HasVotedForAction",
      "type": "event"
    },
    {
      "anonymous": false,
      "inputs": [
        {
          "indexed": false,
          "internalType": "address",
          "name": "addressOrga",
          "type": "address"
        }
      ],
      "name": "OrganizationRegistered",
      "type": "event"
    },
    {
      "anonymous": false,
      "inputs": [
        {
          "indexed": false,
          "internalType": "address",
          "name": "addressOrga",
          "type": "address"
        },
        {
          "indexed": false,
          "internalType": "address",
          "name": "addressParticipant",
          "type": "address"
        }
      ],
      "name": "ParticipantRemoved",
      "type": "event"
    },
    {
      "anonymous": false,
      "inputs": [
        {
          "indexed": false,
          "internalType": "address",
          "name": "addressParticipant",
          "type": "address"
        },
        {
          "indexed": false,
          "internalType": "address",
          "name": "addressOrganization",
          "type": "address"
        }
      ],
      "name": "ParticipantWhitelisted",
      "type": "event"
    },
    {
      "anonymous": false,
      "inputs": [
        {
          "indexed": false,
          "internalType": "address",
          "name": "winner",
          "type": "address"
        },
        {
          "indexed": false,
          "internalType": "string",
          "name": "actionName",
          "type": "string"
        },
        {
          "indexed": false,
          "internalType": "uint256",
          "name": "nbVotes",
          "type": "uint256"
        },
        {
          "indexed": false,
          "internalType": "uint256",
          "name": "requiredFunds",
          "type": "uint256"
        }
      ],
      "name": "VoteTallied",
      "type": "event"
    },
    {
      "inputs": [],
      "name": "escrow",
      "outputs": [
        {
          "internalType": "contract IGrantEscrow",
          "name": "",
          "type": "address"
        }
      ],
      "stateMutability": "view",
      "type": "function",
      "constant": true
    },
    {
      "inputs": [],
      "name": "yugo",
      "outputs": [
        {
          "internalType": "contract IYugo",
          "name": "",
          "type": "address"
        }
      ],
      "stateMutability": "view",
      "type": "function",
      "constant": true
    },
    {
      "inputs": [],
      "name": "getThematics",
      "outputs": [
        {
          "internalType": "string[]",
          "name": "",
          "type": "string[]"
        }
      ],
      "stateMutability": "view",
      "type": "function",
      "constant": true
    },
    {
      "inputs": [],
      "name": "getCountries",
      "outputs": [
        {
          "internalType": "string[]",
          "name": "",
          "type": "string[]"
        }
      ],
      "stateMutability": "view",
      "type": "function",
      "constant": true
    },
    {
      "inputs": [
        {
          "internalType": "uint256[]",
          "name": "thematicIds",
          "type": "uint256[]"
        },
        {
          "internalType": "uint256",
          "name": "countryId",
          "type": "uint256"
        }
      ],
      "name": "registerOrganisation",
      "outputs": [],
      "stateMutability": "nonpayable",
      "type": "function"
    },
    {
      "inputs": [
        {
          "internalType": "address",
          "name": "_orga",
          "type": "address"
        }
      ],
      "name": "organisationRegistrationStatus",
      "outputs": [
        {
          "internalType": "bool",
          "name": "",
          "type": "bool"
        }
      ],
      "stateMutability": "view",
      "type": "function",
      "constant": true
    },
    {
      "inputs": [
        {
          "internalType": "address",
          "name": "_addrOrganisation",
          "type": "address"
        },
        {
          "internalType": "address",
          "name": "_addrParticipant",
          "type": "address"
        }
      ],
      "name": "participantIsWhiteListed",
      "outputs": [
        {
          "internalType": "bool",
          "name": "",
          "type": "bool"
        }
      ],
      "stateMutability": "view",
      "type": "function",
      "constant": true
    },
    {
      "inputs": [
        {
          "internalType": "address",
          "name": "_addrToDelete",
          "type": "address"
        }
      ],
      "name": "removeFromWhitelist",
      "outputs": [],
      "stateMutability": "nonpayable",
      "type": "function"
    },
    {
      "inputs": [
        {
          "internalType": "address",
          "name": "_addrOrga",
          "type": "address"
        },
        {
          "internalType": "address",
          "name": "_addrParticipant",
          "type": "address"
        }
      ],
      "name": "addParticipant",
      "outputs": [],
      "stateMutability": "nonpayable",
      "type": "function"
    },
    {
      "inputs": [
        {
          "internalType": "string",
          "name": "_name",
          "type": "string"
        },
        {
          "internalType": "uint256[]",
          "name": "_themeIds",
          "type": "uint256[]"
        },
        {
          "internalType": "uint256[]",
          "name": "_eligibleCountryIds",
          "type": "uint256[]"
        },
        {
          "internalType": "uint256",
          "name": "_applicationEndDate",
          "type": "uint256"
        },
        {
          "internalType": "uint256",
          "name": "_votingEndDate",
          "type": "uint256"
        },
        {
          "internalType": "uint256",
          "name": "_funds",
          "type": "uint256"
        }
      ],
      "name": "addContest",
      "outputs": [],
      "stateMutability": "payable",
      "type": "function",
      "payable": true
    },
    {
      "inputs": [
        {
          "internalType": "address",
          "name": "_creatorOfContest",
          "type": "address"
        },
        {
          "internalType": "string",
          "name": "_name",
          "type": "string"
        },
        {
          "internalType": "uint256",
          "name": "_requiredFunds",
          "type": "uint256"
        }
      ],
      "name": "createAction",
      "outputs": [],
      "stateMutability": "nonpayable",
      "type": "function"
    },
    {
      "inputs": [
        {
          "internalType": "address",
          "name": "_creatorOfContest",
          "type": "address"
        }
      ],
      "name": "deleteActions",
      "outputs": [],
      "stateMutability": "nonpayable",
      "type": "function"
    },
    {
      "inputs": [
        {
          "internalType": "address",
          "name": "_creatorOfContest",
          "type": "address"
        },
        {
          "internalType": "address",
          "name": "_actionCreator",
          "type": "address"
        },
        {
          "internalType": "address",
          "name": "_participantOrga",
          "type": "address"
        }
      ],
      "name": "voteForAction",
      "outputs": [],
      "stateMutability": "nonpayable",
      "type": "function"
    },
    {
      "inputs": [
        {
          "internalType": "address",
          "name": "_creatorOfContest",
          "type": "address"
        }
      ],
      "name": "tallyVotes",
      "outputs": [
        {
          "internalType": "address",
          "name": "",
          "type": "address"
        },
        {
          "internalType": "string",
          "name": "",
          "type": "string"
        },
        {
          "internalType": "uint256",
          "name": "",
          "type": "uint256"
        },
        {
          "internalType": "uint256",
          "name": "",
          "type": "uint256"
        }
      ],
      "stateMutability": "nonpayable",
      "type": "function"
    },
    {
      "inputs": [
        {
          "internalType": "address",
          "name": "_creatorOfContest",
          "type": "address"
        }
      ],
      "name": "getContestWinner",
      "outputs": [
        {
          "internalType": "address",
          "name": "",
          "type": "address"
        },
        {
          "internalType": "uint256",
          "name": "",
          "type": "uint256"
        }
      ],
      "stateMutability": "view",
      "type": "function",
      "constant": true
    }
  ],
  "bytecode": "0x60096102208181526832b23ab1b0ba34b7b760b91b6102405260c0908152600b6102608181526a747261666669636b696e6760a81b6102805260e05260116102a081815270646f6d65737469632076696f6c656e636560781b6102c0526101005260106102e09081526f1ddbdb595b89dcc81b5bdd995b595b9d60821b61030052610120526103209384526863616d706169676e7360b81b6103405261014093909352600a610360908152693937b6b0903bb7b6b2b760b11b610380526101605260086103a0908152676964656e7469747960c01b6103c0526101805260076103e0908152666c6f6262696e6760c81b610400526101a05260136104209081527f6d617267696e616c697a65642067726f75707300000000000000000000000000610440526101c052610460928352701cd95e1d585b081a185c985cdcdb595b9d607a1b610480526101e0929092526104e0604052600e6104a09081526d776f6d656e27732072696768747360901b6104c0526102005262000185916004919062000538565b506040805161010081018252600660c082018181526553657262696160d01b60e0840152825282518084018452600781526643726f6174696160c81b6020828101919091528084019190915283518085018552600a8152694d6f6e74656e6567726f60b01b818301528385015283518085018552601681527f426f736e696120616e64204865726365676f76696e6100000000000000000000818301526060840152835180850185526008815267536c6f76656e696160c01b818301526080840152835180850190945260098452684d616365646f6e696160b81b9084015260a08201929092526200027b91600591906200059c565b503480156200028957600080fd5b5060405162002d0738038062002d07833981016040819052620002ac9162000710565b620002b6620002d8565b620002c06200040a565b6001600160a01b039182166080521660a052620007e9565b60045460005b620002eb6001836200075e565b8110156200040657604080518082019091526060602082015281815260048054839081106200031e576200031e62000778565b90600052602060002001805462000335906200078e565b80601f016020809104026020016040519081016040528092919081815260200182805462000363906200078e565b8015620003b45780601f106200038857610100808354040283529160200191620003b4565b820191906000526020600020905b8154815290600101906020018083116200039657829003601f168201915b50505050602080840192835260008581526003825260409020845181559251805185949350620003eb9260018501920190620005ee565b50905050508080620003fd90620007cb565b915050620002de565b5050565b60055460005b6200041d6001836200075e565b81101562000406576040805180820190915260606020820152818152600580548390811062000450576200045062000778565b90600052602060002001805462000467906200078e565b80601f016020809104026020016040519081016040528092919081815260200182805462000495906200078e565b8015620004e65780601f10620004ba57610100808354040283529160200191620004e6565b820191906000526020600020905b815481529060010190602001808311620004c857829003601f168201915b505050506020808401928352600085815260028252604090208451815592518051859493506200051d9260018501920190620005ee565b509050505080806200052f90620007cb565b91505062000410565b8280548282559060005260206000209081019282156200058a579160200282015b828111156200058a578251805162000579918491602090910190620005ee565b509160200191906001019062000559565b506200059892915062000679565b5090565b8280548282559060005260206000209081019282156200058a579160200282015b828111156200058a5782518051620005dd918491602090910190620005ee565b5091602001919060010190620005bd565b828054620005fc906200078e565b90600052602060002090601f0160209004810192826200062057600085556200066b565b82601f106200063b57805160ff19168380011785556200066b565b828001600101855582156200066b579182015b828111156200066b5782518255916020019190600101906200064e565b50620005989291506200069a565b8082111562000598576000620006908282620006b1565b5060010162000679565b5b808211156200059857600081556001016200069b565b508054620006bf906200078e565b6000825580601f10620006d0575050565b601f016020900490600052602060002090810190620006f091906200069a565b50565b80516001600160a01b03811681146200070b57600080fd5b919050565b600080604083850312156200072457600080fd5b6200072f83620006f3565b91506200073f60208401620006f3565b90509250929050565b634e487b7160e01b600052601160045260246000fd5b60008282101562000773576200077362000748565b500390565b634e487b7160e01b600052603260045260246000fd5b600181811c90821680620007a357607f821691505b60208210811415620007c557634e487b7160e01b600052602260045260246000fd5b50919050565b6000600019821415620007e257620007e262000748565b5060010190565b60805160a0516124e3620008246000396000818161031b0152610da5015260008181610141015281816105500152610b7c01526124e36000f3fe6080604052600436106100e85760003560e01c8063ba7f56e31161008a578063d35ada3211610059578063d35ada32146102c9578063d67091c7146102e9578063e2fdcc1714610309578063eb0934df1461033d57600080fd5b8063ba7f56e3146101f5578063bd72973214610225578063beca800914610275578063c6ade8351461028a57600080fd5b80632db2c04f116100c65780632db2c04f146101805780636bf9fe171461019357806381530e47146101b55780638ab1d681146101d557600080fd5b806304c84c52146100ed578063180d3e3d1461010f578063223702651461012f575b600080fd5b3480156100f957600080fd5b5061010d610108366004611e1a565b61038a565b005b34801561011b57600080fd5b5061010d61012a366004611e5d565b61088c565b34801561013b57600080fd5b506101637f000000000000000000000000000000000000000000000000000000000000000081565b6040516001600160a01b0390911681526020015b60405180910390f35b61010d61018e366004611fb6565b610b64565b34801561019f57600080fd5b506101a8610ed1565b60405161017791906120b6565b3480156101c157600080fd5b5061010d6101d0366004612118565b610faa565b3480156101e157600080fd5b5061010d6101f0366004611e5d565b611111565b34801561020157600080fd5b50610215610210366004611e5d565b611206565b604051610177949392919061215d565b34801561023157600080fd5b50610265610240366004611e5d565b6001600160a01b0316600090815260016020526040902054600160a01b900460ff1690565b6040519015158152602001610177565b34801561028157600080fd5b506101a86113f6565b34801561029657600080fd5b506102aa6102a5366004611e5d565b6114c6565b604080516001600160a01b039093168352602083019190915201610177565b3480156102d557600080fd5b5061010d6102e4366004612194565b611535565b3480156102f557600080fd5b5061010d6103043660046121c7565b6116b0565b34801561031557600080fd5b506101637f000000000000000000000000000000000000000000000000000000000000000081565b34801561034957600080fd5b50610265610358366004612194565b6001600160a01b0391821660009081526001602090815260408083209390941682526003909201909152205460ff1690565b6001600160a01b03831660009081526020819052604090206003015442908110156103f55760405162461bcd60e51b8152602060048201526016602482015275159bdd1a5b99c81a185cc81b9bdd081cdd185c9d195960521b60448201526064015b60405180910390fd5b6001600160a01b03841660009081526020819052604090206004015481106104525760405162461bcd60e51b815260206004820152601060248201526f159bdd1a5b99c81a5cc818db1bdcd95960821b60448201526064016103ec565b336001600160a01b038516148015906104745750336001600160a01b03841614155b6104c05760405162461bcd60e51b815260206004820181905260248201527f596f752063616e206e6f7420766f746520666f72207468697320616374696f6e60448201526064016103ec565b6001600160a01b03841660009081526020818152604080832033845260080190915290205460ff161561052e5760405162461bcd60e51b8152602060048201526016602482015275165bdd481a185d9948185b1c9958591e481d9bdd195960521b60448201526064016103ec565b6040516370a0823160e01b81526001600160a01b0383811660048301526000917f0000000000000000000000000000000000000000000000000000000000000000909116906370a0823190602401602060405180830381865afa158015610599573d6000803e3d6000fd5b505050506040513d601f19601f820116820180604052508101906105bd919061221e565b116105da5760405162461bcd60e51b81526004016103ec90612237565b6001600160a01b03808516600090815260208181526040808320938716835260099093019052908120600190810180549192909161061990849061229f565b90915550506001600160a01b038416600081815260208181526040808320338452600881018352908320805460ff19166001179055928252526007015461069e576001600160a01b038481166000908152602081815260408220600701805460018101825590835291200180546001600160a01b03191691851691909117905561083d565b6001600160a01b0380851660008181526020818152604080832094881683526009850180835290832060010154938352908290526007909301805492939282906106ea576106ea6122b7565b60009182526020808320909101546001600160a01b031683528201929092526040019020600101541015610783576001600160a01b038416600090815260208190526040812061073f91600790910190611cd0565b6001600160a01b038481166000908152602081815260408220600701805460018101825590835291200180546001600160a01b03191691851691909117905561083d565b6001600160a01b0380851660008181526020818152604080832094881683526009850180835290832060010154938352908290526007909301805492939282906107cf576107cf6122b7565b60009182526020808320909101546001600160a01b03168352820192909252604001902060010154141561083d576001600160a01b038481166000908152602081815260408220600701805460018101825590835291200180546001600160a01b0319169185169190911790555b604080516001600160a01b03868116825285166020820152338183015290517f9a996e61e46622216dcf6afd942a2c58023089cde9ed06bbf46ad67ec78148589181900360600190a150505050565b6001600160a01b03811660009081526020818152604080832033845260090190915290206003015460ff1661091a5760405162461bcd60e51b815260206004820152602e60248201527f796f7520646964206e6f742063726561746520616e7920616374696f6e20666f60448201526d1c881d1a1a5cc818dbdb9d195cdd60921b60648201526084016103ec565b6001600160a01b0381166000908152602081905260409020600301544290811061099f5760405162461bcd60e51b815260206004820152603060248201527f566f746573206861766520737461727465642e596f752063616e6e6f7420646560448201526f3632ba32903a3434b99030b1ba34b7b760811b60648201526084016103ec565b6001600160a01b038216600090815260208181526040808320338452600901909152812080546109ce906122cd565b80601f01602080910402602001604051908101604052809291908181526020018280546109fa906122cd565b8015610a475780601f10610a1c57610100808354040283529160200191610a47565b820191906000526020600020905b815481529060010190602001808311610a2a57829003601f168201915b50506040805160a08101825260006080820181815282526020808301829052828401829052606083018290526001600160a01b038b1682528181528382203383526009018152929020815180519798509196909550610aac9450859350910190611cf1565b50602082810151600183015560408084015160028401556060909301516003909201805460ff1916921515929092179091556001600160a01b038516600090815280825282812033825260090190915290812090610b0a8282611d75565b506000600182018190556002820155600301805460ff191690556040517e638117e2b363943932d75d6cf954be8104382508e43b19f271a6425be8325e90610b5790859033908590612308565b60405180910390a1505050565b6040516370a0823160e01b81523360048201526000907f00000000000000000000000000000000000000000000000000000000000000006001600160a01b0316906370a0823190602401602060405180830381865afa158015610bcb573d6000803e3d6000fd5b505050506040513d601f19601f82011682018060405250810190610bef919061221e565b11610c0c5760405162461bcd60e51b81526004016103ec90612237565b3360009081526020819052604090206006015460ff1615610c7e5760405162461bcd60e51b815260206004820152602660248201527f4f7267616e69736174696f6e20616c72656164792063726561746564206120636044820152651bdb9d195cdd60d21b60648201526084016103ec565b348114610cfd5760405162461bcd60e51b815260206004820152604160248201527f416d6f756e74206f662066756e647320696e20657363726f772069732064696660448201527f666572656e742066726f6d20746865206461746120796f752070726f766964656064820152601960fa1b608482015260a4016103ec565b336000908152602081815260409091208751610d1b92890190611cf1565b50336000908152602081815260409091208651610d4092600190920191880190611daf565b50336000908152602081815260409091208551610d6592600290920191870190611daf565b5033600081815260208190526040808220600381018790556004810186905560058101859055600601805460ff19166001179055516024810192909252907f00000000000000000000000000000000000000000000000000000000000000006001600160a01b031690349060440160408051601f198184030181529181526020820180516001600160e01b0316632d623f4b60e11b17905251610e08919061233d565b60006040518083038185875af1925050503d8060008114610e45576040519150601f19603f3d011682016040523d82523d6000602084013e610e4a565b606091505b5050905080610e8d5760405162461bcd60e51b815260206004820152600f60248201526e2232b837b9b4ba103330b4b632b21760891b60448201526064016103ec565b7f98e26a339a5fc57fc1c56d81b9cc18fa5c1b2f45a4121ded1802183d3546744a338884604051610ec093929190612359565b60405180910390a150505050505050565b60606004805480602002602001604051908101604052809291908181526020016000905b82821015610fa1578382906000526020600020018054610f14906122cd565b80601f0160208091040260200160405190810160405280929190818152602001828054610f40906122cd565b8015610f8d5780601f10610f6257610100808354040283529160200191610f8d565b820191906000526020600020905b815481529060010190602001808311610f7057829003601f168201915b505050505081526020019060010190610ef5565b50505050905090565b33600090815260016020526040902054600160a01b900460ff16156110115760405162461bcd60e51b815260206004820152601f60248201527f4f7267616e69736174696f6e20616c726561647920726567697374657265640060448201526064016103ec565b60008251118015611020575060015b61107b5760405162461bcd60e51b815260206004820152602660248201527f596f75206d7573742070726f76696465207468656d617469637320616e6420636044820152656f756e74727960d01b60648201526084016103ec565b33600081815260016020818152604090922080546001600160a01b031916909317835584516110b09390910191850190611daf565b503360008181526001602090815260409182902060028101859055805460ff60a01b1916600160a01b17905590519182527f2178e9c576507a4c15d3deab489af3f699a3dedbff9a7ef27c43a017027710e591015b60405180910390a15050565b3360009081526001602081815260408084206001600160a01b03861685526003019091529091205460ff1615151461119a5760405162461bcd60e51b815260206004820152602660248201527f746865206164647265737320796f7520656e746572656420646f6573206e6f7460448201526508195e1a5cdd60d21b60648201526084016103ec565b3360008181526001602090815260408083206001600160a01b0386168085526003909101835292819020805460ff191690558051938452908301919091527f9721b4c70a74dd00691b5fd0589b9720d9be5657dfd6e1f8072cb7f26d7ce8a8910160405180910390a150565b6001600160a01b03811660009081526020819052604081206004015460609082908190429081116112795760405162461bcd60e51b815260206004820152601b60248201527f566f74696e6720686173206e6f742066696e697368656420796574000000000060448201526064016103ec565b6001600160a01b0386166000908152602081905260408120600701805482906112a4576112a46122b7565b6000918252602080832091909101546001600160a01b038a811684528383526040808520919092168085526009909101909252918290206001810154600282015493519294507f6fcbe3932701318f34ad7c0e0c6bf48fbfe94dbd94dc8f04a1c233ec825e1d069361131a93869392919061238d565b60405180910390a16001600160a01b038781166000908152602081815260408083209385168352600990930190522060018101546002820154825484939291908390611365906122cd565b80601f0160208091040260200160405190810160405280929190818152602001828054611391906122cd565b80156113de5780601f106113b3576101008083540402835291602001916113de565b820191906000526020600020905b8154815290600101906020018083116113c157829003601f168201915b50505050509250955095509550955050509193509193565b60606005805480602002602001604051908101604052809291908181526020016000905b82821015610fa1578382906000526020600020018054611439906122cd565b80601f0160208091040260200160405190810160405280929190818152602001828054611465906122cd565b80156114b25780601f10611487576101008083540402835291602001916114b2565b820191906000526020600020905b81548152906001019060200180831161149557829003601f168201915b50505050508152602001906001019061141a565b6001600160a01b038116600090815260208190526040812060070180548291829182906114f5576114f56122b7565b60009182526020808320909101546001600160a01b0396871683528282526040808420979091168084526009909701909152902060020154939492505050565b6001600160a01b038281166000908152600160205260409020541633146115b05760405162461bcd60e51b815260206004820152602960248201527f596f7520617265206e6f7420746865206f776e6572206f6620746865206f726760448201526830b734bd30ba34b7b760b91b60648201526084016103ec565b6001600160a01b038083166000908152600160209081526040808320938516835260039093019052205460ff16156116445760405162461bcd60e51b815260206004820152603160248201527f4164647265737320616c72656164792077686974656c697374656420666f72206044820152703a3434b99037b933b0b734bd30ba34b7b760791b60648201526084016103ec565b6001600160a01b0382811660008181526001602081815260408084209587168085526003909601825292839020805460ff191690921790915581519384528301919091527f6991bd45e0feec093b0c381c0561704fd19d427ded55100f5f6e1b4fe335c0829101611105565b6001600160a01b0383163314156117185760405162461bcd60e51b815260206004820152602660248201527f436f6e746573742063726561746f722063616e6e6f742070726f706f736520616044820152656374696f6e7360d01b60648201526084016103ec565b6001600160a01b03831660009081526020819052604090206006015460ff166117985760405162461bcd60e51b815260206004820152602c60248201527f54686973206f7267616e697a6174696f6e20646f6573206e6f7420686176652060448201526b1bdc195b8818dbdb9d195cdd60a21b60648201526084016103ec565b6001600160a01b03831660009081526020818152604080832033845260090190915290206003015460ff161561181b5760405162461bcd60e51b815260206004820152602260248201527f596f75206861766520616c7265616479206372656174656420616e206163746960448201526137b760f11b60648201526084016103ec565b6001600160a01b03831660009081526020819052604090206005015481111561189d5760405162461bcd60e51b815260206004820152602e60248201527f46756e647320726571756972656420617265207375706572696f7220746f206660448201526d756e647320617661696c61626c6560901b60648201526084016103ec565b6001600160a01b0383166000908152602081905260409020600301544290811061191d5760405162461bcd60e51b815260206004820152602b60248201527f566f74696e672068617320737461727465642e20596f752063616e6e6f74206160448201526a323210309030b1ba34b7b760a91b60648201526084016103ec565b6001600160a01b0384166000908152602081815260408083206002018054825181850281018501909352808352919290919083018282801561197e57602002820191906000526020600020905b81548152602001906001019080831161196a575b5050336000908152600160205260408120600201549495509250829150505b83518110156119e257828482815181106119b9576119b96122b7565b602002602001015114156119d057600191506119e2565b806119da81612455565b91505061199d565b506001600160a01b03871660009081526020818152604080832060010180548251818502810185019093528083529192909190830182828015611a4457602002820191906000526020600020905b815481526020019060010190808311611a30575b5050336000908152600160208181526040808420909201805483518184028101840190945280845297985092969195509193509150830182828015611aa857602002820191906000526020600020905b815481526020019060010190808311611a94575b505050505090506000805b8351811015611b305760005b8351821015611b1d57838181518110611ada57611ada6122b7565b6020026020010151858381518110611af457611af46122b7565b60200260200101511415611b0b5760019250611b1d565b81611b1581612455565b925050611abf565b5080611b2881612455565b915050611ab3565b50600184151514611b9f5760405162461bcd60e51b815260206004820152603360248201527f596f7520617265206e6f7420656c696769626c6520746f207061727469636970604482015272185d19481a5b881d1a1a5cc818dbdb9d195cdd606a1b60648201526084016103ec565b600181151514611c175760405162461bcd60e51b815260206004820152603d60248201527f5468656d6573206f6620796f7572206f7267616e69736174696f6e206172652060448201527f6e6f7420656c696769626c6520666f72207468697320636f6e7465737400000060648201526084016103ec565b6001600160a01b038a1660009081526020818152604080832033845260090182529091208a51611c49928c0190611cf1565b506001600160a01b038a1660009081526020818152604080832033808552600990910190925291829020600281018b9055600301805460ff1916600117905590517fd3d45429f6c2339a23437577bd167085ad0b979da68a822a522a731bfb12041e91611cbc918d91908d908d90612470565b60405180910390a150505050505050505050565b5080546000825590600052602060002090810190611cee9190611de9565b50565b828054611cfd906122cd565b90600052602060002090601f016020900481019282611d1f5760008555611d65565b82601f10611d3857805160ff1916838001178555611d65565b82800160010185558215611d65579182015b82811115611d65578251825591602001919060010190611d4a565b50611d71929150611de9565b5090565b508054611d81906122cd565b6000825580601f10611d91575050565b601f016020900490600052602060002090810190611cee9190611de9565b828054828255906000526020600020908101928215611d655791602002820182811115611d65578251825591602001919060010190611d4a565b5b80821115611d715760008155600101611dea565b80356001600160a01b0381168114611e1557600080fd5b919050565b600080600060608486031215611e2f57600080fd5b611e3884611dfe565b9250611e4660208501611dfe565b9150611e5460408501611dfe565b90509250925092565b600060208284031215611e6f57600080fd5b611e7882611dfe565b9392505050565b634e487b7160e01b600052604160045260246000fd5b604051601f8201601f1916810167ffffffffffffffff81118282101715611ebe57611ebe611e7f565b604052919050565b600082601f830112611ed757600080fd5b813567ffffffffffffffff811115611ef157611ef1611e7f565b611f04601f8201601f1916602001611e95565b818152846020838601011115611f1957600080fd5b816020850160208301376000918101602001919091529392505050565b600082601f830112611f4757600080fd5b8135602067ffffffffffffffff821115611f6357611f63611e7f565b8160051b611f72828201611e95565b9283528481018201928281019087851115611f8c57600080fd5b83870192505b84831015611fab57823582529183019190830190611f92565b979650505050505050565b60008060008060008060c08789031215611fcf57600080fd5b863567ffffffffffffffff80821115611fe757600080fd5b611ff38a838b01611ec6565b9750602089013591508082111561200957600080fd5b6120158a838b01611f36565b9650604089013591508082111561202b57600080fd5b5061203889828a01611f36565b945050606087013592506080870135915060a087013590509295509295509295565b60005b8381101561207557818101518382015260200161205d565b83811115612084576000848401525b50505050565b600081518084526120a281602086016020860161205a565b601f01601f19169290920160200192915050565b6000602080830181845280855180835260408601915060408160051b870101925083870160005b8281101561210b57603f198886030184526120f985835161208a565b945092850192908501906001016120dd565b5092979650505050505050565b6000806040838503121561212b57600080fd5b823567ffffffffffffffff81111561214257600080fd5b61214e85828601611f36565b95602094909401359450505050565b6001600160a01b03851681526080602082018190526000906121819083018661208a565b6040830194909452506060015292915050565b600080604083850312156121a757600080fd5b6121b083611dfe565b91506121be60208401611dfe565b90509250929050565b6000806000606084860312156121dc57600080fd5b6121e584611dfe565b9250602084013567ffffffffffffffff81111561220157600080fd5b61220d86828701611ec6565b925050604084013590509250925092565b60006020828403121561223057600080fd5b5051919050565b60208082526032908201527f796f75206e656564205975676f20676f7665726e616e636520746f6b656e20746040820152711bc818dc99585d1948184818dbdb9d195cdd60721b606082015260800190565b634e487b7160e01b600052601160045260246000fd5b600082198211156122b2576122b2612289565b500190565b634e487b7160e01b600052603260045260246000fd5b600181811c908216806122e157607f821691505b6020821081141561230257634e487b7160e01b600052602260045260246000fd5b50919050565b6001600160a01b038481168252831660208201526060604082018190526000906123349083018461208a565b95945050505050565b6000825161234f81846020870161205a565b9190910192915050565b6001600160a01b038416815260606020820181905260009061237d9083018561208a565b9050826040830152949350505050565b60018060a01b0385168152600060206080818401526000865481600182811c9150808316806123bd57607f831692505b8583108114156123db57634e487b7160e01b85526022600452602485fd5b6080880183905260a088018180156123fa576001811461240b57612436565b60ff19861682528782019650612436565b60008d81526020902060005b8681101561243057815484820152908501908901612417565b83019750505b5050505050604085019690965260609093019390935250949350505050565b600060001982141561246957612469612289565b5060010190565b6001600160a01b0385811682528416602082015260806040820181905260009061249c9083018561208a565b90508260608301529594505050505056fea26469706673582212205d414f10963ad3e340521d4ceff3152e1ec9ced5a851c4157a7d808f553f49aa64736f6c634300080b0033",
  "immutableReferences": {
    "7586": [
      {
        "length": 32,
        "start": 321
      },
      {
        "length": 32,
        "start": 1360
      },
      {
        "length": 32,
        "start": 2940
      }
    ],
    "7589": [
      {
        "length": 32,
        "start": 795
      },
      {
        "length": 32,
        "start": 3493
      }
    ]
  },
  "source": "// SPDX-License-Identifier: GPL-3.0\r\npragma solidity 0.8.11;\r\n\r\nimport \"./interfaces/IYugo.sol\";\r\nimport \"./interfaces/IGrantEscrow.sol\";\r\n\r\n/**  \r\n* @title Smart Contract for the DAO\r\n* @notice This Smart contract is the center piece of the application.  \r\n* @notice This contract allows you to create a contest, create an action, vote for an action, tally the votes  \r\n*/\r\ncontract YugoDao {\r\n\r\n    struct Organisation {\r\n        address ethAddress;\r\n        bool isRegistered;\r\n        uint[] themes;\r\n        uint country;\r\n        mapping (address => bool) participants;\r\n    }\r\n\r\n    struct Theme {\r\n        uint id;\r\n        string name;\r\n    }\r\n\r\n    struct Country {\r\n        uint id;\r\n        string name;\r\n    }\r\n\r\n    struct Action {\r\n        string name;\r\n        uint voteNumber;\r\n        uint requiredFunds;\r\n        bool isCreated;\r\n    }\r\n\r\n    /**\r\n    * @notice Contest\r\n    * @dev A participant can only create one action\r\n    */\r\n    struct Contest {\r\n        string name;    \r\n        uint[] themeIDs;\r\n        uint[] countryIDs;\r\n        uint applicationEndDate;\r\n        uint votingEndDate;\r\n        uint fundsAvailable;\r\n        bool isCreated;\r\n        address[] winningActionAddresses;\r\n        mapping(address => bool) hasVoted;\r\n        mapping(address => Action) actions;\r\n    }\r\n\r\n    event OrganizationRegistered(address addressOrga);\r\n    event ParticipantWhitelisted(address addressParticipant, address addressOrganization); \r\n    event ParticipantRemoved(address addressOrga, address addressParticipant);\r\n    event ContestCreated(address addressOrga, string name, uint funds);\r\n    event ActionCreated(address addressContestCreator, address addressActionCreator, string actionName, uint requiredFunds);\r\n    event VoteTallied(address winner, string actionName, uint nbVotes, uint requiredFunds);\r\n    event HasVotedForAction(address addressContestCreator, address addressActionCreator, address voterAddress); \r\n    event ActionDeleted(address addressContestCreator, address addressActioncreator, string actionName);\r\n\r\n    mapping (address => Contest) contests;\r\n    mapping (address => Organisation) organisation;\r\n    mapping (uint => Country)  private countries;\r\n    mapping (uint => Theme)  private thematics;\r\n\r\n    string[] private themeList = [\r\n        \"education\",\r\n        \"trafficking\",\r\n        \"domestic violence\",\r\n        \"women's movement\",\r\n        \"campaigns\",\r\n        \"roma women\",\r\n        \"identity\",\r\n        \"lobbing\",\r\n        \"marginalized groups\",\r\n        \"sexual harassment\",\r\n        \"women's rights\"\r\n    ];\r\n\r\n     string[] private countryList = [\r\n        \"Serbia\",\r\n        \"Croatia\",\r\n        \"Montenegro\",\r\n        \"Bosnia and Hercegovina\",\r\n        \"Slovenia\",\r\n        \"Macedonia\"\r\n    ];\r\n\r\n    IYugo public immutable yugo;\r\n    IGrantEscrow public immutable escrow;\r\n\r\n    /**\r\n    * @notice Set smart contracts' address from migration\r\n    * @param _yugo Address of the YugoToken contract\r\n    * @param _escrow Address of the GrantEscrow contract\r\n    */\r\n    constructor(address _yugo, address _escrow) {\r\n        setThematics();\r\n        setCountries();\r\n        yugo = IYugo(_yugo);\r\n        escrow = IGrantEscrow(_escrow);\r\n    }\r\n\r\n    /**\r\n    * @notice used when sender not authorized for an operation.\r\n    */\r\n    error Unauthorized();\r\n\r\n   /**\r\n    * @notice Modifier \r\n    * @dev Check if _account not equals sender then revert \r\n    */\r\n    modifier onlyBy(address _account)\r\n    {\r\n        if (msg.sender != _account)\r\n            revert Unauthorized();\r\n        _;\r\n    }\r\n\r\n    /**\r\n    * @notice Populate thematics array\r\n    * @dev FOR TESTING : Only used in the controller, to initialise the thematics array. Should implement addThematics() so that the thematics are not fixed.\r\n    */\r\n    function setThematics() private {\r\n        uint numThemes = themeList.length;\r\n        for (uint i=0; i < numThemes-1; i++) {\r\n            Theme memory theme;\r\n            theme.id = i;\r\n            theme.name = themeList[i];\r\n            thematics[i] = theme;\r\n        }\r\n    }\r\n\r\n    /**\r\n    * @notice Populate thematics array\r\n    * @dev Only used in the controller, to initialise the countries array.\r\n    */\r\n    function setCountries() private {\r\n        uint numCountries = countryList.length;\r\n        for (uint i=0; i < numCountries-1; i++) {\r\n            Country memory country;\r\n            country.id = i;\r\n            country.name = countryList[i];\r\n            countries[i] = country;\r\n        }\r\n    }\r\n\r\n    /**\r\n    * @notice Return the list of thematics\r\n    * @return themeList List of thematics\r\n    */\r\n    function getThematics() external view returns(string[] memory) {        \r\n        return themeList;\r\n    }\r\n\r\n    /**\r\n    * @notice Return the list of countries\r\n    * @return countryList List of countries\r\n    */\r\n    function getCountries() external view returns(string[] memory) {        \r\n        return countryList;\r\n    }\r\n    \r\n    /**\r\n    * @notice Registers an Organisation\r\n    * @dev Creates a mapping for the sender in organisation\r\n    * @dev Emit OrganizationRegistered event\r\n    * @param thematicIds List of thematics id\r\n    * @param countryId Country id\r\n    * \r\n    */\r\n    function registerOrganisation(uint[] memory thematicIds, uint countryId) external {\r\n        require(!organisation[msg.sender].isRegistered, 'Organisation already registered');\r\n        require(thematicIds.length > 0 && countryId >= 0, 'You must provide thematics and country');\r\n        organisation[msg.sender].ethAddress = msg.sender;\r\n        organisation[msg.sender].themes = thematicIds;\r\n        organisation[msg.sender].country = countryId;\r\n        organisation[msg.sender].isRegistered = true;\r\n        emit OrganizationRegistered(msg.sender);\r\n    }\r\n\r\n    /**\r\n    * @notice Returns if organisation is registered\r\n    * @dev - is executed by outside callers and internal functions\r\n    * @param _orga Address of organisation\r\n    * @return State of isRegistered, true if organisation is registered\r\n    */\r\n    function organisationRegistrationStatus(address _orga) public view returns(bool) {\r\n        return organisation[_orga].isRegistered;\r\n    }\r\n    \r\n    /**\r\n    * @notice Returns true if the participant is whitelisted\r\n    * @dev Can be called either by an organisation or a participant\r\n    * @param _addrOrganisation  Organisation's address\r\n    * @param _addrParticipant  Participant's address\r\n    * @return True if the address exists, false if not\r\n     */\r\n    function participantIsWhiteListed(address _addrOrganisation, address _addrParticipant) external view returns(bool) {\r\n        return organisation[_addrOrganisation].participants[_addrParticipant];\r\n    }\r\n\r\n    /**\r\n    * @notice allows the organisation (msg.sender) to delete a member from its whitelist\r\n    * @dev Emit ParticipantRemoved event\r\n    * @param _addrToDelete  the ethAddress of the participant to be deleted \r\n    */\r\n    function removeFromWhitelist(address _addrToDelete) external {\r\n        require(organisation[msg.sender].participants[_addrToDelete]==true, 'the address you entered does not exist');\r\n        delete organisation[msg.sender].participants[_addrToDelete];\r\n        emit ParticipantRemoved(msg.sender, _addrToDelete);\r\n    }\r\n\r\n    /**\r\n    * @notice Adds a particapants to a organisation\r\n    * @dev Emit ParticipantWhitelisted event\r\n    * @param _addrOrga address of organisation\r\n    * @param _addrParticipant address of particapant \r\n    */\r\n    function addParticipant(address _addrOrga, address _addrParticipant ) external {\r\n        //TODO: verify with oracle _addrParticipant is not an organisation address\r\n        require(organisation[_addrOrga].ethAddress == msg.sender, 'You are not the owner of the organization');\r\n        require(!organisation[_addrOrga].participants[_addrParticipant], 'Address already whitelisted for this organization');\r\n        organisation[_addrOrga].participants[_addrParticipant] = true;\r\n        emit ParticipantWhitelisted(_addrParticipant, _addrOrga);\r\n    }\r\n\r\n    /**\r\n    * @notice Add a contest\r\n    * @dev Emit ContestCreated event\r\n    * @param _name Name of the contest\r\n    * @param _themeIds List of thematics IDs\r\n    * @param _eligibleCountryIds List of country IDs\r\n    * @param _applicationEndDate End Date of application period \r\n    * @param _votingEndDate End Date of voting period \r\n    * @param _funds Value of funds \r\n    */\r\n    function addContest(string memory _name, uint[] memory _themeIds, uint[] memory _eligibleCountryIds, uint _applicationEndDate, uint _votingEndDate, uint _funds) external payable {\r\n        require(yugo.balanceOf(msg.sender) > 0, \"you need Yugo governance token to create a contest\");\r\n        require(!contests[msg.sender].isCreated, 'Organisation already created a contest');\r\n        require(_funds == msg.value, \"Amount of funds in escrow is different from the data you provided\");\r\n        contests[msg.sender].name = _name;\r\n        contests[msg.sender].themeIDs = _themeIds;\r\n        contests[msg.sender].countryIDs = _eligibleCountryIds;\r\n        contests[msg.sender].applicationEndDate = _applicationEndDate;\r\n        contests[msg.sender].votingEndDate = _votingEndDate;\r\n        contests[msg.sender].fundsAvailable = _funds;\r\n        contests[msg.sender].isCreated = true;\r\n        (bool success,) = address(escrow).call{value: msg.value}(\r\n            abi.encodeWithSignature(\"depositGrant(address)\", msg.sender)\r\n        );\r\n        require(success, \"Deposit failed.\");\r\n        // escrow.call{from: msg.sender, value: msg.value}(\"\");\r\n        emit ContestCreated(msg.sender, _name, _funds);\r\n    }\r\n\r\n    /**\r\n    * @notice Creates an action\r\n    * @dev Emit ActionCreated event\r\n    * @param _creatorOfContest Address of creator \r\n    * @param _name Name of Action\r\n    * @param _requiredFunds Value of funds\r\n    */\r\n    function createAction(address _creatorOfContest, string memory _name, uint _requiredFunds) external {\r\n        // require(yugo.balanceOf(msg.sender) > 0, \"you need Yugo governance token to create an action\");\r\n        require(_creatorOfContest != msg.sender, 'Contest creator cannot propose actions');\r\n        require(contests[_creatorOfContest].isCreated, 'This organization does not have open contest');\r\n        require(!contests[_creatorOfContest].actions[msg.sender].isCreated, 'You have already created an action');\r\n        require(_requiredFunds <= contests[_creatorOfContest].fundsAvailable, 'Funds required are superior to funds available');\r\n        uint currentTime = block.timestamp;\r\n        require(currentTime < contests[_creatorOfContest].applicationEndDate, 'Voting has started. You cannot add a action');\r\n        \r\n        \r\n        //Verify if action creator country is eligible to participate\r\n        uint[] memory eligibleCountries = contests[_creatorOfContest].countryIDs;\r\n        uint orgaCountry = organisation[msg.sender].country;\r\n        bool countryFound=false;\r\n        for (uint i=0; i<eligibleCountries.length; i++) {\r\n            if(eligibleCountries[i]==orgaCountry){\r\n                countryFound=true;\r\n                break;\r\n            }\r\n        }\r\n        //Verify at least one theme from the orga wanting to create an action is in the contest themes \r\n        uint[] memory eligibleThemes = contests[_creatorOfContest].themeIDs;\r\n        uint[] memory orgaThemes = organisation[msg.sender].themes;\r\n        bool themeFound=false;\r\n        for (uint i=0; i<eligibleThemes.length; i++) {\r\n            for (uint j=0; i<orgaThemes.length; i++) {\r\n                if(eligibleThemes[i]==orgaThemes[j]){\r\n                    themeFound=true;\r\n                    break;\r\n                }\r\n            }\r\n        }\r\n        require(countryFound == true, \"You are not eligible to participate in this contest\");\r\n        require(themeFound == true, \"Themes of your organisation are not eligible for this contest\");\r\n        contests[_creatorOfContest].actions[msg.sender].name = _name;\r\n        contests[_creatorOfContest].actions[msg.sender].requiredFunds = _requiredFunds;\r\n        contests[_creatorOfContest].actions[msg.sender].isCreated = true;\r\n        emit ActionCreated(_creatorOfContest, msg.sender, _name, _requiredFunds);\r\n    }\r\n\r\n    /**\r\n    * @notice Deletes an action\r\n    * @dev Emit ActionCreated event\r\n    * @dev requires the msg.sender to be the action's owner\r\n    * @dev can only be deleted before the application end date\r\n    * @dev Struct Action is reinitialise before delete to avoid to avoid a sort of \"pointer rewinding\" effect\r\n    * @param _creatorOfContest Address of creator \r\n    */\r\n    function deleteActions(address _creatorOfContest) external {\r\n        require(contests[_creatorOfContest].actions[msg.sender].isCreated, 'you did not create any action for this contest');\r\n        uint currentTime = block.timestamp; //NOTE: test currentTime might change for check bool applicationsClosed == false\r\n        require(currentTime < contests[_creatorOfContest].applicationEndDate, 'Votes have started.You cannot delete this action');\r\n        string memory actionName = contests[_creatorOfContest].actions[msg.sender].name;\r\n        contests[_creatorOfContest].actions[msg.sender] = Action('', 0, 0, false); \r\n        delete contests[_creatorOfContest].actions[msg.sender]; \r\n        emit ActionDeleted(_creatorOfContest, msg.sender, actionName);\r\n    }\r\n\r\n    /**\r\n    * @notice Vote for a Action\r\n    * @dev At each vote, we compare voteNumber of the winning Action with newly voted one. If truee, then push in array\r\n    * @dev Emit HasVotedForAction event\r\n    * @param _creatorOfContest Address of Contest creator \r\n    * @param _actionCreator Address of Action creator\r\n    * @param _participantOrga Address of the participant's organisation\r\n    */\r\n    function voteForAction(address _creatorOfContest, address _actionCreator, address _participantOrga) external {\r\n        uint currentTime = block.timestamp; //NOTE: test currentTime might change for check bool timeToVote == true\r\n        require(currentTime >= contests[_creatorOfContest].applicationEndDate, 'Voting has not started');\r\n        require(currentTime < contests[_creatorOfContest].votingEndDate, 'Voting is closed');\r\n        require(msg.sender != _creatorOfContest && msg.sender != _actionCreator, 'You can not vote for this action');\r\n        require(!contests[_creatorOfContest].hasVoted[msg.sender], 'You have already voted');\r\n        require(yugo.balanceOf(_participantOrga) > 0, \"you need Yugo governance token to create a contest\");\r\n        \r\n        contests[_creatorOfContest].actions[_actionCreator].voteNumber += 1;\r\n        contests[_creatorOfContest].hasVoted[msg.sender] = true;\r\n\r\n        if(contests[_creatorOfContest].winningActionAddresses.length == 0){\r\n            contests[_creatorOfContest].winningActionAddresses.push(_actionCreator);\r\n        }else if(contests[_creatorOfContest].actions[contests[_creatorOfContest].winningActionAddresses[0]].voteNumber < contests[_creatorOfContest].actions[_actionCreator].voteNumber){\r\n            delete contests[_creatorOfContest].winningActionAddresses;\r\n            contests[_creatorOfContest].winningActionAddresses.push(_actionCreator);\r\n        }else if(contests[_creatorOfContest].actions[contests[_creatorOfContest].winningActionAddresses[0]].voteNumber == contests[_creatorOfContest].actions[_actionCreator].voteNumber){\r\n            contests[_creatorOfContest].winningActionAddresses.push(_actionCreator);\r\n        }\r\n        emit HasVotedForAction(_creatorOfContest, _actionCreator, msg.sender);\r\n        delete currentTime;\r\n    }\r\n\r\n    /**\r\n    * @notice Tally the vote\r\n    * @dev Emit VoteTallied event\r\n    * @param _creatorOfContest Address of Contest creator \r\n    */\r\n    function tallyVotes(address _creatorOfContest) external returns (address, string memory, uint, uint){\r\n        //NOTE needs more testing for multiple winners\r\n        uint currentTime = block.timestamp; //NOTE: test currentTime might change for check bool timeTotallyVotess == true\r\n        require(currentTime > contests[_creatorOfContest].votingEndDate, \"Voting has not finished yet\");\r\n        address winner = contests[_creatorOfContest].winningActionAddresses[0];\r\n        emit VoteTallied(\r\n            winner,\r\n            contests[_creatorOfContest].actions[winner].name, \r\n            contests[_creatorOfContest].actions[winner].voteNumber, \r\n            contests[_creatorOfContest].actions[winner].requiredFunds\r\n            );\r\n        return (winner,\r\n            contests[_creatorOfContest].actions[winner].name,\r\n            contests[_creatorOfContest].actions[winner].voteNumber, \r\n            contests[_creatorOfContest].actions[winner].requiredFunds\r\n        );\r\n    }\r\n\r\n    /**\r\n    * @notice returns the first winner of the array winningActionAddresses\r\n    * @dev used in interface IYugoDao\r\n    * @param _creatorOfContest Address of Contest creator \r\n    */\r\n    function getContestWinner(address _creatorOfContest) view public returns(address, uint) {\r\n        address _winner = contests[_creatorOfContest].winningActionAddresses[0];\r\n        uint _requiredFunds = contests[_creatorOfContest].actions[_winner].requiredFunds;\r\n        return (_winner, _requiredFunds);\r\n    }\r\n    \r\n}   ",
  "sourcePath": "D:\\workspace\\alyra\\YU-GO\\Truffle\\contracts\\YugoDao.sol",
  "compiler": {
    "name": "solc",
    "version": "0.8.11+commit.d7f03943.Emscripten.clang"
  },
  "schemaVersion": "3.4.3",
  "updatedAt": "2022-01-26T15:38:19.974Z",
  "networkType": "ethereum",
  "devdoc": {
    "kind": "dev",
    "methods": {
      "addContest(string,uint256[],uint256[],uint256,uint256,uint256)": {
        "details": "Emit ContestCreated event",
        "params": {
          "_applicationEndDate": "End Date of application period ",
          "_eligibleCountryIds": "List of country IDs",
          "_funds": "Value of funds ",
          "_name": "Name of the contest",
          "_themeIds": "List of thematics IDs",
          "_votingEndDate": "End Date of voting period "
        }
      },
      "addParticipant(address,address)": {
        "details": "Emit ParticipantWhitelisted event",
        "params": {
          "_addrOrga": "address of organisation",
          "_addrParticipant": "address of particapant "
        }
      },
      "constructor": {
        "params": {
          "_escrow": "Address of the GrantEscrow contract",
          "_yugo": "Address of the YugoToken contract"
        }
      },
      "createAction(address,string,uint256)": {
        "details": "Emit ActionCreated event",
        "params": {
          "_creatorOfContest": "Address of creator ",
          "_name": "Name of Action",
          "_requiredFunds": "Value of funds"
        }
      },
      "deleteActions(address)": {
        "details": "Emit ActionCreated eventrequires the msg.sender to be the action's ownercan only be deleted before the application end dateStruct Action is reinitialise before delete to avoid to avoid a sort of \"pointer rewinding\" effect",
        "params": {
          "_creatorOfContest": "Address of creator "
        }
      },
      "getContestWinner(address)": {
        "details": "used in interface IYugoDao",
        "params": {
          "_creatorOfContest": "Address of Contest creator "
        }
      },
      "getCountries()": {
        "returns": {
          "_0": "countryList List of countries"
        }
      },
      "getThematics()": {
        "returns": {
          "_0": "themeList List of thematics"
        }
      },
      "organisationRegistrationStatus(address)": {
        "details": "- is executed by outside callers and internal functions",
        "params": {
          "_orga": "Address of organisation"
        },
        "returns": {
          "_0": "State of isRegistered, true if organisation is registered"
        }
      },
      "participantIsWhiteListed(address,address)": {
        "details": "Can be called either by an organisation or a participant",
        "params": {
          "_addrOrganisation": "Organisation's address",
          "_addrParticipant": "Participant's address"
        },
        "returns": {
          "_0": "True if the address exists, false if not"
        }
      },
      "registerOrganisation(uint256[],uint256)": {
        "details": "Creates a mapping for the sender in organisationEmit OrganizationRegistered event",
        "params": {
          "countryId": "Country id ",
          "thematicIds": "List of thematics id"
        }
      },
      "removeFromWhitelist(address)": {
        "details": "Emit ParticipantRemoved event",
        "params": {
          "_addrToDelete": "the ethAddress of the participant to be deleted "
        }
      },
      "tallyVotes(address)": {
        "details": "Emit VoteTallied event",
        "params": {
          "_creatorOfContest": "Address of Contest creator "
        }
      },
      "voteForAction(address,address,address)": {
        "details": "At each vote, we compare voteNumber of the winning Action with newly voted one. If truee, then push in arrayEmit HasVotedForAction event",
        "params": {
          "_actionCreator": "Address of Action creator",
          "_creatorOfContest": "Address of Contest creator ",
          "_participantOrga": "Address of the participant's organisation"
        }
      }
    },
    "title": "Smart Contract for the DAO",
    "version": 1
  },
  "userdoc": {
    "errors": {
      "Unauthorized()": [
        {
          "notice": "used when sender not authorized for an operation."
        }
      ]
    },
    "kind": "user",
    "methods": {
      "addContest(string,uint256[],uint256[],uint256,uint256,uint256)": {
        "notice": "Add a contest"
      },
      "addParticipant(address,address)": {
        "notice": "Adds a particapants to a organisation"
      },
      "constructor": {
        "notice": "Set smart contracts' address from migration"
      },
      "createAction(address,string,uint256)": {
        "notice": "Creates an action"
      },
      "deleteActions(address)": {
        "notice": "Deletes an action"
      },
      "getContestWinner(address)": {
        "notice": "returns the first winner of the array winningActionAddresses"
      },
      "getCountries()": {
        "notice": "Return the list of countries"
      },
      "getThematics()": {
        "notice": "Return the list of thematics"
      },
      "organisationRegistrationStatus(address)": {
        "notice": "Returns if organisation is registered"
      },
      "participantIsWhiteListed(address,address)": {
        "notice": "Returns true if the participant is whitelisted"
      },
      "registerOrganisation(uint256[],uint256)": {
        "notice": "Registers an Organisation"
      },
      "removeFromWhitelist(address)": {
        "notice": "allows the organisation (msg.sender) to delete a member from its whitelist"
      },
      "tallyVotes(address)": {
        "notice": "Tally the vote"
      },
      "voteForAction(address,address,address)": {
        "notice": "Vote for a Action"
      }
    },
    "notice": "This Smart contract is the center piece of the application.  This contract allows you to create a contest, create an action, vote for an action, tally the votes  ",
    "version": 1
  }
}