{
  "contractName": "YugoDao",
  "abi": [
    {
      "inputs": [
        {
          "internalType": "address",
          "name": "_yugo",
          "type": "address"
        }
      ],
      "stateMutability": "nonpayable",
      "type": "constructor"
    },
    {
      "inputs": [],
      "name": "Unauthorized",
      "type": "error"
    },
    {
      "anonymous": false,
      "inputs": [
        {
          "indexed": false,
          "internalType": "address",
          "name": "addressContestCreator",
          "type": "address"
        },
        {
          "indexed": false,
          "internalType": "address",
          "name": "addressActionCreator",
          "type": "address"
        },
        {
          "indexed": false,
          "internalType": "string",
          "name": "actionName",
          "type": "string"
        },
        {
          "indexed": false,
          "internalType": "uint256",
          "name": "requiredFunds",
          "type": "uint256"
        }
      ],
      "name": "ActionCreated",
      "type": "event"
    },
    {
      "anonymous": false,
      "inputs": [
        {
          "indexed": false,
          "internalType": "address",
          "name": "addressContestCreator",
          "type": "address"
        },
        {
          "indexed": false,
          "internalType": "address",
          "name": "addressActioncreator",
          "type": "address"
        },
        {
          "indexed": false,
          "internalType": "string",
          "name": "actionName",
          "type": "string"
        }
      ],
      "name": "ActionDeleted",
      "type": "event"
    },
    {
      "anonymous": false,
      "inputs": [
        {
          "indexed": false,
          "internalType": "address",
          "name": "addressOrga",
          "type": "address"
        },
        {
          "indexed": false,
          "internalType": "string",
          "name": "name",
          "type": "string"
        },
        {
          "indexed": false,
          "internalType": "uint256",
          "name": "funds",
          "type": "uint256"
        }
      ],
      "name": "ContestCreated",
      "type": "event"
    },
    {
      "anonymous": false,
      "inputs": [
        {
          "indexed": false,
          "internalType": "address",
          "name": "addressContestCreator",
          "type": "address"
        },
        {
          "indexed": false,
          "internalType": "address",
          "name": "addressActionCreator",
          "type": "address"
        },
        {
          "indexed": false,
          "internalType": "address",
          "name": "voterAddress",
          "type": "address"
        }
      ],
      "name": "HasVotedForAction",
      "type": "event"
    },
    {
      "anonymous": false,
      "inputs": [
        {
          "indexed": false,
          "internalType": "address",
          "name": "addressOrga",
          "type": "address"
        }
      ],
      "name": "OrganizationRegistered",
      "type": "event"
    },
    {
      "anonymous": false,
      "inputs": [
        {
          "indexed": false,
          "internalType": "address",
          "name": "addressOrga",
          "type": "address"
        },
        {
          "indexed": false,
          "internalType": "address",
          "name": "addressParticipant",
          "type": "address"
        }
      ],
      "name": "ParticipantRemoved",
      "type": "event"
    },
    {
      "anonymous": false,
      "inputs": [
        {
          "indexed": false,
          "internalType": "address",
          "name": "addressParticipant",
          "type": "address"
        },
        {
          "indexed": false,
          "internalType": "address",
          "name": "addressOrganization",
          "type": "address"
        }
      ],
      "name": "ParticipantWhitelisted",
      "type": "event"
    },
    {
      "anonymous": false,
      "inputs": [
        {
          "indexed": false,
          "internalType": "address",
          "name": "addressContestCreator",
          "type": "address"
        },
        {
          "indexed": false,
          "internalType": "address[]",
          "name": "addressActionCreator",
          "type": "address[]"
        },
        {
          "indexed": false,
          "internalType": "uint256",
          "name": "nbVotes",
          "type": "uint256"
        }
      ],
      "name": "VoteTallied",
      "type": "event"
    },
    {
      "inputs": [],
      "name": "yugo",
      "outputs": [
        {
          "internalType": "contract IYugo",
          "name": "",
          "type": "address"
        }
      ],
      "stateMutability": "view",
      "type": "function",
      "constant": true
    },
    {
      "inputs": [],
      "name": "getThematics",
      "outputs": [
        {
          "internalType": "string[]",
          "name": "",
          "type": "string[]"
        }
      ],
      "stateMutability": "view",
      "type": "function",
      "constant": true
    },
    {
      "inputs": [],
      "name": "getCountries",
      "outputs": [
        {
          "internalType": "string[]",
          "name": "",
          "type": "string[]"
        }
      ],
      "stateMutability": "view",
      "type": "function",
      "constant": true
    },
    {
      "inputs": [
        {
          "internalType": "uint256[]",
          "name": "thematicIds",
          "type": "uint256[]"
        },
        {
          "internalType": "uint256",
          "name": "countryId",
          "type": "uint256"
        }
      ],
      "name": "registerOrganisation",
      "outputs": [],
      "stateMutability": "nonpayable",
      "type": "function"
    },
    {
      "inputs": [
        {
          "internalType": "address",
          "name": "_orga",
          "type": "address"
        }
      ],
      "name": "organisationRegistrationStatus",
      "outputs": [
        {
          "internalType": "bool",
          "name": "",
          "type": "bool"
        }
      ],
      "stateMutability": "view",
      "type": "function",
      "constant": true
    },
    {
      "inputs": [
        {
          "internalType": "address",
          "name": "_addrOrganisation",
          "type": "address"
        },
        {
          "internalType": "address",
          "name": "_addrParticipant",
          "type": "address"
        }
      ],
      "name": "participantIsWhiteListed",
      "outputs": [
        {
          "internalType": "bool",
          "name": "",
          "type": "bool"
        }
      ],
      "stateMutability": "view",
      "type": "function",
      "constant": true
    },
    {
      "inputs": [
        {
          "internalType": "address",
          "name": "_addrToDelete",
          "type": "address"
        }
      ],
      "name": "removeFromWhitelist",
      "outputs": [],
      "stateMutability": "nonpayable",
      "type": "function"
    },
    {
      "inputs": [
        {
          "internalType": "address",
          "name": "_addrOrga",
          "type": "address"
        },
        {
          "internalType": "address",
          "name": "_addrParticipant",
          "type": "address"
        }
      ],
      "name": "addParticipant",
      "outputs": [],
      "stateMutability": "nonpayable",
      "type": "function"
    },
    {
      "inputs": [
        {
          "internalType": "string",
          "name": "_name",
          "type": "string"
        },
        {
          "internalType": "uint256[]",
          "name": "_themeIds",
          "type": "uint256[]"
        },
        {
          "internalType": "uint256[]",
          "name": "_eligibleCountryIds",
          "type": "uint256[]"
        },
        {
          "internalType": "uint256",
          "name": "_applicationEndDate",
          "type": "uint256"
        },
        {
          "internalType": "uint256",
          "name": "_votingEndDate",
          "type": "uint256"
        },
        {
          "internalType": "uint256",
          "name": "_funds",
          "type": "uint256"
        }
      ],
      "name": "addContest",
      "outputs": [],
      "stateMutability": "nonpayable",
      "type": "function"
    },
    {
      "inputs": [
        {
          "internalType": "address",
          "name": "_creatorOfContest",
          "type": "address"
        },
        {
          "internalType": "string",
          "name": "_name",
          "type": "string"
        },
        {
          "internalType": "uint256",
          "name": "_requiredFunds",
          "type": "uint256"
        }
      ],
      "name": "createAction",
      "outputs": [],
      "stateMutability": "nonpayable",
      "type": "function"
    },
    {
      "inputs": [
        {
          "internalType": "address",
          "name": "_creatorOfContest",
          "type": "address"
        }
      ],
      "name": "deleteActions",
      "outputs": [],
      "stateMutability": "nonpayable",
      "type": "function"
    },
    {
      "inputs": [
        {
          "internalType": "address",
          "name": "_creatorOfContest",
          "type": "address"
        },
        {
          "internalType": "address",
          "name": "_actionCreator",
          "type": "address"
        }
      ],
      "name": "voteForAction",
      "outputs": [],
      "stateMutability": "nonpayable",
      "type": "function"
    },
    {
      "inputs": [
        {
          "internalType": "address",
          "name": "_creatorOfContest",
          "type": "address"
        }
      ],
      "name": "tallyVote",
      "outputs": [],
      "stateMutability": "nonpayable",
      "type": "function"
    }
  ],
  "bytecode": "0x60096101e08181526832b23ab1b0ba34b7b760b91b610200526080908152600b6102208181526a747261666669636b696e6760a81b6102405260a052601161026081815270646f6d65737469632076696f6c656e636560781b6102805260c05260106102a09081526f1ddbdb595b89dcc81b5bdd995b595b9d60821b6102c05260e0526102e09384526863616d706169676e7360b81b6103005261010093909352600a610320908152693937b6b0903bb7b6b2b760b11b61034052610120526008610360908152676964656e7469747960c01b610380526101405260076103a0908152666c6f6262696e6760c81b6103c0526101605260136103e09081527f6d617267696e616c697a65642067726f757073000000000000000000000000006104005261018052610420928352701cd95e1d585b081a185c985cdcdb595b9d607a1b610440526101a0929092526104a0604052600e6104609081526d776f6d656e27732072696768747360901b610480526101c05262000183916004919062000544565b506040805161010081018252600660c082018181526553657262696160d01b60e0840152825282518084018452600781526643726f6174696160c81b6020828101919091528084019190915283518085018552600a8152694d6f6e74656e6567726f60b01b818301528385015283518085018552601681527f426f736e696120616e64204865726365676f76696e6100000000000000000000818301526060840152835180850185526008815267536c6f76656e696160c01b818301526080840152835180850190945260098452684d616365646f6e696160b81b9084015260a0820192909252620002799160059190620005a8565b503480156200028757600080fd5b506040516200261c3803806200261c833981016040819052620002aa91620006ff565b620002b4620002e4565b620002be62000416565b600680546001600160a01b0319166001600160a01b0392909216919091179055620007d2565b60045460005b620002f760018362000747565b8110156200041257604080518082019091526060602082015281815260048054839081106200032a576200032a62000761565b906000526020600020018054620003419062000777565b80601f01602080910402602001604051908101604052809291908181526020018280546200036f9062000777565b8015620003c05780601f106200039457610100808354040283529160200191620003c0565b820191906000526020600020905b815481529060010190602001808311620003a257829003601f168201915b50505050602080840192835260008581526003825260409020845181559251805185949350620003f79260018501920190620005fa565b509050505080806200040990620007b4565b915050620002ea565b5050565b60055460005b6200042960018362000747565b8110156200041257604080518082019091526060602082015281815260058054839081106200045c576200045c62000761565b906000526020600020018054620004739062000777565b80601f0160208091040260200160405190810160405280929190818152602001828054620004a19062000777565b8015620004f25780601f10620004c657610100808354040283529160200191620004f2565b820191906000526020600020905b815481529060010190602001808311620004d457829003601f168201915b50505050602080840192835260008581526002825260409020845181559251805185949350620005299260018501920190620005fa565b509050505080806200053b90620007b4565b9150506200041c565b82805482825590600052602060002090810192821562000596579160200282015b8281111562000596578251805162000585918491602090910190620005fa565b509160200191906001019062000565565b50620005a492915062000685565b5090565b82805482825590600052602060002090810192821562000596579160200282015b82811115620005965782518051620005e9918491602090910190620005fa565b5091602001919060010190620005c9565b828054620006089062000777565b90600052602060002090601f0160209004810192826200062c576000855562000677565b82601f106200064757805160ff191683800117855562000677565b8280016001018555821562000677579182015b82811115620006775782518255916020019190600101906200065a565b50620005a4929150620006a6565b80821115620005a45760006200069c8282620006bd565b5060010162000685565b5b80821115620005a45760008155600101620006a7565b508054620006cb9062000777565b6000825580601f10620006dc575050565b601f016020900490600052602060002090810190620006fc9190620006a6565b50565b6000602082840312156200071257600080fd5b81516001600160a01b03811681146200072a57600080fd5b9392505050565b634e487b7160e01b600052601160045260246000fd5b6000828210156200075c576200075c62000731565b500390565b634e487b7160e01b600052603260045260246000fd5b600181811c908216806200078c57607f821691505b60208210811415620007ae57634e487b7160e01b600052602260045260246000fd5b50919050565b6000600019821415620007cb57620007cb62000731565b5060010190565b611e3a80620007e26000396000f3fe608060405234801561001057600080fd5b50600436106100cf5760003560e01c80638ab1d6811161008c578063beca800911610066578063beca8009146101d4578063d35ada32146101dc578063d67091c7146101ef578063eb0934df1461020257600080fd5b80638ab1d681146101675780639aa7ca421461017a578063bd7297321461018d57600080fd5b80631426f78f146100d4578063180d3e3d146100e957806322370265146100fc5780632db2c04f1461012c5780636bf9fe171461013f57806381530e4714610154575b600080fd5b6100e76100e23660046118c8565b610242565b005b6100e76100f73660046118fb565b61069e565b60065461010f906001600160a01b031681565b6040516001600160a01b0390911681526020015b60405180910390f35b6100e761013a366004611a54565b6108dd565b610147610b01565b6040516101239190611b45565b6100e7610162366004611ba7565b610bda565b6100e76101753660046118fb565b610d4c565b6100e76101883660046118fb565b610e42565b6101c461019b3660046118fb565b6001600160a01b031660009081526001602081905260409091200154600160a01b900460ff1690565b6040519015158152602001610123565b610147610f3b565b6100e76101ea3660046118c8565b61100b565b6100e76101fd366004611bec565b61118a565b6101c46102103660046118c8565b6001600160a01b0391821660009081526001602090815260408083209390941682526002909201909152205460ff1690565b6001600160a01b03821660009081526020819052604090206005015442908110156102ad5760405162461bcd60e51b8152602060048201526016602482015275159bdd1a5b99c81a185cc81b9bdd081cdd185c9d195960521b60448201526064015b60405180910390fd5b6001600160a01b038316600090815260208190526040902060060154811061030a5760405162461bcd60e51b815260206004820152601060248201526f159bdd1a5b99c81a5cc818db1bdcd95960821b60448201526064016102a4565b336001600160a01b0384161480159061032c5750336001600160a01b03831614155b6103785760405162461bcd60e51b815260206004820181905260248201527f596f752063616e206e6f7420766f746520666f72207468697320616374696f6e60448201526064016102a4565b6001600160a01b03831660009081526020818152604080832033845260010190915290205460ff16156103e65760405162461bcd60e51b8152602060048201526016602482015275165bdd481a185d9948185b1c9958591e481d9bdd195960521b60448201526064016102a4565b6001600160a01b038084166000908152602081815260408083209386168352600290930190529081206001908101805491929091610425908490611c59565b90915550506001600160a01b03831660008181526020818152604080832033845260018181018452918420805460ff191690921790915592825252600901546104ac576001600160a01b038381166000908152602081815260408220600901805460018101825590835291200180546001600160a01b03191691841691909117905561064b565b6001600160a01b0380841660008181526020818152604080832094871683526002850180835290832060010154938352908290526009909301805492939282906104f8576104f8611c71565b60009182526020808320909101546001600160a01b031683528201929092526040019020600101541015610591576001600160a01b038316600090815260208190526040812061054d9160099091019061177e565b6001600160a01b038381166000908152602081815260408220600901805460018101825590835291200180546001600160a01b03191691841691909117905561064b565b6001600160a01b0380841660008181526020818152604080832094871683526002850180835290832060010154938352908290526009909301805492939282906105dd576105dd611c71565b60009182526020808320909101546001600160a01b03168352820192909252604001902060010154141561064b576001600160a01b038381166000908152602081815260408220600901805460018101825590835291200180546001600160a01b0319169184169190911790555b604080516001600160a01b0380861682528416602082015233918101919091527f9a996e61e46622216dcf6afd942a2c58023089cde9ed06bbf46ad67ec7814858906060015b60405180910390a1505050565b6001600160a01b03811660009081526020818152604080832033845260020190915290206003015460ff1661072c5760405162461bcd60e51b815260206004820152602e60248201527f796f7520646964206e6f742063726561746520616e7920616374696f6e20666f60448201526d1c881d1a1a5cc818dbdb9d195cdd60921b60648201526084016102a4565b6001600160a01b038116600090815260208190526040902060050154429081106107b15760405162461bcd60e51b815260206004820152603060248201527f566f746573206861766520737461727465642e596f752063616e6e6f7420646560448201526f3632ba32903a3434b99030b1ba34b7b760811b60648201526084016102a4565b6001600160a01b038216600090815260208181526040808320338452600201909152812080546107e090611c87565b80601f016020809104026020016040519081016040528092919081815260200182805461080c90611c87565b80156108595780601f1061082e57610100808354040283529160200191610859565b820191906000526020600020905b81548152906001019060200180831161083c57829003601f168201915b505050506001600160a01b03851660009081526020818152604080832033845260020190915281209293509050610890828261179f565b506000600182018190556002820155600301805460ff191690556040517e638117e2b363943932d75d6cf954be8104382508e43b19f271a6425be8325e9061069190859033908590611cc2565b6006546040516370a0823160e01b81523360048201526000916001600160a01b0316906370a0823190602401602060405180830381865afa158015610926573d6000803e3d6000fd5b505050506040513d601f19601f8201168201806040525081019061094a9190611cf7565b116109b25760405162461bcd60e51b815260206004820152603260248201527f796f75206e656564205975676f20676f7665726e616e636520746f6b656e20746044820152711bc818dc99585d1948184818dbdb9d195cdd60721b60648201526084016102a4565b3360009081526020819052604090206008015460ff1615610a245760405162461bcd60e51b815260206004820152602660248201527f4f7267616e69736174696f6e20616c72656164792063726561746564206120636044820152651bdb9d195cdd60d21b60648201526084016102a4565b336000908152602081815260409091208751610a42928901906117d9565b50336000908152602081815260409091208651610a679260039092019188019061185d565b50336000908152602081815260409091208551610a8c9260049092019187019061185d565b503360008181526020819052604090819020600581018690556006810185905560078101849055600801805460ff19166001179055517f98e26a339a5fc57fc1c56d81b9cc18fa5c1b2f45a4121ded1802183d3546744a91610af19189908590611d10565b60405180910390a1505050505050565b60606004805480602002602001604051908101604052809291908181526020016000905b82821015610bd1578382906000526020600020018054610b4490611c87565b80601f0160208091040260200160405190810160405280929190818152602001828054610b7090611c87565b8015610bbd5780601f10610b9257610100808354040283529160200191610bbd565b820191906000526020600020905b815481529060010190602001808311610ba057829003601f168201915b505050505081526020019060010190610b25565b50505050905090565b3360009081526001602081905260409091200154600160a01b900460ff1615610c455760405162461bcd60e51b815260206004820152601f60248201527f4f7267616e69736174696f6e20616c726561647920726567697374657265640060448201526064016102a4565b60008251118015610c54575060015b610caf5760405162461bcd60e51b815260206004820152602660248201527f596f75206d7573742070726f76696465207468656d617469637320616e6420636044820152656f756e74727960d01b60648201526084016102a4565b33600081815260016020818152604090922090810180546001600160a01b0319169093179092558351610ce8926003019185019061185d565b503360008181526001602081815260409283902060048101869055909101805460ff60a01b1916600160a01b17905590519182527f2178e9c576507a4c15d3deab489af3f699a3dedbff9a7ef27c43a017027710e591015b60405180910390a15050565b3360009081526001602081815260408084206001600160a01b03861685526002019091529091205460ff16151514610dd55760405162461bcd60e51b815260206004820152602660248201527f746865206164647265737320796f7520656e746572656420646f6573206e6f7460448201526508195e1a5cdd60d21b60648201526084016102a4565b3360008181526001602090815260408083206001600160a01b0386168085526002909101835292819020805460ff191690558051938452908301919091527f9721b4c70a74dd00691b5fd0589b9720d9be5657dfd6e1f8072cb7f26d7ce8a891015b60405180910390a150565b6001600160a01b0381166000908152602081905260409020600601544211610eac5760405162461bcd60e51b815260206004820152601b60248201527f566f74696e6720686173206e6f742066696e697368656420796574000000000060448201526064016102a4565b6001600160a01b03811660009081526020819052604081206009810180547f816521a78d4edee3cfe0a08714ff2fbbc26bbbd23f171325b3493f3f514f0bfc9385936002019183908290610f0257610f02611c71565b60009182526020808320909101546001600160a01b031683528201929092526040908101909120600101549051610e3793929190611d44565b60606005805480602002602001604051908101604052809291908181526020016000905b82821015610bd1578382906000526020600020018054610f7e90611c87565b80601f0160208091040260200160405190810160405280929190818152602001828054610faa90611c87565b8015610ff75780601f10610fcc57610100808354040283529160200191610ff7565b820191906000526020600020905b815481529060010190602001808311610fda57829003601f168201915b505050505081526020019060010190610f5f565b6001600160a01b038281166000908152600160208190526040909120015416331461108a5760405162461bcd60e51b815260206004820152602960248201527f596f7520617265206e6f7420746865206f776e6572206f6620746865206f726760448201526830b734bd30ba34b7b760b91b60648201526084016102a4565b6001600160a01b038083166000908152600160209081526040808320938516835260029093019052205460ff161561111e5760405162461bcd60e51b815260206004820152603160248201527f4164647265737320616c72656164792077686974656c697374656420666f72206044820152703a3434b99037b933b0b734bd30ba34b7b760791b60648201526084016102a4565b6001600160a01b0382811660008181526001602081815260408084209587168085526002909601825292839020805460ff191690921790915581519384528301919091527f6991bd45e0feec093b0c381c0561704fd19d427ded55100f5f6e1b4fe335c0829101610d40565b6006546040516370a0823160e01b81523360048201526000916001600160a01b0316906370a0823190602401602060405180830381865afa1580156111d3573d6000803e3d6000fd5b505050506040513d601f19601f820116820180604052508101906111f79190611cf7565b1161125f5760405162461bcd60e51b815260206004820152603260248201527f796f75206e656564205975676f20676f7665726e616e636520746f6b656e2074604482015271379031b932b0ba329030b71030b1ba34b7b760711b60648201526084016102a4565b6001600160a01b0383163314156112c75760405162461bcd60e51b815260206004820152602660248201527f436f6e746573742063726561746f722063616e6e6f742070726f706f736520616044820152656374696f6e7360d01b60648201526084016102a4565b6001600160a01b03831660009081526020819052604090206008015460ff166113475760405162461bcd60e51b815260206004820152602c60248201527f54686973206f7267616e697a6174696f6e20646f6573206e6f7420686176652060448201526b1bdc195b8818dbdb9d195cdd60a21b60648201526084016102a4565b6001600160a01b03831660009081526020818152604080832033845260020190915290206003015460ff16156113ca5760405162461bcd60e51b815260206004820152602260248201527f596f75206861766520616c7265616479206372656174656420616e206163746960448201526137b760f11b60648201526084016102a4565b6001600160a01b0383166000908152602081815260408083206004018054825181850281018501909352808352919290919083018282801561142b57602002820191906000526020600020905b815481526020019060010190808311611417575b5050336000908152600160205260408120600401549495509250829150505b835181101561148f578284828151811061146657611466611c71565b6020026020010151141561147d576001915061148f565b8061148781611dac565b91505061144a565b506001600160a01b038616600090815260208181526040808320600301805482518185028101850190935280835291929091908301828280156114f157602002820191906000526020600020905b8154815260200190600101908083116114dd575b50503360009081526001602090815260408083206003018054825181850281018501909352808352979850929690955091935090915083018282801561155657602002820191906000526020600020905b815481526020019060010190808311611542575b505050505090506000805b83518110156115de5760005b83518210156115cb5783818151811061158857611588611c71565b60200260200101518583815181106115a2576115a2611c71565b602002602001015114156115b957600192506115cb565b816115c381611dac565b92505061156d565b50806115d681611dac565b915050611561565b5060018415151461164d5760405162461bcd60e51b815260206004820152603360248201527f596f7520617265206e6f7420656c696769626c6520746f207061727469636970604482015272185d19481a5b881d1a1a5cc818dbdb9d195cdd606a1b60648201526084016102a4565b6001811515146116c55760405162461bcd60e51b815260206004820152603d60248201527f5468656d6573206f6620796f7572206f7267616e69736174696f6e206172652060448201527f6e6f7420656c696769626c6520666f72207468697320636f6e7465737400000060648201526084016102a4565b6001600160a01b038916600090815260208181526040808320338452600201825290912089516116f7928b01906117d9565b506001600160a01b038916600090815260208181526040808320338085526002918201909352928190209283018a90556003909201805460ff1916600117905590517fd3d45429f6c2339a23437577bd167085ad0b979da68a822a522a731bfb12041e9161176b918c91908c908c90611dc7565b60405180910390a1505050505050505050565b508054600082559060005260206000209081019061179c9190611897565b50565b5080546117ab90611c87565b6000825580601f106117bb575050565b601f01602090049060005260206000209081019061179c9190611897565b8280546117e590611c87565b90600052602060002090601f016020900481019282611807576000855561184d565b82601f1061182057805160ff191683800117855561184d565b8280016001018555821561184d579182015b8281111561184d578251825591602001919060010190611832565b50611859929150611897565b5090565b82805482825590600052602060002090810192821561184d579160200282018281111561184d578251825591602001919060010190611832565b5b808211156118595760008155600101611898565b80356001600160a01b03811681146118c357600080fd5b919050565b600080604083850312156118db57600080fd5b6118e4836118ac565b91506118f2602084016118ac565b90509250929050565b60006020828403121561190d57600080fd5b611916826118ac565b9392505050565b634e487b7160e01b600052604160045260246000fd5b604051601f8201601f1916810167ffffffffffffffff8111828210171561195c5761195c61191d565b604052919050565b600082601f83011261197557600080fd5b813567ffffffffffffffff81111561198f5761198f61191d565b6119a2601f8201601f1916602001611933565b8181528460208386010111156119b757600080fd5b816020850160208301376000918101602001919091529392505050565b600082601f8301126119e557600080fd5b8135602067ffffffffffffffff821115611a0157611a0161191d565b8160051b611a10828201611933565b9283528481018201928281019087851115611a2a57600080fd5b83870192505b84831015611a4957823582529183019190830190611a30565b979650505050505050565b60008060008060008060c08789031215611a6d57600080fd5b863567ffffffffffffffff80821115611a8557600080fd5b611a918a838b01611964565b97506020890135915080821115611aa757600080fd5b611ab38a838b016119d4565b96506040890135915080821115611ac957600080fd5b50611ad689828a016119d4565b945050606087013592506080870135915060a087013590509295509295509295565b6000815180845260005b81811015611b1e57602081850181015186830182015201611b02565b81811115611b30576000602083870101525b50601f01601f19169290920160200192915050565b6000602080830181845280855180835260408601915060408160051b870101925083870160005b82811015611b9a57603f19888603018452611b88858351611af8565b94509285019290850190600101611b6c565b5092979650505050505050565b60008060408385031215611bba57600080fd5b823567ffffffffffffffff811115611bd157600080fd5b611bdd858286016119d4565b95602094909401359450505050565b600080600060608486031215611c0157600080fd5b611c0a846118ac565b9250602084013567ffffffffffffffff811115611c2657600080fd5b611c3286828701611964565b925050604084013590509250925092565b634e487b7160e01b600052601160045260246000fd5b60008219821115611c6c57611c6c611c43565b500190565b634e487b7160e01b600052603260045260246000fd5b600181811c90821680611c9b57607f821691505b60208210811415611cbc57634e487b7160e01b600052602260045260246000fd5b50919050565b6001600160a01b03848116825283166020820152606060408201819052600090611cee90830184611af8565b95945050505050565b600060208284031215611d0957600080fd5b5051919050565b6001600160a01b0384168152606060208201819052600090611d3490830185611af8565b9050826040830152949350505050565b60006060820160018060a01b03808716845260206060818601528287548085526080870191508860005282600020945060005b81811015611d95578554851683526001958601959284019201611d77565b505080945050505050826040830152949350505050565b6000600019821415611dc057611dc0611c43565b5060010190565b6001600160a01b03858116825284166020820152608060408201819052600090611df390830185611af8565b90508260608301529594505050505056fea264697066735822122020817357926968251344d14ad46927312b67111aafc72000a46ec861497e195f64736f6c634300080b0033",
  "immutableReferences": {},
  "source": "// SPDX-License-Identifier: GPL-3.0\r\npragma solidity 0.8.11;\r\n\r\nimport \"./IYugo.sol\";\r\n\r\n/**  @title Smart Contract for the DAO\r\n*    @notice This Smart contract stores all vote history \r\n*/\r\ncontract YugoDao {\r\n\r\n    struct Organisation {\r\n        string name;\r\n        address ethAddress;\r\n        bool isRegistered;\r\n        mapping (address => bool) participants;\r\n        uint[] themes;\r\n        uint country;\r\n    }\r\n\r\n    struct Theme {\r\n        uint id;\r\n        string name;\r\n    }\r\n\r\n     struct Country {\r\n        uint id;\r\n        string name;\r\n    }\r\n\r\n    struct Action {\r\n        string name;\r\n        uint voteNumber;\r\n        uint requiredFunds;\r\n        bool isCreated;\r\n    }\r\n\r\n    /**\r\n    * @notice Contest\r\n    * @dev A participant can only create one action\r\n    */\r\n    struct Contest {\r\n        string name;\r\n        mapping(address => bool) hasVoted;\r\n        mapping(address => Action) actions;\r\n        uint[] themeIDs;\r\n        uint[] countryIDs;\r\n        uint applicationEndDate;\r\n        uint votingEndDate;\r\n        uint availableFunds;\r\n        bool isCreated;\r\n        address[] winningActionAddresses;\r\n    }\r\n\r\n    event OrganizationRegistered(address addressOrga);\r\n    event ParticipantWhitelisted(address addressParticipant, address addressOrganization); \r\n    event ParticipantRemoved(address addressOrga, address addressParticipant);\r\n    event ContestCreated(address addressOrga, string name, uint funds);\r\n    event ActionCreated(address addressContestCreator, address addressActionCreator, string actionName, uint requiredFunds);\r\n    event VoteTallied(address addressContestCreator, address[] addressActionCreator, uint nbVotes);\r\n    event HasVotedForAction(address addressContestCreator, address addressActionCreator, address voterAddress); \r\n    event ActionDeleted(address addressContestCreator, address addressActioncreator, string actionName);\r\n\r\n    mapping (address => Contest) contests;\r\n    mapping (address => Organisation) organisation;\r\n    mapping (uint => Country)  private countries;\r\n    mapping (uint => Theme)  private thematics;\r\n\r\n    string[] private themeList = [\r\n        \"education\",\r\n        \"trafficking\",\r\n        \"domestic violence\",\r\n        \"women's movement\",\r\n        \"campaigns\",\r\n        \"roma women\",\r\n        \"identity\",\r\n        \"lobbing\",\r\n        \"marginalized groups\",\r\n        \"sexual harassment\",\r\n        \"women's rights\"\r\n    ];\r\n\r\n     string[] private countryList = [\r\n        \"Serbia\",\r\n        \"Croatia\",\r\n        \"Montenegro\",\r\n        \"Bosnia and Hercegovina\",\r\n        \"Slovenia\",\r\n        \"Macedonia\"\r\n    ];\r\n\r\n    IYugo public yugo;\r\n\r\n    constructor(address _yugo) {\r\n        setThematics();\r\n        setCountries();\r\n        yugo = IYugo(_yugo);\r\n    }\r\n\r\n    \r\n\r\n    /**\r\n    * @dev Sender not authorized for this operation.\r\n    */\r\n    error Unauthorized();\r\n\r\n   /**\r\n    * @notice Modifier \r\n    * @dev Check if _account not equals sender then revert \r\n    */\r\n    modifier onlyBy(address _account)\r\n    {\r\n        if (msg.sender != _account)\r\n            revert Unauthorized();\r\n        _;\r\n    }\r\n\r\n    /**\r\n    * @notice Populate thematics array\r\n    * @dev FOR TESTING : Only used in the controller, to initialise the thematics array. Should implement addThematics() so that the thematics are not fixed.\r\n    */\r\n    function setThematics() private {\r\n        uint numThemes = themeList.length;\r\n        for (uint i=0; i < numThemes-1; i++) {\r\n            Theme memory theme;\r\n            theme.id = i;\r\n            theme.name = themeList[i];\r\n            thematics[i] = theme;\r\n        }\r\n    }\r\n\r\n    /**\r\n    * @notice Populate thematics array\r\n    * @dev Only used in the controller, to initialise the countries array.\r\n    */\r\n    function setCountries() private {\r\n        uint numCountries = countryList.length;\r\n        for (uint i=0; i < numCountries-1; i++) {\r\n            Country memory country;\r\n            country.id = i;\r\n            country.name = countryList[i];\r\n            countries[i] = country;\r\n        }\r\n    }\r\n\r\n    /**\r\n    * @notice Return the list of thematics\r\n    * @return themeList List of thematics\r\n    */\r\n    function getThematics() public view returns(string[] memory) {        \r\n        return themeList;\r\n    }\r\n\r\n    /**\r\n    * @notice Return the list of countries\r\n    * @return countryList List of countries\r\n    */\r\n    function getCountries() public view returns(string[] memory) {        \r\n        return countryList;\r\n    }\r\n    \r\n    /**\r\n    * @notice Registers an Organisation\r\n    * @dev Creates a mapping for the sender in organisation\r\n    * @dev Emit OrganizationRegistered event\r\n    * @param thematicIds List of thematics id\r\n    * @param countryId Country id\r\n    * \r\n    */\r\n     function registerOrganisation(uint[] memory thematicIds, uint countryId) external {\r\n        require(!organisation[msg.sender].isRegistered, 'Organisation already registered');\r\n        require(thematicIds.length > 0 && countryId >= 0, 'You must provide thematics and country');\r\n        organisation[msg.sender].ethAddress = msg.sender;\r\n        organisation[msg.sender].themes = thematicIds;\r\n        organisation[msg.sender].country = countryId;\r\n        organisation[msg.sender].isRegistered = true;\r\n        emit OrganizationRegistered(msg.sender);\r\n    }\r\n\r\n    /**\r\n    * @notice Returns if organisation is registered\r\n    * @param _orga Address of organisation\r\n    * @return State of isRegistered, true if organisation is registered\r\n    */\r\n    function organisationRegistrationStatus(address _orga) public view returns(bool) {\r\n        return organisation[_orga].isRegistered;\r\n    }\r\n    \r\n    /**\r\n    * @notice Returns true if the participant is whitelisted\r\n    * @dev Can be called either by an organisation or a participant\r\n    * @param _addrOrganisation  Organisation's address\r\n    * @param _addrParticipant  Participant's address\r\n    * @return True if the address exists, false if not\r\n     */\r\n    function participantIsWhiteListed(address _addrOrganisation, address _addrParticipant) external view returns(bool) {\r\n        return organisation[_addrOrganisation].participants[_addrParticipant];\r\n    }\r\n\r\n    /**\r\n    * @notice allows the organisation (msg.sender) to delete a member from its whitelist\r\n    * @dev Emit ParticipantRemoved event\r\n    * @param _addrToDelete  the ethAddress of the participant to be deleted \r\n    */\r\n    function removeFromWhitelist(address _addrToDelete) external {\r\n        require(organisation[msg.sender].participants[_addrToDelete]==true, 'the address you entered does not exist');\r\n        delete organisation[msg.sender].participants[_addrToDelete];\r\n        emit ParticipantRemoved(msg.sender, _addrToDelete);\r\n    }\r\n\r\n    /**\r\n    * @notice Adds a particapants to a organisation\r\n    * @dev Emit ParticipantWhitelisted event\r\n    * @param _addrOrga address of organisation\r\n    * @param _addrParticipant address of particapant \r\n    */\r\n    function addParticipant(address _addrOrga, address _addrParticipant ) external {\r\n        //TODO: verify with oracle _addrParticipant is not an organisation address\r\n        require(organisation[_addrOrga].ethAddress == msg.sender, 'You are not the owner of the organization');\r\n        require(!organisation[_addrOrga].participants[_addrParticipant], 'Address already whitelisted for this organization');\r\n        organisation[_addrOrga].participants[_addrParticipant] = true;\r\n        emit ParticipantWhitelisted(_addrParticipant, _addrOrga);\r\n    }\r\n\r\n    /**\r\n    * @notice Add a contest\r\n    * @dev Emit ContestCreated event\r\n    * @param _name Name of the contest\r\n    * @param _themeIds List of thematics IDs\r\n    * @param _eligibleCountryIds List of country IDs\r\n    * @param _applicationEndDate End Date of application period \r\n    * @param _votingEndDate End Date of voting period \r\n    * @param _funds Value of funds \r\n    */\r\n    function addContest(string memory _name, uint[] memory _themeIds, uint[] memory _eligibleCountryIds, uint _applicationEndDate, uint _votingEndDate, uint _funds) external {\r\n        require(yugo.balanceOf(msg.sender) > 0, \"you need Yugo governance token to create a contest\");\r\n        require(!contests[msg.sender].isCreated, 'Organisation already created a contest');\r\n        contests[msg.sender].name = _name;\r\n        contests[msg.sender].themeIDs = _themeIds;\r\n        contests[msg.sender].countryIDs = _eligibleCountryIds;\r\n        contests[msg.sender].applicationEndDate = _applicationEndDate;\r\n        contests[msg.sender].votingEndDate = _votingEndDate;\r\n        contests[msg.sender].availableFunds = _funds;\r\n        contests[msg.sender].isCreated = true;\r\n        emit ContestCreated(msg.sender, _name, _funds);\r\n    }\r\n\r\n\r\n    /**\r\n    * @notice Creates an action\r\n    * @dev Emit ActionCreated event\r\n    * @param _creatorOfContest Address of creator \r\n    * @param _name Name of Action\r\n    * @param _requiredFunds Value of funds\r\n    */\r\n    function createAction(address _creatorOfContest, string memory _name, uint _requiredFunds) external {\r\n        require(yugo.balanceOf(msg.sender) > 0, \"you need Yugo governance token to create an action\");\r\n        require(_creatorOfContest != msg.sender, 'Contest creator cannot propose actions');\r\n        require(contests[_creatorOfContest].isCreated, 'This organization does not have open contest');\r\n        require(!contests[_creatorOfContest].actions[msg.sender].isCreated, 'You have already created an action');\r\n        //Verify if action creator country is eligible to participate\r\n        uint[] memory eligibleCountries = contests[_creatorOfContest].countryIDs;\r\n        uint orgaCountry = organisation[msg.sender].country;\r\n        bool countryFound=false;\r\n        for (uint i=0; i<eligibleCountries.length; i++) {\r\n            if(eligibleCountries[i]==orgaCountry){\r\n                countryFound=true;\r\n                break;\r\n            }\r\n        }\r\n        //Verify at least one theme from the orga wanting to create an action is in the contest themes \r\n        uint[] memory eligibleThemes = contests[_creatorOfContest].themeIDs;\r\n        uint[] memory orgaThemes = organisation[msg.sender].themes;\r\n        bool themeFound=false;\r\n        for (uint i=0; i<eligibleThemes.length; i++) {\r\n            for (uint j=0; i<orgaThemes.length; i++) {\r\n                if(eligibleThemes[i]==orgaThemes[j]){\r\n                    themeFound=true;\r\n                    break;\r\n                }\r\n            }\r\n        }\r\n        require(countryFound == true, \"You are not eligible to participate in this contest\");\r\n        require(themeFound == true, \"Themes of your organisation are not eligible for this contest\");\r\n        contests[_creatorOfContest].actions[msg.sender].name = _name;\r\n        contests[_creatorOfContest].actions[msg.sender].requiredFunds = _requiredFunds;\r\n        contests[_creatorOfContest].actions[msg.sender].isCreated = true;\r\n        emit ActionCreated(_creatorOfContest, msg.sender, _name, _requiredFunds);\r\n    }\r\n\r\n    /**\r\n    * @notice Deletes an action\r\n    * @dev Emit ActionCreated event\r\n    * @dev requires the msg.sender to be the action's owner\r\n    * @dev can only be deleted before the application end date\r\n    * @param _creatorOfContest Address of creator \r\n    */\r\n    function deleteActions(address _creatorOfContest) external {\r\n        //TODO: needs more testing\r\n        require(contests[_creatorOfContest].actions[msg.sender].isCreated, 'you did not create any action for this contest');\r\n        uint currentTime = block.timestamp;\r\n        require(currentTime < contests[_creatorOfContest].applicationEndDate, 'Votes have started.You cannot delete this action');\r\n        string memory actionName = contests[_creatorOfContest].actions[msg.sender].name;\r\n        delete contests[_creatorOfContest].actions[msg.sender];\r\n        emit ActionDeleted(_creatorOfContest, msg.sender, actionName);\r\n    }\r\n\r\n    /**\r\n    * @notice Vote for a Action\r\n    * @dev At each vote, we compare voteNumber of the winning Action with newly voted one. If tie, then push in array\r\n    * @dev Emit HasVotedForAction event\r\n    * @param _creatorOfContest Address of Contest creator \r\n    * @param _actionCreator Address of Action creator\r\n    */\r\n    function voteForAction(address _creatorOfContest, address _actionCreator) external {\r\n        uint currentTime = block.timestamp;\r\n        require(currentTime >= contests[_creatorOfContest].applicationEndDate, 'Voting has not started');\r\n        require(currentTime < contests[_creatorOfContest].votingEndDate, 'Voting is closed');\r\n        require(msg.sender != _creatorOfContest && msg.sender != _actionCreator, 'You can not vote for this action');\r\n        require(!contests[_creatorOfContest].hasVoted[msg.sender], 'You have already voted');\r\n        \r\n        \r\n        contests[_creatorOfContest].actions[_actionCreator].voteNumber += 1;\r\n        contests[_creatorOfContest].hasVoted[msg.sender] = true;\r\n\r\n        if(contests[_creatorOfContest].winningActionAddresses.length == 0){\r\n            contests[_creatorOfContest].winningActionAddresses.push(_actionCreator);\r\n        }else if(contests[_creatorOfContest].actions[contests[_creatorOfContest].winningActionAddresses[0]].voteNumber < contests[_creatorOfContest].actions[_actionCreator].voteNumber){\r\n            delete contests[_creatorOfContest].winningActionAddresses;\r\n            contests[_creatorOfContest].winningActionAddresses.push(_actionCreator);\r\n        }else if(contests[_creatorOfContest].actions[contests[_creatorOfContest].winningActionAddresses[0]].voteNumber == contests[_creatorOfContest].actions[_actionCreator].voteNumber){\r\n            contests[_creatorOfContest].winningActionAddresses.push(_actionCreator);\r\n        }\r\n\r\n        emit HasVotedForAction(_creatorOfContest, _actionCreator, msg.sender);\r\n    }\r\n    \r\n\r\n    /**\r\n    * @notice Tally the vote\r\n    * @dev Emit VoteTallied event\r\n    * @param _creatorOfContest Address of Contest creator \r\n    */\r\n    function tallyVote(address _creatorOfContest) external {\r\n        // TODO: tallying votes with time counter / controller / check only callable from manager\r\n        //TODO needs more testing\r\n        require(block.timestamp > contests[_creatorOfContest].votingEndDate, \"Voting has not finished yet\");\r\n\r\n        emit VoteTallied(_creatorOfContest, contests[_creatorOfContest].winningActionAddresses, contests[_creatorOfContest].actions[contests[_creatorOfContest].winningActionAddresses[0]].voteNumber);\r\n    }\r\n\r\n\r\n    //TODO: pool of liquidity from contest's creator\r\n\r\n\r\n\r\n}   ",
  "sourcePath": "F:\\workspace\\alyra\\yugo\\YU-GO\\Truffle\\contracts\\YugoDao.sol",
  "compiler": {
    "name": "solc",
    "version": "0.8.11+commit.d7f03943.Emscripten.clang"
  },
  "schemaVersion": "3.4.3",
  "updatedAt": "2022-01-12T16:09:38.878Z",
  "networkType": "ethereum",
  "devdoc": {
    "errors": {
      "Unauthorized()": [
        {
          "details": "Sender not authorized for this operation."
        }
      ]
    },
    "kind": "dev",
    "methods": {
      "addContest(string,uint256[],uint256[],uint256,uint256,uint256)": {
        "details": "Emit ContestCreated event",
        "params": {
          "_applicationEndDate": "End Date of application period ",
          "_eligibleCountryIds": "List of country IDs",
          "_funds": "Value of funds ",
          "_name": "Name of the contest",
          "_themeIds": "List of thematics IDs",
          "_votingEndDate": "End Date of voting period "
        }
      },
      "addParticipant(address,address)": {
        "details": "Emit ParticipantWhitelisted event",
        "params": {
          "_addrOrga": "address of organisation",
          "_addrParticipant": "address of particapant "
        }
      },
      "createAction(address,string,uint256)": {
        "details": "Emit ActionCreated event",
        "params": {
          "_creatorOfContest": "Address of creator ",
          "_name": "Name of Action",
          "_requiredFunds": "Value of funds"
        }
      },
      "deleteActions(address)": {
        "details": "Emit ActionCreated eventrequires the msg.sender to be the action's ownercan only be deleted before the application end date",
        "params": {
          "_creatorOfContest": "Address of creator "
        }
      },
      "getCountries()": {
        "returns": {
          "_0": "countryList List of countries"
        }
      },
      "getThematics()": {
        "returns": {
          "_0": "themeList List of thematics"
        }
      },
      "organisationRegistrationStatus(address)": {
        "params": {
          "_orga": "Address of organisation"
        },
        "returns": {
          "_0": "State of isRegistered, true if organisation is registered"
        }
      },
      "participantIsWhiteListed(address,address)": {
        "details": "Can be called either by an organisation or a participant",
        "params": {
          "_addrOrganisation": "Organisation's address",
          "_addrParticipant": "Participant's address"
        },
        "returns": {
          "_0": "True if the address exists, false if not"
        }
      },
      "registerOrganisation(uint256[],uint256)": {
        "details": "Creates a mapping for the sender in organisationEmit OrganizationRegistered event",
        "params": {
          "countryId": "Country id ",
          "thematicIds": "List of thematics id"
        }
      },
      "removeFromWhitelist(address)": {
        "details": "Emit ParticipantRemoved event",
        "params": {
          "_addrToDelete": "the ethAddress of the participant to be deleted "
        }
      },
      "tallyVote(address)": {
        "details": "Emit VoteTallied event",
        "params": {
          "_creatorOfContest": "Address of Contest creator "
        }
      },
      "voteForAction(address,address)": {
        "details": "At each vote, we compare voteNumber of the winning Action with newly voted one. If tie, then push in arrayEmit HasVotedForAction event",
        "params": {
          "_actionCreator": "Address of Action creator",
          "_creatorOfContest": "Address of Contest creator "
        }
      }
    },
    "title": "Smart Contract for the DAO",
    "version": 1
  },
  "userdoc": {
    "kind": "user",
    "methods": {
      "addContest(string,uint256[],uint256[],uint256,uint256,uint256)": {
        "notice": "Add a contest"
      },
      "addParticipant(address,address)": {
        "notice": "Adds a particapants to a organisation"
      },
      "createAction(address,string,uint256)": {
        "notice": "Creates an action"
      },
      "deleteActions(address)": {
        "notice": "Deletes an action"
      },
      "getCountries()": {
        "notice": "Return the list of countries"
      },
      "getThematics()": {
        "notice": "Return the list of thematics"
      },
      "organisationRegistrationStatus(address)": {
        "notice": "Returns if organisation is registered"
      },
      "participantIsWhiteListed(address,address)": {
        "notice": "Returns true if the participant is whitelisted"
      },
      "registerOrganisation(uint256[],uint256)": {
        "notice": "Registers an Organisation"
      },
      "removeFromWhitelist(address)": {
        "notice": "allows the organisation (msg.sender) to delete a member from its whitelist"
      },
      "tallyVote(address)": {
        "notice": "Tally the vote"
      },
      "voteForAction(address,address)": {
        "notice": "Vote for a Action"
      }
    },
    "notice": "This Smart contract stores all vote history ",
    "version": 1
  }
}