{
  "contractName": "Main",
  "abi": [
    {
      "inputs": [],
      "stateMutability": "nonpayable",
      "type": "constructor"
    },
    {
      "inputs": [],
      "name": "Unauthorized",
      "type": "error"
    },
    {
      "anonymous": false,
      "inputs": [
        {
          "indexed": false,
          "internalType": "address",
          "name": "addressContestCreator",
          "type": "address"
        },
        {
          "indexed": false,
          "internalType": "address",
          "name": "addressActionCreator",
          "type": "address"
        },
        {
          "indexed": false,
          "internalType": "string",
          "name": "actionName",
          "type": "string"
        },
        {
          "indexed": false,
          "internalType": "uint256",
          "name": "requiredFunds",
          "type": "uint256"
        }
      ],
      "name": "ActionCreated",
      "type": "event"
    },
    {
      "anonymous": false,
      "inputs": [
        {
          "indexed": false,
          "internalType": "address",
          "name": "addressOrga",
          "type": "address"
        },
        {
          "indexed": false,
          "internalType": "string",
          "name": "name",
          "type": "string"
        },
        {
          "indexed": false,
          "internalType": "uint256",
          "name": "funds",
          "type": "uint256"
        }
      ],
      "name": "ContestCreated",
      "type": "event"
    },
    {
      "anonymous": false,
      "inputs": [
        {
          "indexed": false,
          "internalType": "address",
          "name": "addressContestCreator",
          "type": "address"
        },
        {
          "indexed": false,
          "internalType": "address",
          "name": "addressActionCreator",
          "type": "address"
        },
        {
          "indexed": false,
          "internalType": "address",
          "name": "voterAddress",
          "type": "address"
        }
      ],
      "name": "HasVotedForAction",
      "type": "event"
    },
    {
      "anonymous": false,
      "inputs": [
        {
          "indexed": false,
          "internalType": "address",
          "name": "addressOrga",
          "type": "address"
        }
      ],
      "name": "OrganizationRegistered",
      "type": "event"
    },
    {
      "anonymous": false,
      "inputs": [
        {
          "indexed": false,
          "internalType": "address",
          "name": "addressOrga",
          "type": "address"
        },
        {
          "indexed": false,
          "internalType": "address",
          "name": "addressParticipant",
          "type": "address"
        }
      ],
      "name": "ParticipantRemoved",
      "type": "event"
    },
    {
      "anonymous": false,
      "inputs": [
        {
          "indexed": false,
          "internalType": "address",
          "name": "addressParticipant",
          "type": "address"
        },
        {
          "indexed": false,
          "internalType": "address",
          "name": "addressOrganization",
          "type": "address"
        }
      ],
      "name": "ParticipantWhitelisted",
      "type": "event"
    },
    {
      "anonymous": false,
      "inputs": [
        {
          "indexed": false,
          "internalType": "address",
          "name": "addressContestCreator",
          "type": "address"
        },
        {
          "indexed": false,
          "internalType": "address[]",
          "name": "addressActionCreator",
          "type": "address[]"
        },
        {
          "indexed": false,
          "internalType": "uint256",
          "name": "nbVotes",
          "type": "uint256"
        }
      ],
      "name": "VoteTallied",
      "type": "event"
    },
    {
      "inputs": [],
      "name": "getThematics",
      "outputs": [
        {
          "internalType": "string[]",
          "name": "",
          "type": "string[]"
        }
      ],
      "stateMutability": "view",
      "type": "function"
    },
    {
      "inputs": [],
      "name": "getCountries",
      "outputs": [
        {
          "internalType": "string[]",
          "name": "",
          "type": "string[]"
        }
      ],
      "stateMutability": "view",
      "type": "function"
    },
    {
      "inputs": [
        {
          "internalType": "uint256[]",
          "name": "thematicIds",
          "type": "uint256[]"
        },
        {
          "internalType": "uint256",
          "name": "countryId",
          "type": "uint256"
        }
      ],
      "name": "registerOrganisation",
      "outputs": [],
      "stateMutability": "nonpayable",
      "type": "function"
    },
    {
      "inputs": [
        {
          "internalType": "address",
          "name": "_addrOrganisation",
          "type": "address"
        },
        {
          "internalType": "address",
          "name": "_addrParticipant",
          "type": "address"
        }
      ],
      "name": "participantIsWhiteListed",
      "outputs": [
        {
          "internalType": "bool",
          "name": "",
          "type": "bool"
        }
      ],
      "stateMutability": "view",
      "type": "function"
    },
    {
      "inputs": [
        {
          "internalType": "address",
          "name": "_addrToDelete",
          "type": "address"
        }
      ],
      "name": "removeFromWhitelist",
      "outputs": [],
      "stateMutability": "nonpayable",
      "type": "function"
    },
    {
      "inputs": [
        {
          "internalType": "address",
          "name": "_addrOrga",
          "type": "address"
        },
        {
          "internalType": "address",
          "name": "_addrParticipant",
          "type": "address"
        }
      ],
      "name": "addParticipant",
      "outputs": [],
      "stateMutability": "nonpayable",
      "type": "function"
    },
    {
      "inputs": [
        {
          "internalType": "string",
          "name": "_name",
          "type": "string"
        },
        {
          "internalType": "uint256[]",
          "name": "_themeIds",
          "type": "uint256[]"
        },
        {
          "internalType": "uint256[]",
          "name": "_eligibleCountryIds",
          "type": "uint256[]"
        },
        {
          "internalType": "uint256",
          "name": "_applicationEndDate",
          "type": "uint256"
        },
        {
          "internalType": "uint256",
          "name": "_votingEndDate",
          "type": "uint256"
        },
        {
          "internalType": "uint256",
          "name": "_funds",
          "type": "uint256"
        }
      ],
      "name": "addContest",
      "outputs": [],
      "stateMutability": "nonpayable",
      "type": "function"
    },
    {
      "inputs": [
        {
          "internalType": "address",
          "name": "_creatorOfContest",
          "type": "address"
        },
        {
          "internalType": "string",
          "name": "_name",
          "type": "string"
        },
        {
          "internalType": "uint256",
          "name": "_requiredFunds",
          "type": "uint256"
        }
      ],
      "name": "createAction",
      "outputs": [],
      "stateMutability": "nonpayable",
      "type": "function"
    },
    {
      "inputs": [
        {
          "internalType": "address",
          "name": "_contestCreator",
          "type": "address"
        },
        {
          "internalType": "address",
          "name": "_actionCreator",
          "type": "address"
        }
      ],
      "name": "voteForAction",
      "outputs": [],
      "stateMutability": "nonpayable",
      "type": "function"
    },
    {
      "inputs": [
        {
          "internalType": "address",
          "name": "_contestCreator",
          "type": "address"
        }
      ],
      "name": "tallyVote",
      "outputs": [],
      "stateMutability": "nonpayable",
      "type": "function"
    }
  ],
  "bytecode": "0x60806040526040518061016001604052806040518060400160405280600981526020017f656475636174696f6e000000000000000000000000000000000000000000000081525081526020016040518060400160405280600b81526020017f747261666669636b696e6700000000000000000000000000000000000000000081525081526020016040518060400160405280601181526020017f646f6d65737469632076696f6c656e636500000000000000000000000000000081525081526020016040518060400160405280601081526020017f776f6d656e2773206d6f76656d656e740000000000000000000000000000000081525081526020016040518060400160405280600981526020017f63616d706169676e73000000000000000000000000000000000000000000000081525081526020016040518060400160405280600a81526020017f726f6d6120776f6d656e0000000000000000000000000000000000000000000081525081526020016040518060400160405280600881526020017f6964656e7469747900000000000000000000000000000000000000000000000081525081526020016040518060400160405280600781526020017f6c6f6262696e670000000000000000000000000000000000000000000000000081525081526020016040518060400160405280601381526020017f6d617267696e616c697a65642067726f7570730000000000000000000000000081525081526020016040518060400160405280601181526020017f73657875616c206861726173736d656e7400000000000000000000000000000081525081526020016040518060400160405280600e81526020017f776f6d656e277320726967687473000000000000000000000000000000000000815250815250600490600b620002a9929190620006f6565b506040518060c001604052806040518060400160405280600681526020017f536572626961000000000000000000000000000000000000000000000000000081525081526020016040518060400160405280600781526020017f43726f617469610000000000000000000000000000000000000000000000000081525081526020016040518060400160405280600a81526020017f4d6f6e74656e6567726f0000000000000000000000000000000000000000000081525081526020016040518060400160405280601681526020017f426f736e696120616e64204865726365676f76696e610000000000000000000081525081526020016040518060400160405280600881526020017f536c6f76656e696100000000000000000000000000000000000000000000000081525081526020016040518060400160405280600981526020017f4d616365646f6e696100000000000000000000000000000000000000000000008152508152506005906006620004279291906200075d565b503480156200043557600080fd5b50620004466200045c60201b60201c565b62000456620005a960201b60201c565b62000a6c565b6000600480549050905060005b6001826200047891906200094f565b811015620005a5576200048a620007c4565b8181600001818152505060048281548110620004ab57620004aa6200098a565b5b906000526020600020018054620004c290620009e8565b80601f0160208091040260200160405190810160405280929190818152602001828054620004f090620009e8565b8015620005415780601f10620005155761010080835404028352916020019162000541565b820191906000526020600020905b8154815290600101906020018083116200052357829003601f168201915b5050505050816020018190525080600360008481526020019081526020016000206000820151816000015560208201518160010190805190602001906200058a929190620007de565b509050505080806200059c9062000a1e565b91505062000469565b5050565b6000600580549050905060005b600182620005c591906200094f565b811015620006f257620005d76200086f565b8181600001818152505060058281548110620005f857620005f76200098a565b5b9060005260206000200180546200060f90620009e8565b80601f01602080910402602001604051908101604052809291908181526020018280546200063d90620009e8565b80156200068e5780601f1062000662576101008083540402835291602001916200068e565b820191906000526020600020905b8154815290600101906020018083116200067057829003601f168201915b505050505081602001819052508060026000848152602001908152602001600020600082015181600001556020820151816001019080519060200190620006d7929190620007de565b50905050508080620006e99062000a1e565b915050620005b6565b5050565b8280548282559060005260206000209081019282156200074a579160200282015b828111156200074957825182908051906020019062000738929190620007de565b509160200191906001019062000717565b5b50905062000759919062000889565b5090565b828054828255906000526020600020908101928215620007b1579160200282015b82811115620007b05782518290805190602001906200079f929190620007de565b50916020019190600101906200077e565b5b509050620007c0919062000889565b5090565b604051806040016040528060008152602001606081525090565b828054620007ec90620009e8565b90600052602060002090601f0160209004810192826200081057600085556200085c565b82601f106200082b57805160ff19168380011785556200085c565b828001600101855582156200085c579182015b828111156200085b5782518255916020019190600101906200083e565b5b5090506200086b9190620008b1565b5090565b604051806040016040528060008152602001606081525090565b5b80821115620008ad5760008181620008a39190620008d0565b506001016200088a565b5090565b5b80821115620008cc576000816000905550600101620008b2565b5090565b508054620008de90620009e8565b6000825580601f10620008f2575062000913565b601f016020900490600052602060002090810190620009129190620008b1565b5b50565b6000819050919050565b7f4e487b7100000000000000000000000000000000000000000000000000000000600052601160045260246000fd5b60006200095c8262000916565b9150620009698362000916565b9250828210156200097f576200097e62000920565b5b828203905092915050565b7f4e487b7100000000000000000000000000000000000000000000000000000000600052603260045260246000fd5b7f4e487b7100000000000000000000000000000000000000000000000000000000600052602260045260246000fd5b6000600282049050600182168062000a0157607f821691505b6020821081141562000a185762000a17620009b9565b5b50919050565b600062000a2b8262000916565b91507fffffffffffffffffffffffffffffffffffffffffffffffffffffffffffffffff82141562000a615762000a6062000920565b5b600182019050919050565b612d418062000a7c6000396000f3fe608060405234801561001057600080fd5b506004361061009e5760003560e01c80639aa7ca42116100665780639aa7ca4214610131578063beca80091461014d578063d35ada321461016b578063d67091c714610187578063eb0934df146101a35761009e565b80631426f78f146100a35780632db2c04f146100bf5780636bf9fe17146100db57806381530e47146100f95780638ab1d68114610115575b600080fd5b6100bd60048036038101906100b89190611d34565b6101d3565b005b6100d960048036038101906100d49190611fb8565b610ad2565b005b6100e3610dd2565b6040516100f091906121e3565b60405180910390f35b610113600480360381019061010e9190612205565b610eab565b005b61012f600480360381019061012a9190612261565b611177565b005b61014b60048036038101906101469190612261565b611315565b005b610155611515565b60405161016291906121e3565b60405180910390f35b61018560048036038101906101809190611d34565b6115ee565b005b6101a1600480360381019061019c919061228e565b61185f565b005b6101bd60048036038101906101b89190611d34565b611b1a565b6040516101ca9190612318565b60405180910390f35b8173ffffffffffffffffffffffffffffffffffffffff163373ffffffffffffffffffffffffffffffffffffffff161415801561023b57508073ffffffffffffffffffffffffffffffffffffffff163373ffffffffffffffffffffffffffffffffffffffff1614155b61027a576040517f08c379a000000000000000000000000000000000000000000000000000000000815260040161027190612390565b60405180910390fd5b6000808373ffffffffffffffffffffffffffffffffffffffff1673ffffffffffffffffffffffffffffffffffffffff16815260200190815260200160002060010160008273ffffffffffffffffffffffffffffffffffffffff1673ffffffffffffffffffffffffffffffffffffffff16815260200190815260200160002060020160003373ffffffffffffffffffffffffffffffffffffffff1673ffffffffffffffffffffffffffffffffffffffff16815260200190815260200160002060009054906101000a900460ff1615610386576040517f08c379a000000000000000000000000000000000000000000000000000000000815260040161037d906123fc565b60405180910390fd5b60016000808473ffffffffffffffffffffffffffffffffffffffff1673ffffffffffffffffffffffffffffffffffffffff16815260200190815260200160002060010160008373ffffffffffffffffffffffffffffffffffffffff1673ffffffffffffffffffffffffffffffffffffffff1681526020019081526020016000206001016000828254610418919061244b565b9250508190555060016000808473ffffffffffffffffffffffffffffffffffffffff1673ffffffffffffffffffffffffffffffffffffffff16815260200190815260200160002060010160008373ffffffffffffffffffffffffffffffffffffffff1673ffffffffffffffffffffffffffffffffffffffff16815260200190815260200160002060020160003373ffffffffffffffffffffffffffffffffffffffff1673ffffffffffffffffffffffffffffffffffffffff16815260200190815260200160002060006101000a81548160ff02191690831515021790555060008060008473ffffffffffffffffffffffffffffffffffffffff1673ffffffffffffffffffffffffffffffffffffffff1681526020019081526020016000206008018054905014156105ea576000808373ffffffffffffffffffffffffffffffffffffffff1673ffffffffffffffffffffffffffffffffffffffff168152602001908152602001600020600801819080600181540180825580915050600190039060005260206000200160009091909190916101000a81548173ffffffffffffffffffffffffffffffffffffffff021916908373ffffffffffffffffffffffffffffffffffffffff160217905550610a93565b6000808373ffffffffffffffffffffffffffffffffffffffff1673ffffffffffffffffffffffffffffffffffffffff16815260200190815260200160002060010160008273ffffffffffffffffffffffffffffffffffffffff1673ffffffffffffffffffffffffffffffffffffffff168152602001908152602001600020600101546000808473ffffffffffffffffffffffffffffffffffffffff1673ffffffffffffffffffffffffffffffffffffffff16815260200190815260200160002060010160008060008673ffffffffffffffffffffffffffffffffffffffff1673ffffffffffffffffffffffffffffffffffffffff168152602001908152602001600020600801600081548110610703576107026124a1565b5b9060005260206000200160009054906101000a900473ffffffffffffffffffffffffffffffffffffffff1673ffffffffffffffffffffffffffffffffffffffff1673ffffffffffffffffffffffffffffffffffffffff168152602001908152602001600020600101541015610866576000808373ffffffffffffffffffffffffffffffffffffffff1673ffffffffffffffffffffffffffffffffffffffff16815260200190815260200160002060080160006107bf9190611bb1565b6000808373ffffffffffffffffffffffffffffffffffffffff1673ffffffffffffffffffffffffffffffffffffffff168152602001908152602001600020600801819080600181540180825580915050600190039060005260206000200160009091909190916101000a81548173ffffffffffffffffffffffffffffffffffffffff021916908373ffffffffffffffffffffffffffffffffffffffff160217905550610a92565b6000808373ffffffffffffffffffffffffffffffffffffffff1673ffffffffffffffffffffffffffffffffffffffff16815260200190815260200160002060010160008273ffffffffffffffffffffffffffffffffffffffff1673ffffffffffffffffffffffffffffffffffffffff168152602001908152602001600020600101546000808473ffffffffffffffffffffffffffffffffffffffff1673ffffffffffffffffffffffffffffffffffffffff16815260200190815260200160002060010160008060008673ffffffffffffffffffffffffffffffffffffffff1673ffffffffffffffffffffffffffffffffffffffff16815260200190815260200160002060080160008154811061097f5761097e6124a1565b5b9060005260206000200160009054906101000a900473ffffffffffffffffffffffffffffffffffffffff1673ffffffffffffffffffffffffffffffffffffffff1673ffffffffffffffffffffffffffffffffffffffff168152602001908152602001600020600101541415610a91576000808373ffffffffffffffffffffffffffffffffffffffff1673ffffffffffffffffffffffffffffffffffffffff168152602001908152602001600020600801819080600181540180825580915050600190039060005260206000200160009091909190916101000a81548173ffffffffffffffffffffffffffffffffffffffff021916908373ffffffffffffffffffffffffffffffffffffffff1602179055505b5b5b7f9a996e61e46622216dcf6afd942a2c58023089cde9ed06bbf46ad67ec7814858828233604051610ac6939291906124df565b60405180910390a15050565b6000803373ffffffffffffffffffffffffffffffffffffffff1673ffffffffffffffffffffffffffffffffffffffff16815260200190815260200160002060070160009054906101000a900460ff1615610b61576040517f08c379a0000000000000000000000000000000000000000000000000000000008152600401610b5890612588565b60405180910390fd5b856000803373ffffffffffffffffffffffffffffffffffffffff1673ffffffffffffffffffffffffffffffffffffffff1681526020019081526020016000206000019080519060200190610bb6929190611bd2565b50846000803373ffffffffffffffffffffffffffffffffffffffff1673ffffffffffffffffffffffffffffffffffffffff1681526020019081526020016000206002019080519060200190610c0c929190611c58565b50836000803373ffffffffffffffffffffffffffffffffffffffff1673ffffffffffffffffffffffffffffffffffffffff1681526020019081526020016000206003019080519060200190610c62929190611c58565b50826000803373ffffffffffffffffffffffffffffffffffffffff1673ffffffffffffffffffffffffffffffffffffffff16815260200190815260200160002060040181905550816000803373ffffffffffffffffffffffffffffffffffffffff1673ffffffffffffffffffffffffffffffffffffffff16815260200190815260200160002060050181905550806000803373ffffffffffffffffffffffffffffffffffffffff1673ffffffffffffffffffffffffffffffffffffffff1681526020019081526020016000206006018190555060016000803373ffffffffffffffffffffffffffffffffffffffff1673ffffffffffffffffffffffffffffffffffffffff16815260200190815260200160002060070160006101000a81548160ff0219169083151502179055507f98e26a339a5fc57fc1c56d81b9cc18fa5c1b2f45a4121ded1802183d3546744a338783604051610dc2939291906125f0565b60405180910390a1505050505050565b60606004805480602002602001604051908101604052809291908181526020016000905b82821015610ea2578382906000526020600020018054610e159061265d565b80601f0160208091040260200160405190810160405280929190818152602001828054610e419061265d565b8015610e8e5780601f10610e6357610100808354040283529160200191610e8e565b820191906000526020600020905b815481529060010190602001808311610e7157829003601f168201915b505050505081526020019060010190610df6565b50505050905090565b600160003373ffffffffffffffffffffffffffffffffffffffff1673ffffffffffffffffffffffffffffffffffffffff16815260200190815260200160002060010160149054906101000a900460ff1615610f3b576040517f08c379a0000000000000000000000000000000000000000000000000000000008152600401610f32906126db565b60405180910390fd5b6000825111610f7f576040517f08c379a0000000000000000000000000000000000000000000000000000000008152600401610f7690612747565b60405180910390fd5b6000811015610fc3576040517f08c379a0000000000000000000000000000000000000000000000000000000008152600401610fba906127b3565b60405180910390fd5b33600160003373ffffffffffffffffffffffffffffffffffffffff1673ffffffffffffffffffffffffffffffffffffffff16815260200190815260200160002060010160006101000a81548173ffffffffffffffffffffffffffffffffffffffff021916908373ffffffffffffffffffffffffffffffffffffffff16021790555081600160003373ffffffffffffffffffffffffffffffffffffffff1673ffffffffffffffffffffffffffffffffffffffff168152602001908152602001600020600301908051906020019061109a929190611c58565b5080600160003373ffffffffffffffffffffffffffffffffffffffff1673ffffffffffffffffffffffffffffffffffffffff1681526020019081526020016000206004018190555060018060003373ffffffffffffffffffffffffffffffffffffffff1673ffffffffffffffffffffffffffffffffffffffff16815260200190815260200160002060010160146101000a81548160ff0219169083151502179055507f2178e9c576507a4c15d3deab489af3f699a3dedbff9a7ef27c43a017027710e53360405161116b91906127d3565b60405180910390a15050565b60011515600160003373ffffffffffffffffffffffffffffffffffffffff1673ffffffffffffffffffffffffffffffffffffffff16815260200190815260200160002060020160008373ffffffffffffffffffffffffffffffffffffffff1673ffffffffffffffffffffffffffffffffffffffff16815260200190815260200160002060009054906101000a900460ff1615151461124a576040517f08c379a000000000000000000000000000000000000000000000000000000000815260040161124190612860565b60405180910390fd5b600160003373ffffffffffffffffffffffffffffffffffffffff1673ffffffffffffffffffffffffffffffffffffffff16815260200190815260200160002060020160008273ffffffffffffffffffffffffffffffffffffffff1673ffffffffffffffffffffffffffffffffffffffff16815260200190815260200160002060006101000a81549060ff02191690557f9721b4c70a74dd00691b5fd0589b9720d9be5657dfd6e1f8072cb7f26d7ce8a8338260405161130a929190612880565b60405180910390a150565b6000808273ffffffffffffffffffffffffffffffffffffffff1673ffffffffffffffffffffffffffffffffffffffff168152602001908152602001600020600501544211611398576040517f08c379a000000000000000000000000000000000000000000000000000000000815260040161138f906128f5565b60405180910390fd5b7f816521a78d4edee3cfe0a08714ff2fbbc26bbbd23f171325b3493f3f514f0bfc816000808473ffffffffffffffffffffffffffffffffffffffff1673ffffffffffffffffffffffffffffffffffffffff1681526020019081526020016000206008016000808573ffffffffffffffffffffffffffffffffffffffff1673ffffffffffffffffffffffffffffffffffffffff16815260200190815260200160002060010160008060008773ffffffffffffffffffffffffffffffffffffffff1673ffffffffffffffffffffffffffffffffffffffff168152602001908152602001600020600801600081548110611492576114916124a1565b5b9060005260206000200160009054906101000a900473ffffffffffffffffffffffffffffffffffffffff1673ffffffffffffffffffffffffffffffffffffffff1673ffffffffffffffffffffffffffffffffffffffff1681526020019081526020016000206001015460405161150a93929190612a39565b60405180910390a150565b60606005805480602002602001604051908101604052809291908181526020016000905b828210156115e55783829060005260206000200180546115589061265d565b80601f01602080910402602001604051908101604052809291908181526020018280546115849061265d565b80156115d15780601f106115a6576101008083540402835291602001916115d1565b820191906000526020600020905b8154815290600101906020018083116115b457829003601f168201915b505050505081526020019060010190611539565b50505050905090565b3373ffffffffffffffffffffffffffffffffffffffff16600160008473ffffffffffffffffffffffffffffffffffffffff1673ffffffffffffffffffffffffffffffffffffffff16815260200190815260200160002060010160009054906101000a900473ffffffffffffffffffffffffffffffffffffffff1673ffffffffffffffffffffffffffffffffffffffff16146116be576040517f08c379a00000000000000000000000000000000000000000000000000000000081526004016116b590612ae9565b60405180910390fd5b600160008373ffffffffffffffffffffffffffffffffffffffff1673ffffffffffffffffffffffffffffffffffffffff16815260200190815260200160002060020160008273ffffffffffffffffffffffffffffffffffffffff1673ffffffffffffffffffffffffffffffffffffffff16815260200190815260200160002060009054906101000a900460ff161561178b576040517f08c379a000000000000000000000000000000000000000000000000000000000815260040161178290612b7b565b60405180910390fd5b60018060008473ffffffffffffffffffffffffffffffffffffffff1673ffffffffffffffffffffffffffffffffffffffff16815260200190815260200160002060020160008373ffffffffffffffffffffffffffffffffffffffff1673ffffffffffffffffffffffffffffffffffffffff16815260200190815260200160002060006101000a81548160ff0219169083151502179055507f6991bd45e0feec093b0c381c0561704fd19d427ded55100f5f6e1b4fe335c0828183604051611853929190612880565b60405180910390a15050565b6000803373ffffffffffffffffffffffffffffffffffffffff1673ffffffffffffffffffffffffffffffffffffffff16815260200190815260200160002060070160009054906101000a900460ff166118ed576040517f08c379a00000000000000000000000000000000000000000000000000000000081526004016118e490612c0d565b60405180910390fd5b6000808473ffffffffffffffffffffffffffffffffffffffff1673ffffffffffffffffffffffffffffffffffffffff16815260200190815260200160002060010160003373ffffffffffffffffffffffffffffffffffffffff1673ffffffffffffffffffffffffffffffffffffffff16815260200190815260200160002060040160009054906101000a900460ff16156119bc576040517f08c379a00000000000000000000000000000000000000000000000000000000081526004016119b390612c9f565b60405180910390fd5b816000808573ffffffffffffffffffffffffffffffffffffffff1673ffffffffffffffffffffffffffffffffffffffff16815260200190815260200160002060010160003373ffffffffffffffffffffffffffffffffffffffff1673ffffffffffffffffffffffffffffffffffffffff1681526020019081526020016000206000019080519060200190611a51929190611bd2565b50806000808573ffffffffffffffffffffffffffffffffffffffff1673ffffffffffffffffffffffffffffffffffffffff16815260200190815260200160002060010160003373ffffffffffffffffffffffffffffffffffffffff1673ffffffffffffffffffffffffffffffffffffffff168152602001908152602001600020600301819055507fd3d45429f6c2339a23437577bd167085ad0b979da68a822a522a731bfb12041e83338484604051611b0d9493929190612cbf565b60405180910390a1505050565b6000600160008473ffffffffffffffffffffffffffffffffffffffff1673ffffffffffffffffffffffffffffffffffffffff16815260200190815260200160002060020160008373ffffffffffffffffffffffffffffffffffffffff1673ffffffffffffffffffffffffffffffffffffffff16815260200190815260200160002060009054906101000a900460ff16905092915050565b5080546000825590600052602060002090810190611bcf9190611ca5565b50565b828054611bde9061265d565b90600052602060002090601f016020900481019282611c005760008555611c47565b82601f10611c1957805160ff1916838001178555611c47565b82800160010185558215611c47579182015b82811115611c46578251825591602001919060010190611c2b565b5b509050611c549190611ca5565b5090565b828054828255906000526020600020908101928215611c94579160200282015b82811115611c93578251825591602001919060010190611c78565b5b509050611ca19190611ca5565b5090565b5b80821115611cbe576000816000905550600101611ca6565b5090565b6000604051905090565b600080fd5b600080fd5b600073ffffffffffffffffffffffffffffffffffffffff82169050919050565b6000611d0182611cd6565b9050919050565b611d1181611cf6565b8114611d1c57600080fd5b50565b600081359050611d2e81611d08565b92915050565b60008060408385031215611d4b57611d4a611ccc565b5b6000611d5985828601611d1f565b9250506020611d6a85828601611d1f565b9150509250929050565b600080fd5b600080fd5b6000601f19601f8301169050919050565b7f4e487b7100000000000000000000000000000000000000000000000000000000600052604160045260246000fd5b611dc782611d7e565b810181811067ffffffffffffffff82111715611de657611de5611d8f565b5b80604052505050565b6000611df9611cc2565b9050611e058282611dbe565b919050565b600067ffffffffffffffff821115611e2557611e24611d8f565b5b611e2e82611d7e565b9050602081019050919050565b82818337600083830152505050565b6000611e5d611e5884611e0a565b611def565b905082815260208101848484011115611e7957611e78611d79565b5b611e84848285611e3b565b509392505050565b600082601f830112611ea157611ea0611d74565b5b8135611eb1848260208601611e4a565b91505092915050565b600067ffffffffffffffff821115611ed557611ed4611d8f565b5b602082029050602081019050919050565b600080fd5b6000819050919050565b611efe81611eeb565b8114611f0957600080fd5b50565b600081359050611f1b81611ef5565b92915050565b6000611f34611f2f84611eba565b611def565b90508083825260208201905060208402830185811115611f5757611f56611ee6565b5b835b81811015611f805780611f6c8882611f0c565b845260208401935050602081019050611f59565b5050509392505050565b600082601f830112611f9f57611f9e611d74565b5b8135611faf848260208601611f21565b91505092915050565b60008060008060008060c08789031215611fd557611fd4611ccc565b5b600087013567ffffffffffffffff811115611ff357611ff2611cd1565b5b611fff89828a01611e8c565b965050602087013567ffffffffffffffff8111156120205761201f611cd1565b5b61202c89828a01611f8a565b955050604087013567ffffffffffffffff81111561204d5761204c611cd1565b5b61205989828a01611f8a565b945050606061206a89828a01611f0c565b935050608061207b89828a01611f0c565b92505060a061208c89828a01611f0c565b9150509295509295509295565b600081519050919050565b600082825260208201905092915050565b6000819050602082019050919050565b600081519050919050565b600082825260208201905092915050565b60005b838110156120ff5780820151818401526020810190506120e4565b8381111561210e576000848401525b50505050565b600061211f826120c5565b61212981856120d0565b93506121398185602086016120e1565b61214281611d7e565b840191505092915050565b60006121598383612114565b905092915050565b6000602082019050919050565b600061217982612099565b61218381856120a4565b935083602082028501612195856120b5565b8060005b858110156121d157848403895281516121b2858261214d565b94506121bd83612161565b925060208a01995050600181019050612199565b50829750879550505050505092915050565b600060208201905081810360008301526121fd818461216e565b905092915050565b6000806040838503121561221c5761221b611ccc565b5b600083013567ffffffffffffffff81111561223a57612239611cd1565b5b61224685828601611f8a565b925050602061225785828601611f0c565b9150509250929050565b60006020828403121561227757612276611ccc565b5b600061228584828501611d1f565b91505092915050565b6000806000606084860312156122a7576122a6611ccc565b5b60006122b586828701611d1f565b935050602084013567ffffffffffffffff8111156122d6576122d5611cd1565b5b6122e286828701611e8c565b92505060406122f386828701611f0c565b9150509250925092565b60008115159050919050565b612312816122fd565b82525050565b600060208201905061232d6000830184612309565b92915050565b600082825260208201905092915050565b7f596f752063616e206e6f7420766f746520666f72207468697320616374696f6e600082015250565b600061237a602083612333565b915061238582612344565b602082019050919050565b600060208201905081810360008301526123a98161236d565b9050919050565b7f596f75206861766520616c726561647920766f74656421000000000000000000600082015250565b60006123e6601783612333565b91506123f1826123b0565b602082019050919050565b60006020820190508181036000830152612415816123d9565b9050919050565b7f4e487b7100000000000000000000000000000000000000000000000000000000600052601160045260246000fd5b600061245682611eeb565b915061246183611eeb565b9250827fffffffffffffffffffffffffffffffffffffffffffffffffffffffffffffffff038211156124965761249561241c565b5b828201905092915050565b7f4e487b7100000000000000000000000000000000000000000000000000000000600052603260045260246000fd5b6124d981611cf6565b82525050565b60006060820190506124f460008301866124d0565b61250160208301856124d0565b61250e60408301846124d0565b949350505050565b7f4f7267616e69736174696f6e20616c726561647920637265617465642061206360008201527f6f6e746573742e00000000000000000000000000000000000000000000000000602082015250565b6000612572602783612333565b915061257d82612516565b604082019050919050565b600060208201905081810360008301526125a181612565565b9050919050565b60006125b3826120c5565b6125bd8185612333565b93506125cd8185602086016120e1565b6125d681611d7e565b840191505092915050565b6125ea81611eeb565b82525050565b600060608201905061260560008301866124d0565b818103602083015261261781856125a8565b905061262660408301846125e1565b949350505050565b7f4e487b7100000000000000000000000000000000000000000000000000000000600052602260045260246000fd5b6000600282049050600182168061267557607f821691505b602082108114156126895761268861262e565b5b50919050565b7f4f7267616e69736174696f6e20616c726561647920726567697374657265642e600082015250565b60006126c5602083612333565b91506126d08261268f565b602082019050919050565b600060208201905081810360008301526126f4816126b8565b9050919050565b7f4f7267616e69736174696f6e206d7573742068617665207468656d6174696373600082015250565b6000612731602083612333565b915061273c826126fb565b602082019050919050565b6000602082019050818103600083015261276081612724565b9050919050565b7f4f7267616e69736174696f6e206d7573742068617665206120636f756e747279600082015250565b600061279d602083612333565b91506127a882612767565b602082019050919050565b600060208201905081810360008301526127cc81612790565b9050919050565b60006020820190506127e860008301846124d0565b92915050565b7f746865206164647265737320796f7520656e746572656420646f6573206e6f7460008201527f2065786973740000000000000000000000000000000000000000000000000000602082015250565b600061284a602683612333565b9150612855826127ee565b604082019050919050565b600060208201905081810360008301526128798161283d565b9050919050565b600060408201905061289560008301856124d0565b6128a260208301846124d0565b9392505050565b7f566f74696e6720686173206e6f742066696e6973686564207965742100000000600082015250565b60006128df601c83612333565b91506128ea826128a9565b602082019050919050565b6000602082019050818103600083015261290e816128d2565b9050919050565b600081549050919050565b600082825260208201905092915050565b60008190508160005260206000209050919050565b61294f81611cf6565b82525050565b60006129618383612946565b60208301905092915050565b60008160001c9050919050565b600073ffffffffffffffffffffffffffffffffffffffff82169050919050565b60006129ad6129a88361296d565b61297a565b9050919050565b60006129c0825461299a565b9050919050565b6000600182019050919050565b60006129df82612915565b6129e98185612920565b93506129f483612931565b8060005b83811015612a2c57612a09826129b4565b612a138882612955565b9750612a1e836129c7565b9250506001810190506129f8565b5085935050505092915050565b6000606082019050612a4e60008301866124d0565b8181036020830152612a6081856129d4565b9050612a6f60408301846125e1565b949350505050565b7f596f7520617265206e6f7420746865206f776e6572206f6620746865206f726760008201527f616e697a6174696f6e0000000000000000000000000000000000000000000000602082015250565b6000612ad3602983612333565b9150612ade82612a77565b604082019050919050565b60006020820190508181036000830152612b0281612ac6565b9050919050565b7f4164647265737320616c72656164792077686974656c697374656420666f722060008201527f74686973206f7267616e697a6174696f6e000000000000000000000000000000602082015250565b6000612b65603183612333565b9150612b7082612b09565b604082019050919050565b60006020820190508181036000830152612b9481612b58565b9050919050565b7f54686973206f7267616e697a6174696f6e20646f6573206e6f7420686176652060008201527f6f70656e20636f6e746573742e00000000000000000000000000000000000000602082015250565b6000612bf7602d83612333565b9150612c0282612b9b565b604082019050919050565b60006020820190508181036000830152612c2681612bea565b9050919050565b7f596f75206861766520616c7265616479206372656174656420616e206163746960008201527f6f6e2e0000000000000000000000000000000000000000000000000000000000602082015250565b6000612c89602383612333565b9150612c9482612c2d565b604082019050919050565b60006020820190508181036000830152612cb881612c7c565b9050919050565b6000608082019050612cd460008301876124d0565b612ce160208301866124d0565b8181036040830152612cf381856125a8565b9050612d0260608301846125e1565b9594505050505056fea26469706673582212204d81b8ed324da5e2890cc73a59d38d2cf984b3ea10ba1fb972f2677bc5cfccb364736f6c634300080b0033",
  "immutableReferences": {},
  "source": "// SPDX-License-Identifier: GPL-3.0\r\npragma solidity 0.8.11;\r\n\r\ncontract Main {\r\n\r\n    struct Organisation {\r\n        string name;\r\n        address ethAddress;\r\n        bool isRegistered;\r\n        mapping (address => bool) participants;\r\n        uint[] themes;\r\n        uint country;\r\n    }\r\n\r\n    struct Theme {\r\n        uint id;\r\n        string name;\r\n    }\r\n\r\n     struct Country {\r\n        uint id;\r\n        string name;\r\n    }\r\n\r\n    struct Action {\r\n        string name;\r\n        uint voteNumber;\r\n        mapping(address => bool) hasVoted;\r\n        uint requiredFunds;\r\n        bool isCreated;\r\n    }\r\n\r\n    struct Contest {\r\n        string name;\r\n        mapping(address => Action) actions;\r\n        uint[] themeIDs;\r\n        uint[] countryIDs;\r\n        uint applicationEndDate;\r\n        uint votingEndDate;\r\n        uint availableFunds;\r\n        bool isCreated;\r\n        address[] winningActionAddresses;\r\n    }\r\n\r\n    event OrganizationRegistered(address addressOrga);\r\n    event ParticipantWhitelisted(address addressParticipant, address addressOrganization); \r\n    event ParticipantRemoved(address addressOrga, address addressParticipant);\r\n    event ContestCreated(address addressOrga, string name, uint funds);\r\n    event ActionCreated(address addressContestCreator, address addressActionCreator, string actionName, uint requiredFunds);\r\n    event VoteTallied(address addressContestCreator, address[] addressActionCreator, uint nbVotes);\r\n    event HasVotedForAction(address addressContestCreator, address addressActionCreator, address voterAddress); \r\n\r\n    mapping (address => Contest) contests;\r\n    mapping (address => Organisation) organisation;\r\n    mapping (uint => Country)  private countries;\r\n    mapping (uint => Theme)  private thematics;\r\n    string[] private themeList = [\r\n        \"education\",\r\n        \"trafficking\",\r\n        \"domestic violence\",\r\n        \"women's movement\",\r\n        \"campaigns\",\r\n        \"roma women\",\r\n        \"identity\",\r\n        \"lobbing\",\r\n        \"marginalized groups\",\r\n        \"sexual harassment\",\r\n        \"women's rights\"\r\n    ];\r\n\r\n     string[] private countryList = [\r\n        \"Serbia\",\r\n        \"Croatia\",\r\n        \"Montenegro\",\r\n        \"Bosnia and Hercegovina\",\r\n        \"Slovenia\",\r\n        \"Macedonia\"\r\n    ];\r\n\r\n    constructor() {\r\n        setThematics();\r\n        setCountries();\r\n    }\r\n\r\n    // Sender not authorized for this operation.\r\n    error Unauthorized();\r\n\r\n    // Prepends a check that only passes\r\n    // if the function is called from\r\n    // a certain address.\r\n    modifier onlyBy(address _account)\r\n    {\r\n        if (msg.sender != _account)\r\n            revert Unauthorized();\r\n        _;\r\n    }\r\n\r\n    function setThematics() private {\r\n        uint numThemes = themeList.length;\r\n        for (uint i=0; i < numThemes-1; i++) {\r\n            Theme memory theme;\r\n            theme.id = i;\r\n            theme.name = themeList[i];\r\n            thematics[i] = theme;\r\n        }\r\n    }\r\n\r\n  \r\n\r\n    function setCountries() private {\r\n        uint numCountries = countryList.length;\r\n        for (uint i=0; i < numCountries-1; i++) {\r\n            Country memory country;\r\n            country.id = i;\r\n            country.name = countryList[i];\r\n            countries[i] = country;\r\n        }\r\n    }\r\n\r\n    function getThematics() public view returns(string[] memory) {        \r\n        return themeList;\r\n    }\r\n\r\n    function getCountries() public view returns(string[] memory) {        \r\n        return countryList;\r\n    }\r\n\r\n     function registerOrganisation(uint[] memory thematicIds, uint countryId) external {\r\n         // TODO: send token of gouvernance to metamask\r\n        require(!organisation[msg.sender].isRegistered, 'Organisation already registered.');\r\n        require(thematicIds.length > 0, 'Organisation must have thematics');\r\n        require(countryId >= 0, 'Organisation must have a country');\r\n        organisation[msg.sender].ethAddress = msg.sender;\r\n        organisation[msg.sender].themes = thematicIds;\r\n        organisation[msg.sender].country = countryId;\r\n        organisation[msg.sender].isRegistered = true;\r\n        emit OrganizationRegistered(msg.sender);\r\n    }\r\n    \r\n    /**\r\n    * @notice this function returns true if the participant is whitelisted\r\n    * @notice it can be called either by an organisation or a participant\r\n    * @param _addrOrganisation - organisation's address\r\n    * @param _addrParticipant - participant's address\r\n    * @return true if the address exists, false if not\r\n     */\r\n    function participantIsWhiteListed(address _addrOrganisation, address _addrParticipant) external view returns(bool) {\r\n        return organisation[_addrOrganisation].participants[_addrParticipant];\r\n    }\r\n\r\n    /**\r\n    * @notice allows the organisation (msg.sender) to delete a member from its whtelist\r\n    * @param _addrToDelete - the ethAddress of the participant to be deleted \r\n     */\r\n    function removeFromWhitelist(address _addrToDelete) external {\r\n        require(organisation[msg.sender].participants[_addrToDelete]==true, 'the address you entered does not exist');\r\n        delete organisation[msg.sender].participants[_addrToDelete];\r\n        emit ParticipantRemoved(msg.sender, _addrToDelete);\r\n    }\r\n\r\n    function addParticipant(address _addrOrga, address _addrParticipant ) external {\r\n        require(organisation[_addrOrga].ethAddress == msg.sender, 'You are not the owner of the organization');\r\n        require(!organisation[_addrOrga].participants[_addrParticipant], 'Address already whitelisted for this organization');\r\n        organisation[_addrOrga].participants[_addrParticipant] = true;\r\n        emit ParticipantWhitelisted(_addrParticipant, _addrOrga);\r\n    }\r\n\r\n    function addContest(string memory _name, uint[] memory _themeIds, uint[] memory _eligibleCountryIds, uint _applicationEndDate, uint _votingEndDate, uint _funds) external {\r\n        // TODO: verify if balance of gouv token is > 0 in metamask\r\n        require(!contests[msg.sender].isCreated, 'Organisation already created a contest.');\r\n        contests[msg.sender].name = _name;\r\n        contests[msg.sender].themeIDs = _themeIds;\r\n        contests[msg.sender].countryIDs = _eligibleCountryIds;\r\n        contests[msg.sender].applicationEndDate = _applicationEndDate;\r\n        contests[msg.sender].votingEndDate = _votingEndDate;\r\n        contests[msg.sender].availableFunds = _funds;\r\n        contests[msg.sender].isCreated = true;\r\n        emit ContestCreated(msg.sender, _name, _funds);\r\n    }\r\n\r\n    function createAction(address _creatorOfContest, string memory _name, uint _requiredFunds) external {\r\n        // TODO : add country and theme verification\r\n        require(contests[msg.sender].isCreated, 'This organization does not have open contest.');\r\n        require(!contests[_creatorOfContest].actions[msg.sender].isCreated, 'You have already created an action.');\r\n        contests[_creatorOfContest].actions[msg.sender].name = _name;\r\n        contests[_creatorOfContest].actions[msg.sender].requiredFunds = _requiredFunds;\r\n        emit ActionCreated(_creatorOfContest, msg.sender, _name, _requiredFunds);\r\n    }\r\n\r\n    function voteForAction(address _contestCreator, address _actionCreator) external {\r\n        // TODO: verify if its time to vote\r\n        require(msg.sender != _contestCreator && msg.sender != _actionCreator, 'You can not vote for this action');\r\n        require(!contests[_contestCreator].actions[_actionCreator].hasVoted[msg.sender], 'You have already voted!');\r\n        \r\n        \r\n        contests[_contestCreator].actions[_actionCreator].voteNumber += 1;\r\n        contests[_contestCreator].actions[_actionCreator].hasVoted[msg.sender] = true;\r\n\r\n        if(contests[_contestCreator].winningActionAddresses.length == 0){\r\n            contests[_contestCreator].winningActionAddresses.push(_actionCreator);\r\n        }else if(contests[_contestCreator].actions[contests[_contestCreator].winningActionAddresses[0]].voteNumber < contests[_contestCreator].actions[_actionCreator].voteNumber){\r\n            delete contests[_contestCreator].winningActionAddresses;\r\n            contests[_contestCreator].winningActionAddresses.push(_actionCreator);\r\n        }else if(contests[_contestCreator].actions[contests[_contestCreator].winningActionAddresses[0]].voteNumber == contests[_contestCreator].actions[_actionCreator].voteNumber){\r\n            contests[_contestCreator].winningActionAddresses.push(_actionCreator);\r\n        }\r\n\r\n        emit HasVotedForAction(_contestCreator, _actionCreator, msg.sender);\r\n    }\r\n    \r\n    // TODO: function for tallying votes with time counter / controller \r\n\r\n    function tallyVote(address _contestCreator) external {\r\n        require(block.timestamp > contests[_contestCreator].votingEndDate, \"Voting has not finished yet!\");\r\n\r\n        emit VoteTallied(_contestCreator, contests[_contestCreator].winningActionAddresses, contests[_contestCreator].actions[contests[_contestCreator].winningActionAddresses[0]].voteNumber);\r\n    }\r\n}   ",
  "sourcePath": "F:\\workspace\\alyra\\yugo\\YU-GO\\template\\Truffle\\contracts\\Main.sol",
  "compiler": {
    "name": "solc",
    "version": "0.8.11+commit.d7f03943.Emscripten.clang"
  },
  "schemaVersion": "3.4.3",
  "updatedAt": "2022-01-05T20:03:57.670Z",
  "devdoc": {
    "kind": "dev",
    "methods": {
      "participantIsWhiteListed(address,address)": {
        "params": {
          "_addrOrganisation": "- organisation's address",
          "_addrParticipant": "- participant's address"
        },
        "returns": {
          "_0": "true if the address exists, false if not"
        }
      },
      "removeFromWhitelist(address)": {
        "params": {
          "_addrToDelete": "- the ethAddress of the participant to be deleted "
        }
      }
    },
    "version": 1
  },
  "userdoc": {
    "kind": "user",
    "methods": {
      "participantIsWhiteListed(address,address)": {
        "notice": "this function returns true if the participant is whitelistedit can be called either by an organisation or a participant"
      },
      "removeFromWhitelist(address)": {
        "notice": "allows the organisation (msg.sender) to delete a member from its whtelist"
      }
    },
    "version": 1
  }
}