{
  "contractName": "YugoGovernor",
  "abi": [
    {
      "inputs": [
        {
          "internalType": "contract ERC20Votes",
          "name": "_token",
          "type": "address"
        },
        {
          "internalType": "contract TimelockController",
          "name": "_timelock",
          "type": "address"
        }
      ],
      "stateMutability": "nonpayable",
      "type": "constructor"
    },
    {
      "anonymous": false,
      "inputs": [
        {
          "indexed": false,
          "internalType": "uint256",
          "name": "proposalId",
          "type": "uint256"
        }
      ],
      "name": "ProposalCanceled",
      "type": "event"
    },
    {
      "anonymous": false,
      "inputs": [
        {
          "indexed": false,
          "internalType": "uint256",
          "name": "proposalId",
          "type": "uint256"
        },
        {
          "indexed": false,
          "internalType": "address",
          "name": "proposer",
          "type": "address"
        },
        {
          "indexed": false,
          "internalType": "address[]",
          "name": "targets",
          "type": "address[]"
        },
        {
          "indexed": false,
          "internalType": "uint256[]",
          "name": "values",
          "type": "uint256[]"
        },
        {
          "indexed": false,
          "internalType": "string[]",
          "name": "signatures",
          "type": "string[]"
        },
        {
          "indexed": false,
          "internalType": "bytes[]",
          "name": "calldatas",
          "type": "bytes[]"
        },
        {
          "indexed": false,
          "internalType": "uint256",
          "name": "startBlock",
          "type": "uint256"
        },
        {
          "indexed": false,
          "internalType": "uint256",
          "name": "endBlock",
          "type": "uint256"
        },
        {
          "indexed": false,
          "internalType": "string",
          "name": "description",
          "type": "string"
        }
      ],
      "name": "ProposalCreated",
      "type": "event"
    },
    {
      "anonymous": false,
      "inputs": [
        {
          "indexed": false,
          "internalType": "uint256",
          "name": "proposalId",
          "type": "uint256"
        }
      ],
      "name": "ProposalExecuted",
      "type": "event"
    },
    {
      "anonymous": false,
      "inputs": [
        {
          "indexed": false,
          "internalType": "uint256",
          "name": "proposalId",
          "type": "uint256"
        },
        {
          "indexed": false,
          "internalType": "uint256",
          "name": "eta",
          "type": "uint256"
        }
      ],
      "name": "ProposalQueued",
      "type": "event"
    },
    {
      "anonymous": false,
      "inputs": [
        {
          "indexed": false,
          "internalType": "uint256",
          "name": "oldProposalThreshold",
          "type": "uint256"
        },
        {
          "indexed": false,
          "internalType": "uint256",
          "name": "newProposalThreshold",
          "type": "uint256"
        }
      ],
      "name": "ProposalThresholdSet",
      "type": "event"
    },
    {
      "anonymous": false,
      "inputs": [
        {
          "indexed": false,
          "internalType": "uint256",
          "name": "oldQuorumNumerator",
          "type": "uint256"
        },
        {
          "indexed": false,
          "internalType": "uint256",
          "name": "newQuorumNumerator",
          "type": "uint256"
        }
      ],
      "name": "QuorumNumeratorUpdated",
      "type": "event"
    },
    {
      "anonymous": false,
      "inputs": [
        {
          "indexed": false,
          "internalType": "address",
          "name": "oldTimelock",
          "type": "address"
        },
        {
          "indexed": false,
          "internalType": "address",
          "name": "newTimelock",
          "type": "address"
        }
      ],
      "name": "TimelockChange",
      "type": "event"
    },
    {
      "anonymous": false,
      "inputs": [
        {
          "indexed": true,
          "internalType": "address",
          "name": "voter",
          "type": "address"
        },
        {
          "indexed": false,
          "internalType": "uint256",
          "name": "proposalId",
          "type": "uint256"
        },
        {
          "indexed": false,
          "internalType": "uint8",
          "name": "support",
          "type": "uint8"
        },
        {
          "indexed": false,
          "internalType": "uint256",
          "name": "weight",
          "type": "uint256"
        },
        {
          "indexed": false,
          "internalType": "string",
          "name": "reason",
          "type": "string"
        }
      ],
      "name": "VoteCast",
      "type": "event"
    },
    {
      "anonymous": false,
      "inputs": [
        {
          "indexed": false,
          "internalType": "uint256",
          "name": "oldVotingDelay",
          "type": "uint256"
        },
        {
          "indexed": false,
          "internalType": "uint256",
          "name": "newVotingDelay",
          "type": "uint256"
        }
      ],
      "name": "VotingDelaySet",
      "type": "event"
    },
    {
      "anonymous": false,
      "inputs": [
        {
          "indexed": false,
          "internalType": "uint256",
          "name": "oldVotingPeriod",
          "type": "uint256"
        },
        {
          "indexed": false,
          "internalType": "uint256",
          "name": "newVotingPeriod",
          "type": "uint256"
        }
      ],
      "name": "VotingPeriodSet",
      "type": "event"
    },
    {
      "inputs": [],
      "name": "BALLOT_TYPEHASH",
      "outputs": [
        {
          "internalType": "bytes32",
          "name": "",
          "type": "bytes32"
        }
      ],
      "stateMutability": "view",
      "type": "function"
    },
    {
      "inputs": [],
      "name": "COUNTING_MODE",
      "outputs": [
        {
          "internalType": "string",
          "name": "",
          "type": "string"
        }
      ],
      "stateMutability": "pure",
      "type": "function"
    },
    {
      "inputs": [
        {
          "internalType": "uint256",
          "name": "proposalId",
          "type": "uint256"
        },
        {
          "internalType": "uint8",
          "name": "support",
          "type": "uint8"
        }
      ],
      "name": "castVote",
      "outputs": [
        {
          "internalType": "uint256",
          "name": "",
          "type": "uint256"
        }
      ],
      "stateMutability": "nonpayable",
      "type": "function"
    },
    {
      "inputs": [
        {
          "internalType": "uint256",
          "name": "proposalId",
          "type": "uint256"
        },
        {
          "internalType": "uint8",
          "name": "support",
          "type": "uint8"
        },
        {
          "internalType": "uint8",
          "name": "v",
          "type": "uint8"
        },
        {
          "internalType": "bytes32",
          "name": "r",
          "type": "bytes32"
        },
        {
          "internalType": "bytes32",
          "name": "s",
          "type": "bytes32"
        }
      ],
      "name": "castVoteBySig",
      "outputs": [
        {
          "internalType": "uint256",
          "name": "",
          "type": "uint256"
        }
      ],
      "stateMutability": "nonpayable",
      "type": "function"
    },
    {
      "inputs": [
        {
          "internalType": "uint256",
          "name": "proposalId",
          "type": "uint256"
        },
        {
          "internalType": "uint8",
          "name": "support",
          "type": "uint8"
        },
        {
          "internalType": "string",
          "name": "reason",
          "type": "string"
        }
      ],
      "name": "castVoteWithReason",
      "outputs": [
        {
          "internalType": "uint256",
          "name": "",
          "type": "uint256"
        }
      ],
      "stateMutability": "nonpayable",
      "type": "function"
    },
    {
      "inputs": [
        {
          "internalType": "address[]",
          "name": "targets",
          "type": "address[]"
        },
        {
          "internalType": "uint256[]",
          "name": "values",
          "type": "uint256[]"
        },
        {
          "internalType": "bytes[]",
          "name": "calldatas",
          "type": "bytes[]"
        },
        {
          "internalType": "bytes32",
          "name": "descriptionHash",
          "type": "bytes32"
        }
      ],
      "name": "execute",
      "outputs": [
        {
          "internalType": "uint256",
          "name": "",
          "type": "uint256"
        }
      ],
      "stateMutability": "payable",
      "type": "function"
    },
    {
      "inputs": [
        {
          "internalType": "uint256",
          "name": "proposalId",
          "type": "uint256"
        },
        {
          "internalType": "address",
          "name": "account",
          "type": "address"
        }
      ],
      "name": "hasVoted",
      "outputs": [
        {
          "internalType": "bool",
          "name": "",
          "type": "bool"
        }
      ],
      "stateMutability": "view",
      "type": "function"
    },
    {
      "inputs": [
        {
          "internalType": "address[]",
          "name": "targets",
          "type": "address[]"
        },
        {
          "internalType": "uint256[]",
          "name": "values",
          "type": "uint256[]"
        },
        {
          "internalType": "bytes[]",
          "name": "calldatas",
          "type": "bytes[]"
        },
        {
          "internalType": "bytes32",
          "name": "descriptionHash",
          "type": "bytes32"
        }
      ],
      "name": "hashProposal",
      "outputs": [
        {
          "internalType": "uint256",
          "name": "",
          "type": "uint256"
        }
      ],
      "stateMutability": "pure",
      "type": "function"
    },
    {
      "inputs": [],
      "name": "name",
      "outputs": [
        {
          "internalType": "string",
          "name": "",
          "type": "string"
        }
      ],
      "stateMutability": "view",
      "type": "function"
    },
    {
      "inputs": [
        {
          "internalType": "uint256",
          "name": "proposalId",
          "type": "uint256"
        }
      ],
      "name": "proposalDeadline",
      "outputs": [
        {
          "internalType": "uint256",
          "name": "",
          "type": "uint256"
        }
      ],
      "stateMutability": "view",
      "type": "function"
    },
    {
      "inputs": [
        {
          "internalType": "uint256",
          "name": "proposalId",
          "type": "uint256"
        }
      ],
      "name": "proposalEta",
      "outputs": [
        {
          "internalType": "uint256",
          "name": "",
          "type": "uint256"
        }
      ],
      "stateMutability": "view",
      "type": "function"
    },
    {
      "inputs": [
        {
          "internalType": "uint256",
          "name": "proposalId",
          "type": "uint256"
        }
      ],
      "name": "proposalSnapshot",
      "outputs": [
        {
          "internalType": "uint256",
          "name": "",
          "type": "uint256"
        }
      ],
      "stateMutability": "view",
      "type": "function"
    },
    {
      "inputs": [
        {
          "internalType": "uint256",
          "name": "proposalId",
          "type": "uint256"
        }
      ],
      "name": "proposalVotes",
      "outputs": [
        {
          "internalType": "uint256",
          "name": "againstVotes",
          "type": "uint256"
        },
        {
          "internalType": "uint256",
          "name": "forVotes",
          "type": "uint256"
        },
        {
          "internalType": "uint256",
          "name": "abstainVotes",
          "type": "uint256"
        }
      ],
      "stateMutability": "view",
      "type": "function"
    },
    {
      "inputs": [
        {
          "internalType": "address[]",
          "name": "targets",
          "type": "address[]"
        },
        {
          "internalType": "uint256[]",
          "name": "values",
          "type": "uint256[]"
        },
        {
          "internalType": "bytes[]",
          "name": "calldatas",
          "type": "bytes[]"
        },
        {
          "internalType": "bytes32",
          "name": "descriptionHash",
          "type": "bytes32"
        }
      ],
      "name": "queue",
      "outputs": [
        {
          "internalType": "uint256",
          "name": "",
          "type": "uint256"
        }
      ],
      "stateMutability": "nonpayable",
      "type": "function"
    },
    {
      "inputs": [],
      "name": "quorumDenominator",
      "outputs": [
        {
          "internalType": "uint256",
          "name": "",
          "type": "uint256"
        }
      ],
      "stateMutability": "view",
      "type": "function"
    },
    {
      "inputs": [],
      "name": "quorumNumerator",
      "outputs": [
        {
          "internalType": "uint256",
          "name": "",
          "type": "uint256"
        }
      ],
      "stateMutability": "view",
      "type": "function"
    },
    {
      "inputs": [
        {
          "internalType": "uint256",
          "name": "newProposalThreshold",
          "type": "uint256"
        }
      ],
      "name": "setProposalThreshold",
      "outputs": [],
      "stateMutability": "nonpayable",
      "type": "function"
    },
    {
      "inputs": [
        {
          "internalType": "uint256",
          "name": "newVotingDelay",
          "type": "uint256"
        }
      ],
      "name": "setVotingDelay",
      "outputs": [],
      "stateMutability": "nonpayable",
      "type": "function"
    },
    {
      "inputs": [
        {
          "internalType": "uint256",
          "name": "newVotingPeriod",
          "type": "uint256"
        }
      ],
      "name": "setVotingPeriod",
      "outputs": [],
      "stateMutability": "nonpayable",
      "type": "function"
    },
    {
      "inputs": [],
      "name": "timelock",
      "outputs": [
        {
          "internalType": "address",
          "name": "",
          "type": "address"
        }
      ],
      "stateMutability": "view",
      "type": "function"
    },
    {
      "inputs": [],
      "name": "token",
      "outputs": [
        {
          "internalType": "contract ERC20Votes",
          "name": "",
          "type": "address"
        }
      ],
      "stateMutability": "view",
      "type": "function"
    },
    {
      "inputs": [
        {
          "internalType": "uint256",
          "name": "newQuorumNumerator",
          "type": "uint256"
        }
      ],
      "name": "updateQuorumNumerator",
      "outputs": [],
      "stateMutability": "nonpayable",
      "type": "function"
    },
    {
      "inputs": [
        {
          "internalType": "contract TimelockController",
          "name": "newTimelock",
          "type": "address"
        }
      ],
      "name": "updateTimelock",
      "outputs": [],
      "stateMutability": "nonpayable",
      "type": "function"
    },
    {
      "inputs": [],
      "name": "version",
      "outputs": [
        {
          "internalType": "string",
          "name": "",
          "type": "string"
        }
      ],
      "stateMutability": "view",
      "type": "function"
    },
    {
      "stateMutability": "payable",
      "type": "receive"
    },
    {
      "inputs": [],
      "name": "votingDelay",
      "outputs": [
        {
          "internalType": "uint256",
          "name": "",
          "type": "uint256"
        }
      ],
      "stateMutability": "view",
      "type": "function"
    },
    {
      "inputs": [],
      "name": "votingPeriod",
      "outputs": [
        {
          "internalType": "uint256",
          "name": "",
          "type": "uint256"
        }
      ],
      "stateMutability": "view",
      "type": "function"
    },
    {
      "inputs": [
        {
          "internalType": "uint256",
          "name": "blockNumber",
          "type": "uint256"
        }
      ],
      "name": "quorum",
      "outputs": [
        {
          "internalType": "uint256",
          "name": "",
          "type": "uint256"
        }
      ],
      "stateMutability": "view",
      "type": "function"
    },
    {
      "inputs": [
        {
          "internalType": "address",
          "name": "account",
          "type": "address"
        },
        {
          "internalType": "uint256",
          "name": "blockNumber",
          "type": "uint256"
        }
      ],
      "name": "getVotes",
      "outputs": [
        {
          "internalType": "uint256",
          "name": "",
          "type": "uint256"
        }
      ],
      "stateMutability": "view",
      "type": "function"
    },
    {
      "inputs": [
        {
          "internalType": "uint256",
          "name": "proposalId",
          "type": "uint256"
        }
      ],
      "name": "state",
      "outputs": [
        {
          "internalType": "enum IGovernor.ProposalState",
          "name": "",
          "type": "uint8"
        }
      ],
      "stateMutability": "view",
      "type": "function"
    },
    {
      "inputs": [
        {
          "internalType": "address[]",
          "name": "targets",
          "type": "address[]"
        },
        {
          "internalType": "uint256[]",
          "name": "values",
          "type": "uint256[]"
        },
        {
          "internalType": "bytes[]",
          "name": "calldatas",
          "type": "bytes[]"
        },
        {
          "internalType": "string",
          "name": "description",
          "type": "string"
        }
      ],
      "name": "propose",
      "outputs": [
        {
          "internalType": "uint256",
          "name": "",
          "type": "uint256"
        }
      ],
      "stateMutability": "nonpayable",
      "type": "function"
    },
    {
      "inputs": [],
      "name": "proposalThreshold",
      "outputs": [
        {
          "internalType": "uint256",
          "name": "",
          "type": "uint256"
        }
      ],
      "stateMutability": "view",
      "type": "function"
    },
    {
      "inputs": [
        {
          "internalType": "bytes4",
          "name": "interfaceId",
          "type": "bytes4"
        }
      ],
      "name": "supportsInterface",
      "outputs": [
        {
          "internalType": "bool",
          "name": "",
          "type": "bool"
        }
      ],
      "stateMutability": "view",
      "type": "function"
    }
  ],
  "bytecode": "0x6101606040523480156200001257600080fd5b506040516200560538038062005605833981810160405281019062000038919062000656565b806004836002620165f460006040518060400160405280600c81526020017f5975676f476f7665726e6f720000000000000000000000000000000000000000815250806200008b620001ef60201b60201c565b60008280519060200120905060008280519060200120905060007f8b73c3c69bb8fe3d512ecc4cf759cc79239f7b179b0ffacaa9a75d522b39400f90508260e081815250508161010081815250504660a08181525050620000f48184846200022c60201b60201c565b608081815250503073ffffffffffffffffffffffffffffffffffffffff1660c08173ffffffffffffffffffffffffffffffffffffffff16815250508061012081815250505050505050806000908051906020019062000155929190620004cf565b505062000168836200026860201b60201c565b6200017982620002af60201b60201c565b6200018a816200033c60201b60201c565b5050508073ffffffffffffffffffffffffffffffffffffffff166101408173ffffffffffffffffffffffffffffffffffffffff168152505050620001d4816200038360201b60201c565b50620001e6816200042560201b60201c565b50505062000967565b60606040518060400160405280600181526020017f3100000000000000000000000000000000000000000000000000000000000000815250905090565b6000838383463060405160200162000249959493929190620006e4565b6040516020818303038152906040528051906020012090509392505050565b7fc565b045403dc03c2eea82b81a0465edad9e2e7fc4d97e11421c209da93d7a93600254826040516200029d92919062000741565b60405180910390a18060028190555050565b60008111620002f5576040517f08c379a0000000000000000000000000000000000000000000000000000000008152600401620002ec90620007f5565b60405180910390fd5b7f7e3f7f0708a84de9203036abaa450dccc85ad5ff52f78c170f3edb55cf5e8828600354826040516200032a92919062000741565b60405180910390a18060038190555050565b7fccb45da8d5717e6c4544694297c4ba5cf151d455c9bb0ed4fc7a38411bc05461600454826040516200037192919062000741565b60405180910390a18060048190555050565b62000393620004c660201b60201c565b811115620003d8576040517f08c379a0000000000000000000000000000000000000000000000000000000008152600401620003cf90620008b3565b60405180910390fd5b60006006549050816006819055507f0553476bf02ef2726e8ce5ced78d63e26e602e4a2257b1f559418e24b463399781836040516200041992919062000741565b60405180910390a15050565b7f08f74ea46ef7894f65eabfb5e6e695de773a000b47c529ab559178069b226401600760009054906101000a900473ffffffffffffffffffffffffffffffffffffffff16826040516200047a929190620008d5565b60405180910390a180600760006101000a81548173ffffffffffffffffffffffffffffffffffffffff021916908373ffffffffffffffffffffffffffffffffffffffff16021790555050565b60006064905090565b828054620004dd9062000931565b90600052602060002090601f0160209004810192826200050157600085556200054d565b82601f106200051c57805160ff19168380011785556200054d565b828001600101855582156200054d579182015b828111156200054c5782518255916020019190600101906200052f565b5b5090506200055c919062000560565b5090565b5b808211156200057b57600081600090555060010162000561565b5090565b600080fd5b600073ffffffffffffffffffffffffffffffffffffffff82169050919050565b6000620005b18262000584565b9050919050565b6000620005c582620005a4565b9050919050565b620005d781620005b8565b8114620005e357600080fd5b50565b600081519050620005f781620005cc565b92915050565b60006200060a8262000584565b9050919050565b60006200061e82620005fd565b9050919050565b620006308162000611565b81146200063c57600080fd5b50565b600081519050620006508162000625565b92915050565b6000806040838503121562000670576200066f6200057f565b5b60006200068085828601620005e6565b925050602062000693858286016200063f565b9150509250929050565b6000819050919050565b620006b2816200069d565b82525050565b6000819050919050565b620006cd81620006b8565b82525050565b620006de81620005a4565b82525050565b600060a082019050620006fb6000830188620006a7565b6200070a6020830187620006a7565b620007196040830186620006a7565b620007286060830185620006c2565b620007376080830184620006d3565b9695505050505050565b6000604082019050620007586000830185620006c2565b620007676020830184620006c2565b9392505050565b600082825260208201905092915050565b7f476f7665726e6f7253657474696e67733a20766f74696e6720706572696f642060008201527f746f6f206c6f7700000000000000000000000000000000000000000000000000602082015250565b6000620007dd6027836200076e565b9150620007ea826200077f565b604082019050919050565b600060208201905081810360008301526200081081620007ce565b9050919050565b7f476f7665726e6f72566f74657351756f72756d4672616374696f6e3a2071756f60008201527f72756d4e756d657261746f72206f7665722071756f72756d44656e6f6d696e6160208201527f746f720000000000000000000000000000000000000000000000000000000000604082015250565b60006200089b6043836200076e565b9150620008a88262000817565b606082019050919050565b60006020820190508181036000830152620008ce816200088c565b9050919050565b6000604082019050620008ec6000830185620006d3565b620008fb6020830184620006d3565b9392505050565b7f4e487b7100000000000000000000000000000000000000000000000000000000600052602260045260246000fd5b600060028204905060018216806200094a57607f821691505b6020821081141562000961576200096062000902565b5b50919050565b60805160a05160c05160e051610100516101205161014051614c35620009d0600039600081816114ea01528181611dbe0152611eb901526000612132015260006121740152600061215301526000612088015260006120de015260006121070152614c356000f3fe6080604052600436106101e75760003560e01c80637d5e81e211610102578063d33219b411610095578063eb9019d411610064578063eb9019d4146107cf578063ece40cc11461080c578063f8ce560a14610835578063fc0c546a146108725761022d565b8063d33219b414610725578063dd4e2ba514610750578063deaaa7cc1461077b578063ea0217cf146107a65761022d565b8063ab58fb8e116100d1578063ab58fb8e14610643578063b58131b014610680578063c01f9e37146106ab578063c59057e4146106e85761022d565b80637d5e81e21461058757806397c3d334146105c4578063a7713a70146105ef578063a890c9101461061a5761022d565b80633bccf4fd1161017a57806354fd4d501161014957806354fd4d50146104b957806356781388146104e457806370b0f660146105215780637b3c71d31461054a5761022d565b80633bccf4fd146103c35780633e4f49e614610400578063438596321461043d578063544ffc9c1461047a5761022d565b8063160cbed7116101b6578063160cbed7146102ee5780632656227d1461032b5780632d63f6931461035b5780633932abb1146103985761022d565b806301ffc9a71461023257806302a251a31461026f57806306f3f9e61461029a57806306fdde03146102c35761022d565b3661022d573073ffffffffffffffffffffffffffffffffffffffff1661020b61089d565b73ffffffffffffffffffffffffffffffffffffffff161461022b57600080fd5b005b600080fd5b34801561023e57600080fd5b5061025960048036038101906102549190612afe565b6108ac565b6040516102669190612b46565b60405180910390f35b34801561027b57600080fd5b506102846108be565b6040516102919190612b7a565b60405180910390f35b3480156102a657600080fd5b506102c160048036038101906102bc9190612bc1565b6108cd565b005b3480156102cf57600080fd5b506102d8610955565b6040516102e59190612c87565b60405180910390f35b3480156102fa57600080fd5b50610315600480360381019061031091906130de565b6109e7565b6040516103229190612b7a565b60405180910390f35b610345600480360381019061034091906130de565b610ca1565b6040516103529190612b7a565b60405180910390f35b34801561036757600080fd5b50610382600480360381019061037d9190612bc1565b610dd4565b60405161038f9190612b7a565b60405180910390f35b3480156103a457600080fd5b506103ad610e42565b6040516103ba9190612b7a565b60405180910390f35b3480156103cf57600080fd5b506103ea60048036038101906103e591906131d2565b610e51565b6040516103f79190612b7a565b60405180910390f35b34801561040c57600080fd5b5061042760048036038101906104229190612bc1565b610edb565b60405161043491906132c4565b60405180910390f35b34801561044957600080fd5b50610464600480360381019061045f91906132df565b610eed565b6040516104719190612b46565b60405180910390f35b34801561048657600080fd5b506104a1600480360381019061049c9190612bc1565b610f58565b6040516104b09392919061331f565b60405180910390f35b3480156104c557600080fd5b506104ce610f90565b6040516104db9190612c87565b60405180910390f35b3480156104f057600080fd5b5061050b60048036038101906105069190613356565b610fcd565b6040516105189190612b7a565b60405180910390f35b34801561052d57600080fd5b5061054860048036038101906105439190612bc1565b610ffe565b005b34801561055657600080fd5b50610571600480360381019061056c91906133f1565b611086565b60405161057e9190612b7a565b60405180910390f35b34801561059357600080fd5b506105ae60048036038101906105a99190613506565b6110ee565b6040516105bb9190612b7a565b60405180910390f35b3480156105d057600080fd5b506105d9611106565b6040516105e69190612b7a565b60405180910390f35b3480156105fb57600080fd5b5061060461110f565b6040516106119190612b7a565b60405180910390f35b34801561062657600080fd5b50610641600480360381019061063c919061362d565b611119565b005b34801561064f57600080fd5b5061066a60048036038101906106659190612bc1565b6111a1565b6040516106779190612b7a565b60405180910390f35b34801561068c57600080fd5b5061069561126e565b6040516106a29190612b7a565b60405180910390f35b3480156106b757600080fd5b506106d260048036038101906106cd9190612bc1565b61127d565b6040516106df9190612b7a565b60405180910390f35b3480156106f457600080fd5b5061070f600480360381019061070a91906130de565b6112eb565b60405161071c9190612b7a565b60405180910390f35b34801561073157600080fd5b5061073a611327565b6040516107479190613669565b60405180910390f35b34801561075c57600080fd5b50610765611351565b6040516107729190612c87565b60405180910390f35b34801561078757600080fd5b5061079061138e565b60405161079d9190613693565b60405180910390f35b3480156107b257600080fd5b506107cd60048036038101906107c89190612bc1565b6113b2565b005b3480156107db57600080fd5b506107f660048036038101906107f191906136ae565b61143a565b6040516108039190612b7a565b60405180910390f35b34801561081857600080fd5b50610833600480360381019061082e9190612bc1565b61144e565b005b34801561084157600080fd5b5061085c60048036038101906108579190612bc1565b6114d6565b6040516108699190612b7a565b60405180910390f35b34801561087e57600080fd5b506108876114e8565b604051610894919061374d565b60405180910390f35b60006108a761150c565b905090565b60006108b782611536565b9050919050565b60006108c86115b0565b905090565b6108d561089d565b73ffffffffffffffffffffffffffffffffffffffff166108f36115ba565b73ffffffffffffffffffffffffffffffffffffffff1614610949576040517f08c379a0000000000000000000000000000000000000000000000000000000008152600401610940906137b4565b60405180910390fd5b610952816115c2565b50565b60606000805461096490613803565b80601f016020809104026020016040519081016040528092919081815260200182805461099090613803565b80156109dd5780601f106109b2576101008083540402835291602001916109dd565b820191906000526020600020905b8154815290600101906020018083116109c057829003601f168201915b5050505050905090565b6000806109f6868686866112eb565b905060046007811115610a0c57610a0b61324d565b5b610a1582610edb565b6007811115610a2757610a2661324d565b5b14610a67576040517f08c379a0000000000000000000000000000000000000000000000000000000008152600401610a5e906138a7565b60405180910390fd5b6000600760009054906101000a900473ffffffffffffffffffffffffffffffffffffffff1673ffffffffffffffffffffffffffffffffffffffff1663f27a0c926040518163ffffffff1660e01b8152600401602060405180830381865afa158015610ad6573d6000803e3d6000fd5b505050506040513d601f19601f82011682018060405250810190610afa91906138dc565b9050600760009054906101000a900473ffffffffffffffffffffffffffffffffffffffff1673ffffffffffffffffffffffffffffffffffffffff1663b1c5f4278888886000896040518663ffffffff1660e01b8152600401610b60959493929190613be4565b602060405180830381865afa158015610b7d573d6000803e3d6000fd5b505050506040513d601f19601f82011682018060405250810190610ba19190613c61565b6008600084815260200190815260200160002081905550600760009054906101000a900473ffffffffffffffffffffffffffffffffffffffff1673ffffffffffffffffffffffffffffffffffffffff16638f2a0bb0888888600089876040518763ffffffff1660e01b8152600401610c1e96959493929190613c8e565b600060405180830381600087803b158015610c3857600080fd5b505af1158015610c4c573d6000803e3d6000fd5b505050507f9a2e42fd6722813d69113e7d0079d3d940171428df7373df9c7f7617cfda2892828242610c7e9190613d33565b604051610c8c929190613d89565b60405180910390a18192505050949350505050565b600080610cb0868686866112eb565b90506000610cbd82610edb565b905060046007811115610cd357610cd261324d565b5b816007811115610ce657610ce561324d565b5b1480610d16575060056007811115610d0157610d0061324d565b5b816007811115610d1457610d1361324d565b5b145b610d55576040517f08c379a0000000000000000000000000000000000000000000000000000000008152600401610d4c906138a7565b60405180910390fd5b600180600084815260200190815260200160002060020160006101000a81548160ff0219169083151502179055507f712ae1383f79ac853f8d882153778e0260ef8f03b504e2866e0593e04d2b291f82604051610db29190612b7a565b60405180910390a1610dc78288888888611657565b8192505050949350505050565b6000610e31600160008481526020019081526020016000206000016040518060200160405290816000820160009054906101000a900467ffffffffffffffff1667ffffffffffffffff1667ffffffffffffffff168152505061166b565b67ffffffffffffffff169050919050565b6000610e4c611679565b905090565b600080610eb2610eaa7f150214d74d59b7d1e90c73fc22ef3d991dd0a76b046543d4d80ab92d2a50328f8989604051602001610e8f93929190613dc1565b60405160208183030381529060405280519060200120611683565b86868661169d565b9050610ecf878288604051806020016040528060008152506116c8565b91505095945050505050565b6000610ee68261181c565b9050919050565b60006005600084815260200190815260200160002060030160008373ffffffffffffffffffffffffffffffffffffffff1673ffffffffffffffffffffffffffffffffffffffff16815260200190815260200160002060009054906101000a900460ff16905092915050565b600080600080600560008681526020019081526020016000209050806000015481600101548260020154935093509350509193909250565b60606040518060400160405280600181526020017f3100000000000000000000000000000000000000000000000000000000000000815250905090565b600080610fd86115ba565b9050610ff5848285604051806020016040528060008152506116c8565b91505092915050565b61100661089d565b73ffffffffffffffffffffffffffffffffffffffff166110246115ba565b73ffffffffffffffffffffffffffffffffffffffff161461107a576040517f08c379a0000000000000000000000000000000000000000000000000000000008152600401611071906137b4565b60405180910390fd5b61108381611944565b50565b6000806110916115ba565b90506110e386828787878080601f016020809104026020016040519081016040528093929190818152602001838380828437600081840152601f19601f820116905080830192505050505050506116c8565b915050949350505050565b60006110fc85858585611989565b9050949350505050565b60006064905090565b6000600654905090565b61112161089d565b73ffffffffffffffffffffffffffffffffffffffff1661113f6115ba565b73ffffffffffffffffffffffffffffffffffffffff1614611195576040517f08c379a000000000000000000000000000000000000000000000000000000000815260040161118c906137b4565b60405180910390fd5b61119e81611c89565b50565b600080600760009054906101000a900473ffffffffffffffffffffffffffffffffffffffff1673ffffffffffffffffffffffffffffffffffffffff1663d45c443560086000868152602001908152602001600020546040518263ffffffff1660e01b81526004016112129190613693565b602060405180830381865afa15801561122f573d6000803e3d6000fd5b505050506040513d601f19601f8201168201806040525081019061125391906138dc565b9050600181146112635780611266565b60005b915050919050565b6000611278611d28565b905090565b60006112da600160008481526020019081526020016000206001016040518060200160405290816000820160009054906101000a900467ffffffffffffffff1667ffffffffffffffff1667ffffffffffffffff168152505061166b565b67ffffffffffffffff169050919050565b6000848484846040516020016113049493929190613df8565b6040516020818303038152906040528051906020012060001c9050949350505050565b6000600760009054906101000a900473ffffffffffffffffffffffffffffffffffffffff16905090565b60606040518060400160405280602081526020017f737570706f72743d627261766f2671756f72756d3d666f722c6162737461696e815250905090565b7f150214d74d59b7d1e90c73fc22ef3d991dd0a76b046543d4d80ab92d2a50328f81565b6113ba61089d565b73ffffffffffffffffffffffffffffffffffffffff166113d86115ba565b73ffffffffffffffffffffffffffffffffffffffff161461142e576040517f08c379a0000000000000000000000000000000000000000000000000000000008152600401611425906137b4565b60405180910390fd5b61143781611d32565b50565b60006114468383611dba565b905092915050565b61145661089d565b73ffffffffffffffffffffffffffffffffffffffff166114746115ba565b73ffffffffffffffffffffffffffffffffffffffff16146114ca576040517f08c379a00000000000000000000000000000000000000000000000000000000081526004016114c1906137b4565b60405180910390fd5b6114d381611e60565b50565b60006114e182611ea5565b9050919050565b7f000000000000000000000000000000000000000000000000000000000000000081565b6000600760009054906101000a900473ffffffffffffffffffffffffffffffffffffffff16905090565b60007f6e665ced000000000000000000000000000000000000000000000000000000007bffffffffffffffffffffffffffffffffffffffffffffffffffffffff1916827bffffffffffffffffffffffffffffffffffffffffffffffffffffffff191614806115a957506115a882611f6c565b5b9050919050565b6000600354905090565b600033905090565b6115ca611106565b81111561160c576040517f08c379a000000000000000000000000000000000000000000000000000000000815260040161160390613eea565b60405180910390fd5b60006006549050816006819055507f0553476bf02ef2726e8ce5ced78d63e26e602e4a2257b1f559418e24b4633997818360405161164b929190613d89565b60405180910390a15050565b6116648585858585611fe6565b5050505050565b600081600001519050919050565b6000600254905090565b6000611696611690612084565b8361219e565b9050919050565b60008060006116ae878787876121d1565b915091506116bb816122de565b8192505050949350505050565b600080600160008781526020019081526020016000209050600160078111156116f4576116f361324d565b5b6116fd87610edb565b600781111561170f5761170e61324d565b5b1461174f576040517f08c379a000000000000000000000000000000000000000000000000000000000815260040161174690613f7c565b60405180910390fd5b60006117ad8661179e846000016040518060200160405290816000820160009054906101000a900467ffffffffffffffff1667ffffffffffffffff1667ffffffffffffffff168152505061166b565b67ffffffffffffffff1661143a565b90506117bb878787846124b3565b8573ffffffffffffffffffffffffffffffffffffffff167fb8e138887d0aa13bab447e82de9d5c1777041ecd21ca36ba824ff1e6c07ddda4888784886040516118079493929190613f9c565b60405180910390a28092505050949350505050565b600080611828836126b9565b90506004600781111561183e5761183d61324d565b5b8160078111156118515761185061324d565b5b1461185f578091505061193f565b6000600860008581526020019081526020016000205490506000801b81141561188c57819250505061193f565b600760009054906101000a900473ffffffffffffffffffffffffffffffffffffffff1673ffffffffffffffffffffffffffffffffffffffff16632ab0f529826040518263ffffffff1660e01b81526004016118e79190613693565b602060405180830381865afa158015611904573d6000803e3d6000fd5b505050506040513d601f19601f820116820180604052508101906119289190614014565b156119385760079250505061193f565b6005925050505b919050565b7fc565b045403dc03c2eea82b81a0465edad9e2e7fc4d97e11421c209da93d7a9360025482604051611977929190613d89565b60405180910390a18060028190555050565b600061199361126e565b6119a9336001436119a49190614041565b61143a565b10156119ea576040517f08c379a00000000000000000000000000000000000000000000000000000000081526004016119e19061410d565b60405180910390fd5b60006119ff86868686805190602001206112eb565b90508451865114611a45576040517f08c379a0000000000000000000000000000000000000000000000000000000008152600401611a3c9061419f565b60405180910390fd5b8351865114611a89576040517f08c379a0000000000000000000000000000000000000000000000000000000008152600401611a809061419f565b60405180910390fd5b6000865111611acd576040517f08c379a0000000000000000000000000000000000000000000000000000000008152600401611ac49061420b565b60405180910390fd5b6000600160008381526020019081526020016000209050611b2d816000016040518060200160405290816000820160009054906101000a900467ffffffffffffffff1667ffffffffffffffff1667ffffffffffffffff1681525050612896565b611b6c576040517f08c379a0000000000000000000000000000000000000000000000000000000008152600401611b639061429d565b60405180910390fd5b6000611b7e611b79610e42565b6128b0565b611b87436128b0565b611b9191906142d1565b90506000611ba5611ba06108be565b6128b0565b82611bb091906142d1565b9050611bc8828460000161290790919063ffffffff16565b611bde818460010161290790919063ffffffff16565b7f7d84a6263ae0d98d3329bd7b46bb4e8d6f98cd35a7adb45c274c8b7fd5ebd5e084611c086115ba565b8b8b8d5167ffffffffffffffff811115611c2557611c24612cae565b5b604051908082528060200260200182016040528015611c5857816020015b6060815260200190600190039081611c435790505b508c88888e604051611c729998979695949392919061444c565b60405180910390a183945050505050949350505050565b7f08f74ea46ef7894f65eabfb5e6e695de773a000b47c529ab559178069b226401600760009054906101000a900473ffffffffffffffffffffffffffffffffffffffff1682604051611cdc9291906144fc565b60405180910390a180600760006101000a81548173ffffffffffffffffffffffffffffffffffffffff021916908373ffffffffffffffffffffffffffffffffffffffff16021790555050565b6000600454905090565b60008111611d75576040517f08c379a0000000000000000000000000000000000000000000000000000000008152600401611d6c90614597565b60405180910390fd5b7f7e3f7f0708a84de9203036abaa450dccc85ad5ff52f78c170f3edb55cf5e882860035482604051611da8929190613d89565b60405180910390a18060038190555050565b60007f000000000000000000000000000000000000000000000000000000000000000073ffffffffffffffffffffffffffffffffffffffff16633a46b1a884846040518363ffffffff1660e01b8152600401611e179291906145b7565b602060405180830381865afa158015611e34573d6000803e3d6000fd5b505050506040513d601f19601f82011682018060405250810190611e5891906138dc565b905092915050565b7fccb45da8d5717e6c4544694297c4ba5cf151d455c9bb0ed4fc7a38411bc0546160045482604051611e93929190613d89565b60405180910390a18060048190555050565b6000611eaf611106565b611eb761110f565b7f000000000000000000000000000000000000000000000000000000000000000073ffffffffffffffffffffffffffffffffffffffff16638e539e8c856040518263ffffffff1660e01b8152600401611f109190612b7a565b602060405180830381865afa158015611f2d573d6000803e3d6000fd5b505050506040513d601f19601f82011682018060405250810190611f5191906138dc565b611f5b91906145e0565b611f659190614669565b9050919050565b60007fbf26d897000000000000000000000000000000000000000000000000000000007bffffffffffffffffffffffffffffffffffffffffffffffffffffffff1916827bffffffffffffffffffffffffffffffffffffffffffffffffffffffff19161480611fdf5750611fde82612936565b5b9050919050565b600760009054906101000a900473ffffffffffffffffffffffffffffffffffffffff1673ffffffffffffffffffffffffffffffffffffffff1663e38335e5348686866000876040518763ffffffff1660e01b815260040161204b959493929190613be4565b6000604051808303818588803b15801561206457600080fd5b505af1158015612078573d6000803e3d6000fd5b50505050505050505050565b60007f000000000000000000000000000000000000000000000000000000000000000073ffffffffffffffffffffffffffffffffffffffff163073ffffffffffffffffffffffffffffffffffffffff1614801561210057507f000000000000000000000000000000000000000000000000000000000000000046145b1561212d577f0000000000000000000000000000000000000000000000000000000000000000905061219b565b6121987f00000000000000000000000000000000000000000000000000000000000000007f00000000000000000000000000000000000000000000000000000000000000007f00000000000000000000000000000000000000000000000000000000000000006129a0565b90505b90565b600082826040516020016121b3929190614712565b60405160208183030381529060405280519060200120905092915050565b6000807f7fffffffffffffffffffffffffffffff5d576e7357a4501ddfe92f46681b20a08360001c111561220c5760006003915091506122d5565b601b8560ff16141580156122245750601c8560ff1614155b156122365760006004915091506122d5565b60006001878787876040516000815260200160405260405161225b9493929190614749565b6020604051602081039080840390855afa15801561227d573d6000803e3d6000fd5b505050602060405103519050600073ffffffffffffffffffffffffffffffffffffffff168173ffffffffffffffffffffffffffffffffffffffff1614156122cc576000600192509250506122d5565b80600092509250505b94509492505050565b600060048111156122f2576122f161324d565b5b8160048111156123055761230461324d565b5b1415612310576124b0565b600160048111156123245761232361324d565b5b8160048111156123375761233661324d565b5b1415612378576040517f08c379a000000000000000000000000000000000000000000000000000000000815260040161236f906147da565b60405180910390fd5b6002600481111561238c5761238b61324d565b5b81600481111561239f5761239e61324d565b5b14156123e0576040517f08c379a00000000000000000000000000000000000000000000000000000000081526004016123d790614846565b60405180910390fd5b600360048111156123f4576123f361324d565b5b8160048111156124075761240661324d565b5b1415612448576040517f08c379a000000000000000000000000000000000000000000000000000000000815260040161243f906148d8565b60405180910390fd5b60048081111561245b5761245a61324d565b5b81600481111561246e5761246d61324d565b5b14156124af576040517f08c379a00000000000000000000000000000000000000000000000000000000081526004016124a69061496a565b60405180910390fd5b5b50565b60006005600086815260200190815260200160002090508060030160008573ffffffffffffffffffffffffffffffffffffffff1673ffffffffffffffffffffffffffffffffffffffff16815260200190815260200160002060009054906101000a900460ff1615612559576040517f08c379a0000000000000000000000000000000000000000000000000000000008152600401612550906149fc565b60405180910390fd5b60018160030160008673ffffffffffffffffffffffffffffffffffffffff1673ffffffffffffffffffffffffffffffffffffffff16815260200190815260200160002060006101000a81548160ff021916908315150217905550600060028111156125c7576125c661324d565b5b60ff168360ff1614156125f457818160000160008282546125e89190613d33565b925050819055506126b2565b600160028111156126085761260761324d565b5b60ff168360ff16141561263557818160010160008282546126299190613d33565b925050819055506126b1565b6002808111156126485761264761324d565b5b60ff168360ff16141561267557818160020160008282546126699190613d33565b925050819055506126b0565b6040517f08c379a00000000000000000000000000000000000000000000000000000000081526004016126a790614a8e565b60405180910390fd5b5b5b5050505050565b60008060016000848152602001908152602001600020604051806080016040529081600082016040518060200160405290816000820160009054906101000a900467ffffffffffffffff1667ffffffffffffffff1667ffffffffffffffff16815250508152602001600182016040518060200160405290816000820160009054906101000a900467ffffffffffffffff1667ffffffffffffffff1667ffffffffffffffff168152505081526020016002820160009054906101000a900460ff161515151581526020016002820160019054906101000a900460ff16151515158152505090508060400151156127b2576007915050612891565b8060600151156127c6576002915050612891565b436127d4826000015161166b565b67ffffffffffffffff16106127ed576000915050612891565b436127fb826020015161166b565b67ffffffffffffffff1610612814576001915050612891565b61282181602001516129da565b156128565761282f83612a06565b8015612840575061283f83612a4d565b5b61284b57600361284e565b60045b915050612891565b6040517f08c379a000000000000000000000000000000000000000000000000000000000815260040161288890614afa565b60405180910390fd5b919050565b600080826000015167ffffffffffffffff16149050919050565b600067ffffffffffffffff80168211156128ff576040517f08c379a00000000000000000000000000000000000000000000000000000000081526004016128f690614b8c565b60405180910390fd5b819050919050565b808260000160006101000a81548167ffffffffffffffff021916908367ffffffffffffffff1602179055505050565b60007f01ffc9a7000000000000000000000000000000000000000000000000000000007bffffffffffffffffffffffffffffffffffffffffffffffffffffffff1916827bffffffffffffffffffffffffffffffffffffffffffffffffffffffff1916149050919050565b600083838346306040516020016129bb959493929190614bac565b6040516020818303038152906040528051906020012090509392505050565b60006129e582612a78565b80156129ff575043826000015167ffffffffffffffff1611155b9050919050565b60008060056000848152602001908152602001600020905080600201548160010154612a329190613d33565b612a43612a3e85610dd4565b6114d6565b1115915050919050565b6000806005600084815260200190815260200160002090508060000154816001015411915050919050565b600080826000015167ffffffffffffffff16119050919050565b6000604051905090565b600080fd5b600080fd5b60007fffffffff0000000000000000000000000000000000000000000000000000000082169050919050565b612adb81612aa6565b8114612ae657600080fd5b50565b600081359050612af881612ad2565b92915050565b600060208284031215612b1457612b13612a9c565b5b6000612b2284828501612ae9565b91505092915050565b60008115159050919050565b612b4081612b2b565b82525050565b6000602082019050612b5b6000830184612b37565b92915050565b6000819050919050565b612b7481612b61565b82525050565b6000602082019050612b8f6000830184612b6b565b92915050565b612b9e81612b61565b8114612ba957600080fd5b50565b600081359050612bbb81612b95565b92915050565b600060208284031215612bd757612bd6612a9c565b5b6000612be584828501612bac565b91505092915050565b600081519050919050565b600082825260208201905092915050565b60005b83811015612c28578082015181840152602081019050612c0d565b83811115612c37576000848401525b50505050565b6000601f19601f8301169050919050565b6000612c5982612bee565b612c638185612bf9565b9350612c73818560208601612c0a565b612c7c81612c3d565b840191505092915050565b60006020820190508181036000830152612ca18184612c4e565b905092915050565b600080fd5b7f4e487b7100000000000000000000000000000000000000000000000000000000600052604160045260246000fd5b612ce682612c3d565b810181811067ffffffffffffffff82111715612d0557612d04612cae565b5b80604052505050565b6000612d18612a92565b9050612d248282612cdd565b919050565b600067ffffffffffffffff821115612d4457612d43612cae565b5b602082029050602081019050919050565b600080fd5b600073ffffffffffffffffffffffffffffffffffffffff82169050919050565b6000612d8582612d5a565b9050919050565b612d9581612d7a565b8114612da057600080fd5b50565b600081359050612db281612d8c565b92915050565b6000612dcb612dc684612d29565b612d0e565b90508083825260208201905060208402830185811115612dee57612ded612d55565b5b835b81811015612e175780612e038882612da3565b845260208401935050602081019050612df0565b5050509392505050565b600082601f830112612e3657612e35612ca9565b5b8135612e46848260208601612db8565b91505092915050565b600067ffffffffffffffff821115612e6a57612e69612cae565b5b602082029050602081019050919050565b6000612e8e612e8984612e4f565b612d0e565b90508083825260208201905060208402830185811115612eb157612eb0612d55565b5b835b81811015612eda5780612ec68882612bac565b845260208401935050602081019050612eb3565b5050509392505050565b600082601f830112612ef957612ef8612ca9565b5b8135612f09848260208601612e7b565b91505092915050565b600067ffffffffffffffff821115612f2d57612f2c612cae565b5b602082029050602081019050919050565b600080fd5b600067ffffffffffffffff821115612f5e57612f5d612cae565b5b612f6782612c3d565b9050602081019050919050565b82818337600083830152505050565b6000612f96612f9184612f43565b612d0e565b905082815260208101848484011115612fb257612fb1612f3e565b5b612fbd848285612f74565b509392505050565b600082601f830112612fda57612fd9612ca9565b5b8135612fea848260208601612f83565b91505092915050565b600061300661300184612f12565b612d0e565b9050808382526020820190506020840283018581111561302957613028612d55565b5b835b8181101561307057803567ffffffffffffffff81111561304e5761304d612ca9565b5b80860161305b8982612fc5565b8552602085019450505060208101905061302b565b5050509392505050565b600082601f83011261308f5761308e612ca9565b5b813561309f848260208601612ff3565b91505092915050565b6000819050919050565b6130bb816130a8565b81146130c657600080fd5b50565b6000813590506130d8816130b2565b92915050565b600080600080608085870312156130f8576130f7612a9c565b5b600085013567ffffffffffffffff81111561311657613115612aa1565b5b61312287828801612e21565b945050602085013567ffffffffffffffff81111561314357613142612aa1565b5b61314f87828801612ee4565b935050604085013567ffffffffffffffff8111156131705761316f612aa1565b5b61317c8782880161307a565b925050606061318d878288016130c9565b91505092959194509250565b600060ff82169050919050565b6131af81613199565b81146131ba57600080fd5b50565b6000813590506131cc816131a6565b92915050565b600080600080600060a086880312156131ee576131ed612a9c565b5b60006131fc88828901612bac565b955050602061320d888289016131bd565b945050604061321e888289016131bd565b935050606061322f888289016130c9565b9250506080613240888289016130c9565b9150509295509295909350565b7f4e487b7100000000000000000000000000000000000000000000000000000000600052602160045260246000fd5b6008811061328d5761328c61324d565b5b50565b600081905061329e8261327c565b919050565b60006132ae82613290565b9050919050565b6132be816132a3565b82525050565b60006020820190506132d960008301846132b5565b92915050565b600080604083850312156132f6576132f5612a9c565b5b600061330485828601612bac565b925050602061331585828601612da3565b9150509250929050565b60006060820190506133346000830186612b6b565b6133416020830185612b6b565b61334e6040830184612b6b565b949350505050565b6000806040838503121561336d5761336c612a9c565b5b600061337b85828601612bac565b925050602061338c858286016131bd565b9150509250929050565b600080fd5b60008083601f8401126133b1576133b0612ca9565b5b8235905067ffffffffffffffff8111156133ce576133cd613396565b5b6020830191508360018202830111156133ea576133e9612d55565b5b9250929050565b6000806000806060858703121561340b5761340a612a9c565b5b600061341987828801612bac565b945050602061342a878288016131bd565b935050604085013567ffffffffffffffff81111561344b5761344a612aa1565b5b6134578782880161339b565b925092505092959194509250565b600067ffffffffffffffff8211156134805761347f612cae565b5b61348982612c3d565b9050602081019050919050565b60006134a96134a484613465565b612d0e565b9050828152602081018484840111156134c5576134c4612f3e565b5b6134d0848285612f74565b509392505050565b600082601f8301126134ed576134ec612ca9565b5b81356134fd848260208601613496565b91505092915050565b600080600080608085870312156135205761351f612a9c565b5b600085013567ffffffffffffffff81111561353e5761353d612aa1565b5b61354a87828801612e21565b945050602085013567ffffffffffffffff81111561356b5761356a612aa1565b5b61357787828801612ee4565b935050604085013567ffffffffffffffff81111561359857613597612aa1565b5b6135a48782880161307a565b925050606085013567ffffffffffffffff8111156135c5576135c4612aa1565b5b6135d1878288016134d8565b91505092959194509250565b60006135e882612d5a565b9050919050565b60006135fa826135dd565b9050919050565b61360a816135ef565b811461361557600080fd5b50565b60008135905061362781613601565b92915050565b60006020828403121561364357613642612a9c565b5b600061365184828501613618565b91505092915050565b61366381612d7a565b82525050565b600060208201905061367e600083018461365a565b92915050565b61368d816130a8565b82525050565b60006020820190506136a86000830184613684565b92915050565b600080604083850312156136c5576136c4612a9c565b5b60006136d385828601612da3565b92505060206136e485828601612bac565b9150509250929050565b6000819050919050565b600061371361370e61370984612d5a565b6136ee565b612d5a565b9050919050565b6000613725826136f8565b9050919050565b60006137378261371a565b9050919050565b6137478161372c565b82525050565b6000602082019050613762600083018461373e565b92915050565b7f476f7665726e6f723a206f6e6c79476f7665726e616e63650000000000000000600082015250565b600061379e601883612bf9565b91506137a982613768565b602082019050919050565b600060208201905081810360008301526137cd81613791565b9050919050565b7f4e487b7100000000000000000000000000000000000000000000000000000000600052602260045260246000fd5b6000600282049050600182168061381b57607f821691505b6020821081141561382f5761382e6137d4565b5b50919050565b7f476f7665726e6f723a2070726f706f73616c206e6f742073756363657373667560008201527f6c00000000000000000000000000000000000000000000000000000000000000602082015250565b6000613891602183612bf9565b915061389c82613835565b604082019050919050565b600060208201905081810360008301526138c081613884565b9050919050565b6000815190506138d681612b95565b92915050565b6000602082840312156138f2576138f1612a9c565b5b6000613900848285016138c7565b91505092915050565b600081519050919050565b600082825260208201905092915050565b6000819050602082019050919050565b61393e81612d7a565b82525050565b60006139508383613935565b60208301905092915050565b6000602082019050919050565b600061397482613909565b61397e8185613914565b935061398983613925565b8060005b838110156139ba5781516139a18882613944565b97506139ac8361395c565b92505060018101905061398d565b5085935050505092915050565b600081519050919050565b600082825260208201905092915050565b6000819050602082019050919050565b6139fc81612b61565b82525050565b6000613a0e83836139f3565b60208301905092915050565b6000602082019050919050565b6000613a32826139c7565b613a3c81856139d2565b9350613a47836139e3565b8060005b83811015613a78578151613a5f8882613a02565b9750613a6a83613a1a565b925050600181019050613a4b565b5085935050505092915050565b600081519050919050565b600082825260208201905092915050565b6000819050602082019050919050565b600081519050919050565b600082825260208201905092915050565b6000613ad882613ab1565b613ae28185613abc565b9350613af2818560208601612c0a565b613afb81612c3d565b840191505092915050565b6000613b128383613acd565b905092915050565b6000602082019050919050565b6000613b3282613a85565b613b3c8185613a90565b935083602082028501613b4e85613aa1565b8060005b85811015613b8a5784840389528151613b6b8582613b06565b9450613b7683613b1a565b925060208a01995050600181019050613b52565b50829750879550505050505092915050565b6000819050919050565b60008160001b9050919050565b6000613bce613bc9613bc484613b9c565b613ba6565b6130a8565b9050919050565b613bde81613bb3565b82525050565b600060a0820190508181036000830152613bfe8188613969565b90508181036020830152613c128187613a27565b90508181036040830152613c268186613b27565b9050613c356060830185613bd5565b613c426080830184613684565b9695505050505050565b600081519050613c5b816130b2565b92915050565b600060208284031215613c7757613c76612a9c565b5b6000613c8584828501613c4c565b91505092915050565b600060c0820190508181036000830152613ca88189613969565b90508181036020830152613cbc8188613a27565b90508181036040830152613cd08187613b27565b9050613cdf6060830186613bd5565b613cec6080830185613684565b613cf960a0830184612b6b565b979650505050505050565b7f4e487b7100000000000000000000000000000000000000000000000000000000600052601160045260246000fd5b6000613d3e82612b61565b9150613d4983612b61565b9250827fffffffffffffffffffffffffffffffffffffffffffffffffffffffffffffffff03821115613d7e57613d7d613d04565b5b828201905092915050565b6000604082019050613d9e6000830185612b6b565b613dab6020830184612b6b565b9392505050565b613dbb81613199565b82525050565b6000606082019050613dd66000830186613684565b613de36020830185612b6b565b613df06040830184613db2565b949350505050565b60006080820190508181036000830152613e128187613969565b90508181036020830152613e268186613a27565b90508181036040830152613e3a8185613b27565b9050613e496060830184613684565b95945050505050565b7f476f7665726e6f72566f74657351756f72756d4672616374696f6e3a2071756f60008201527f72756d4e756d657261746f72206f7665722071756f72756d44656e6f6d696e6160208201527f746f720000000000000000000000000000000000000000000000000000000000604082015250565b6000613ed4604383612bf9565b9150613edf82613e52565b606082019050919050565b60006020820190508181036000830152613f0381613ec7565b9050919050565b7f476f7665726e6f723a20766f7465206e6f742063757272656e746c792061637460008201527f6976650000000000000000000000000000000000000000000000000000000000602082015250565b6000613f66602383612bf9565b9150613f7182613f0a565b604082019050919050565b60006020820190508181036000830152613f9581613f59565b9050919050565b6000608082019050613fb16000830187612b6b565b613fbe6020830186613db2565b613fcb6040830185612b6b565b8181036060830152613fdd8184612c4e565b905095945050505050565b613ff181612b2b565b8114613ffc57600080fd5b50565b60008151905061400e81613fe8565b92915050565b60006020828403121561402a57614029612a9c565b5b600061403884828501613fff565b91505092915050565b600061404c82612b61565b915061405783612b61565b92508282101561406a57614069613d04565b5b828203905092915050565b7f476f7665726e6f72436f6d7061746962696c697479427261766f3a2070726f7060008201527f6f73657220766f7465732062656c6f772070726f706f73616c2074687265736860208201527f6f6c640000000000000000000000000000000000000000000000000000000000604082015250565b60006140f7604383612bf9565b915061410282614075565b606082019050919050565b60006020820190508181036000830152614126816140ea565b9050919050565b7f476f7665726e6f723a20696e76616c69642070726f706f73616c206c656e677460008201527f6800000000000000000000000000000000000000000000000000000000000000602082015250565b6000614189602183612bf9565b91506141948261412d565b604082019050919050565b600060208201905081810360008301526141b88161417c565b9050919050565b7f476f7665726e6f723a20656d7074792070726f706f73616c0000000000000000600082015250565b60006141f5601883612bf9565b9150614200826141bf565b602082019050919050565b60006020820190508181036000830152614224816141e8565b9050919050565b7f476f7665726e6f723a2070726f706f73616c20616c726561647920657869737460008201527f7300000000000000000000000000000000000000000000000000000000000000602082015250565b6000614287602183612bf9565b91506142928261422b565b604082019050919050565b600060208201905081810360008301526142b68161427a565b9050919050565b600067ffffffffffffffff82169050919050565b60006142dc826142bd565b91506142e7836142bd565b92508267ffffffffffffffff0382111561430457614303613d04565b5b828201905092915050565b600081519050919050565b600082825260208201905092915050565b6000819050602082019050919050565b600082825260208201905092915050565b600061435782612bee565b614361818561433b565b9350614371818560208601612c0a565b61437a81612c3d565b840191505092915050565b6000614391838361434c565b905092915050565b6000602082019050919050565b60006143b18261430f565b6143bb818561431a565b9350836020820285016143cd8561432b565b8060005b8581101561440957848403895281516143ea8582614385565b94506143f583614399565b925060208a019950506001810190506143d1565b50829750879550505050505092915050565b600061443661443161442c846142bd565b6136ee565b612b61565b9050919050565b6144468161441b565b82525050565b600061012082019050614462600083018c612b6b565b61446f602083018b61365a565b8181036040830152614481818a613969565b905081810360608301526144958189613a27565b905081810360808301526144a981886143a6565b905081810360a08301526144bd8187613b27565b90506144cc60c083018661443d565b6144d960e083018561443d565b8181036101008301526144ec8184612c4e565b90509a9950505050505050505050565b6000604082019050614511600083018561365a565b61451e602083018461365a565b9392505050565b7f476f7665726e6f7253657474696e67733a20766f74696e6720706572696f642060008201527f746f6f206c6f7700000000000000000000000000000000000000000000000000602082015250565b6000614581602783612bf9565b915061458c82614525565b604082019050919050565b600060208201905081810360008301526145b081614574565b9050919050565b60006040820190506145cc600083018561365a565b6145d96020830184612b6b565b9392505050565b60006145eb82612b61565b91506145f683612b61565b9250817fffffffffffffffffffffffffffffffffffffffffffffffffffffffffffffffff048311821515161561462f5761462e613d04565b5b828202905092915050565b7f4e487b7100000000000000000000000000000000000000000000000000000000600052601260045260246000fd5b600061467482612b61565b915061467f83612b61565b92508261468f5761468e61463a565b5b828204905092915050565b600081905092915050565b7f1901000000000000000000000000000000000000000000000000000000000000600082015250565b60006146db60028361469a565b91506146e6826146a5565b600282019050919050565b6000819050919050565b61470c614707826130a8565b6146f1565b82525050565b600061471d826146ce565b915061472982856146fb565b60208201915061473982846146fb565b6020820191508190509392505050565b600060808201905061475e6000830187613684565b61476b6020830186613db2565b6147786040830185613684565b6147856060830184613684565b95945050505050565b7f45434453413a20696e76616c6964207369676e61747572650000000000000000600082015250565b60006147c4601883612bf9565b91506147cf8261478e565b602082019050919050565b600060208201905081810360008301526147f3816147b7565b9050919050565b7f45434453413a20696e76616c6964207369676e6174757265206c656e67746800600082015250565b6000614830601f83612bf9565b915061483b826147fa565b602082019050919050565b6000602082019050818103600083015261485f81614823565b9050919050565b7f45434453413a20696e76616c6964207369676e6174757265202773272076616c60008201527f7565000000000000000000000000000000000000000000000000000000000000602082015250565b60006148c2602283612bf9565b91506148cd82614866565b604082019050919050565b600060208201905081810360008301526148f1816148b5565b9050919050565b7f45434453413a20696e76616c6964207369676e6174757265202776272076616c60008201527f7565000000000000000000000000000000000000000000000000000000000000602082015250565b6000614954602283612bf9565b915061495f826148f8565b604082019050919050565b6000602082019050818103600083015261498381614947565b9050919050565b7f476f7665726e6f72566f74696e6753696d706c653a20766f746520616c72656160008201527f6479206361737400000000000000000000000000000000000000000000000000602082015250565b60006149e6602783612bf9565b91506149f18261498a565b604082019050919050565b60006020820190508181036000830152614a15816149d9565b9050919050565b7f476f7665726e6f72566f74696e6753696d706c653a20696e76616c696420766160008201527f6c756520666f7220656e756d20566f7465547970650000000000000000000000602082015250565b6000614a78603583612bf9565b9150614a8382614a1c565b604082019050919050565b60006020820190508181036000830152614aa781614a6b565b9050919050565b7f476f7665726e6f723a20756e6b6e6f776e2070726f706f73616c206964000000600082015250565b6000614ae4601d83612bf9565b9150614aef82614aae565b602082019050919050565b60006020820190508181036000830152614b1381614ad7565b9050919050565b7f53616665436173743a2076616c756520646f65736e27742066697420696e203660008201527f3420626974730000000000000000000000000000000000000000000000000000602082015250565b6000614b76602683612bf9565b9150614b8182614b1a565b604082019050919050565b60006020820190508181036000830152614ba581614b69565b9050919050565b600060a082019050614bc16000830188613684565b614bce6020830187613684565b614bdb6040830186613684565b614be86060830185612b6b565b614bf5608083018461365a565b969550505050505056fea26469706673582212208734934058c334e4b0c4c29cac7777151c37dd2b8b536df2ce62f6e2d1a082fd64736f6c634300080b0033",
  "immutableReferences": {
    "3109": [
      {
        "length": 32,
        "start": 5354
      },
      {
        "length": 32,
        "start": 7614
      },
      {
        "length": 32,
        "start": 7865
      }
    ],
    "6141": [
      {
        "length": 32,
        "start": 8455
      }
    ],
    "6143": [
      {
        "length": 32,
        "start": 8414
      }
    ],
    "6145": [
      {
        "length": 32,
        "start": 8328
      }
    ],
    "6147": [
      {
        "length": 32,
        "start": 8531
      }
    ],
    "6149": [
      {
        "length": 32,
        "start": 8564
      }
    ],
    "6151": [
      {
        "length": 32,
        "start": 8498
      }
    ]
  },
  "source": "// SPDX-License-Identifier: MIT\r\npragma solidity 0.8.11;\r\n\r\nimport \"@openzeppelin/contracts/governance/Governor.sol\";\r\nimport \"@openzeppelin/contracts/governance/extensions/GovernorSettings.sol\";\r\nimport \"@openzeppelin/contracts/governance/extensions/GovernorCountingSimple.sol\";\r\nimport \"@openzeppelin/contracts/governance/extensions/GovernorVotes.sol\";\r\nimport \"@openzeppelin/contracts/governance/extensions/GovernorVotesQuorumFraction.sol\";\r\nimport \"@openzeppelin/contracts/governance/extensions/GovernorTimelockControl.sol\";\r\n\r\n/// @custom:security-contact yugodao@gmail.com\r\ncontract YugoGovernor is Governor, GovernorSettings, GovernorCountingSimple, GovernorVotes, GovernorVotesQuorumFraction, GovernorTimelockControl {\r\n    constructor(ERC20Votes _token, TimelockController _timelock)\r\n        Governor(\"YugoGovernor\")\r\n        GovernorSettings(2 /* 2 block */, 91636 /* 2 week */, 0)\r\n        GovernorVotes(_token)\r\n        GovernorVotesQuorumFraction(4)\r\n        GovernorTimelockControl(_timelock)\r\n    {}\r\n\r\n    // The following functions are overrides required by Solidity.\r\n\r\n    function votingDelay()\r\n        public\r\n        view\r\n        override(IGovernor, GovernorSettings)\r\n        returns (uint256)\r\n    {\r\n        return super.votingDelay();\r\n    }\r\n\r\n    function votingPeriod()\r\n        public\r\n        view\r\n        override(IGovernor, GovernorSettings)\r\n        returns (uint256)\r\n    {\r\n        return super.votingPeriod();\r\n    }\r\n\r\n    function quorum(uint256 blockNumber)\r\n        public\r\n        view\r\n        override(IGovernor, GovernorVotesQuorumFraction)\r\n        returns (uint256)\r\n    {\r\n        return super.quorum(blockNumber);\r\n    }\r\n\r\n    function getVotes(address account, uint256 blockNumber)\r\n        public\r\n        view\r\n        override(IGovernor, GovernorVotes)\r\n        returns (uint256)\r\n    {\r\n        return super.getVotes(account, blockNumber);\r\n    }\r\n\r\n    function state(uint256 proposalId)\r\n        public\r\n        view\r\n        override(Governor, GovernorTimelockControl)\r\n        returns (ProposalState)\r\n    {\r\n        return super.state(proposalId);\r\n    }\r\n\r\n    function propose(address[] memory targets, uint256[] memory values, bytes[] memory calldatas, string memory description)\r\n        public\r\n        override(Governor, IGovernor)\r\n        returns (uint256)\r\n    {\r\n        return super.propose(targets, values, calldatas, description);\r\n    }\r\n\r\n    function proposalThreshold()\r\n        public\r\n        view\r\n        override(Governor, GovernorSettings)\r\n        returns (uint256)\r\n    {\r\n        return super.proposalThreshold();\r\n    }\r\n\r\n    function _execute(uint256 proposalId, address[] memory targets, uint256[] memory values, bytes[] memory calldatas, bytes32 descriptionHash)\r\n        internal\r\n        override(Governor, GovernorTimelockControl)\r\n    {\r\n        super._execute(proposalId, targets, values, calldatas, descriptionHash);\r\n    }\r\n\r\n    function _cancel(address[] memory targets, uint256[] memory values, bytes[] memory calldatas, bytes32 descriptionHash)\r\n        internal\r\n        override(Governor, GovernorTimelockControl)\r\n        returns (uint256)\r\n    {\r\n        return super._cancel(targets, values, calldatas, descriptionHash);\r\n    }\r\n\r\n    function _executor()\r\n        internal\r\n        view\r\n        override(Governor, GovernorTimelockControl)\r\n        returns (address)\r\n    {\r\n        return super._executor();\r\n    }\r\n\r\n    function supportsInterface(bytes4 interfaceId)\r\n        public\r\n        view\r\n        override(Governor, GovernorTimelockControl)\r\n        returns (bool)\r\n    {\r\n        return super.supportsInterface(interfaceId);\r\n    }\r\n}",
  "sourcePath": "F:\\workspace\\alyra\\yugo\\YU-GO\\template\\Truffle\\contracts\\YugoGovernor.sol",
  "compiler": {
    "name": "solc",
    "version": "0.8.11+commit.d7f03943.Emscripten.clang"
  },
  "schemaVersion": "3.4.3",
  "updatedAt": "2022-01-06T02:12:28.547Z",
  "devdoc": {
    "custom:security-contact": "yugodao@gmail.com",
    "kind": "dev",
    "methods": {
      "COUNTING_MODE()": {
        "details": "See {IGovernor-COUNTING_MODE}."
      },
      "castVote(uint256,uint8)": {
        "details": "See {IGovernor-castVote}."
      },
      "castVoteBySig(uint256,uint8,uint8,bytes32,bytes32)": {
        "details": "See {IGovernor-castVoteBySig}."
      },
      "castVoteWithReason(uint256,uint8,string)": {
        "details": "See {IGovernor-castVoteWithReason}."
      },
      "execute(address[],uint256[],bytes[],bytes32)": {
        "details": "See {IGovernor-execute}."
      },
      "hasVoted(uint256,address)": {
        "details": "See {IGovernor-hasVoted}."
      },
      "hashProposal(address[],uint256[],bytes[],bytes32)": {
        "details": "See {IGovernor-hashProposal}. The proposal id is produced by hashing the RLC encoded `targets` array, the `values` array, the `calldatas` array and the descriptionHash (bytes32 which itself is the keccak256 hash of the description string). This proposal id can be produced from the proposal data which is part of the {ProposalCreated} event. It can even be computed in advance, before the proposal is submitted. Note that the chainId and the governor address are not part of the proposal id computation. Consequently, the same proposal (with same operation and same description) will have the same id if submitted on multiple governors accross multiple networks. This also means that in order to execute the same operation twice (on the same governor) the proposer will have to change the description in order to avoid proposal id conflicts."
      },
      "name()": {
        "details": "See {IGovernor-name}."
      },
      "proposalDeadline(uint256)": {
        "details": "See {IGovernor-proposalDeadline}."
      },
      "proposalEta(uint256)": {
        "details": "Public accessor to check the eta of a queued proposal"
      },
      "proposalSnapshot(uint256)": {
        "details": "See {IGovernor-proposalSnapshot}."
      },
      "proposalVotes(uint256)": {
        "details": "Accessor to the internal vote counts."
      },
      "queue(address[],uint256[],bytes[],bytes32)": {
        "details": "Function to queue a proposal to the timelock."
      },
      "setProposalThreshold(uint256)": {
        "details": "Update the proposal threshold. This operation can only be performed through a governance proposal. Emits a {ProposalThresholdSet} event."
      },
      "setVotingDelay(uint256)": {
        "details": "Update the voting delay. This operation can only be performed through a governance proposal. Emits a {VotingDelaySet} event."
      },
      "setVotingPeriod(uint256)": {
        "details": "Update the voting period. This operation can only be performed through a governance proposal. Emits a {VotingPeriodSet} event."
      },
      "timelock()": {
        "details": "Public accessor to check the address of the timelock"
      },
      "updateTimelock(address)": {
        "details": "Public endpoint to update the underlying timelock instance. Restricted to the timelock itself, so updates must be proposed, scheduled and executed using the {Governor} workflow."
      },
      "version()": {
        "details": "See {IGovernor-version}."
      }
    },
    "version": 1
  },
  "userdoc": {
    "kind": "user",
    "methods": {},
    "version": 1
  }
}